:100000000C9465010C9496010C9496010C94960145
:100010000C9496010C9496010C9496010C94960104
:100020000C9496010C9496010C9496010C949601F4
:100030000C9496010C9496010C9496010C949601E4
:100040000C9496010C94140B0C9496010C9496014C
:100050000C9496010C9496010C9496010C94400A11
:100060000C9496010C940A0A0C94E0090C949601E5
:100070000C9496010C9496010C9496010C949601A4
:100080000C94E60A0C9496010C9496010C9496013B
:100090000C9496010C9496010C9496010C94960184
:1000A0000C9496010C9496010C94B80A0C94960149
:1000B0000C9496010C9496010C9496010C948A0A67
:1000C0000C9496010C9496010C9496010C94960154
:1000D0000C9496010C9496010C9496010C94960144
:1000E0000C9496010C94D80D0C940D0F0C942910BF
:1000F0000C9468100C94C0010C94850D0C94490369
:100100000C94F0130C94B4100C94ED010C94450372
:100110000C9486130C94930F0C94570D0C94A3021B
:100120000C942D030C9456020C9457030C94FC0170
:100130000C9410020C94EA0E0C941C030C94190EEF
:100140000C9400110C94EA0F0C9453030C94B2130A
:100150000C9420030C945D0B0C944D140C943703F9
:100160000C94600F0C9418030C9428110C945A0EE4
:100170000C944D030C941E020C94A20E0C9452038A
:100180000C9427030C94D1130C940F140C9431038A
:100190000C9424030C943B030C943F030C944812DE
:1001A0000C9412030C942E1400002100240027004C
:1001B0002A002D0030003300010100000401070176
:1001C0000A0100002200250028002B002E0031002B
:1001D000340002010000050108010B0100002000AD
:1001E0002300260029002C002F003200000100000F
:1001F00003010601090105050505070508080808AA
:10020000020202020A0A08080404040401010101AE
:1002100001010101030303030303030304070707A9
:100220000C0C0C0C0C0C0C0C02020202060606064E
:10023000060606060B0B0B0B0B0B0B0B010210201B
:10024000200808102040102040800201020108040C
:1002500002010102040810204080804020100804A0
:1002600002018004020180402010080402010804F9
:10027000020101020408102040800102040810203D
:10028000408000000A0B02090C0D0E080703040150
:10029000000000000000000000000000000000005E
:1002A000000000000000000000000000000012112B
:1002B000100000000000000000000000000000002E
:1002C00000000000000000005D0B11241FBECFEFF6
:1002D000D1E2DEBFCDBF00E00CBF13E0A0E0B2E092
:1002E000EEEBFBE200E00BBF02C007900D92A43BD7
:1002F000B107D9F725E0A4EBB3E001C01D92A03609
:10030000B207E1F711E0C5E6D1E000E006C02197B1
:100310000109802FFE010E94D515C436D10780E067
:100320000807A9F70E94AF0B0C94DD150C94000090
:10033000EEE6F4E0A089B18982E08C93A485B585CE
:100340001C92A685B7858FEC8C93108EA489B589F5
:1003500086E08C93A289B3898C9180618C93A28969
:10036000B3898C9188608C93A289B3898C918068C1
:100370008C930288F389E02D80818F7D808308959E
:10038000AF92BF92CF92DF92EF92FF920F931F93A3
:10039000CF93DF936C017B018B01040F151FEB01E1
:1003A0005E01AE18BF08C017D10759F06991D60198
:1003B000ED91FC910190F081E02DC6011995892BFA
:1003C00079F7C501DF91CF911F910F91FF90EF90C9
:1003D000DF90CF90BF90AF900895FC01538D448D76
:1003E000252F30E0842F90E0821B930B541710F0E0
:1003F000CF96089501970895FC01918D828D9817ED
:1004000061F0A28DAE0FBF2FB11D5D968C91928DC4
:100410009F5F9F73928F90E008958FEF9FEF0895F5
:10042000FC01918D828D981731F0828DE80FF11DBE
:10043000858D90E008958FEF9FEF0895FC01918DD9
:10044000228D892F90E0805C9F4F821B91098F73D2
:10045000992708958EE694E00E941E0221E0892BE0
:1004600009F420E0822F0895FC01A48DA80FB92F74
:10047000B11DA35ABF4F2C91848D90E001968F73CC
:100480009927848FA689B7892C93A089B1898C91EB
:10049000837080648C93938D848D981306C002883A
:1004A000F389E02D80818F7D80830895EF92FF9204
:1004B0000F931F93CF93DF93EC0181E0888F9B8D87
:1004C0008C8D98131AC0E889F989808185FF15C041
:1004D0009FB7F894EE89FF896083E889F989808164
:1004E0008370806480839FBF81E090E0DF91CF9133
:1004F0001F910F91FF90EF900895F62E0B8D10E055
:100500000F5F1F4F0F731127E02E8C8D8E110CC0C3
:100510000FB607FCFACFE889F989808185FFF5CF0E
:10052000CE010E943402F1CFEB8DEC0FFD2FF11DB7
:10053000E35AFF4FF0829FB7F8940B8FEA89FB894B
:1005400080818062CFCFCF93DF93EC01888D8823A9
:10055000B9F0AA89BB89E889F9898C9185FD03C026
:10056000808186FD0DC00FB607FCF7CF8C9185FF0B
:10057000F2CF808185FFEDCFCE010E943402E9CF1A
:10058000DF91CF91089580E090E0892B29F00E94BF
:100590002A0281110E94000080E090E0892B49F03E
:1005A00080E090E0892B29F00E94000081110E94D8
:1005B000000080E090E0892B49F080E090E0892BFA
:1005C00029F00E94000081110E94000080E090E06C
:1005D000892B49F080E090E0892B29F00E940000EF
:1005E00081110C94000008958150823108F05AC0A6
:1005F000E82FF0E08827E050FD4F8F4F0C94D51581
:1006000020032403120318031C03520327032D03A2
:10061000310337033B033F034503490352034D03B3
:1006200053035703809180008F7780938000089553
:10063000809180008F7DF9CF80918000877FF5CFFA
:1006400084B58F7784BD089584B58F7DFBCF80916D
:10065000B0008F778093B00008958091B0008F7DB7
:10066000F9CF809190008F778093900008958091CA
:1006700090008F7DF9CF80919000877FF5CF80919A
:10068000A0008F778093A00008958091A0008F7DB7
:10069000F9CF8091A000877FF5CF809120018F77DF
:1006A000809320010895809120018F7DF9CF809162
:1006B0002001877FF5CFCF93DF93282F30E0F9011A
:1006C000EE57FD4F8491F901E45CFD4FD491F9019F
:1006D000EA50FE4FC491CC23A1F081110E94F40294
:1006E000EC2FF0E0EE0FFF1FE452FE4FA591B49106
:1006F000EC91ED2381E090E009F480E0DF91CF916F
:10070000089580E090E0FACF1F93CF93DF93282FD6
:1007100030E0F901EE57FD4F8491F901E45CFD4FA3
:10072000D491F901EA50FE4FC491CC23A9F0162FC1
:1007300081110E94F402EC2FF0E0EE0FFF1FEE5348
:10074000FE4FA591B4918FB7F894EC91111108C0A8
:10075000D095DE23DC938FBFDF91CF911F91089559
:10076000DE2BF8CFCF93DF9390E0FC01E45CFD4FEC
:1007700024918A509E4FFC0184918823C9F090E017
:10078000880F991FFC01E855FE4FA591B491FC011B
:10079000EE53FE4FC591D49161110DC09FB7F894EF
:1007A0008C91209582238C938881282328839FBF56
:1007B000DF91CF910895623051F49FB7F8943C9146
:1007C000822F809583238C93E8812E2BEFCF8FB7D8
:1007D000F894EC912E2B2C938FBFEACF3FB7F8946F
:1007E0008091500490915104A0915204B09153040F
:1007F00026B5A89B05C02F3F19F00196A11DB11D7C
:100800003FBFBA2FA92F982F8827BC01CD01620FB7
:10081000711D811D911D42E0660F771F881F991F72
:100820004A95D1F708958F929F92AF92BF92CF923F
:10083000DF92EF92FF924B015C010E94EE036B018D
:100840007C010E94EE036C197D098E099F09683EA8
:10085000734081059105A8F321E0821A9108A1084F
:10086000B10888EEC80E83E0D81EE11CF11C81148B
:100870009104A104B10429F7FF90EF90DF90CF908D
:10088000BF90AF909F908F9008952FB7F89460918C
:100890004C0470914D0480914E0490914F042FBFF1
:1008A0000895CF92DF92EF92FF92CF93DF93EC0106
:1008B000603282E07807CCF5653B710514F064EB9B
:1008C00070E0898128E830E0281B310987FD3395E5
:1008D000220F331F220F331F6901330FEE08FF0869
:1008E0008A8128E532E0281B310987FD3395220FE4
:1008F000331F220F331F032E000C440B550B2C19F2
:100900003D094E095F09DB0177FF02C0B0E0A0E0BE
:100910000E94B21524EB30E040E050E00E948815C0
:10092000C20ED31EE41EF51EB601E881E03370F559
:10093000298188E890E0821B910927FD9395880F13
:10094000991F880F991F681779077CF02A8188E51D
:1009500092E0821B910927FD9395880F991F880FBC
:10096000991F681779070CF4CB010297880F991F1C
:100970004FB7F8942E2F30E0F901EE0FFF1FE20F72
:10098000F31FE554FC4F928381834FBFDF91CF91DA
:10099000FF90EF90DF90CF9008951F93CF93DF9358
:1009A000EC01162F8881803308F04EC061E0812F62
:1009B0000E94B2038881282F30E0F901EE0FFF1F5B
:1009C000E20FF31FE554FC4F1F736081607C612BC5
:1009D000608319821A822CE0622F0E94C915829FBF
:1009E000B001112430E020E0AB01420F531FFA01A7
:1009F000EE0FFF1FE40FF51FE554FC4F908196FDAD
:100A000016C02F5F3F4F2C30310571F7813009F54B
:100A10001092800082E080938100109285001092F5
:100A20008400B19A80916F00826080936F00E881AA
:100A30008E2F90E0FC01EE0FFF1FE80FF91FE55429
:100A4000FC4F8081806480838881DF91CF911F91EA
:100A50000895823061F4109290008093910010927A
:100A600095001092940088BB80937100E0CF833092
:100A700069F41092A00082E08093A1001092A5007A
:100A80001092A40089BB80937200D1CF8111CFCF87
:100A90001092200182E08093210110922501109292
:100AA00024018ABB80937300C2CFAF92BF92CF92D2
:100AB000DF92EF92FF920F931F93CF93DF936B011F
:100AC0007A01EC01CA54DC4F28813CE0389F800158
:100AD000399F100D1124A090BA03B12C27FF1FC01D
:100AE000FB011182108288818F5F88838881980141
:100AF000280F311D87FD3A95F6012A153B051CF498
:100B000088818C30C4F180819181049680349C4925
:100B100008F473C0F60180819181049670C08881C9
:100B20009801280F311D87FD3A952A153B05DCF603
:100B30008881A801480F511D87FD5A95FA01EE0FD3
:100B4000FF1FE40FF51FE554FC4F808186FFCBCFDC
:100B50008881F801E80FF11D87FDFA95CF01EE0FAE
:100B6000FF1FE80FF91FE554FC4F808160E08F7391
:100B70000E948403B8CF808191812881A801420F0F
:100B8000511D27FD5A959A01FA01EE0FFF1FE20F42
:100B9000F31FE554FC4F21813281820F931FF7012F
:100BA0009183808388819801280F311D87FD3A95B4
:100BB000F901EE0FFF1FE20FF31FE554FC4F808198
:100BC00086FF22C08881080F111D87FD1A95F80144
:100BD000EE0FFF1FE00FF11FE554FC4F808161E035
:100BE0008F73DF91CF911F910F91FF90EF90DF9066
:100BF000CF90BF90AF900C94840380E49CE9F70100
:100C0000918380838FEF8883DF91CF911F910F9124
:100C1000FF90EF90DF90CF90BF90AF900895CF936B
:100C2000DF93EC0161E08EE10E94840361E08FE1DB
:100C30000E94840361E080E20E94840361E081E21B
:100C40000E94840360E080E2C130D10541F08FE171
:100C5000C230D10521F08EE1CD2B09F081E2DF9188
:100C6000CF910C948403833509F47DC0D4F5853489
:100C700009F4DFC0FCF4813309F4C9C0813409F4FC
:100C800068C0803309F001C161E086E10E948403FD
:100C900061E087E10E94840361E088E10E948403AF
:100CA00061E089E10E94840361E08AE10E9484039B
:100CB00061E086C08C3409F4C6C0803509F465C093
:100CC000863409F0E2C061E086E10E94840360E0BE
:100CD00087E10E94840360E088E10E94840360E071
:100CE0002BC0893609F457C054F48236C1F08336DC
:100CF00009F4C1C0883509F0C8C060E02BC08F3648
:100D000009F4ABC024F48E3609F461C0089582372B
:100D100009F473C060E0843709F48CC0089560E082
:100D200086E10E94840360E087E10E94840361E021
:100D300088E10E94840361E089E10E94840361E00C
:100D40008AE10E94840361E08BE10E94840361E0F8
:100D50003BC061E086E10E94840361E087E10E947C
:100D6000840361E0B9CF61E086E10E94840360E022
:100D700087E10E94840361E088E10E94840361E0CE
:100D800089E10E94840360E0DBCF61E086E10E949C
:100D9000840361E09DCF60E086E10E94840360E00F
:100DA00087E10E94840360E088E10E94840360E0A0
:100DB00089E10E94840361E08AE10E94840360E08B
:100DC0008BE10E94840360E08CE10C94840360E07A
:100DD00086E10E94840360E087E10E94840361E071
:100DE00088E10E94840360E089E10E94840361E05D
:100DF0008AE10E94840360E0A7CF60E086E10E9460
:100E0000840360E087E10E94840360E0E9CF60E052
:100E100086E10E94840361E087E10E94840361E02F
:100E200088E10E94840360E089E10E94840360E01D
:100E3000C3CF61E086E10E94840360E087E10E9405
:100E4000840360E075CF60E086E10E94840360E087
:100E500087E10E94840360E020CF60E086E10E9489
:100E6000840360E087E10E94840361E088E10E94DE
:100E7000840361E0B9CF60E086E10E94840360E012
:100E800087E10E94840360E0F1CF08950F931F93E0
:100E9000CF93DF9384EB90E0909367048093660494
:100EA00004EB10E0C0916604D09167041C161D0687
:100EB0009CF4B8016C1B7D0B81E595E00E94510408
:100EC00065E070E080E090E00E9413042197D093E9
:100ED0006704C0936604E6CFDF91CF911F910F9115
:100EE00008950F931F93CF93DF931092670410928E
:100EF000660404EB10E0C0916604D0916704C43B23
:100F0000D1059CF4B8016C1B7D0B81E595E00E9436
:100F1000510465E070E080E090E00E9413042196A7
:100F2000D0936704C0936604E6CFDF91CF911F9101
:100F30000F910895CF93DF9384EB90E09093670433
:100F400080936604C0916604D09167041C161D0648
:100F50008CF4BE0184E595E00E94510465E070E0E8
:100F600080E090E00E9413042197D0936704C0931F
:100F70006604E8CFDF91CF910895CF93DF9310926D
:100F8000670410926604C0916604D0916704C43B64
:100F9000D1058CF4BE0184E595E00E94510465E022
:100FA00070E080E090E00E9413042196D0936704E3
:100FB000C0936604E8CFDF91CF910895FC010190C2
:100FC0000020E9F73197AF01481B590BBC018EE6B1
:100FD00094E00C94C001CF93DF930E94DE07EC01F4
:100FE0008EE192E00E94DE078C0F9D1FDF91CF9172
:100FF00008958091B4039091B50381309105B9F0C3
:1010000030F08230910519F1039789F108958091AC
:10101000540490915504009719F0019729F0089510
:1010200081E292E00C94EB0787E392E0FBCF8091A2
:101030005404909155048230910519F0039721F0E2
:1010400008958DE492E0EECF86E692E0EBCF8091BA
:101050005404909155048430910519F0059721F0BE
:10106000089585E892E0DECF8FE992E0DBCF8091B2
:101070005404909155048630910519F0079721F09A
:10108000089580EC92E0CECF8DED92E0CBCF0F9320
:101090001F93CF93DF9380916104813009F455C190
:1010A0008091580490915904845691098438934052
:1010B00020F580916804811120C08AEF92E00E949F
:1010C000EB0780910A0290910B02009709F480C00F
:1010D0008130910581F4209108023091090221307C
:1010E000310509F06EC010920902109208028EE0DC
:1010F00093E00E94EB070E94F907809158049091B9
:101100005904885E9340803D9740B8F487E293E0AD
:101110000E94EB070E94450470936304609362048D
:1011200082E090E090936504809364048091680469
:10113000811105C181E080936804809158049091E9
:101140005904885B9B40803D9740A8F480916804D7
:10115000811111C08CE393E00E94EB0780910A0299
:1011600090910B028130910509F4ECC001969093A7
:101170000B0280930A028091580490915904883898
:10118000934144F080916804811104C080E593E0AC
:101190000E94EB07109260041092610410925704B1
:1011A0001092560410925B0410925A048FEF9FEF36
:1011B0009093010280930002DF91CF911F910F91D4
:1011C0000895909309028093080289E193E091CFFA
:1011D0008091B4039091B5038130910541F190F075
:1011E0008230910509F485C0039709F084CF80917E
:1011F0005404909155048630910509F09AC087E017
:1012000090E008C08091540490915504009739F4FF
:1012100081E090E090935504809354046CCF019743
:1012200009F069CF109255041092540464CF809154
:101230005404909155048230910559F583E090E073
:1012400090935504809354040E9471070E94BD0737
:10125000109267041092660404EB10E0C0916604DB
:10126000D0916704C43BD1050CF045CFB8016C1B8D
:101270007D0B87E595E00E94510465E070E080E019
:1012800090E00E9413042196D0936704C0936604F3
:10129000E5CF039709F02FCF82E090E090935504BB
:1012A000809354040E9446070E949A0784EB90E0C2
:1012B000909367048093660404EB10E0C091660489
:1012C000D09167041C161D060CF015CFB8016C1BDD
:1012D0007D0B87E595E00E94510465E070E080E0B9
:1012E00090E00E9413042197D0936704C093660492
:1012F000E5CF80915404909155048430910559F4C0
:1013000085E090E090935504809354040E94710707
:101310000E94BD07F0CE059709F0EDCE84E090E085
:1013200090935504809354040E9446070E949A07A4
:10133000E2CE079709F0DFCE86E090E06BCF109207
:101340006804FBCE90E080E012CF809168048111A8
:1013500021CF80910A0290910B02892B09F01ACFBC
:101360008091B4039091B5038330910549F41092B4
:10137000B5031092B40310925504109254040BC09C
:1013800001969093B5038093B4038130910571F079
:101390002CF4892B81F30E94F907FCCE8230910551
:1013A00061F00397C1F786E090E002C082E090E030
:1013B0009093550480935404EECF84E090E0F8CFEE
:1013C0001F920F920FB60F9211240BB60F922F930C
:1013D0003F934F935F936F937F938F939F93AF93BD
:1013E000BF93EF93FF938EE694E00E943402FF9147
:1013F000EF91BF91AF919F918F917F916F915F918D
:101400004F913F912F910F900BBE0F900FBE0F90F9
:101410001F9018951F920F920FB60F9211240BB6C2
:101420000F922F938F939F93EF93FF93E0917E04FE
:10143000F0917F048081E0918404F091850482FD25
:101440001DC09081809187048F5F8F7320918804E5
:10145000821741F0E0918704F0E0E259FB4F958F4D
:1014600080938704FF91EF919F918F912F910F901F
:101470000BBE0F900FBE0F901F9018958081F2CF7A
:101480001F920F920FB60F9211242F933F938F93B9
:101490009F93AF93BF9380914C0490914D04A09182
:1014A0004E04B0914F0430914B0423E0230F2D37AD
:1014B00058F50196A11DB11D20934B0480934C0457
:1014C00090934D04A0934E04B0934F048091500428
:1014D00090915104A0915204B09153040196A11D22
:1014E000B11D8093500490935104A0935204B09383
:1014F0005304BF91AF919F918F913F912F910F9086
:101500000FBE0F901F90189526E8230F0296A11D7D
:10151000B11DD2CF1F920F920FB60F9211240BB6AE
:101520000F922F933F934F935F936F937F938F937C
:101530009F93AF93BF93EF93FF9348E251E064E230
:1015400071E090E080E00E945505FF91EF91BF911E
:10155000AF919F918F917F916F915F914F913F914B
:101560002F910F900BBE0F900FBE0F901F901895EC
:101570001F920F920FB60F9211240BB60F922F935A
:101580003F934F935F936F937F938F939F93AF930B
:10159000BF93EF93FF9348EA50E064EA70E083E082
:1015A00090E00E945505FF91EF91BF91AF919F91FF
:1015B0008F917F916F915F914F913F912F910F90FC
:1015C0000BBE0F900FBE0F901F9018951F920F9299
:1015D0000FB60F9211240BB60F922F933F934F9398
:1015E0005F936F937F938F939F93AF93BF93EF938B
:1015F000FF9348E950E064E970E082E090E00E94E7
:101600005505FF91EF91BF91AF919F918F917F9180
:101610006F915F914F913F912F910F900BBE0F9063
:101620000FBE0F901F9018951F920F920FB60F923A
:1016300011240BB60F922F933F934F935F936F93A9
:101640007F938F939F93AF93BF93EF93FF9348E85C
:1016500050E064E870E081E090E00E945505FF9161
:10166000EF91BF91AF919F918F917F916F915F911A
:101670004F913F912F910F900BBE0F900FBE0F9087
:101680001F901895FC019091BA03903398F481E073
:10169000890F8093BA039083892F90E0FC01EE0FAD
:1016A000FF1FE80FF91FE554FC4F88EB9BE0928386
:1016B000818308958FEF80830895EEE6F4E013822E
:1016C000128288EE93E0A0E0B0E084839583A68345
:1016D000B78380E192E09183808385EC90E09587E9
:1016E000848784EC90E09787868780EC90E0918BEC
:1016F000808B81EC90E0938B828B82EC90E0958BD9
:10170000848B86EC90E0978B868B118E128E138ED5
:10171000148EEBE0F5E01682178210861186128691
:1017200013861486158616861786108A118A128AE1
:10173000138A148A158A8DE595E00E94420B8AE58A
:1017400095E00E94420B87E595E00E94420B84E5FC
:1017500095E00E94420B81E595E00C94420BCF93FB
:10176000DF93CDB7DEB7A1970FB6F894DEBF0FBEFB
:10177000CDBF789484B5826084BD84B5816084BD1A
:1017800085B5826085BD85B5816085BD80916E001F
:10179000816080936E001092810080918100826050
:1017A000809381008091810081608093810080918D
:1017B00080008160809380008091B100846080937C
:1017C000B1008091B00081608093B0008091910061
:1017D000826080939100809191008160809391005C
:1017E000809190008160809390008091A100826040
:1017F0008093A1008091A10081608093A1008091DD
:10180000A00081608093A00080912101826080937C
:10181000210180912101816080932101809120012B
:1018200081608093200180917A00846080937A00A7
:1018300080917A00826080937A0080917A00816042
:1018400080937A0080917A00806880937A00109269
:10185000C10010924D0510924E0510924F05109246
:10186000500510920D0510920E0510920F05109262
:1018700010050E9445046B017C014B015C0188EB63
:10188000880E8BE0981EA11CB11C0E9445046C15AB
:101890007D058E059F0528F086169706A806B906D1
:1018A000A0F768EE73E080E090E00E9413040E94CD
:1018B00098010E94450460930D0570930E05809376
:1018C0000F059093100580E693E00E94DE070E94CA
:1018D00045046B017C014B015C019AE0890E911C6F
:1018E000A11CB11C0E9445046C157D058E059F0549
:1018F00028F086169706A806B906A0F781E080931F
:1019000021050E94450460930D0570930E05809398
:101910000F059093100581E793E00E94DE070E9477
:10192000980188E793E00E94EB0763E070E08DE5A3
:1019300095E00E94CD0464E070E08AE595E00E94A5
:10194000CD0465E070E087E595E00E94CD0466E097
:1019500070E084E595E00E94CD0467E070E081E5E9
:1019600095E00E94CD0470E060E08DE595E00E9476
:10197000510470E060E08AE595E00E94510464EB58
:1019800070E087E595E00E94510470E060E084E536
:1019900095E00E94510464EB70E081E595E00E94BF
:1019A000510460E089E00E94B20362E08BE00E9493
:1019B000B20361E08DE00E94B20361E08EE10E941B
:1019C000B20361E08FE10E94B20361E080E20E9415
:1019D000B20361E081E20E94B20361E086E10E940D
:1019E000B20361E086E10E94B20361E087E10E94F8
:1019F000B20361E088E10E94B20361E089E10E94E4
:101A0000B20361E08AE10E94B20361E08BE10E94CF
:101A1000B20361E08CE10E94B20304EB10E0772492
:101A200073948AE0882E912CA12CB12C89E00E941D
:101A30005B0390936D0480936C0420916A04309151
:101A40006B048217930709F42FC4019709F02CC483
:101A500080916904811109C2709269048AE893E057
:101A60000E94EB078091680481111EC480910A02D4
:101A700090910B02892B09F017C4E0915404F09166
:101A80005504E830F10508F00FC410926704109275
:101A900066048827E15BF24F8F4F0C94D515570DE4
:101AA000850DD80D190E5A0EA20EEA0E0D0FE090FC
:101AB0006604F0906704E4EBEE16F1040CF0F4C356
:101AC000B7018AE595E00E9451046801CE18DF084D
:101AD000B60187E595E00E945104B70184E595E0E1
:101AE0000E945104B60181E595E00E94510465E031
:101AF00070E080E090E00E941304FFEFEF1AFF0A0D
:101B0000F0926704E0926604D2CFE0906604F09011
:101B1000670484EBE816F1049CF4B7018DE595E0C9
:101B20000E94510465E070E080E090E00E941304A0
:101B30009FEFE91AF90AF0926704E0926604E5CF94
:101B400064EF71E080E090E00E941304109267045B
:101B500010926604E0906604F0906704E4EBEE16E1
:101B6000F1040CF0A1C3B7018AE595E00E9451048D
:101B70006801CE18DF08B60187E595E00E945104A0
:101B8000B70184E595E00E945104B60181E595E036
:101B90000E94510465E070E080E090E00E94130430
:101BA000FFEFEF1AFF0AF0926704E0926604D2CFCB
:101BB000E0906604F090670484EBE816F1049CF46E
:101BC000B7018DE595E00E94510465E070E080E08A
:101BD00090E00E9413049FEFE91AF90AF09267045B
:101BE000E0926604E5CF64EF71E080E090E00E944F
:101BF00013041092670410926604E0906604F0905B
:101C00006704E4EBEE16F1040CF04EC3B7018AE56D
:101C100095E00E94510465E070E080E090E00E9451
:101C20001304FFEFEF1AFF0AF0926704E0926604D4
:101C3000E4CFE0906604F090670484EBE816F104CA
:101C40009CF4B7018DE595E00E94510465E070E0D9
:101C500080E090E00E9413049FEFE91AF90AF092E5
:101C60006704E0926604E5CF64EF71E080E090E005
:101C70000E9413041092670410926604E0906604B8
:101C8000F0906704E4EBEE16F1040CF00DC3B7011D
:101C90008AE595E00E94510465E070E080E090E004
:101CA0000E941304FFEFEF1AFF0AF0926704E0921C
:101CB0006604E4CFE0906604F090670484EBE816D5
:101CC000F1049CF4B7018DE595E00E94510465E0B4
:101CD00070E080E090E00E9413049FEFE91AF90A97
:101CE000F0926704E0926604E5CF64EF71E080E073
:101CF00090E00E9413041092670410926604E09032
:101D00006604F0906704E4EBEE16F1040CF0CCC22C
:101D1000B7018AE595E00E945104B8016E197F0968
:101D200087E595E00E94510465E070E080E090E076
:101D30000E941304FFEFEF1AFF0AF0926704E0928B
:101D40006604DDCFE0906604F090670484EBE8164B
:101D5000F1049CF4B7018DE595E00E94510465E023
:101D600070E080E090E00E9413049FEFE91AF90A06
:101D7000F0926704E0926604E5CF64EF71E080E0E2
:101D800090E00E9413041092670410926604E090A1
:101D90006604F0906704E4EBEE16F1040CF084C2E4
:101DA000B7018AE595E00E945104B8016E197F09D8
:101DB00087E595E00E94510465E070E080E090E0E6
:101DC0000E941304FFEFEF1AFF0AF0926704E092FB
:101DD0006604DDCFE0906604F090670484EBE816BB
:101DE000F1040CF061C2B8016E197F0987E595E036
:101DF0000E945104B70184E595E00E94510465E01A
:101E000070E080E090E00E9413049FEFE91AF90A65
:101E1000F0926704E0926604DDCFE0906604F090F3
:101E20006704E4EBEE16F1040CF03EC2B7018AE55C
:101E300095E00E945104B70184E595E00E945104A9
:101E4000B8016E197F0981E595E00E94510465E0B3
:101E500070E080E090E00E941304FFEFEF1AFF0AA9
:101E6000F0926704E0926604D8CF109269048DE87E
:101E700093E00E94EB0780916804811115C2809164
:101E80000A0290910B02892B09F00EC2E0915404D2
:101E9000F0915504E830F10508F006C2109367048C
:101EA000009366048827E85AF04F8F4F0C94D5159D
:101EB000600F930FEA0F29106810B4100011281159
:101EC000E0906604F09067041E141F040CF0ECC14F
:101ED00085EBE816F1042CF4B7018AE595E00E9441
:101EE00051046801CE18DF08D7FCC9C5B60187E5E3
:101EF00095E00E94510495EBE916F1040CF4C4C579
:101F0000B60181E595E00E94510465E070E080E053
:101F100090E00E941304E1E0EE1AF108F0926704E9
:101F2000E0926604CDCFE0906604F09067041E1442
:101F30001F045CF5F5EBEF16F1042CF4B7018AE50C
:101F400095E00E9451046801CE18DF08D7FCA4C5B3
:101F5000B60187E595E00E94510485EBE816F1048F
:101F60000CF49FC5B60181E595E00E94510465E03F
:101F700070E080E090E00E94130491E0E91AF1081B
:101F8000F0926704E0926604CECF64EF71E080E0E7
:101F900090E00E9413041093670400936604E0909D
:101FA0006604F09067041E141F040CF07DC1B70195
:101FB0008DE595E00E94510465E070E080E090E0DE
:101FC0000E941304E1E0EE1AF108F0926704E09237
:101FD0006604E5CFE0906604F09067041E141F04C9
:101FE0009CF4B7018AE595E00E94510465E070E039
:101FF00080E090E00E941304F1E0EF1AF108F09203
:102000006704E0926604E6CF64EF71E080E090E060
:102010000E9413041093670400936604E090660422
:10202000F09067041E141F040CF03EC1B7018DE54B
:1020300095E00E94510465E070E080E090E00E942D
:10204000130481E0E81AF108F0926704E092660454
:10205000E5CFE0906604F09067041E141F049CF422
:10206000B7018AE595E00E94510465E070E080E0E8
:1020700090E00E94130491E0E91AF108F0926704DD
:10208000E0926604E6CF64EF71E080E090E00E94A9
:1020900013041093670400936604E0906604F090C4
:1020A00067041E141F040CF0FFC0B7018DE595E016
:1020B0000E94510465E070E080E090E00E9413040B
:1020C000E1E0EE1AF108F0926704E0926604E5CFD1
:1020D000E0906604F09067041E141F0404F5F5EB0D
:1020E000EF16F1042CF4B7018AE595E00E94510443
:1020F000B8016E197F0977FD04C087E595E00E945D
:10210000510465E070E080E090E00E94130481E0FB
:10211000E81AF108F0926704E0926604D9CF64EF00
:1021200071E080E090E00E94130410936704009334
:102130006604E0906604F09067041E141F040CF01F
:10214000B3C0B7018DE595E00E94510465E070E0F1
:1021500080E090E00E94130491E0E91AF108F09207
:102160006704E0926604E5CFE0906604F0906704AF
:102170001E141F0404F5E5EBEE16F1042CF4B70170
:102180008AE595E00E945104B8016E197F0977FD38
:1021900004C087E595E00E94510465E070E080E0AE
:1021A00090E00E941304F1E0EF1AF108F092670446
:1021B000E0926604D9CF64EF71E080E090E00E9485
:1021C00013041093670400936604E0906604F09093
:1021D00067041E141F040CF067C0B7018DE595E07D
:1021E0000E94510465E070E080E090E00E941304DA
:1021F00081E0E81AF108F0926704E0926604E5CF06
:10220000E0906604F09067041E141F040CF04CC0AC
:10221000B8016E197F0977FD04C087E595E00E943B
:10222000510495EBE916F1042CF4B70184E595E02F
:102230000E94510465E070E080E090E00E94130489
:10224000E1E0EE1AF108F0926704E0926604D8CF5C
:10225000E0906604F09067041E141F042CF5F5EB63
:10226000EF16F10454F4B7018AE595E00E94510499
:10227000B70184E595E00E945104B8016E197F0909
:1022800077FD04C081E595E00E94510465E070E0AF
:1022900080E090E00E94130481E0E81AF108F092D7
:1022A0006704E0926604D4CF80916C0490916D0431
:1022B00090936B0480936A0420916804211153C0A9
:1022C00020910A0230910B022130310509F04BC0F8
:1022D00020916904222309F49AC3019709F043C0AD
:1022E000E0906604F090670494EBE916F104DCF5E5
:1022F000EFEFEE1AFE0AF0926704E0926604F4EB48
:10230000EF16F10429F0B7018AE595E00E94510427
:102310006801CE18DF08B60187E595E00E945104F8
:1023200084EBE816F10429F0B70184E595E00E94FA
:102330005104B60181E595E00E94510480910802A4
:1023400090910902892B49F494EBE916F10429F0E4
:10235000B7018DE595E00E9451046FE070E080E0E8
:1023600090E00E94130480916404909165040097AA
:1023700009F0B2C280910A0290910B020197E9F52F
:102380008091080290910902009709F454C00197C6
:10239000A1F590E080E00E940F0686E40E943306DB
:1023A00065E070E080E090E00E94130481E090E03E
:1023B0000E940F0682E70E94330665E070E080E02D
:1023C00090E00E94130482E090E00E940F0685E4F2
:1023D0000E94330665E070E080E090E00E94130404
:1023E00083E090E00E940F0680E30E94330665E0E0
:1023F00070E080E090E00E94130480910A029091C6
:102400000B02892B09F077C0E0915404F091550438
:10241000E830F10508F06FC090E08827ED5EFD4ED2
:102420008F4F0C94D51548128613B213D113F013A5
:102430000F142E144D1490E080E00E940F0686E4E5
:102440000E94330665E070E080E090E00E94130493
:1024500081E090E00E940F0682E70E94330665E06B
:1024600070E080E090E00E94130482E090E00E941F
:102470000F0685E40E94330665E070E080E090E09E
:102480000E94130483E090E00E940F0681E3ADCF29
:1024900080E00E940F0682E60E94330665E070E04D
:1024A00080E090E00E94130481E090E00E940F061B
:1024B00081E40E94330665E070E080E090E00E94D5
:1024C000130482E090E00E940F0683E50E94330629
:1024D00065E070E080E090E00E94130483E090E00B
:1024E0000E940F0680E30E94330665E070E080E002
:1024F00090E00E9413048BE00E945B03909307021C
:1025000080930602209104023091050282179307FE
:1025100031F1892B09F03EC20E94450470930102FB
:102520006093000220910202309103027B01E21AC3
:10253000F30AF0925B04E0925A0461E08DE00E949D
:10254000840383E3E81AF10895EDE91696E0F906AD
:1025500030F47092610481E993E00E94DE0780917B
:1025600006029091070290930502809304028091E5
:10257000610481114DC080916004882309F448C032
:102580000E9445042091020230910302621B730BEA
:1025900070935F0460935E04613D7740CCF18CE9F9
:1025A00093E00E94DE07C0905E04D0905F040D2C83
:1025B000000CEE08FF08F7FE14C26DE28EE694E010
:1025C0000E94560222273327A9012C193D094E09E2
:1025D0005F0919A2CE0181967C01CA01B901A5014A
:1025E00094010E946615605DF70162937F012115D9
:1025F00031054105510589F7E114F10419F0C701CE
:102600000E94DE078FE192E00E94DE070E944708E9
:1026100081E090E090930702809306020E944504B7
:1026200020910002309101027B01E21AF30AF0923C
:102630005D04E0925C04C701855D9340879770F468
:1026400060E08DE00E9484036AE070E080E090E04A
:102650000E94130461E08DE00E948403C7018D5B3A
:102660009740879770F460E08DE00E9484036AE0F1
:1026700070E080E090E00E94130461E08DE00E9431
:102680008403C701855A9B40879770F460E08DE012
:102690000E9484036AE070E080E090E00E941304EE
:1026A00061E08DE00E948403C7018D589F408797A9
:1026B00070F460E08DE00E9484036AE070E080E0E6
:1026C00090E00E94130461E08DE00E948403F5E72E
:1026D000EF1AF3E1FF0A87E2E816F10470F460E014
:1026E0008DE00E9484036AE070E080E090E00E9448
:1026F000130461E08DE00E94840365E070E080E0F7
:1027000090E00E9413040E94C30290C980E00E94DE
:102710000F0682E60E94330665E070E080E090E0FC
:102720000E94130481E090E00E940F0681E40E9461
:10273000330665E070E080E090E00E94130482E0E0
:1027400090E00E940F0683E50E94330665E070E08A
:1027500080E090E00E94130483E090E00E940F0666
:1027600081E3C1CE80E00E940F0680E50E9433061F
:1027700065E070E080E090E00E94130481E090E06A
:102780000E940F0689E60E94330665E070E080E053
:1027900090E00E94130482E090E00E940F068EE613
:1027A00095CE80E00E940F0680E50E94330665E02A
:1027B00070E080E090E00E94130481E090E00E94CD
:1027C0000F0689E60E94330665E070E080E090E045
:1027D0000E94130482E090E00E940F068EE6B4CFC0
:1027E00080E00E940F0684E70E94330665E070E0F7
:1027F00080E090E00E94130481E090E00E940F06C8
:1028000082E70E94330665E070E080E090E00E947D
:10281000130482E090E00E940F0689E657CE80E024
:102820000E940F0684E70E94330665E070E080E0B6
:1028300090E00E94130481E090E00E940F0682E77E
:102840000E94330665E070E080E090E00E9413048F
:1028500082E090E00E940F0689E676CF80E00E9439
:102860000F0685E40E94330665E070E080E090E0AA
:102870000E94130481E090E00E940F0688E50E9408
:10288000330665E070E080E090E00E94130482E08F
:1028900090E00E940F0684E719CE80E00E940F06A8
:1028A00085E40E94330665E070E080E090E00E94DD
:1028B000130481E090E00E940F0688E50E94330631
:1028C00065E070E080E090E00E94130482E090E018
:1028D0000E940F0684E738CF8130910599F0029766
:1028E000C9F10E9445042091620430916304621B87
:1028F000730B613D77400CF4FECD1092650410928D
:102900006404F9CD90E080E00E940F0682E60E9408
:10291000330665E070E080E090E00E94130481E0FF
:1029200090E00E940F0681E40E94330665E070E0AB
:1029300080E090E00E94130482E090E00E940F0685
:1029400084E70E94330665E070E080E090E00E943A
:102950001304C7CF90E080E00E940F068CE40E9431
:10296000330665E070E080E090E00E94130481E0AF
:1029700090E00E940F068FE60E94330665E070E04B
:1029800080E090E00E94130482E090E00E940F0635
:1029900083E6D7CF0E94450470930302609302023E
:1029A0002091000230910102621B730B7093590455
:1029B0006093580480915604909157040196909327
:1029C0005704809356047092600460E08DE00E948A
:1029D000840380916104882309F4C1CD0E944708D3
:1029E000BECDA701960119A2CE0181967C01CA0134
:1029F000B901A50194010E946615605DF70162931B
:102A00007F01211531054105510589F7F5CD019764
:102A100009F0A9CCE0906604F09067041E141F042E
:102A20000CF0A1CCE1E0EE1AF108F0926704E0921C
:102A30006604E114F10429F0B7018AE595E00E94EB
:102A400051046801CE18DF08D7FC33C0B60187E512
:102A500095E00E945104E114F10491F5B60181E57D
:102A600095E00E9451048091080290910902892BFF
:102A700009F073CCE114F10409F46FCC69CC95EB47
:102A8000E916F1040CF041CAB70184E595E00E9413
:102A90005104D7FE35CA39CAE5EBEE16F1040CF045
:102AA00066CAB70184E595E00E945104D7FE5ACA70
:102AB0005ECAB70184E595E0E114F10491F6CECF4A
:102AC000B70184E595E00E945104C8CFA1E21A2E17
:102AD000AA1BBB1BFD010DC0AA1FBB1FEE1FFF1FC2
:102AE000A217B307E407F50720F0A21BB30BE40B12
:102AF000F50B661F771F881F991F1A9469F7609559
:102B00007095809590959B01AC01BD01CF01089512
:102B1000052E97FB1EF400940E949F1557FD07D0C9
:102B20000E94661507FC03D04EF40C949F15509537
:102B30004095309521953F4F4F4F5F4F08959095A9
:102B40008095709561957F4F8F4F9F4F08950E949C
:102B5000BA15A59F900DB49F900DA49F800D911D57
:102B600011240895B7FF0C94A7150E94A715821B86
:102B7000930B0895A29FB001B39FC001A39F700D56
:102B8000811D1124911DB29F700D811D1124911D75
:102B90000895991B79E004C0991F961708F0961BB9
:102BA000881F7A95C9F780950895EE0FFF1F881F3B
:0E2BB0008BBF0790F691E02D1994F894FFCF9B
:102BBE00FFFFFFFF01000100010001000000000007
:102BCE005602C001ED01A3021E02FC0110020D0A05
:102BDE000043757272656E743A20426173696320A8
:102BEE002D20466973740043757272656E743A20B7
:102BFE004261736963202D204772697000437572BC
:102C0E0072656E743A2050696E63686573202D206C
:102C1E0050696E63680043757272656E743A205027
:102C2E00696E63686573202D2050696E63684E6F00
:102C3E00466973740043757272656E743A205472ED
:102C4E0069706F6473202D20547269706F64004335
:102C5E00757272656E743A20547269706F64732067
:102C6E002D20547269706F64684E6F4669737400DC
:102C7E0043757272656E743A20457874726147724C
:102C8E00697073202D20457874726131004375721E
:102C9E0072656E743A20457874726147726970730A
:102CAE00202D20457874726132002E2E2E436861DD
:102CBE006E67696E6720477269702E2E2E00574917
:102CCE005448205448554D4200574954484F555486
:102CDE00205448554D50002E2E2E4C6F636B696E4E
:102CEE006720536572766F732E2E2E002E2E2E4376
:102CFE0068616E67696E67204D6F64652E2E2E00BB
:102D0E002E2E2E5368757420646F776E2E2E2E0025
:102D1E00564D4450565F317C315F564D4450560AE5
:102D2E0000564D4450525F000A0A21214E6577200D
:102D3E0073657373696F6E2121004F6E004F666667
:102D4E000043726574696E756C650A006D696C6C12
:102D5E0069732829202D2070726573735F73746FE9
:042D6E00703A200097
:00000001FF
