:100000000C9465010C9496010C9496010C94960145
:100010000C9496010C9496010C9496010C94960104
:100020000C9496010C9496010C9496010C949601F4
:100030000C9496010C9496010C9496010C949601E4
:100040000C9496010C94740A0C9496010C949601ED
:100050000C9496010C9496010C9496010C94A009B2
:100060000C9496010C946A090C9440090C94960126
:100070000C9496010C9496010C9496010C949601A4
:100080000C94460A0C9496010C9496010C949601DB
:100090000C9496010C9496010C9496010C94960184
:1000A0000C9496010C9496010C94180A0C949601E9
:1000B0000C9496010C9496010C9496010C94EA0908
:1000C0000C9496010C9496010C9496010C94960154
:1000D0000C9496010C9496010C9496010C94960144
:1000E0000C9496010C94A6110C9418030C94F11125
:1000F0000C9410110C946D120C9420030C94310389
:100100000C94D00C0C942D030C94ED010C943F0333
:100110000C9437030C9445030C9457030C94B010C3
:100120000C94060F0C94990D0C943B030C94461000
:100130000C943F0E0C942F120C941F0D0C94101263
:100140000C94C40F0C9424030C94C0010C9427034A
:100150000C94870F0C941D0E0C9401100C94A302A8
:100160000C941C030C9449030C941E020C94DB0D9C
:100170000C944D030C94FC010C9412030C94520348
:100180000C94350F0C948B100C94D2110C944E12CD
:100190000C94A40C0C9453030C945C0D0C94BD0AA9
:1001A0000C9410020C945602000021002400270039
:1001B0002A002D0030003300010100000401070176
:1001C0000A0100002200250028002B002E0031002B
:1001D000340002010000050108010B0100002000AD
:1001E0002300260029002C002F003200000100000F
:1001F00003010601090105050505070508080808AA
:10020000020202020A0A08080404040401010101AE
:1002100001010101030303030303030304070707A9
:100220000C0C0C0C0C0C0C0C02020202060606064E
:10023000060606060B0B0B0B0B0B0B0B010210201B
:10024000200808102040102040800201020108040C
:1002500002010102040810204080804020100804A0
:1002600002018004020180402010080402010804F9
:10027000020101020408102040800102040810203D
:10028000408000000A0B02090C0D0E080703040150
:10029000000000000000000000000000000000005E
:1002A000000000000000000000000000000012112B
:1002B000100000000000000000000000000000002E
:1002C0000000000000000000BD0A11241FBECFEF97
:1002D000D1E2DEBFCDBF00E00CBF14E0A0E0B2E091
:1002E000E4E1F7E200E00BBF02C007900D92A430FA
:1002F000B107D9F725E0A4E0B4E001C01D92A13B0D
:10030000B207E1F711E0C5E6D1E000E006C02197B1
:100310000109802FFE010E948013C436D10780E0BE
:100320000807A9F70E940F0B0C9488130C94000087
:10033000EFEBF4E0A089B18982E08C93A485B585C8
:100340001C92A685B7858FEC8C93108EA489B589F5
:1003500086E08C93A289B3898C9180618C93A28969
:10036000B3898C9188608C93A289B3898C918068C1
:100370008C930288F389E02D80818F7D808308959E
:10038000AF92BF92CF92DF92EF92FF920F931F93A3
:10039000CF93DF936C017B018B01040F151FEB01E1
:1003A0005E01AE18BF08C017D10759F06991D60198
:1003B000ED91FC910190F081E02DC6011995892BFA
:1003C00079F7C501DF91CF911F910F91FF90EF90C9
:1003D000DF90CF90BF90AF900895FC01538D448D76
:1003E000252F30E0842F90E0821B930B541710F0E0
:1003F000CF96089501970895FC01918D828D9817ED
:1004000061F0A28DAE0FBF2FB11D5D968C91928DC4
:100410009F5F9F73928F90E008958FEF9FEF0895F5
:10042000FC01918D828D981731F0828DE80FF11DBE
:10043000858D90E008958FEF9FEF0895FC01918DD9
:10044000228D892F90E0805C9F4F821B91098F73D2
:10045000992708958FEB94E00E941E0221E0892BDA
:1004600009F420E0822F0895FC01A48DA80FB92F74
:10047000B11DA35ABF4F2C91848D90E001968F73CC
:100480009927848FA689B7892C93A089B1898C91EB
:10049000837080648C93938D848D981306C002883A
:1004A000F389E02D80818F7D80830895EF92FF9204
:1004B0000F931F93CF93DF93EC0181E0888F9B8D87
:1004C0008C8D98131AC0E889F989808185FF15C041
:1004D0009FB7F894EE89FF896083E889F989808164
:1004E0008370806480839FBF81E090E0DF91CF9133
:1004F0001F910F91FF90EF900895F62E0B8D10E055
:100500000F5F1F4F0F731127E02E8C8D8E110CC0C3
:100510000FB607FCFACFE889F989808185FFF5CF0E
:10052000CE010E943402F1CFEB8DEC0FFD2FF11DB7
:10053000E35AFF4FF0829FB7F8940B8FEA89FB894B
:1005400080818062CFCFCF93DF93EC01888D8823A9
:10055000B9F0AA89BB89E889F9898C9185FD03C026
:10056000808186FD0DC00FB607FCF7CF8C9185FF0B
:10057000F2CF808185FFEDCFCE010E943402E9CF1A
:10058000DF91CF91089580E090E0892B29F00E94BF
:100590002A0281110E94000080E090E0892B49F03E
:1005A00080E090E0892B29F00E94000081110E94D8
:1005B000000080E090E0892B49F080E090E0892BFA
:1005C00029F00E94000081110E94000080E090E06C
:1005D000892B49F080E090E0892B29F00E940000EF
:1005E00081110C94000008958150823108F05AC0A6
:1005F000E82FF0E08827E050FD4F8F4F0C948013D8
:1006000020032403120318031C03520327032D03A2
:10061000310337033B033F034503490352034D03B3
:1006200053035703809180008F7780938000089553
:10063000809180008F7DF9CF80918000877FF5CFFA
:1006400084B58F7784BD089584B58F7DFBCF80916D
:10065000B0008F778093B00008958091B0008F7DB7
:10066000F9CF809190008F778093900008958091CA
:1006700090008F7DF9CF80919000877FF5CF80919A
:10068000A0008F778093A00008958091A0008F7DB7
:10069000F9CF8091A000877FF5CF809120018F77DF
:1006A000809320010895809120018F7DF9CF809162
:1006B0002001877FF5CFCF93DF93282F30E0F9011A
:1006C000EE57FD4F8491F901E45CFD4FD491F9019F
:1006D000EA50FE4FC491CC23A1F081110E94F40294
:1006E000EC2FF0E0EE0FFF1FE452FE4FA591B49106
:1006F000EC91ED2381E090E009F480E0DF91CF916F
:10070000089580E090E0FACF1F93CF93DF93282FD6
:1007100030E0F901EE57FD4F8491F901E45CFD4FA3
:10072000D491F901EA50FE4FC491CC23A9F0162FC1
:1007300081110E94F402EC2FF0E0EE0FFF1FEE5348
:10074000FE4FA591B4918FB7F894EC91111108C0A8
:10075000D095DE23DC938FBFDF91CF911F91089559
:10076000DE2BF8CFCF93DF9390E0FC01E45CFD4FEC
:1007700024918A509E4FFC0184918823C9F090E017
:10078000880F991FFC01E855FE4FA591B491FC011B
:10079000EE53FE4FC591D49161110DC09FB7F894EF
:1007A0008C91209582238C938881282328839FBF56
:1007B000DF91CF910895623051F49FB7F8943C9146
:1007C000822F809583238C93E8812E2BEFCF8FB7D8
:1007D000F894EC912E2B2C938FBFEACF3FB7F8946F
:1007E0008091A0049091A104A091A204B091A304CF
:1007F00026B5A89B05C02F3F19F00196A11DB11D7C
:100800003FBFBA2FA92F982F8827BC01CD01620FB7
:10081000711D811D911D42E0660F771F881F991F72
:100820004A95D1F708958F929F92AF92BF92CF923F
:10083000DF92EF92FF924B015C010E94EE036B018D
:100840007C010E94EE036C197D098E099F09683EA8
:10085000734081059105A8F321E0821A9108A1084F
:10086000B10888EEC80E83E0D81EE11CF11C81148B
:100870009104A104B10429F7FF90EF90DF90CF908D
:10088000BF90AF909F908F9008952FB7F89460918C
:100890009C0470919D0480919E0490919F042FBFB1
:1008A0000895CF92DF92EF92FF92CF93DF93EC0106
:1008B000603282E07807CCF5653B710514F064EB9B
:1008C00070E0898128E830E0281B310987FD3395E5
:1008D000220F331F220F331F6901330FEE08FF0869
:1008E0008A8128E532E0281B310987FD3395220FE4
:1008F000331F220F331F032E000C440B550B2C19F2
:100900003D094E095F09DB0177FF02C0B0E0A0E0BE
:100910000E945D1324EB30E040E050E00E9433136E
:10092000C20ED31EE41EF51EB601E881E03370F559
:10093000298188E890E0821B910927FD9395880F13
:10094000991F880F991F681779077CF02A8188E51D
:1009500092E0821B910927FD9395880F991F880FBC
:10096000991F681779070CF4CB010297880F991F1C
:100970004FB7F8942E2F30E0F901EE0FFF1FE20F72
:10098000F31FE55FFB4F928381834FBFDF91CF91D0
:10099000FF90EF90DF90CF9008951F93CF93DF9358
:1009A000EC01162F8881803308F04EC061E0812F62
:1009B0000E94B2038881282F30E0F901EE0FFF1F5B
:1009C000E20FF31FE55FFB4F1F736081607C612BBB
:1009D000608319821A822CE0622F0E947413829F16
:1009E000B001112430E020E0AB01420F531FFA01A7
:1009F000EE0FFF1FE40FF51FE55FFB4F908196FDA3
:100A000016C02F5F3F4F2C30310571F7813009F54B
:100A10001092800082E080938100109285001092F5
:100A20008400B19A80916F00826080936F00E881AA
:100A30008E2F90E0FC01EE0FFF1FE80FF91FE55F1E
:100A4000FB4F8081806480838881DF91CF911F91EB
:100A50000895823061F4109290008093910010927A
:100A600095001092940088BB80937100E0CF833092
:100A700069F41092A00082E08093A1001092A5007A
:100A80001092A40089BB80937200D1CF8111CFCF87
:100A90001092200182E08093210110922501109292
:100AA00024018ABB80937300C2CFAF92BF92CF92D2
:100AB000DF92EF92FF920F931F93CF93DF936B011F
:100AC0007A01EC01CA5FDB4F28813CE0389F80014E
:100AD000399F100D1124A0900A04B12C27FF1FC0CC
:100AE000FB011182108288818F5F88838881980141
:100AF000280F311D87FD3A95F6012A153B051CF498
:100B000088818C30C4F180819181049680349C4925
:100B100008F473C0F60180819181049670C08881C9
:100B20009801280F311D87FD3A952A153B05DCF603
:100B30008881A801480F511D87FD5A95FA01EE0FD3
:100B4000FF1FE40FF51FE55FFB4F808186FFCBCFD2
:100B50008881F801E80FF11D87FDFA95CF01EE0FAE
:100B6000FF1FE80FF91FE55FFB4F808160E08F7387
:100B70000E948403B8CF808191812881A801420F0F
:100B8000511D27FD5A959A01FA01EE0FFF1FE20F42
:100B9000F31FE55FFB4F21813281820F931FF70125
:100BA0009183808388819801280F311D87FD3A95B4
:100BB000F901EE0FFF1FE20FF31FE55FFB4F80818E
:100BC00086FF22C08881080F111D87FD1A95F80144
:100BD000EE0FFF1FE00FF11FE55FFB4F808161E02B
:100BE0008F73DF91CF911F910F91FF90EF90DF9066
:100BF000CF90BF90AF900C94840380E49CE9F70100
:100C0000918380838FEF8883DF91CF911F910F9124
:100C1000FF90EF90DF90CF90BF90AF900895CF936B
:100C2000DF93EC0161E08EE10E94840361E08FE1DB
:100C30000E94840361E080E20E94840361E081E21B
:100C40000E94840360E080E2C130D10541F08FE171
:100C5000C230D10521F08EE1CD2B09F081E2DF9188
:100C6000CF910C948403833509F47DC0D4F5853489
:100C700009F4DFC0FCF4813309F4C9C0813409F4FC
:100C800068C0803309F001C161E086E10E948403FD
:100C900061E087E10E94840361E088E10E948403AF
:100CA00061E089E10E94840361E08AE10E9484039B
:100CB00061E086C08C3409F4C6C0803509F465C093
:100CC000863409F0E2C061E086E10E94840360E0BE
:100CD00087E10E94840360E088E10E94840360E071
:100CE0002BC0893609F457C054F48236C1F08336DC
:100CF00009F4C1C0883509F0C8C060E02BC08F3648
:100D000009F4ABC024F48E3609F461C0089582372B
:100D100009F473C060E0843709F48CC0089560E082
:100D200086E10E94840360E087E10E94840361E021
:100D300088E10E94840361E089E10E94840361E00C
:100D40008AE10E94840361E08BE10E94840361E0F8
:100D50003BC061E086E10E94840361E087E10E947C
:100D6000840361E0B9CF61E086E10E94840360E022
:100D700087E10E94840361E088E10E94840361E0CE
:100D800089E10E94840360E0DBCF61E086E10E949C
:100D9000840361E09DCF60E086E10E94840360E00F
:100DA00087E10E94840360E088E10E94840360E0A0
:100DB00089E10E94840361E08AE10E94840360E08B
:100DC0008BE10E94840360E08CE10C94840360E07A
:100DD00086E10E94840360E087E10E94840361E071
:100DE00088E10E94840360E089E10E94840361E05D
:100DF0008AE10E94840360E0A7CF60E086E10E9460
:100E0000840360E087E10E94840360E0E9CF60E052
:100E100086E10E94840361E087E10E94840361E02F
:100E200088E10E94840360E089E10E94840360E01D
:100E3000C3CF61E086E10E94840360E087E10E9405
:100E4000840360E075CF60E086E10E94840360E087
:100E500087E10E94840360E020CF60E086E10E9489
:100E6000840360E087E10E94840361E088E10E94DE
:100E7000840361E0B9CF60E086E10E94840360E012
:100E800087E10E94840360E0F1CF0895FC010190A6
:100E90000020E9F73197AF01481B590BBC018FEBDC
:100EA00094E00C94C001CF93DF930E944607EC01BD
:100EB0008AE192E00E9446078C0F9D1FDF91CF913F
:100EC0000895809104049091050481309105B9F052
:100ED00030F08230910519F1039789F108958091DE
:100EE000A6049091A704009719F0019729F008959E
:100EF0008DE192E00C94530783E392E0FBCF809165
:100F0000A6049091A7048230910519F0039721F06F
:100F1000089589E492E0EECF82E692E0EBCF8091F3
:100F2000A6049091A7048430910519F0059721F04B
:100F3000089581E892E0DECF8BE992E0DBCF8091EB
:100F4000A6049091A7048630910519F0079721F027
:100F500008958CEB92E0CECF89ED92E0CBCF8F92CB
:100F60009F92AF92BF92CF92DF92EF92FF920F9338
:100F70001F93CF93DF93CDB7DEB7A1970FB6F89449
:100F8000DEBF0FBECDBF6C01990FEE08FF08F7FE64
:100F900041C06DE28FEB94E00E9456028C01222743
:100FA0003327A9012C193D094E095F0919A2CE0169
:100FB00081967C019AE0892E912CA12CB12CCA013A
:100FC000B901A50194010E941113605DF7016293BC
:100FD0007F01211531054105510589F790E080E039
:100FE000309719F0CF010E944607800F911FA196FC
:100FF0000FB6F894DEBF0FBECDBFDF91CF911F912A
:101000000F91FF90EF90DF90CF90BF90AF909F90A7
:101010008F900895A701960119A28E010F5D1F4FB1
:101020008AE0C82ED12CE12CF12CCA01B901A7010C
:1010300096010E941113605DF80162938F012115E2
:1010400031054105510589F790E080E0309779F24C
:10105000CF010E944607CBCF8091B304813009F4C1
:10106000DFC08091AA049091AB0484569109843822
:10107000934000F586EF92E00E9453078091B804F8
:101080009091B904009709F475C08130910581F4FD
:1010900020910002309101022130310509F063C036
:1010A000109201021092000282E293E00E94530724
:1010B0000E9461078091AA049091AB04885E9340DE
:1010C000803D974080F48BE393E00E9453070E9499
:1010D00045047093B5046093B40482E090E090936B
:1010E000B7048093B6048091AA049091AB04885B06
:1010F0009B40803D974088F480E593E00E94530731
:101100008091B8049091B9048130910509F485C0AB
:1011100001969093B9048093B8048091AA049091A9
:10112000AB048838934124F084E693E00E9453078F
:1011300084E793E00E9446078091A8049091A90457
:101140000E94AF0781E893E00E9453071092B20417
:101150001092B3041092A9041092A8041092AD0446
:101160001092AC04089590930102809300028DE2E6
:1011700093E09CCF80910404909105048130910507
:1011800031F180F08230910591F1039709F090CF11
:101190008091A6049091A70486309105C1F587E05F
:1011A00090E008C08091A6049091A704009739F4BC
:1011B00081E090E09093A7048093A60479CF0197F3
:1011C00009F076CF1092A7041092A60471CF8091F7
:1011D000A6049091A7048230910519F483E090E071
:1011E000E9CF039709F064CF82E090E0E3CF8091EC
:1011F000A6049091A7048430910519F485E090E04D
:10120000D9CF059709F054CF84E090E0D3CF07976A
:1012100009F04ECF86E090E0CDCF90E080E079CF2E
:1012200080910404909105048330910549F4109253
:101230000504109204041092A7041092A6040BC097
:10124000019690930504809304048130910571F018
:101250002CF4892B81F30E9461076ACF82309105BB
:1012600061F00397C1F786E090E002C082E090E071
:101270009093A7048093A604EECF84E090E0F8CF8B
:101280001F920F920FB60F9211240BB60F922F934D
:101290003F934F935F936F937F938F939F93AF93FE
:1012A000BF93EF93FF938FEB94E00E943402FF9182
:1012B000EF91BF91AF919F918F917F916F915F91CE
:1012C0004F913F912F910F900BBE0F900FBE0F903B
:1012D0001F9018951F920F920FB60F9211240BB604
:1012E0000F922F938F939F93EF93FF93E091CF04EF
:1012F000F091D0048081E091D504F091D60482FD74
:101300001DC090818091D8048F5F8F732091D90484
:10131000821741F0E091D804F0E0E154FB4F958F43
:101320008093D804FF91EF919F918F912F910F900F
:101330000BBE0F900FBE0F901F9018958081F2CFBB
:101340001F920F920FB60F9211242F933F938F93FA
:101350009F93AF93BF9380919C0490919D04A09123
:101360009E04B0919F0430919B0423E0230F2D37FE
:1013700058F50196A11DB11D20939B0480939C04F8
:1013800090939D04A0939E04B0939F048091A00429
:101390009091A104A091A204B091A3040196A11D73
:1013A000B11D8093A0049093A104A093A204B093D4
:1013B000A304BF91AF919F918F913F912F910F9077
:1013C0000FBE0F901F90189526E8230F0296A11DBF
:1013D000B11DD2CF1F920F920FB60F9211240BB6F0
:1013E0000F922F933F934F935F936F937F938F93BE
:1013F0009F93AF93BF93EF93FF9348E251E064E272
:1014000071E090E080E00E945505FF91EF91BF915F
:10141000AF919F918F917F916F915F914F913F918C
:101420002F910F900BBE0F900FBE0F901F9018952D
:101430001F920F920FB60F9211240BB60F922F939B
:101440003F934F935F936F937F938F939F93AF934C
:10145000BF93EF93FF9348EA50E064EA70E083E0C3
:1014600090E00E945505FF91EF91BF91AF919F9140
:101470008F917F916F915F914F913F912F910F903D
:101480000BBE0F900FBE0F901F9018951F920F92DA
:101490000FB60F9211240BB60F922F933F934F93D9
:1014A0005F936F937F938F939F93AF93BF93EF93CC
:1014B000FF9348E950E064E970E082E090E00E9428
:1014C0005505FF91EF91BF91AF919F918F917F91C2
:1014D0006F915F914F913F912F910F900BBE0F90A5
:1014E0000FBE0F901F9018951F920F920FB60F927C
:1014F00011240BB60F922F933F934F935F936F93EB
:101500007F938F939F93AF93BF93EF93FF9348E89D
:1015100050E064E870E081E090E00E945505FF91A2
:10152000EF91BF91AF919F918F917F916F915F915B
:101530004F913F912F910F900BBE0F900FBE0F90C8
:101540001F901895FC0190910A04903398F481E063
:10155000890F80930A049083892F90E0FC01EE0F9D
:10156000FF1FE80FF91FE55FFB4F88EB9BE09283BD
:10157000818308958FEF80830895EFEBF4E0138269
:10158000128288EE93E0A0E0B0E084839583A68386
:10159000B7838CE092E09183808385EC90E095871F
:1015A000848784EC90E09787868780EC90E0918B2D
:1015B000808B81EC90E0938B828B82EC90E0958B1A
:1015C000848B86EC90E0978B868B118E128E138E17
:1015D000148EECE5F5E016821782108611861286CD
:1015E00013861486158616861786108A118A128A23
:1015F000138A148A158A8EEA95E00E94A20A8BEA61
:1016000095E00E94A20A88EA95E00E94A20A85EA73
:1016100095E00E94A20A82EA95E00C94A20A7894CE
:1016200084B5826084BD84B5816084BD85B58260E7
:1016300085BD85B5816085BD80916E008160809398
:101640006E00109281008091810082608093810001
:101650008091810081608093810080918000816011
:10166000809380008091B10084608093B10080916C
:10167000B00081608093B00080919100826080937F
:101680009100809191008160809391008091900001
:101690008160809390008091A10082608093A1007E
:1016A0008091A10081608093A1008091A000816061
:1016B0008093A0008091210182608093210180911C
:1016C00021018160809321018091200181608093BC
:1016D000200180917A00846080937A0080917A0062
:1016E000826080937A0080917A00816080937A0092
:1016F00080917A00806880937A001092C1001092E5
:101700009E0510929F051092A0051092A1051092BF
:101710005E0510925F0510926005109261050E94AF
:1017200045046B017C014B015C0188EB880E8BE06A
:10173000981EA11CB11C0E9445046C157D058E05E8
:101740009F0528F086169706A806B906A0F768EE4A
:1017500073E080E090E00E9413040E9498010E94D0
:10176000450460935E0570935F05809360059093D8
:10177000610580E993E00E9446070E9445046B01E1
:101780007C014B015C018AE0880E911CA11CB11CFC
:101790000E9445046C157D058E059F0528F0861670
:1017A0009706A806B906A0F781E0809372050E940B
:1017B000450460935E0570935F0580936005909388
:1017C000610581EA93E00E9446070E94980188EA39
:1017D00093E00E94530763E070E08EEA95E00E9478
:1017E000CD0464E070E08BEA95E00E94CD0465E0F2
:1017F00070E088EA95E00E94CD0466E070E085EA3A
:1018000095E00E94CD0467E070E082EA95E00E94D6
:10181000CD0470E060E08EEA95E00E94510470E033
:1018200060E08BEA95E00E94510470E060E088EA95
:1018300095E00E94510470E060E085EA95E00E9426
:10184000510470E060E082EA95E00E94510460E09B
:1018500089E00E94B20362E08BE00E94B20361E083
:101860008DE00E94B20361E08EE10E94B20361E06C
:101870008FE10E94B20361E080E20E94B20361E066
:1018800081E20E94B20361E086E10E94B20361E05E
:1018900086E10E94B20361E087E10E94B20361E049
:1018A00088E10E94B20361E089E10E94B20361E035
:1018B0008AE10E94B20361E08BE10E94B20361E021
:1018C0008CE10E94B203C4EBD0E0FF24F39489E0E2
:1018D0000E945B039093BE048093BD042091BB04DF
:1018E0003091BC048217930709F4F9C1019709F0FC
:1018F000F6C18091BA04811162C2F092BA048AEBF7
:1019000093E00E9453078091B8049091B904892B09
:1019100009F0DBC1E091A604F091A704E830F105DD
:1019200008F0D3C11092A5041092A4048827E456AD
:10193000F34F8F4F0C948013A40CD00C1F0D5C0D33
:10194000990DDB0D1D0E3F0E0091A4041091A5040E
:10195000043B11050CF0B9C1B8018BEA95E00E9477
:101960005104B80188EA95E00E9451040739110535
:101970002CF4B80185EA95E00E945104B80182EA8E
:1019800095E00E94510465E070E080E090E00E94E4
:1019900013040F5F1F4F1093A5040093A404D4CF2A
:1019A0000091A4041091A504043B110594F4B8011E
:1019B0008EEA95E00E94510465E070E080E090E0DE
:1019C0000E9413040F5F1F4F1093A5040093A404FB
:1019D000E7CF64EF71E080E090E00E941304109282
:1019E000A5041092A4040091A4041091A504043B42
:1019F00011050CF06AC1B8018BEA95E00E94510410
:101A0000B80188EA95E00E945104073911052CF4C9
:101A1000B80185EA95E00E945104B80182EA95E098
:101A20000E94510465E070E080E090E00E941304A1
:101A30000F5F1F4F1093A5040093A404D4CF00910F
:101A4000A4041091A504043B110594F4B8018EEA96
:101A500095E00E94510465E070E080E090E00E9413
:101A600013040F5F1F4F1093A5040093A404E7CF46
:101A700064EF71E080E090E00E9413041092A504EE
:101A80001092A4040091A4041091A504043B110534
:101A90000CF01BC1B8018BEA95E00E94510465E08F
:101AA00070E080E090E00E9413040F5F1F4F1093DE
:101AB000A5040093A404E6CF0091A4041091A5040A
:101AC000043B110594F4B8018EEA95E00E9451049C
:101AD00065E070E080E090E00E9413040F5F1F4F0C
:101AE0001093A5040093A404E7CF64EF71E080E0B5
:101AF00090E00E9413041092A5041092A404009197
:101B0000A4041091A504043B11050CF0DEC0B8013B
:101B10008BEA95E00E94510465E070E080E090E07F
:101B20000E9413040F5F1F4F1093A5040093A40499
:101B3000E6CF0091A4041091A504043B110594F490
:101B4000B8018EEA95E00E94510465E070E080E003
:101B500090E00E9413040F5F1F4F1093A5040093A1
:101B6000A404E7CF64EF71E080E090E00E941304EA
:101B70001092A5041092A4040091A4041091A5044D
:101B8000043B11050CF0A1C0B8018BEA95E00E945E
:101B90005104B80188EA95E00E94510465E070E0C4
:101BA00080E090E00E9413040F5F1F4F1093A50484
:101BB0000093A404E1CF0091A4041091A504043B78
:101BC000110594F4B8018EEA95E00E94510465E095
:101BD00070E080E090E00E9413040F5F1F4F1093AD
:101BE000A5040093A404E7CF64EF71E080E090E0E7
:101BF0000E9413041092A5041092A4040091A4045E
:101C00001091A504043B11050CF05FC0B8018BEAEC
:101C100095E00E945104B80188EA95E00E945104C1
:101C200065E070E080E090E00E9413040F5F1F4FBA
:101C30001093A5040093A404E1CF0091A404109193
:101C4000A504043B11050CF040C0B80188EA95E0FA
:101C50000E945104073911052CF4B80185EA95E07A
:101C60000E94510465E070E080E090E00E9413045F
:101C70000F5F1F4F1093A5040093A404DECF0091C3
:101C8000A4041091A504043B1105FCF4B8018BEAEF
:101C900095E00E945104073911052CF4B80185EA3A
:101CA00095E00E945104B80182EA95E00E94510437
:101CB00065E070E080E090E00E9413040F5F1F4F2A
:101CC0001093A5040093A404DACF8091B8049091F6
:101CD000B904019721F48DEB93E00E9453078091A2
:101CE000BD049091BE049093BC048093BB0480918A
:101CF000B6049091B704009709F00EC48091B8041F
:101D00009091B9040197E9F5809100029091010248
:101D1000009709F458C20197A1F590E080E00E9475
:101D20000F0686E40E94330665E070E080E090E0F4
:101D30000E94130481E090E00E940F0682E70E9457
:101D4000330665E070E080E090E00E94130482E0DA
:101D500090E00E940F0685E40E94330665E070E083
:101D600080E090E00E94130483E090E00E940F0660
:101D700080E30E94330665E070E080E090E00E941E
:101D800013048091B8049091B904892B09F07BC2A7
:101D9000E091A604F091A704E830F10508F073C2C1
:101DA00090E08827E952F14F8F4F0C948013101167
:101DB000A611D211F11110122F124E126D121092A3
:101DC000BA048CEC93E00E9453078091B804909180
:101DD000B904892B09F0EDC1E091A604F091A704A4
:101DE000E830F10508F0E5C1D093A504C093A40440
:101DF0008827E250F14F8F4F0C948013060F350F58
:101E0000870FC40F011046108B10B0100091A4046E
:101E10001091A504101611060CF0CBC1053B11055D
:101E2000BCF4B8018BEA95E00E945104B80188EA3D
:101E300095E00E945104073911052CF4B80185EA98
:101E400095E00E945104B80182EA95E00E94510495
:101E500065E070E080E090E00E94130401501109F9
:101E60001093A5040093A404D1CF0091A404109171
:101E7000A5041016110694F4B8018EEA95E00E94AC
:101E8000510465E070E080E090E00E94130401508E
:101E900011091093A5040093A404E7CF64EF71E047
:101EA00080E090E00E941304D093A504C093A404A2
:101EB0000091A4041091A504101611060CF079C12C
:101EC000053B1105BCF4B8018BEA95E00E94510472
:101ED000B80188EA95E00E945104073911052CF4F5
:101EE000B80185EA95E00E945104B80182EA95E0C4
:101EF0000E94510465E070E080E090E00E941304CD
:101F0000015011091093A5040093A404D1CF0091AE
:101F1000A4041091A5041016110694F4B8018EEAD9
:101F200095E00E94510465E070E080E090E00E943E
:101F30001304015011091093A5040093A404E7CFE2
:101F400064EF71E080E090E00E941304D093A50458
:101F5000C093A4040091A4041091A50410161106C6
:101F60000CF027C1B8018BEA95E00E94510465E0AE
:101F700070E080E090E00E9413040150110910937A
:101F8000A5040093A404E6CF0091A4041091A50435
:101F90001016110694F4B8018EEA95E00E945104DF
:101FA00065E070E080E090E00E94130401501109A8
:101FB0001093A5040093A404E7CF64EF71E080E0E0
:101FC00090E00E941304D093A504C093A404009150
:101FD000A4041091A504101611060CF0EAC0B80173
:101FE0008BEA95E00E94510465E070E080E090E0AB
:101FF0000E941304015011091093A5040093A40436
:10200000E6CF0091A4041091A5041016110694F4D3
:10201000B8018EEA95E00E94510465E070E080E02E
:1020200090E00E941304015011091093A50400933D
:10203000A404E7CF64EF71E080E090E00E94130415
:10204000D093A504C093A4040091A4041091A50406
:10205000101611060CF0ADC0053B110554F4B80183
:102060008BEA95E00E945104B80188EA95E00E944D
:10207000510465E070E080E090E00E94130401509C
:1020800011091093A5040093A404DECF0091A404C9
:102090001091A5041016110694F4B8018EEA95E08B
:1020A0000E94510465E070E080E090E00E9413041B
:1020B000015011091093A5040093A404E7CF64EF25
:1020C00071E080E090E00E941304D093A504C093D7
:1020D000A4040091A4041091A504101611060CF09C
:1020E00068C0053B110554F4B8018BEA95E00E94E5
:1020F0005104B80188EA95E00E94510465E070E05F
:1021000080E090E00E941304015011091093A5048F
:102110000093A404DECF0091A4041091A50410162E
:1021200011060CF046C0053B11052CF4B80188EAF5
:1021300095E00E945104073911052CF4B80185EA95
:1021400095E00E94510465E070E080E090E00E941C
:102150001304015011091093A5040093A404DBCFCC
:102160000091A4041091A5041016110614F5053B66
:10217000110594F4B8018BEA95E00E9451040739E7
:1021800011052CF4B80185EA95E00E945104B801CC
:1021900082EA95E00E94510465E070E080E090E002
:1021A0000E941304015011091093A5040093A40484
:1021B000D7CF8091B8049091B904019709F08FCDE1
:1021C00080ED93E08ACD90E080E00E940F0686E4E7
:1021D0000E94330665E070E080E090E00E94130406
:1021E00081E090E00E940F0682E70E94330665E0DE
:1021F00070E080E090E00E94130482E090E00E9492
:102200000F0685E40E94330665E070E080E090E010
:102210000E94130483E090E00E940F0681E3A9CDA1
:1022200080E00E940F0682E60E94330665E070E0BF
:1022300080E090E00E94130481E090E00E940F068D
:1022400081E40E94330665E070E080E090E00E9447
:10225000130482E090E00E940F0683E50E9433069B
:1022600065E070E080E090E00E94130483E090E07D
:102270000E940F0680E30E94330665E070E080E074
:1022800090E00E9413048BE00E945B03909307028E
:102290008093060220910402309105028217930771
:1022A00019F1892B09F096C10E9445047093AF047F
:1022B0006093AE0420910202309103028B01021B55
:1022C000130B1093AD040093AC0461E08DE00E9409
:1022D000840303531109053D164030F4F092B30412
:1022E00081EE93E00E9446078091060290910702DA
:1022F00090930502809304028091B304811123C05E
:102300008091B2048823F9F00E94450420910202D2
:1023100030910302621B730B7093B1046093B0049D
:10232000613D774084F08CEE93E00E9446078091F7
:10233000B0049091B1040E94AF078BE192E00E943B
:1023400046070E942C080E94C302C1CA80E00E9476
:102350000F0682E60E94330665E070E080E090E0C0
:102360000E94130481E090E00E940F0681E40E9425
:10237000330665E070E080E090E00E94130482E0A4
:1023800090E00E940F0683E50E94330665E070E04E
:1023900080E090E00E94130483E090E00E940F062A
:1023A00081E369CF80E00E940F0680E50E9433063A
:1023B00065E070E080E090E00E94130481E090E02E
:1023C0000E940F0689E60E94330665E070E080E017
:1023D00090E00E94130482E090E00E940F068EE6D7
:1023E0003DCF80E00E940F0680E50E94330665E045
:1023F00070E080E090E00E94130481E090E00E9491
:102400000F0689E60E94330665E070E080E090E008
:102410000E94130482E090E00E940F068EE6B4CF83
:1024200080E00E940F0684E70E94330665E070E0BA
:1024300080E090E00E94130481E090E00E940F068B
:1024400082E70E94330665E070E080E090E00E9441
:10245000130482E090E00E940F0689E6FFCE80E040
:102460000E940F0684E70E94330665E070E080E07A
:1024700090E00E94130481E090E00E940F0682E742
:102480000E94330665E070E080E090E00E94130453
:1024900082E090E00E940F0689E676CF80E00E94FD
:1024A0000F0685E40E94330665E070E080E090E06E
:1024B0000E94130481E090E00E940F0688E50E94CC
:1024C000330665E070E080E090E00E94130482E053
:1024D00090E00E940F0684E7C1CE80E00E940F06C4
:1024E00085E40E94330665E070E080E090E00E94A1
:1024F000130481E090E00E940F0688E50E943306F5
:1025000065E070E080E090E00E94130482E090E0DB
:102510000E940F0684E738CF8130910599F0029729
:10252000C9F10E9445042091B4043091B504621BA6
:10253000730B613D77400CF4A6CE1092B704109255
:10254000B604A1CE90E080E00E940F0682E60E94D1
:10255000330665E070E080E090E00E94130481E0C3
:1025600090E00E940F0681E40E94330665E070E06F
:1025700080E090E00E94130482E090E00E940F0649
:1025800084E70E94330665E070E080E090E00E94FE
:102590001304C7CF90E080E00E940F068CE40E94F5
:1025A000330665E070E080E090E00E94130481E073
:1025B00090E00E940F068FE60E94330665E070E00F
:1025C00080E090E00E94130482E090E00E940F06F9
:1025D00083E6D7CF0E944504709303026093020202
:1025E0002091AE043091AF04621B730B7093AB0467
:1025F0006093AA048091A8049091A90401969093F5
:10260000A9048093A804F092B20460E08DE00E94D7
:1026100084038091B304882309F466CE0E942C08B9
:1026200063CEA1E21A2EAA1BBB1BFD010DC0AA1F7F
:10263000BB1FEE1FFF1FA217B307E407F50720F02B
:10264000A21BB30BE40BF50B661F771F881F991FA6
:102650001A9469F760957095809590959B01AC01EF
:10266000BD01CF010895052E97FB1EF400940E9432
:102670004A1357FD07D00E94111307FC03D04EF4F4
:102680000C944A1350954095309521953F4F4F4FEC
:102690005F4F089590958095709561957F4F8F4F0E
:1026A0009F4F08950E946513A59F900DB49F900DB4
:1026B000A49F800D911D11240895B7FF0C9452130F
:1026C0000E945213821B930B0895A29FB001B39FE7
:1026D000C001A39F700D811D1124911DB29F700D2B
:1026E000811D1124911D0895991B79E004C0991F43
:1026F000961708F0961B881F7A95C9F7809508955C
:10270000EE0FFF1F881F8BBF0790F691E02D1994E5
:04271000F894FFCF6B
:102714000100FFFF01000100000000005602C0019B
:10272400ED01A3021E02FC0110020D0A00437572A2
:1027340072656E743A204261736963202D20466984
:1027440073740043757272656E743A2042617369E2
:1027540063202D20477269700043757272656E7430
:102764003A2050696E63686573202D2050696E634A
:10277400680043757272656E743A2050696E6368BE
:102784006573202D2050696E63684E6F46697374BB
:102794000043757272656E743A20547269706F6486
:1027A40073202D20547269706F64004375727265D2
:1027B4006E743A20547269706F6473202D205472C1
:1027C40069706F64684E6F46697374004375727202
:1027D400656E743A2045787472614772697073202B
:1027E4002D204578747261310043757272656E7480
:1027F4003A2045787472614772697073202D2045C0
:102804007874726132004275746F6E756C20612049
:10281400666F737420617061736174206F206A75D0
:102824006D617461746520646520736563756E649D
:10283400610057495448205448554D420057495463
:10284400484F5554205448554D50002E2E2E4C6F51
:10285400636B696E6720536572766F732E2E2E003C
:102864002E2E2E4368616E67696E67204D6F646516
:102874002E2E2E002E2E2E5368757420646F776EC4
:102884002E2E2E002D2D2D20417520666F73742061
:10289400002061706173617269202D2D2D200A0062
:1028A400564D4450565F317C315F564D4450560A64
:1028B40000564D4450525F000A0A21214E6577208C
:1028C40073657373696F6E2121004F6E00464C452A
:1028D40058414D2043552053504F52004F666600D7
:1028E400455854494E44454D2043552053504F526A
:1028F4000043726574696E756C650A006D696C6C71
:1029040069732829202D2070726573735F73746F47
:04291400703A2000F5
:00000001FF
