:100000000C9469010C94BB0C0C94900C0C94650C32
:100010000C943A0C0C940F0C0C94E40B0C94B90B4C
:100020000C948E0B0C949A010C949A010C949A01E6
:100030000C949A010C949A010C949A010C949A01D4
:100040000C949A010C94700D0C949A010C949A01E2
:100050000C949A010C949A010C949A010C94440B00
:100060000C949A010C940E0B0C94E40A0C949A01D3
:100070000C949A010C949A010C949A010C949A0194
:100080000C94420D0C949A010C949A010C949A01D0
:100090000C949A010C949A010C949A010C949A0174
:1000A0000C949A010C949A010C94140D0C949A01DE
:1000B0000C949A010C949A010C949A010C94E60CFD
:1000C0000C949A010C949A010C949A010C949A0144
:1000D0000C949A010C949A010C949A010C949A0134
:1000E0000C949A010C94AE120C94CE140C948513BB
:1000F0000C9416030C945E160C941C030C942003B1
:100100000C94AD130C9455040C9449030C945703B0
:100110000C94DA160C9424030C9431030C942B03E6
:100120000C9422020C9428030C943B030C943F0380
:100130000C94D3080C947D160C94BB160C94DF1110
:100140000C94C4010C9415120C9451030C948C1152
:100150000C946F120C9443030C94F1010C94000264
:100160000C9456030C945A020C943F160C9498105D
:100170000C9404100C94D9100C94B90D0C9421110A
:100180000C9457100C949C160C94A7020C94140217
:100190000C945B030C9439130C9435030C94D60F18
:1001A0000C9469110C9413160C94ED120C944D03DD
:1001B00000002100240027002A002D003000330019
:1001C00001010000040107010A01000022002500CE
:1001D00028002B002E003100340002010000050130
:1001E00008010B01000020002300260029002C003C
:1001F0002F0032000001000003010601090105057E
:100200000505070508080808020202020A0A08088C
:1002100004040404010101010101010103030303BA
:1002200003030303040707070C0C0C0C0C0C0C0C49
:100230000202020206060606060606060B0B0B0B5A
:100240000B0B0B0B0102102020080810204010207F
:10025000408002010201080402010102040810208A
:100260004080804020100804020180040201804088
:1002700020100804020108040201010204081020F1
:100280004080010204081020408000000A0B02098F
:100290000C0D0E0807030401000000000000000020
:1002A000000000000000000000000000000000004E
:1002B000000000000000121110000000000000000B
:1002C000000000000000000000000000000000002E
:1002D000B90D11241FBECFEFD1E2DEBFCDBF00E0CC
:1002E0000CBF13E0A0E0B2E0EAE9F6E300E00BBFE8
:1002F00002C007900D92A43BB107D9F725E0A4EB0B
:10030000B3E001C01D92A536B207E1F711E0C9E6DE
:10031000D1E000E006C021970109802FFE010E9474
:10032000431BC836D10780E00807A9F70E940B0ECF
:100330000C944B1B0C940000E3E7F4E0A089B18916
:1003400082E08C93A485B5851C92A685B7858FEC39
:100350008C93108EA489B58986E08C93A289B38989
:100360008C9180618C93A289B3898C9188608C93E5
:10037000A289B3898C9180688C930288F389E02DDF
:1003800080818F7D80830895AF92BF92CF92DF925C
:10039000EF92FF920F931F93CF93DF936C017B013A
:1003A0008B01040F151FEB015E01AE18BF08C017CB
:1003B000D10759F06991D601ED91FC910190F0813E
:1003C000E02DC6011995892B79F7C501DF91CF91F1
:1003D0001F910F91FF90EF90DF90CF90BF90AF9063
:1003E0000895FC01538D448D252F30E0842F90E03B
:1003F000821B930B541710F0CF9608950197089520
:10040000FC01918D828D981761F0A28DAE0FBF2FE8
:10041000B11D5D968C91928D9F5F9F73928F90E03E
:1004200008958FEF9FEF0895FC01918D828D9817AD
:1004300031F0828DE80FF11D858D90E008958FEFEA
:100440009FEF0895FC01918D228D892F90E0805CB3
:100450009F4F821B91098F739927089583E794E03A
:100460000E94220221E0892B09F420E0822F0895C6
:10047000FC01A48DA80FB92FB11DA35ABF4F2C9119
:10048000848D90E001968F739927848FA689B78910
:100490002C93A089B1898C91837080648C93938D07
:1004A000848D981306C00288F389E02D80818F7DAA
:1004B00080830895EF92FF920F931F93CF93DF9362
:1004C000EC0181E0888F9B8D8C8D98131AC0E88990
:1004D000F989808185FF15C09FB7F894EE89FF895F
:1004E0006083E889F98980818370806480839FBFFD
:1004F00081E090E0DF91CF911F910F91FF90EF90FD
:100500000895F62E0B8D10E00F5F1F4F0F7311270C
:10051000E02E8C8D8E110CC00FB607FCFACFE88947
:10052000F989808185FFF5CFCE010E943802F1CF95
:10053000EB8DEC0FFD2FF11DE35AFF4FF0829FB7BB
:10054000F8940B8FEA89FB8980818062CFCFCF93AB
:10055000DF93EC01888D8823B9F0AA89BB89E889EB
:10056000F9898C9185FD03C0808186FD0DC00FB691
:1005700007FCF7CF8C9185FFF2CF808185FFEDCF0F
:10058000CE010E943802E9CFDF91CF91089580E03B
:1005900090E0892B29F00E942E0281110E94000018
:1005A00080E090E0892B49F080E090E0892B29F0F1
:1005B0000E94000081110E94000080E090E0892BE1
:1005C00049F080E090E0892B29F00E940000811121
:1005D0000E94000080E090E0892B49F080E090E0EC
:1005E000892B29F00E94000081110C9400000895CD
:1005F0008150823108F05AC0E82FF0E08827EC5F84
:10060000FC4F8F4F0C94431B2403280316031C0339
:10061000200356032B03310335033B033F034303FE
:1006200049034D035603510357035B038091800038
:100630008F77809380000895809180008F7DF9CF1F
:1006400080918000877FF5CF84B58F7784BD089532
:1006500084B58F7DFBCF8091B0008F778093B00001
:1006600008958091B0008F7DF9CF809190008F77B1
:10067000809390000895809190008F7DF9CF8091B4
:100680009000877FF5CF8091A0008F778093A000A6
:1006900008958091A0008F7DF9CF8091A000877F81
:1006A000F5CF809120018F7780932001089580916C
:1006B00020018F7DF9CF80912001877FF5CFCF93E7
:1006C000DF93282F30E0F901E657FD4F8491F901BF
:1006D000EC5BFD4FD491F901E250FE4FC491CC2365
:1006E000A1F081110E94F802EC2FF0E0EE0FFF1F45
:1006F000EC51FE4FA591B491EC91ED2381E090E097
:1007000009F480E0DF91CF91089580E090E0FACF86
:100710001F93CF93DF93282F30E0F901E657FD4F69
:100720008491F901EC5BFD4FD491F901E250FE4F49
:10073000C491CC23A9F0162F81110E94F802EC2F4E
:10074000F0E0EE0FFF1FE653FE4FA591B4918FB777
:10075000F894EC91111108C0D095DE23DC938FBF83
:10076000DF91CF911F910895DE2BF8CFCF93DF93C8
:1007700090E0FC01EC5BFD4F249182509E4FFC0108
:1007800084918823C9F090E0880F991FFC01E055FF
:10079000FE4FA591B491FC01E653FE4FC591D49153
:1007A00061110DC09FB7F8948C91209582238C9392
:1007B0008881282328839FBFDF91CF9108956230DD
:1007C00051F49FB7F8943C91822F809583238C93AA
:1007D000E8812E2BEFCF8FB7F894EC912E2B2C9332
:1007E0008FBFEACF3FB7F8948091500490915104A5
:1007F000A0915204B091530426B5A89B05C02F3F89
:1008000019F00196A11DB11D3FBFBA2FA92F982F36
:100810008827BC01CD01620F711D811D911D42E031
:10082000660F771F881F991F4A95D1F708958F92F9
:100830009F92AF92BF92CF92DF92EF92FF924B01C5
:100840005C010E94F2036B017C010E94F2036C19AF
:100850007D098E099F09683E734081059105A8F3C3
:1008600021E0821A9108A108B10888EEC80E83E041
:10087000D81EE11CF11C81149104A104B10429F7D4
:10088000FF90EF90DF90CF90BF90AF909F908F90B0
:1008900008952FB7F89460914C0470914D048091A5
:1008A0004E0490914F042FBF08950895CF92DF9288
:1008B000EF92FF92CF93DF93EC01603282E07807F2
:1008C000CCF5653B710514F064EB70E0898128E894
:1008D00030E0281B310987FD3395220F331F220F8B
:1008E000331F6901330FEE08FF088A8128E532E0E3
:1008F000281B310987FD3395220F331F220F331F29
:10090000032E000C440B550B2C193D094E095F09B1
:10091000DB0177FF02C0B0E0A0E00E94201B24EBC7
:1009200030E040E050E00E94F61AC20ED31EE41EF2
:10093000F51EB601E881E03370F5298188E890E082
:10094000821B910927FD9395880F991F880F991F86
:10095000681779077CF02A8188E592E0821B91096B
:1009600027FD9395880F991F880F991F681779079E
:100970000CF4CB010297880F991F4FB7F8942E2FD4
:1009800030E0F901EE0FFF1FE20FF31FE554FC4FBB
:10099000928381834FBFDF91CF91FF90EF90DF90E3
:1009A000CF9008951F93CF93DF93EC01162F88818A
:1009B000803308F04EC061E0812F0E94B603888129
:1009C000282F30E0F901EE0FFF1FE20FF31FE5546F
:1009D000FC4F1F736081607C612B608319821A82D7
:1009E0002CE0622F0E94371B829FB001112430E05F
:1009F00020E0AB01420F531FFA01EE0FFF1FE40F7F
:100A0000F51FE554FC4F908196FD16C02F5F3F4FB8
:100A10002C30310571F7813009F51092800082E0A9
:100A2000809381001092850010928400B19A809189
:100A30006F00826080936F00E8818E2F90E0FC0150
:100A4000EE0FFF1FE80FF91FE554FC4F8081806413
:100A500080838881DF91CF911F910895823061F466
:100A60001092900080939100109295001092940043
:100A700088BB80937100E0CF833069F41092A000AE
:100A800082E08093A1001092A5001092A40089BB7F
:100A900080937200D1CF8111CFCF1092200182E0DC
:100AA0008093210110922501109224018ABB80932A
:100AB0007300C2CFAF92BF92CF92DF92EF92FF92BC
:100AC0000F931F93CF93DF936B017A01EC01CA540C
:100AD000DC4F28813CE0389F8001399F100D1124A4
:100AE000A090BA03B12C27FF1FC0FB011182108216
:100AF00088818F5F888388819801280F311D87FD49
:100B00003A95F6012A153B051CF488818C30C4F116
:100B100080819181049680349C4908F473C0F60169
:100B200080819181049670C088819801280F311DC1
:100B300087FD3A952A153B05DCF68881A801480F08
:100B4000511D87FD5A95FA01EE0FFF1FE40FF51FA7
:100B5000E554FC4F808186FFCBCF8881F801E80FF8
:100B6000F11D87FDFA95CF01EE0FFF1FE80FF91F6A
:100B7000E554FC4F808160E08F730E948803B8CFFA
:100B8000808191812881A801420F511D27FD5A952E
:100B90009A01FA01EE0FFF1FE20FF31FE554FC4F1D
:100BA00021813281820F931FF70191838083888195
:100BB0009801280F311D87FD3A95F901EE0FFF1FAF
:100BC000E20FF31FE554FC4F808186FF22C088812D
:100BD000080F111D87FD1A95F801EE0FFF1FE00F9A
:100BE000F11FE554FC4F808161E08F73DF91CF915D
:100BF0001F910F91FF90EF90DF90CF90BF90AF903B
:100C00000C94880380E49CE9F701918380838FEF43
:100C10008883DF91CF911F910F91FF90EF90DF902C
:100C2000CF90BF90AF900895CF93DF93EC0161E038
:100C30008EE10E94880361E08FE10E94880361E0F9
:100C400080E20E94880361E081E20E94880360E004
:100C500080E2C130D10541F08FE1C230D10521F0F1
:100C60008EE1CD2B09F081E2DF91CF910C948803C6
:100C700060E086E10E94880360E087E10E948803CB
:100C800060E088E10E94880360E089E10E948803B7
:100C900060E08AE10E94880360E08BE10E948803A3
:100CA00060E08CE10C9488038C3409F4D3C00CF51B
:100CB000843309F4CDC07CF4813309F409C124F4F0
:100CC000803309F4FBC00895823309F413C18333E0
:100CD00009F416C10895813409F458C024F4853309
:100CE00009F45EC00895853409F4A8C0863431F152
:100CF0000895833609F4D8C074F4833509F450C0DC
:100D000024F4803509F45EC00895883509F4A0C044
:100D1000823611F108958F3609F4B8C03CF4893653
:100D200009F456C08E3609F469C00895823709F473
:100D30007BC060E0843709F482C0089561E086E1F9
:100D40000E94880360E087E10E94880360E088E1F8
:100D50000E94880360E00DC060E086E10E94880385
:100D600060E087E10E94880361E088E10E948803D7
:100D700061E089E10E94880361E08AE10E948803C2
:100D800061E08BE10E94880361E07DC061E086E163
:100D90000E94880361E087E10E94880361E0D7CF69
:100DA00061E086E10E94880360E087E10E94880399
:100DB00061E088E10E94880361E089E10E94880384
:100DC00060E0DBCF61E086E10E94880361E0BBCF99
:100DD00060E086E10E94880360E087E10E9488036A
:100DE00060E088E10E94880360E089E10E94880356
:100DF00061E08AE10E94880360E041C060E086E132
:100E00000E94880360E087E10E94880361E088E136
:100E10000E94880360E089E10E94880361E08AE122
:100E20000E94880360E0ADCF60E086E10E94880305
:100E300060E087E10E94880360E0E9CF61E086E13D
:100E40000E94880360E087E10E94880360E08DCF04
:100E500060E09DCF60E086E10E94880360E087E16A
:100E60000E94880360E088E10E94880361E089E1D4
:100E70000E94880361E08AE10E94880361E08BE1BF
:100E80000E94880360E08CE10C94880360E086E1B6
:100E90000E94880360E087E10E94880361E088E1A6
:100EA0000E94880361E0B7CF60E086E10E9488037A
:100EB00060E087E10E94880360E0F1CF61E086E1B5
:100EC0000E94880361E087E10E94880361E0CBCF44
:100ED00060E086E10E94880361E087E10E94880368
:100EE00061E088E10E94880360E089E10E94880354
:100EF00060E07FCF61E086E10E94880361E0D9CFA6
:100F000061E086E10E94880361E087E10E94880336
:100F100061E088E10E94880361E089E10E94880322
:100F200060E07DCF8230910509F444C02CF4009735
:100F300059F0019729F108958330910509F44CC0C7
:100F4000049709F45FC0089560E086E10E94880379
:100F500061E087E10E94880361E088E10E948803E4
:100F600060E089E10E94880360E08AE10E948803D2
:100F700060E08BE10E94880360E08CE10C948803C0
:100F800061E086E10E94880361E087E10E948803B6
:100F900060E088E10E94880361E089E10E948803A3
:100FA00061E08AE10E94880360E08BE10E9488038F
:100FB00061E0E3CF61E086E10E94880361E087E1C0
:100FC0000E94880361E088E10E94880361E089E172
:100FD0000E94880360E0E5CF60E086E10E9488031C
:100FE00061E087E10E94880361E088E10E94880354
:100FF00060E089E10E94880360E08AE10E94880342
:1010000061E0D3CF61E086E10E94880360E087E180
:101010000E94880361E088E10E94880361E0E9CFD3
:101020000F931F93CF93DF9384EB90E0909366042C
:101030008093650404EB10E0C0916504D0916604D0
:101040001C161D069CF4B8016C1B7D0B86E595E013
:101050000E94560465E070E080E090E00E94170472
:101060002197D0936604C0936504E6CFDF91CF91BA
:101070001F910F9108950F931F93CF93DF931092B9
:1010800066041092650404EB10E0C0916504D091F1
:101090006604C43BD1059CF4B8016C1B7D0B86E54E
:1010A00095E00E94560465E070E080E090E00E94C8
:1010B00017042196D0936604C0936504E6CFDF91B0
:1010C000CF911F910F910895CF93DF9384EB90E020
:1010D0009093660480936504C0916504D091660482
:1010E0001C161D068CF4BE0189E595E00E9456048D
:1010F00065E070E080E090E00E9417042197D093B3
:101100006604C0936504E8CFDF91CF910895CF9333
:10111000DF931092660410926504C0916504D0912B
:101120006604C43BD1058CF4BE0189E595E00E94BC
:10113000560465E070E080E090E00E94170421967C
:10114000D0936604C0936504E8CFDF91CF910895F2
:101150000F931F93CF93DF9384EB90E090936604FB
:101160008093650404EB10E0C0916504D09166049F
:101170001C161D069CF4B8016C1B7D0B8CE595E0DC
:101180000E94560465E070E080E090E00E94170441
:101190002197D0936604C0936504E6CFDF91CF9189
:1011A0001F910F91089583B78E7F83BFE89885E5DF
:1011B00094E090930502809304020895FC0101904D
:1011C0000020E9F73197AF01481B590BBC0183E7B9
:1011D00094E00C94C401CF93DF930E94DE08EC01ED
:1011E00082E492E00E94DE088C0F9D1FDF91CF9178
:1011F00008958091B4039091B50381309105B9F0C1
:1012000030F08230910519F1039789F108958091AA
:10121000540490915504009719F0019729F008950E
:1012200085E492E00C94EB088BE592E0FBCF809193
:101230005404909155048230910519F0039721F0E0
:10124000089581E792E0EECF8AE892E0EBCF8091BB
:101250005404909155048430910519F0059721F0BC
:10126000089589EA92E0DECF83EC92E0DBCF8091B3
:101270005404909155048630910519F0079721F098
:10128000089584EE92E0CECF81E093E0CBCF0F9330
:101290001F93CF93DF9380916204813009F444C19E
:1012A00080915A0490915B0484569109843893404C
:1012B00000F58091670481111CC08EE193E00E94CB
:1012C000EB0880912E0290912F02009709F489C0BB
:1012D0008130910561F420912C0230912D02213052
:1012E000310509F079C010922D0210922C020E9453
:1012F000F90880915A0490915B04885E9340803D88
:101300009740B0F482E393E00E94EB080E94490406
:1013100070936C0460936B04809167048111F8C032
:1013200081E090E090936E0480936D048093670455
:1013300080915A0490915B04885B9B40803D97406C
:10134000A8F480916704811111C087E493E00E94A2
:10135000EB0880912E0290912F028130910509F4C3
:10136000E0C0019690932F0280932E0280915A0440
:1013700090915B0488389341F4F080916704811167
:101380001AC08BE593E00E94EB080E94380683B7F1
:10139000816083BF83ED98E09093050280930402FF
:1013A000809169008C7F80936900E89A83B7817F80
:1013B000846083BF889510926F041092620410922B
:1013C0005704109256041092590410925804DF9159
:1013D000CF911F910F91089590932D0280932C022D
:1013E00086CF8091B4039091B5038130910541F18E
:1013F00090F08230910509F465C0039709F077CF2A
:1014000080915404909155048630910509F07AC07A
:1014100087E090E008C080915404909155040097B3
:1014200039F481E090E090935504809354045FCFA9
:10143000019709F05CCF109255041092540457CFD5
:1014400080915404909155048230910559F583E0C0
:1014500090E090935504809354040E943B080E94AE
:101460008708109266041092650404EB10E0C091A6
:101470006504D0916604C43BD1050CF038CFB801A7
:101480006C1B7D0B8CE595E00E94560465E070E0D6
:1014900080E090E00E9417042196D0936604C093E8
:1014A0006504E5CF039709F022CF82E090E09093A6
:1014B0005504809354040E9410080E9464080E94FE
:1014C000A80815CF8091540490915504843091055B
:1014D00059F485E090E090935504809354040E9461
:1014E0003B080E94870803CF059709F000CF84E0EE
:1014F00090E090935504809354040E9410080E9439
:101500006408F5CE079709F0F2CE86E090E08BCF25
:101510001092670482E090E090936E0480936D04D3
:1015200007CF90E080E01ECF80916704811143CF08
:1015300080912E0290912F02892B09F03CCF80914F
:101540005404909155048330910511F50E941008C0
:101550000E9464080E94A8088091B4039091B5038A
:1015600083309105E1F001969093B5038093B40325
:101570008091B4039091B50381309105C1F090F052
:1015800082309105D9F00397E1F00E94F90813CF5A
:10159000059711F70E9410080E946408DDCF90E0C3
:1015A00080E0E2CF1092550410925404EECF82E016
:1015B00090E09093550480935404E7CF84E090E04A
:1015C000F8CF86E090E0F5CF1F920F920FB60F9202
:1015D00011240BB60F922F933F934F935F936F930A
:1015E0007F938F939F93AF93BF93EF93FF9383E783
:1015F00094E00E943802FF91EF91BF91AF919F91CB
:101600008F917F916F915F914F913F912F910F90AB
:101610000BBE0F900FBE0F901F9018951F920F9248
:101620000FB60F9211240BB60F922F938F939F93A7
:10163000EF93FF93E0918304F09184048081E09123
:101640008904F0918A0482FD1DC0908180918C04F0
:101650008F5F8F7320918D04821741F0E0918C048D
:10166000F0E0ED58FB4F958F80938C04FF91EF9144
:101670009F918F912F910F900BBE0F900FBE0F90E7
:101680001F9018958081F2CF1F920F920FB60F9284
:1016900011242F933F938F939F93AF93BF93809188
:1016A0004C0490914D04A0914E04B0914F043091A0
:1016B0004B0423E0230F2D3758F50196A11DB11DD2
:1016C00020934B0480934C0490934D04A0934E04BC
:1016D000B0934F048091500490915104A091520412
:1016E000B09153040196A11DB11D809350049093B5
:1016F0005104A0935204B0935304BF91AF919F91B2
:101700008F913F912F910F900FBE0F901F901895C2
:1017100026E8230F0296A11DB11DD2CF1F920F9272
:101720000FB60F9211240BB60F922F933F934F9346
:101730005F936F937F938F939F93AF93BF93EF9339
:10174000FF93E0910E02F0910F021995FF91EF9136
:10175000BF91AF919F918F917F916F915F914F91C9
:101760003F912F910F900BBE0F900FBE0F901F90C7
:1017700018951F920F920FB60F9211240BB60F926D
:101780002F933F934F935F936F937F938F939F9389
:10179000AF93BF93EF93FF93E0910C02F0910D0292
:1017A0001995FF91EF91BF91AF919F918F917F918B
:1017B0006F915F914F913F912F910F900BBE0F90C2
:1017C0000FBE0F901F9018951F920F920FB60F9299
:1017D00011240BB60F922F933F934F935F936F9308
:1017E0007F938F939F93AF93BF93EF93FF93E0917A
:1017F0000202F09103021995FF91EF91BF91AF9111
:101800009F918F917F916F915F914F913F912F9118
:101810000F900BBE0F900FBE0F901F9018951F9248
:101820000F920FB60F9211240BB60F922F933F9386
:101830004F935F936F937F938F939F93AF93BF93D8
:10184000EF93FF93E0910002F09101021995FF914F
:10185000EF91BF91AF919F918F917F916F915F9128
:101860004F913F912F910F900BBE0F900FBE0F9095
:101870001F9018951F920F920FB60F9211240BB65E
:101880000F922F933F934F935F936F937F938F9319
:101890009F93AF93BF93EF93FF93E0910A02F09170
:1018A0000B021995FF91EF91BF91AF919F918F918D
:1018B0007F916F915F914F913F912F910F900BBE50
:1018C0000F900FBE0F901F9018951F920F920FB69A
:1018D0000F9211240BB60F922F933F934F935F9368
:1018E0006F937F938F939F93AF93BF93EF93FF93E8
:1018F000E0910802F09109021995FF91EF91BF91D3
:10190000AF919F918F917F916F915F914F913F9197
:101910002F910F900BBE0F900FBE0F901F90189538
:101920001F920F920FB60F9211240BB60F922F93A6
:101930003F934F935F936F937F938F939F93AF9357
:10194000BF93EF93FF93E0910602F0910702199580
:10195000FF91EF91BF91AF919F918F917F916F9187
:101960005F914F913F912F910F900BBE0F900FBE43
:101970000F901F9018951F920F920FB60F9211247F
:101980000BB60F922F933F934F935F936F937F9379
:101990008F939F93AF93BF93EF93FF93E0910402D4
:1019A000F09105021995FF91EF91BF91AF919F9131
:1019B0008F917F916F915F914F913F912F910F90F8
:1019C0000BBE0F900FBE0F901F9018951F920F9295
:1019D0000FB60F9211240BB60F922F933F934F9394
:1019E0005F936F937F938F939F93AF93BF93EF9387
:1019F000FF9348E251E064E271E090E080E00E94F1
:101A00005A05FF91EF91BF91AF919F918F917F9177
:101A10006F915F914F913F912F910F900BBE0F905F
:101A20000FBE0F901F9018951F920F920FB60F9236
:101A300011240BB60F922F933F934F935F936F93A5
:101A40007F938F939F93AF93BF93EF93FF9348EA56
:101A500050E064EA70E083E090E00E945A05FF9154
:101A6000EF91BF91AF919F918F917F916F915F9116
:101A70004F913F912F910F900BBE0F900FBE0F9083
:101A80001F9018951F920F920FB60F9211240BB64C
:101A90000F922F933F934F935F936F937F938F9307
:101AA0009F93AF93BF93EF93FF9348E950E064E9AE
:101AB00070E082E090E00E945A05FF91EF91BF91A3
:101AC000AF919F918F917F916F915F914F913F91D6
:101AD0002F910F900BBE0F900FBE0F901F90189577
:101AE0001F920F920FB60F9211240BB60F922F93E5
:101AF0003F934F935F936F937F938F939F93AF9396
:101B0000BF93EF93FF9348E850E064E870E081E012
:101B100090E00E945A05FF91EF91BF91AF919F9184
:101B20008F917F916F915F914F913F912F910F9086
:101B30000BBE0F900FBE0F901F901895FC01909157
:101B4000BA03903398F481E0890F8093BA039083AD
:101B5000892F90E0FC01EE0FFF1FE80FF91FE554FD
:101B6000FC4F88EB9BE09283818308958FEF808305
:101B70000895E3E7F4E01382128288EE93E0A0E098
:101B8000B0E084839583A683B78384E392E0918356
:101B9000808385EC90E09587848784EC90E097873C
:101BA000868780EC90E0918B808B81EC90E0938B2A
:101BB000828B82EC90E0958B848B86EC90E0978B07
:101BC000868B118E128E138E148EE0E1F5E0168254
:101BD000178210861186128613861486158616863D
:101BE0001786108A118A128A138A148A158A82E645
:101BF00095E00E949E0D8FE595E00E949E0D8CE57C
:101C000095E00E949E0D89E595E00E949E0D86E577
:101C100095E00C949E0DCF93DF93CDB7DEB7A197DF
:101C20000FB6F894DEBF0FBECDBF789484B5826046
:101C300084BD84B5816084BD85B5826085BD85B570
:101C4000816085BD80916E00816080936E001092EE
:101C50008100809181008260809381008091810069
:101C600081608093810080918000816080938000FA
:101C70008091B10084608093B1008091B000816058
:101C80008093B00080919100826080939100809158
:101C90009100816080939100809190008160809399
:101CA00090008091A10082608093A1008091A100AA
:101CB00081608093A1008091A00081608093A0004A
:101CC00080912101826080932101809121018160B6
:101CD0008093210180912001816080932001809177
:101CE0007A00846080937A0080917A008260809389
:101CF0007A0080917A00816080937A0080917A00E6
:101D0000806880937A001092C10010925205109260
:101D10005305109254051092550510921205109219
:101D2000130510921405109215050E9449046B01C9
:101D30007C014B015C0128EB820E2BE0921EA11C62
:101D4000B11C0E9449046C157D058E059F0528F085
:101D500086169706A806B906A0F768EE73E080E03D
:101D600090E00E9417040E949C010E944904609325
:101D700012057093130580931405909315058BE657
:101D800093E00E94DE080E9449046B017C014B0134
:101D90005C018AE0880E911CA11CB11C0E944904C0
:101DA0006C157D058E059F0528F086169706A806FA
:101DB000B906A0F781E0809326050E94490460934C
:101DC00012057093130580931405909315058CE705
:101DD00093E00E94DE080E949C0183E893E00E9449
:101DE000EB0863E070E082E695E00E94D20464E0D4
:101DF00070E08FE595E00E94D20465E070E08CE52C
:101E000095E00E94D20466E070E089E595E00E94CA
:101E1000D20467E070E086E595E00E94D20470E0AD
:101E200060E082E695E00E94560470E060E08FE595
:101E300095E00E94560464EB70E08CE595E00E940A
:101E4000560470E060E089E595E00E94560464EB7A
:101E500070E086E595E00E94560460E089E00E940B
:101E6000B60362E085E10E94B60361E08EE10E9464
:101E7000B60361E08FE10E94B60361E080E20E9458
:101E8000B60361E081E20E94B60361E086E10E9450
:101E9000B60361E086E10E94B60361E087E10E943B
:101EA000B60361E088E10E94B60361E089E10E9427
:101EB000B60361E08AE10E94B60361E08BE10E9413
:101EC000B60361E08CE10E94B60361E080E10E940C
:101ED000B603EBE08E2E912CFCE06F2E712CA9E75F
:101EE0002A2E312CBFE64B2E512C04EB10E08091B2
:101EF000720481110C94F91789E00E945F037C0140
:101F0000909371048093700480916F04882391F002
:101F100091E0E916F10471F483E090E090936E048F
:101F200080936D040E94490470936C0460936B0469
:101F300010926F048091690490916A04E816F90682
:101F400009F437C4EA94EF2809F033C48091680497
:101F500081110AC281E08093680485E993E00E94C0
:101F6000EB0880916704811124C480912E02909126
:101F70002F02892B09F01DC4E0915404F0915504FF
:101F8000E830F10508F015C410926604109265045B
:101F90008827E253F04F8F4F0C94431BD60F041049
:101FA00057109810D910211169118C11E090650417
:101FB000F0906604F4EBEF16F1040CF0FAC3B701ED
:101FC0008FE595E00E9456046801CE18DF08B6013F
:101FD0008CE595E00E945604B70189E595E00E94E2
:101FE0005604B60186E595E00E94560465E070E06F
:101FF00080E090E00E9417042FEFE21AF20AF092BC
:102000006604E0926504D2CFE0906504F090660427
:1020100084EBE816F1049CF4B70182E695E00E9497
:10202000560465E070E080E090E00E9417049FEFA6
:10203000E91AF90AF0926604E0926504E5CF64EFCC
:1020400071E080E090E00E94170410926604109204
:102050006504E0906504F0906604E4EBEE16F1048C
:102060000CF0A7C3B7018FE595E00E945604680104
:10207000CE18DF08B6018CE595E00E945604B70142
:1020800089E595E00E945604B60186E595E00E9438
:10209000560465E070E080E090E00E941704FFEFD6
:1020A000EF1AFF0AF0926604E0926504D2CFE09046
:1020B0006504F090660424EBE216F1049CF4B70189
:1020C00082E695E00E94560465E070E080E090E0D2
:1020D0000E9417048FEFE81AF80AF0926604E09263
:1020E0006504E5CF64EF71E080E090E00E941704A2
:1020F0001092660410926504E0906504F090660406
:1021000094EBE916F1040CF054C3B7018FE595E0A8
:102110000E94560465E070E080E090E00E941704A1
:10212000EFEFEE1AFE0AF0926604E0926504E4CF47
:10213000E0906504F0906604F4EBEF16F1049CF473
:10214000B70182E695E00E94560465E070E080E009
:1021500090E00E9417042FEFE21AF20AF092660450
:10216000E0926504E5CF64EF71E080E090E00E94CA
:1021700017041092660410926504E0906504F090D4
:10218000660484EBE816F1040CF013C3B7018FE585
:1021900095E00E94560465E070E080E090E00E94C7
:1021A00017049FEFE91AF90AF0926604E0926504B9
:1021B000E4CFE0906504F0906604E4EBEE16F104E1
:1021C0009CF4B70182E695E00E94560465E070E059
:1021D00080E090E00E941704FFEFEF1AFF0AF092F0
:1021E0006604E0926504E5CF64EF71E080E090E082
:1021F0000E9417041092660410926504E090650432
:10220000F090660424EBE216F1040CF0D2C2B701A0
:102210008FE595E00E945604B8016E197F098CE5A0
:1022200095E00E94560465E070E080E090E00E9436
:1022300017048FEFE81AF80AF0926604E09265043A
:10224000DDCFE0906504F090660494EBE916F104AC
:102250009CF4B70182E695E00E94560465E070E0C8
:1022600080E090E00E941704EFEFEE1AFE0AF09271
:102270006604E0926504E5CF64EF71E080E090E0F1
:102280000E9417041092660410926504E0906504A1
:10229000F0906604F4EBEF16F1040CF08AC2B7017B
:1022A0008FE595E00E945604B8016E197F098CE510
:1022B00095E00E94560465E070E080E090E00E94A6
:1022C00017042FEFE21AF20AF0926604E092650416
:1022D000DDCFE0906504F090660484EBE816F1042D
:1022E0000CF067C2B8016E197F098CE595E00E9479
:1022F0005604B70189E595E00E94560465E070E058
:1023000080E090E00E9417049FEFE91AF90AF0922A
:102310006604E0926504DDCFE0906504F090660409
:10232000E4EBEE16F1040CF044C2B7018FE595E042
:102330000E945604B70189E595E00E945604B80151
:102340006E197F0986E595E00E94560465E070E00D
:1023500080E090E00E941704FFEFEF1AFF0AF0926E
:102360006604E0926504D8CF1092680488E993E08F
:102370000E94EB088091670481111BC280912E029C
:1023800090912F02892B09F014C2E0915404F0912E
:102390005504E830F10508F00CC210936604009370
:1023A00065048827E952FE4E8F4F0C94431BDF11C2
:1023B00015126F12AE12ED1239138513AD13E090A2
:1023C0006504F09066041E141F040CF0F2C125EBA6
:1023D000E216F1042CF4B7018FE595E00E94560453
:1023E0006801CE18DF08D7FE02C00C94A51AB6010A
:1023F0008CE595E00E94560485EBE816F10414F490
:102400000C94AB1AB60186E595E00E94560465E08F
:1024100070E080E090E00E94170491E0E91AF10872
:10242000F0926604E0926504CACFE0906504F090F3
:1024300066041E141F0474F5E5EBEE16F1042CF48B
:10244000B7018FE595E00E9456046801CE18DF08B9
:10245000D7FE02C00C94B61AB6018CE595E00E9436
:102460005604F5EBEF16F10414F40C94BC1AB60103
:1024700086E595E00E94560465E070E080E090E01B
:102480000E94170421E0E21AF108F0926604E0923B
:102490006504CBCF64EF71E080E090E00E94170408
:1024A0001093660400936504E0906504F090660460
:1024B0001E141F040CF07DC1B70182E695E00E9456
:1024C000560465E070E080E090E00E94170481E02F
:1024D000E81AF108F0926604E0926504E5CFE09016
:1024E0006504F09066041E141F049CF4B7018FE588
:1024F00095E00E94560465E070E080E090E00E9464
:10250000170491E0E91AF108F0926604E09265047C
:10251000E6CF64EF71E080E090E00E941704109332
:10252000660400936504E0906504F09066041E1450
:102530001F040CF03EC1B70182E695E00E945604EC
:1025400065E070E080E090E00E941704E1E0EE1AA0
:10255000F108F0926604E0926504E5CFE09065042E
:10256000F09066041E141F049CF4B7018FE595E0FB
:102570000E94560465E070E080E090E00E9417043D
:10258000F1E0EF1AF108F0926604E0926504E6CFFC
:1025900064EF71E080E090E00E94170410936604FD
:1025A00000936504E0906504F09066041E141F0417
:1025B0000CF0FFC0B70182E695E00E94560465E08A
:1025C00070E080E090E00E94170421E0E21AF10838
:1025D000F0926604E0926504E5CFE0906504F09027
:1025E00066041E141F0404F585EBE816F1042CF4B0
:1025F000B7018FE595E00E945604B8016E197F0976
:1026000077FD04C08CE595E00E94560465E070E01B
:1026100080E090E00E94170491E0E91AF108F0923E
:102620006604E0926504D9CF64EF71E080E090E049
:102630000E9417041093660400936504E0906504FB
:10264000F09066041E141F040CF0B3C0B70182E6BC
:1026500095E00E94560465E070E080E090E00E9402
:102660001704E1E0EE1AF108F0926604E0926504C6
:10267000E5CFE0906504F09066041E141F0404F595
:10268000F5EBEF16F1042CF4B7018FE595E00E940D
:102690005604B8016E197F0977FD04C08CE595E0FA
:1026A0000E94560465E070E080E090E00E9417040C
:1026B00021E0E21AF108F0926604E0926504D9CFB5
:1026C00064EF71E080E090E00E94170410936604CC
:1026D00000936504E0906504F09066041E141F04E6
:1026E0000CF067C0B70182E695E00E94560465E0F1
:1026F00070E080E090E00E94170481E0E81AF108A1
:10270000F0926604E0926504E5CFE0906504F090F5
:1027100066041E141F040CF04CC0B8016E197F092A
:1027200077FD04C08CE595E00E94560495EBE91610
:10273000F1042CF4B70189E595E00E94560465E0A8
:1027400070E080E090E00E941704E1E0EE1AF108EA
:10275000F0926604E0926504D8CFE0906504F090B2
:1027600066041E141F042CF5F5EBEF16F10454F467
:10277000B7018FE595E00E945604B70189E595E021
:102780000E945604B8016E197F0977FD04C086E5E2
:1027900095E00E94560465E070E080E090E00E94C1
:1027A000170421E0E21AF108F0926604E092650451
:1027B000D4CF809170049091710490936A048093B7
:1027C000690420916704211153C020912E02309199
:1027D0002F022130310509F04BC0209168042223DB
:1027E00009F47BC6019709F043C0E0906504F090BE
:1027F000660484EBE816F104DCF59FEFE91AF90AA8
:10280000F0926604E0926504E4EBEE16F10429F020
:10281000B7018FE595E00E9456046801CE18DF08E5
:10282000B6018CE595E00E945604F4EBEF16F10436
:1028300029F0B70189E595E00E945604B60186E5C6
:1028400095E00E94560480912C0290912D02892BD4
:1028500049F424EBE216F10429F0B70182E695E091
:102860000E9456046FE070E080E090E00E94170440
:10287000E0906D04F0906E04E114F10409F0B9C227
:1028800080912E0290912F020197E9F580912C0200
:1028900090912D02009709F454C00197A1F590E0A2
:1028A00080E00E94140686E40E94540665E070E011
:1028B00080E090E00E94170481E090E00E941406FE
:1028C00082E70E94540665E070E080E090E00E949C
:1028D000170482E090E00E94140685E40E945406EA
:1028E00065E070E080E090E00E94170483E090E0F3
:1028F0000E94140680E30E94540665E070E080E0C8
:1029000090E00E94170480912E0290912F02892B53
:1029100009F077C0E0915404F0915504E830F105D6
:1029200008F06FC090E08827E756FB4E8F4F0C945D
:10293000431BCE1413163F165E167D169C16BB164F
:10294000DA1690E080E00E94140686E40E945406A5
:1029500065E070E080E090E00E94170481E090E084
:102960000E94140682E70E94540665E070E080E051
:1029700090E00E94170482E090E00E94140685E433
:102980000E94540665E070E080E090E00E94170429
:1029900083E090E00E94140681E3ADCF80E00E94C6
:1029A000140682E60E94540665E070E080E090E044
:1029B0000E94170481E090E00E94140681E40E94C6
:1029C000540665E070E080E090E00E94170482E029
:1029D00090E00E94140683E50E94540665E070E0D2
:1029E00080E090E00E94170483E090E00E941406CB
:1029F00080E30E94540665E070E080E090E00E9471
:102A0000170485E10E945F0390932B0280932A02B2
:102A100020912802309129028217930719F1892BFE
:102A200009F0A4C20E944904709325026093240215
:102A300020912602309127027B01E21AF30AF092DC
:102A40005904E092580461E080E10E94880393E316
:102A5000E91AF108E5EDEE16E6E0FE0618F481E06D
:102A60008093620480912A0290912B029093290214
:102A70008093280280916204811152C080916F047A
:102A8000882309F44DC00E94490420912602309108
:102A90002702621B730B7093610460936004613DB5
:102AA0007740F4F18CE993E00E94DE08C090600466
:102AB000D09061040D2C000CEE08FF08F7FE7EC2DA
:102AC0006DE283E794E00E945A0222273327A9018E
:102AD0002C193D094E095F0919A2CE0181967C018E
:102AE0007AE0A72EB12CC12CD12CCA01B901A601C4
:102AF00095010E94D41A605DF70162937F01211550
:102B000031054105510589F7E114F10419F0C701B8
:102B10000E94DE0883E492E00E94DE080E944709DA
:102B200080912A0290912B02892B09F073C00E9498
:102B3000490420912402309125027B01E21AF30A14
:102B4000F0925F04E0925E04C701875B9340833696
:102B5000910570F460E080E10E9488036AE070E013
:102B600080E090E00E94170461E080E10E94880309
:102B7000C7018F5997408336910570F460E080E17A
:102B80000E9488036AE070E080E090E00E941704F1
:102B900061E080E10E948803C70187589B4083362B
:102BA000910570F460E080E10E9488036AE070E0C3
:102BB00080E090E00E94170461E080E10E948803B9
:102BC000C7018F569F408336910570F460E080E125
:102BD0000E9488036AE070E080E090E00E941704A1
:102BE00061E080E10E948803F7E5EF1AF3E1FF0A54
:102BF00023E6E216F10470F460E080E10E948803AD
:102C00006AE070E080E090E00E94170461E080E1FB
:102C10000E94880365E070E080E090E00E94170465
:102C20000E94C70264C980E00E94140682E60E94E6
:102C3000540665E070E080E090E00E94170481E0B7
:102C400090E00E94140681E40E94540665E070E062
:102C500080E090E00E94170482E090E00E94140659
:102C600083E50E94540665E070E080E090E00E94F9
:102C7000170483E090E00E94140681E3BACE80E05E
:102C80000E94140680E50E94540665E070E080E032
:102C900090E00E94170481E090E00E94140689E60B
:102CA0000E94540665E070E080E090E00E94170406
:102CB00082E090E00E9414068EE68ECE80E00E94B4
:102CC000140680E50E94540665E070E080E090E024
:102CD0000E94170481E090E00E94140689E60E9499
:102CE000540665E070E080E090E00E94170482E006
:102CF00090E00E9414068EE6B4CF80E00E94140695
:102D000084E70E94540665E070E080E090E00E9455
:102D1000170481E090E00E94140682E70E945406A6
:102D200065E070E080E090E00E94170482E090E0AF
:102D30000E94140689E650CE80E00E94140684E7C3
:102D40000E94540665E070E080E090E00E94170465
:102D500081E090E00E94140682E70E94540665E03C
:102D600070E080E090E00E94170482E090E00E9412
:102D7000140689E676CF80E00E94140685E40E945E
:102D8000540665E070E080E090E00E94170481E066
:102D900090E00E94140688E50E94540665E070E009
:102DA00080E090E00E94170482E090E00E94140608
:102DB00084E712CE80E00E94140685E40E94540647
:102DC00065E070E080E090E00E94170481E090E010
:102DD0000E94140688E50E94540665E070E080E0D9
:102DE00090E00E94170482E090E00E94140684E7BD
:102DF00038CF92E0E916F10409F45EC0E3E0EE1684
:102E0000F10409F486C0F1E0EF16F104A1F590E0B9
:102E100080E00E9414068CE40E94540665E070E095
:102E200080E090E00E94170481E090E00E94140688
:102E30008FE60E94540665E070E080E090E00E941A
:102E4000170482E090E00E94140683E60E94540674
:102E500065E070E080E090E00E94170483E090E07D
:102E60000E94140681E30E94540665E070E080E051
:102E700090E00E9417040E94490420916B04309155
:102E80006C04621B730B613D77400CF4BACD109259
:102E90006E0410926D0483E0E816F10409F0B1CDE0
:102EA00081E08093720481E090E0909364048093C9
:102EB00063040E943806A5CD90E080E00E941406CD
:102EC0008CE40E94540665E070E080E090E00E948F
:102ED000170481E090E00E9414068FE60E945406D9
:102EE00065E070E080E090E00E94170482E090E0EE
:102EF0000E94140683E60E94540665E070E080E0BC
:102F000090E00E94170483E090E00E94140680E3A2
:102F1000AACF90E080E00E94140683E60E94540647
:102F200065E070E080E090E00E94170481E090E0AE
:102F30000E9414068FE60E94540665E070E080E06F
:102F400090E00E94170482E090E00E9414068EE652
:102F50000E94540665E070E080E090E00E94170453
:102F600083E090E00E94140686E47DCF0E9449042D
:102F7000709327026093260220912402309125024B
:102F8000621B730B70935B0460935A048091560428
:102F9000909157040196909357048093560481E0D2
:102FA00080936F0460E080E10E9488038091620456
:102FB000882309F457CD0E94470954CDA7019601F3
:102FC00019A2CE0181967C016AE0A62EB12CC12CFB
:102FD000D12CCA01B901A60195010E94D41A605DE5
:102FE000F70162937F01211531054105510589F7EC
:102FF0008BCD85E10E945F035C0190932B0280934F
:103000002A028091280290912902A816B906C1F0DF
:10301000A114B10409F09FC00E94490470932502D5
:10302000609324022091260230912702621B730BC9
:10303000709359046093580461E080E10E94880312
:10304000B0922902A09228028091630490916404B6
:103050008D3091050CF08AC18B3091050CF0C0C108
:10306000019709F495C1AB2809F0DACD0E94490413
:1030700020912402309125027B01E21AF30AF0929A
:103080005F04E0925E04C701875B9340833691053D
:1030900070F460E080E10E9488036AE070E080E004
:1030A00090E00E94170461E080E10E948803C7015C
:1030B0008F5997408336910570F460E080E10E945B
:1030C00088036AE070E080E090E00E94170461E00D
:1030D00080E10E948803C70187589B408336910591
:1030E00070F460E080E10E9488036AE070E080E0B4
:1030F00090E00E94170461E080E10E948803C7010C
:103100008F569F408336910570F460E080E10E9405
:1031100088036AE070E080E090E00E94170461E0BC
:1031200080E10E94880387E5E81A83E1F80A93E6C4
:10313000E916F10408F074CD60E080E10E94880394
:103140006AE070E080E090E00E94170461E080E1B6
:103150000E94880365CDC0906304D09064040E94EF
:103160004904709327026093260220912402309133
:1031700025027B01E21AF30AF0925B04E0925A0402
:1031800060E080E10E948803C70184569109843879
:10319000934088F4FBE0CF16D10409F45DC00CF035
:1031A0003FC081E0C816D10409F44CC092E0C916B2
:1031B000D10409F44EC0C701885E9340803D97401A
:1031C00088F480916304909164048C30910509F433
:1031D00081C00CF060C08130910509F490C00B975C
:1031E00009F46FC0C701885B9B40803D974078F42D
:1031F00080916304909164048D3091050CF084C03B
:103200008B3091050CF096C00197029730F028E8BA
:10321000E21623E1F2060CF413CF1092720410CFE1
:10322000EFE6CE16D104E9F0F9E7CF16D10451F15B
:103230002CE0C216D10409F0BECF909264048092B3
:103240006304B9CF82E090E09093640480936304B8
:10325000B2CF81E090E0F8CF709264046092630492
:10326000AACFE0915C04F0915D04EE0FFF1FE65ED3
:10327000FD4F2081318181E090E0821B930B91838F
:10328000808399CFE0915C04F0915D04EE0FFF1F05
:10329000E05FFD4FEECF8F36910509F1893791053B
:1032A00009F0A0CF80915C0490915D048430910579
:1032B000ECF0049709F096CF709264046092630476
:1032C00091CF509264044092630410925D04109276
:1032D0005C0488CF3092640420926304F6CF80911E
:1032E0005C0490915D048430910534F401969093D0
:1032F0005D0480935C0476CF049709F073CF9092BD
:103300006404809263046ECF8F369105D1F08937C3
:10331000910509F07CCF80915C0490915D041816B2
:103320001906B4F0892B09F08BCE70926404609278
:10333000630486CE81E090E09093640480936304FC
:103340007FCE80915C0490915D041816190634F4C8
:10335000019790935D0480935C0472CE892B09F0F1
:103360006FCE90926404809263046ACE8F3691058A
:1033700009F463C08937910509F075CEE0905C04CB
:10338000F0905D04F701EE0FFF1FE05FFD4F5EC0A0
:1033900090E080E00E94140685E40E94540665E0F7
:1033A00070E080E090E00E94170481E090E00E94CD
:1033B000140688E50E94540665E070E080E090E025
:1033C0000E94170482E090E00E94140684E70E94A5
:1033D000540665E070E080E090E00E94170443CE60
:1033E00090E080E00E94140685E40E94540665E0A7
:1033F00070E080E090E00E94170481E090E00E947D
:10340000140688E50E94540665E070E080E090E0D4
:103410000E94170482E090E00E94140684E70E9454
:10342000540665E070E080E090E00E94170483E0BD
:1034300090E00E94140681E3CACFE0905C04F09013
:103440005D04F701EE0FFF1FE65EFD4F8081918165
:10345000009701F590E080E00E941406C7010E94E9
:10346000920765E070E080E090E00E94170482E03F
:1034700090E00E9414068FE60E94540665E070E01A
:1034800080E090E00E94170483E090E00E94140620
:1034900086E49DCF019709F0E6CD90E080E00E94A0
:1034A0001406C7010E94920765E070E080E090E09A
:1034B0000E94170482E090E00E9414068FE60E94AA
:1034C000540665E070E080E090E00E94170483E01D
:1034D00090E00E9414068EE67ACF019709F0C8C9E1
:1034E000E0906504F09066041E141F040CF0C0C93F
:1034F00081E0E81AF108F0926604E0926504E114B4
:10350000F10429F0B7018FE595E00E9456046801A7
:10351000CE18DF08D7FC41C0B6018CE595E00E94CB
:103520005604E114F10499F5B60186E595E00E9490
:10353000560480912C0290912D02892B09F092C99A
:10354000E114F10409F48EC988C9E5EBEE16F10423
:1035500014F00C940712B70189E595E00E94560417
:10356000D7FC02C00C9402120C940712F5EBEF1674
:10357000F10414F00C943C12B70189E595E00E9427
:103580005604D7FC02C00C9437120C943C12B701BD
:1035900089E595E00E945604C7CFB70189E595E01B
:1035A000E114F10421F6C0CFA1E21A2EAA1BBB1B25
:1035B000FD010DC0AA1FBB1FEE1FFF1FA217B307FF
:1035C000E407F50720F0A21BB30BE40BF50B661F15
:1035D000771F881F991F1A9469F7609570958095D9
:1035E00090959B01AC01BD01CF010895052E97FB7D
:1035F0001EF400940E940D1B57FD07D00E94D41AA0
:1036000007FC03D04EF40C940D1B5095409530955B
:1036100021953F4F4F4F5F4F08959095809570953E
:1036200061957F4F8F4F9F4F08950E94281BA59F44
:10363000900DB49F900DA49F800D911D11240895AD
:10364000B7FF0C94151B0E94151B821B930B08954A
:10365000A29FB001B39FC001A39F700D811D1124D3
:10366000911DB29F700D811D1124911D0895991B0C
:1036700079E004C0991F961708F0961B881F7A9569
:10368000C9F780950895EE0FFF1F881F8BBF079025
:0A369000F691E02D1994F894FFCF95
:10369A005504550455045504550455045504550458
:1036AA00000001000000010001000000000001000C
:1036BA0001000000FFFFFFFF0100010001000100FF
:1036CA00000000005A02C401F101A702220200020E
:1036DA0014020D0A0043757272656E743A204261D3
:1036EA00736963202D20466973740043757272658D
:1036FA006E743A204261736963202D2047726970A3
:10370A000043757272656E743A2050696E6368651B
:10371A0073202D2050696E63680043757272656E5E
:10372A00743A2050696E63686573202D2050696E63
:10373A0063684E6F466973740043757272656E747E
:10374A003A20547269706F6473202D205472697024
:10375A006F640043757272656E743A2054726970B0
:10376A006F6473202D20547269706F64684E6F46BF
:10377A006973740043757272656E743A2045787481
:10378A0072614772697073202D20457874726131B5
:10379A000043757272656E743A2045787472614797
:1037AA0072697073202D20457874726132002E2E52
:1037BA002E4368616E67696E6720477269702E2EA4
:1037CA002E002E2E2E4C6F636B696E672053657226
:1037DA00766F732E2E2E002E2E2E4368616E676929
:1037EA006E67204D6F64652E2E2E002E2E2E536886
:1037FA00757420646F776E2E2E2E00564D445056E7
:10380A005F317C315F564D4450560A00564D445044
:10381A00525F000A0A21214E657720736573736926
:10382A006F6E2121004F6E004F6666006D696C6CE9
:10383A0069732829202D2070726573735F73746F02
:04384A00703A2000B0
:020000023000CC
:10E000000D9489F10D94B2F10D94B2F10D94B2F129
:10E010000D94B2F10D94B2F10D94B2F10D94B2F1F0
:10E020000D94B2F10D94B2F10D94B2F10D94B2F1E0
:10E030000D94B2F10D94B2F10D94B2F10D94B2F1D0
:10E040000D94B2F10D94B2F10D94B2F10D94B2F1C0
:10E050000D94B2F10D94B2F10D94B2F10D94B2F1B0
:10E060000D94B2F10D94B2F10D94B2F10D94B2F1A0
:10E070000D94B2F10D94B2F10D94B2F10D94B2F190
:10E080000D94B2F10D94B2F10D94B2F10D94B2F180
:10E090000D94B2F10D94B2F10D94B2F10D94B2F170
:10E0A0000D94B2F10D94B2F10D94B2F10D94B2F160
:10E0B0000D94B2F10D94B2F10D94B2F10D94B2F150
:10E0C0000D94B2F10D94B2F10D94B2F10D94B2F140
:10E0D0000D94B2F10D94B2F10D94B2F10D94B2F130
:10E0E0000D94B2F141546D656761323536300041AF
:10E0F000726475696E6F206578706C6F72657220DE
:10E1000073746B3530305632206279204D4C530099
:10E11000426F6F746C6F616465723E004875683F52
:10E1200000436F6D70696C6564206F6E203D200048
:10E130004350552054797065202020203D20005FF9
:10E140005F4156525F415243485F5F3D2000415658
:10E1500052204C696243205665723D20004743437C
:10E160002056657273696F6E203D20004350552024
:10E1700049442020202020203D20004C6F7720663D
:10E18000757365202020203D20004869676820665F
:10E190007573652020203D200045787420667573D6
:10E1A00065202020203D20004C6F636B2066757336
:10E1B000652020203D20004D617220203720323024
:10E1C000313300312E362E3800342E332E350056A2
:10E1D00023202020414444522020206F7020636F70
:10E1E00064652020202020696E73747275637469E1
:10E1F0006F6E2061646472202020496E74657272B3
:10E20000757074006E6F20766563746F7200726A49
:10E210006D702020006A6D70200057686174207056
:10E220006F72743A00506F7274206E6F7420737541
:10E2300070706F72746564004D7573742062652030
:10E2400061206C6574746572002000577269747483
:10E25000696E672045450052656164696E672045B7
:10E26000450045452065727220636E743D00504F35
:10E27000525400303D5A65726F2061646472003FF1
:10E280003D43505520737461747300403D454550C3
:10E29000524F4D207465737400423D426C696E6B41
:10E2A000204C454400453D44756D70204545505215
:10E2B0004F4D00463D44756D7020464C415348001B
:10E2C000483D48656C70004C3D4C69737420492F83
:10E2D0004F20506F72747300513D51756974005234
:10E2E0003D44756D702052414D00563D73686F7707
:10E2F00020696E7465727275707420566563746FF0
:10E30000727300593D506F727420626C696E6B00BD
:10E310002A0011241FBECFEFD1E2DEBFCDBF01E046
:10E320000CBF12E0A0E0B2E0EEE1FDEF03E00BBFB6
:10E3300002C007900D92A030B107D9F712E0A0E01B
:10E34000B2E001C01D92AE30B107E1F70F9460F367
:10E350000D948DFE01E20EBF0FEF0DBF11241FBE05
:10E360000D9460F30D9400F020E030E040ED57E0B4
:10E3700005C0FA013197F1F72F5F3F4F2817390792
:10E38000C0F308959C01260F311DC901A0E0B0E043
:10E390002F5F3F4FABBFFC018791882361F08093D3
:10E3A000C6008091C00086FFFCCF8091C0008064D1
:10E3B0008093C000EACF08958DE08093C6008091DD
:10E3C000C00086FFFCCF8091C00080648093C000B5
:10E3D0008AE08093C6008091C00086FFFCCF8091C8
:10E3E000C00080648093C00008950F94C2F10F9420
:10E3F000DCF10895FC019081992359F09093C600B7
:10E400008091C00086FFFCCF8091C0008064809323
:10E41000C0003196992379F70895282F982F929567
:10E420009F70892F805D8A3308F0895F8093C600D2
:10E430008091C00086FFFCCF8091C00080648093F3
:10E44000C000822F8F70982F905D9A3308F0995FEB
:10E450009093C6008091C00086FFFCCF8091C000E1
:10E4600080648093C00008959C01FB01853691056E
:10E470001CF46330710594F0C90164E670E00F94F8
:10E480002EFE605D7F4F6093C6008091C00086FFC6
:10E49000FCCF8091C00080648093C0002B30310598
:10E4A00014F43297B4F0C90164E670E00F942EFEC4
:10E4B0006AE070E00F942EFE605D7F4F6093C600AF
:10E4C0008091C00086FFFCCF8091C0008064809363
:10E4D000C000C9016AE070E00F942EFEC0968093E0
:10E4E000C6008091C00086FFFCCF8091C000806490
:10E4F0008093C00008951F93182F8EE692EE60E07F
:10E500000F94C2F11093C6008091C00086FFFCCF2B
:10E510008091C00080648093C0000F94DCF11F9153
:10E5200008952F923F924F925F926F927F928F92B7
:10E530009F92AF92BF92CF92DF92EF92FF920F9392
:10E540001F93DF93CF93CDB7DEB762970FB6F894E2
:10E55000DEBF0FBECDBF382E622ECA01DB015C01CB
:10E560006D01772420E2222E2E010894411C511CBB
:10E570008BC081E0A81680E0B80681E0C80680E084
:10E58000D80628F0C601AA27BB270F940DF2BB2797
:10E59000AD2D9C2D8B2D0F940DF28A2D0F940DF225
:10E5A0002092C6008091C00086FFFCCF8091C00001
:10E5B00080648093C0009DE29093C6008091C0006B
:10E5C00086FFFCCF8091C00080648093C0002092C1
:10E5D000C6008091C00086FFFCCF8091C00080649F
:10E5E0008093C00019828601750188249924A1E0D6
:10E5F0003A1651F03A1620F0B2E03B1661F409C029
:10E600000BBFF701779007C0C7010F9477FE782EF4
:10E6100002C0F7017080872D0F940DF22092C60082
:10E620008091C00086FFFCCF8091C0008064809301
:10E63000C000872D8052F401EF70F0708F3520F408
:10E64000E40DF51D708204C0E40DF51D8EE280839B
:10E650000894E11CF11C011D111D0894811C911CE2
:10E6600090E18916910409F0C2CF80E190E0A0E02A
:10E67000B0E0A80EB91ECA1EDB1E198AC2010F9493
:10E68000FAF10F94DCF16A94662009F072CF629679
:10E690000FB6F894DEBF0FBECDBFCF91DF911F91B3
:10E6A0000F91FF90EF90DF90CF90BF90AF909F9031
:10E6B0008F907F906F905F904F903F902F90089534
:10E6C0002F923F924F925F926F927F928F929F9282
:10E6D000AF92BF92CF92DF92EF92FF920F931F9370
:10E6E000DF93CF93CDB7DEB7CD53D1400FB6F894BB
:10E6F000DEBF0FBECDBF01E20EBF0FEF0DBF94B75F
:10E70000F894A89514BE80916000886180936000A1
:10E7100010926000789493FF05C0E0910002F091A0
:10E7200001021995279A2F9A8091C00082608093E8
:10E73000C00080E18093C40088E18093C1000000A4
:10E74000EE24FF24870144E0A42EB12CCC24DD2448
:10E7500024C0C5010197F1F70894E11CF11C011DCB
:10E76000111D21E2E2162EE4F20620E0020720E06D
:10E77000120718F031E0C32ED12CC801B70127ECE5
:10E780003BE140E050E00F9441FE611571058105C9
:10E79000910519F485B1805885B98091C00087FD35
:10E7A00003C0C114D104A9F2A6014F5F5F4FC25E3E
:10E7B000DE4F59834883CE51D140C25EDE4F8881FF
:10E7C0009981CE51D140019711F00D9410FEC05D9A
:10E7D000DE4F19821882C053D14060E0C15DDE4F28
:10E7E0001882CF52D14088249924C35DDE4F19820C
:10E7F0001882CD52D140C05EDE4F188219821A8233
:10E800001B82C052D140CE5CDE4F188219821A8220
:10E810001B82C253D140EE24FF2487010BBFF701B6
:10E8200007911691C45CDE4F19830883CC53D14005
:10E830000D940BFEC25EDE4F28813981CE51D1404E
:10E840002130310509F52091C600C25EDE4F1982E4
:10E850001882CE51D14022C02F5F3F4F4F4F5F4FA4
:10E86000213082E138078AE7480780E0580780F0C6
:10E87000C45CDE4FE881F981CC53D140EF5FFF4F9C
:10E8800019F0EE27FF27099420E030E040E050E047
:10E890008091C00087FFE0CF2091C600C35DDE4FAE
:10E8A00048815981CD52D1404F5F5F4FC35DDE4FEC
:10E8B00059834883CD52D140213209F063C64A3092
:10E8C000510508F05FC60894811C911C53E0851621
:10E8D000910409F059C600E010E018C081E280936D
:10E8E000C6008091C00086FFFCCF8091C00080648C
:10E8F0008093C0002F5F3F4F2931310579F70F9486
:10E90000DCF10F5F1F4F0530110519F020E030E0FA
:10E91000E5CF10920A0210920B0210920C02109294
:10E920000D02109206021092070210920802109235
:10E930000902109202021092030210920402109235
:10E9400005028FEE90EE60E00F94F5F180E191EE1C
:10E9500060E00F94C2F18091C00087FFFCCF9091DE
:10E96000C600903608F09F759032B8F09093C600BC
:10E970008091C00086FFFCCF8091C00080648093AE
:10E98000C000A0E2A093C6008091C00086FFFCCF2B
:10E990008091C00080648093C000983409F4D7C18E
:10E9A0009934B8F4923409F459C1933458F490333B
:10E9B00019F1903308F4E3C59F33A1F1903409F0C5
:10E9C000DEC5BDC0953409F470C1963409F0D7C5D1
:10E9D00098C1923509F42BC2933538F49C3409F46C
:10E9E000F5C1913509F0CBC518C2963509F445C279
:10E9F000993509F0C4C567C483E792EE62E00F94CD
:10EA0000F5F110920602109207021092080210927D
:10EA1000090210920A0210920B0210920C0210923C
:10EA20000D0213C18FE792EE62E00F94F5F18FEEC5
:10EA300090EE60E00F94F5F181E291EE60E00F94CA
:10EA4000C2F187EB91EE60E00F94F5F180E391EE77
:10EA500060E00F94C2F184EE90EE60E00F94F5F167
:10EA60008FE391EE60E00F94C2F186E090E061E008
:10EA700070E00F9434F20F94DCF18DE591EE60E0DC
:10EA80000F94C2F189EC91EE60E00F94F5F18EE401
:10EA900091EE60E00F94C2F183EC91EE60E00F9490
:10EAA000F5F18CE691EE60E00F94C2F18EE10F94E7
:10EAB0000DF288E90F940DF281E00F940DF20F949E
:10EAC000DCF18BE791EE60E00F94C2F119E0E0E039
:10EAD000F0E010935700E4918E2F0F940DF20F94F5
:10EAE000DCF18AE891EE60E00F94C2F1E3E0F0E03F
:10EAF00010935700E4918E2F0F940DF20F94DCF1D8
:10EB000089E991EE60E00F94C2F1E2E0F0E0109349
:10EB10005700E4918E2F0F940DF20F94DCF188EAE8
:10EB200091EE60E00F94C2F1E1E0F0E01093570045
:10EB30001491812F0F940DF20F94DCF107CF8BE825
:10EB400092EE62E00F94F5F18BE492EE60E00F94A8
:10EB5000F5F10F94DCF100E010E019C0C8016F2D51
:10EB60000F947FFEFF2031F489E492EE60E00F9471
:10EB7000C2F10BC0F092C6008091C00086FFFCCFAE
:10EB80008091C00080648093C0000F5F1F4FC80158
:10EB900081519F41A0E0B0E0ABBFFC01F790BAE229
:10EBA000FB1621F0E2E000301E07C1F60F94DCF105
:10EBB0000F94DCF187E592EE60E00F94F5F10F948D
:10EBC000DCF1CC24DD2400E010E01EC0C8010F946D
:10EBD00077FEF82E882331F489E492EE60E00F94FA
:10EBE000C2F10BC08093C6008091C00086FFFCCFAD
:10EBF0008091C00080648093C000FE1419F00894D6
:10EC0000C11CD11C0F5F1F4FC80181519F41A0E063
:10EC1000B0E0ABBFFC01E790FAE2EF1621F022E092
:10EC20000030120799F60F94DCF10F94DCF182E6C4
:10EC300092EE60E00F94C2F1C60161E070E00F94C3
:10EC400034F20F94DCF10F94DCF110920202109276
:10EC50000302109204021092050278CE89E992EE26
:10EC600062E00F94F5F1279A2F9A16C02F9880E052
:10EC700090E0E0EDF7E03197F1F7019684369105E9
:10EC8000C1F72F9A80E090E0E0EDF7E03197F1F7DF
:10EC9000019684369105C1F78091C00087FFE6CFC9
:10ECA0008091C00087FFFCCF64C485EA92EE62E0E9
:10ECB0000F94F5F140910202509103026091040219
:10ECC0007091050281E020E10F9491F2809102029F
:10ECD00090910302A0910402B091050280509F4FD1
:10ECE000AF4FBF4F8093020290930302A0930402A0
:10ECF000B093050280509041A040B04008F426CE69
:10ED0000A4CF83EB92EE62E00F94F5F140910602FE
:10ED100050910702609108027091090280E020E1A1
:10ED20000F9491F28091060290910702A09108023F
:10ED3000B091090280509F4FAF4FBF4F80930602A2
:10ED400090930702A0930802B0930902FFCD80ECD4
:10ED500092EE62E00F94F5F183E792EE60E00F949B
:10ED6000F5F18FE792EE60E00F94F5F18BE892EE0B
:10ED700060E00F94F5F189E992EE60E00F94F5F10F
:10ED800085EA92EE60E00F94F5F183EB92EE60E09D
:10ED90000F94F5F180EC92EE60E00F94F5F187ECC2
:10EDA00092EE60E00F94F5F188ED92EE60E00F9442
:10EDB000F5F18FED92EE60E00F94F5F18AEE92EEB0
:10EDC00060E00F94F5F183E093EEBDCD87EC92EE19
:10EDD00062E00F94F5F181E40F947BF282E40F94EA
:10EDE0007BF283E40F947BF284E40F947BF285E45E
:10EDF0000F947BF286E40F947BF287E40F947BF20E
:10EE000088E40F947BF28AE40F947BF28BE40F94F6
:10EE10007BF28CE40F947BF299CD88ED92EE62E068
:10EE20000F94F5F1772473948824992409C48FED05
:10EE300092EE62E00F94F5F140910A0250910B02BC
:10EE400060910C0270910D0282E020E10F9491F22A
:10EE500080910A0290910B02A0910C02B0910D02D8
:10EE600080509F4FAF4FBF4F80930A0290930B0289
:10EE7000A0930C02B0930D0269CD8AEE92EE62E08F
:10EE80000F94F5F184EE90EE60E00F94F5F18FECC5
:10EE900091EE60E00F94F5F1662477244301CC5D98
:10EEA000DE4F19821882C452D140D401C301B695F5
:10EEB000A79597958795CA5DDE4F88839983AA8326
:10EEC000BB83C652D140CC5DDE4FA881B981C4520C
:10EED000D1401196CC5DDE4FB983A883C452D14096
:10EEE000CD0162E070E00F9434F2B0E2B093C6005E
:10EEF0008091C00086FFFCCF8091C0008064809329
:10EF0000C000EDE2E093C6008091C00086FFFCCF18
:10EF10008091C00080648093C000F0E2F093C6004E
:10EF20008091C00086FFFCCF8091C00080648093F8
:10EF3000C000CA5DDE4FE880F9800A811B81C6529D
:10EF4000D140BB27A12F902F8F2D0F940DF2CA5DBA
:10EF5000DE4F8881C652D1400F940DF2B0E2FB2EF5
:10EF6000F092C6008091C00086FFFCCF8091C00067
:10EF700080648093C0000DE30093C6008091C000C0
:10EF800086FFFCCF8091C00080648093C00010E2B7
:10EF90001093C6008091C00086FFFCCF8091C00016
:10EFA00080648093C0008BBEF3012791C65DDE4F65
:10EFB0002883CA52D140A22EBB24CC24DD2408943D
:10EFC000611C711C811C911C8BBEF3018791282E42
:10EFD0003324442455240894611C711C811C911C09
:10EFE0008BBEF3013791C55DDE4F3883CB52D140E4
:10EFF0000894611C711C811C911C8BBEF30147910C
:10F00000C45DDE4F4883CC52D140ADEFEA2EAFEF66
:10F01000FA2EAFEF0A2FAFEF1A2F6E0C7F1C801E57
:10F02000911E142D032DF22CEE24EA0CFB1C0C1D5A
:10F030001D1D0F940DF220E22093C6008091C000A8
:10F0400086FFFCCF8091C00080648093C000C65DC5
:10F05000DE4F8881CA52D1400F940DF230E23093D6
:10F06000C6008091C00086FFFCCF8091C000806404
:10F070008093C000C45DDE4F8881CC52D1400F9494
:10F080000DF240E24093C6008091C00086FFFCCFA5
:10F090008091C00080648093C000C55DDE4F888190
:10F0A000CB52D1400F940DF250E25093C6008091A4
:10F0B000C00086FFFCCF8091C00080648093C000B8
:10F0C0008FEFE8168FEFF80680E0080780E018075A
:10F0D00031F484E092EE60E00F94C2F1DFC0D80119
:10F0E000C7018070907CA070B0708050904CA040A0
:10F0F000B040D1F52FEF3FE340E050E0E222F322B1
:10F1000004231523CA5DDE4FA880B980CA80DB8046
:10F11000C652D140AE0CBF1CC01ED11EAA0CBB1CD7
:10F12000CC1CDD1C8EE092EE60E00F94C2F1BB2798
:10F13000A12F902F8F2D0F940DF28E2D0F940DF285
:10F1400030E23093C6008091C00086FFFCCF8091F2
:10F15000C00080648093C0004EE34093C60080915D
:10F16000C00086FFFCCF87C08EE09EEFA0E0B0E03D
:10F17000E822F9220A231B239CE0E91694E9F90608
:10F1800090E0090790E0190709F088C0C45DDE4FE0
:10F19000A881CC52D140EA2EFF2400E010E0102FCD
:10F1A0000F2DFE2CEE24C55DDE4FB881CB52D14031
:10F1B000EB0EF11C011D111DD601C501817090706F
:10F1C000A070B070DC0199278827E80EF91E0A1F8D
:10F1D0001B1F20EF30E040E050E0A222B322C42207
:10F1E000D52241E1AA0CBB1CCC1CDD1C4A95D1F7F1
:10F1F000EA0CFB1C0C1D1D1D81E090E0A0E0B0E0BE
:10F20000282239224A225B2235E1220C331C441C7D
:10F21000551C3A95D1F7E20CF31C041D151D57013E
:10F220006801AA0CBB1CCC1CDD1C85E192EE60E0E1
:10F230000F94C2F1C801AA27BB270F940DF2BB2778
:10F24000A12F902F8F2D0F940DF28E2D0F940DF274
:10F2500090E29093C6008091C00086FFFCCF809121
:10F26000C00080648093C000AEE3A093C60080918C
:10F27000C00086FFFCCF8091C00080648093C000F6
:10F28000C601AA27BB270F940DF2BB27AD2D9C2DDD
:10F290008B2D0F940DF28A2D0F940DF20F94DCF14B
:10F2A000CC5DDE4FE881F981C452D140F99709F471
:10F2B0004DCBF4E0EF2EF12C012D112D6E0C7F1CA7
:10F2C000801E911EF2CD83E093EE62E00F94F5F183
:10F2D0008AE192EE60E00F94C2F18091C00087FF56
:10F2E000FCCF1091C6001F751093C6008091C0001E
:10F2F00086FFFCCF8091C00080648093C0000F9493
:10F30000DCF1812F81548A3108F036C1163409F4BA
:10F3100095C0173490F4133409F44EC0143430F40B
:10F320001134F1F0123409F01DC130C0143409F465
:10F3300059C0153409F016C16BC01A3409F4C4C0A1
:10F340001B3438F4173409F48FC0183409F00AC19B
:10F35000A1C01B3409F4D2C01C3409F003C1E8C0B9
:10F360008FEF81B90DC082B1809582B980E090E0C5
:10F37000E0EDF7E03197F1F70196883C9105C1F790
:10F380008091C00087FFEFCF12B8EFC08FEF84B934
:10F390000DC085B1809585B980E090E0E0EDF7E0A3
:10F3A0003197F1F70196883C9105C1F78091C00033
:10F3B00087FFEFCF15B8D9C08FEF87B90DC088B1DF
:10F3C000809588B980E090E0E0EDF7E03197F1F7C3
:10F3D0000196883C9105C1F78091C00087FFEFCF6F
:10F3E00018B8C3C08FEF8AB90DC08BB180958BB9A7
:10F3F00080E090E0E0EDF7E03197F1F70196883C8E
:10F400009105C1F78091C00087FFEFCF1BB8ADC059
:10F410008FEF8DB90DC08EB180958EB980E090E0F0
:10F42000E0EDF7E03197F1F70196883C9105C1F7DF
:10F430008091C00087FFEFCF1EB897C08FEF80BBD1
:10F440000DC081B3809581BB80E090E0E0EDF7E0F6
:10F450003197F1F70196883C9105C1F78091C00082
:10F4600087FFEFCF11BA81C08FEF83BB0DC084B38C
:10F47000809584BB80E090E0E0EDF7E03197F1F714
:10F480000196883C9105C1F78091C00087FFEFCFBE
:10F4900014BA6BC08FEF809301010FC080910201FD
:10F4A00080958093020180E090E0E0EDF7E03197F5
:10F4B000F1F70196883C9105C1F78091C00087FF64
:10F4C000EDCF1092020151C08FEF809304010FC065
:10F4D0008091050180958093050180E090E0E0ED4A
:10F4E000F7E03197F1F70196883C9105C1F78091DB
:10F4F000C00087FFEDCF1092050137C08FEF8093DA
:10F5000007010FC08091080180958093080180E079
:10F5100090E0E0EDF7E03197F1F70196883C910536
:10F52000C1F78091C00087FFEDCF109208011DC088
:10F530008FEF80930A010FC080910B01809580931B
:10F540000B0180E090E0E0EDF7E03197F1F70196F4
:10F55000883C9105C1F78091C00087FFEDCF1092E4
:10F560000B0103C085E292EEEEC98091C00087FFD7
:10F57000FCCF8091C600EAC988E392EEE4C98CE131
:10F5800091EEE1C988249924933011F1943028F444
:10F59000913089F09230B8F408C0953061F195301F
:10F5A000F0F0963009F048C043C02B3109F042C951
:10F5B00091E06BE13FC96227C15DDE4F2883CF52E6
:10F5C000D14092E037C9B22FA0E0622793E032C960
:10F5D000822F90E0A82BB92B622794E02BC92E3004
:10F5E00009F039C3622795E0C05DDE4F19821882A9
:10F5F000C053D1401FC9E1E0F0E0EC0FFD1FC05D3A
:10F60000DE4F08811981C053D140E00FF11F2083E4
:10F610000F5F1F4FC05DDE4F19830883C053D14079
:10F6200062270A171B0709F005C9D80196E002C92D
:10F63000261709F010C303C0973009F0FBC87724E0
:10F640009981933109F412C19431C8F4963009F4C8
:10F65000D8C0973050F4923009F406C1933009F4C1
:10F660006DC0913009F059C253C0913109F477C08F
:10F67000923108F0BBC0903109F04FC2F5C098310B
:10F6800009F487C0993150F4953109F4EFC09531F0
:10F6900008F4C6C1963109F040C2C2C19A3109F4DA
:10F6A0006CC09A3108F491C09B3109F45BC09D3164
:10F6B00009F033C29D81903359F48F81882311F46E
:10F6C0009EE11CC0813011F091E018C098E916C08D
:10F6D000892F807591F0903539F4E0E0F0E089E011
:10F6E0008093570094910AC0983539F4E3E0F0E034
:10F6F00089E080935700949101C090E01A821B82A8
:10F700008D818C831D829E831F8227E030E009C299
:10F710001A8288E08B8381E48C8386E58D8382E581
:10F720008E8389E48F8383E5888780E589878FE5E9
:10F730008A8782E38B872BE030E0F3C18A818139AD
:10F7400041F0823941F0803911F48FE005C080E04A
:10F7500003C082E001C08AE01A828B8344C0772410
:10F76000739482C08D81882311F48EE12CC0813086
:10F7700011F081E028C088E926C01A82E1E0F0E0BB
:10F7800089E08093570084918B831C8224E030E0D1
:10F79000C8C18B81803589F48C81883039F4E2E0EE
:10F7A000F0E089E08093570084910DC0E0E0F0E044
:10F7B00089E080935700849106C0E3E0F0E089E09F
:10F7C0008093570084911A82DFCF8D81836C99E0FA
:10F7D000E1E0F0E0082E90935700E89507B600FCB2
:10F7E000FDCF1A821B8223E030E09BC180EC8A832C
:10F7F000CE5CDE4F188219821A821B82C253D1401E
:10F800008EC18A8190E0A0E0B0E0582F44273327D2
:10F8100022278B8190E0A0E0B0E0DC0199278827C7
:10F82000282B392B4A2B5B2B8D8190E0A0E0B0E098
:10F83000282B392B4A2B5B2B8C8190E0A0E0B0E089
:10F84000BA2FA92F982F8827282B392B4A2B5B2BCF
:10F85000220F331F441F551FC05EDE4F288339839C
:10F860004A835B83C052D1401A8259C13A81C95C34
:10F87000DE4F3883C753D140CA5CDE4F1882C6536F
:10F88000D1408B81C82EDD24CA5CDE4F488159816E
:10F89000C653D140C42AD52A933109F082C0CE5C28
:10F8A000DE4F88819981AA81BB81C253D1408050AB
:10F8B000904CA340B04030F583E0CE5CDE4FE88052
:10F8C000F9800A811B81C253D140F70100935B008C
:10F8D00080935700E89507B600FCFDCFCE5CDE4F65
:10F8E000088119812A813B81C253D14000501F4FAA
:10F8F0002F4F3F4FCE5CDE4F088319832A833B8313
:10F90000C253D140C05EDE4F488159816A817B81FC
:10F91000C052D140DE011B9631E08C9111962C91A2
:10F9200011971296C75CDE4F2883C953D140C85C3B
:10F93000DE4F1882C853D14090E0C85CDE4FE881AA
:10F94000F981C853D1408E2B9F2B0C01FA01609393
:10F950005B0030935700E89511244E5F5F4F6F4F67
:10F960007F4F0EEFE02E0FEFF02ECE0CDF1CC114F8
:10F97000D10499F685E0C05EDE4F088119812A81A5
:10F980003B81C052D140F80120935B008093570027
:10F99000E89507B600FCFDCF81E180935700E8951C
:10F9A00035C0C05EDE4F88819981AA81BB81C0527B
:10F9B000D140B695A795979587957C018601ABE0D8
:10F9C000AA2EB12CAC0EBD1E0BC0D5016D915D01F0
:10F9D000C7010F947FFE0894E11CF11C01501040F8
:10F9E0000115110591F7A60160E070E0440F551F65
:10F9F000661F771FC05EDE4FE880F9800A811B8199
:10FA0000C052D1404E0D5F1D601F711F1A82C05E33
:10FA1000DE4F488359836A837B83C052D1407FC0C5
:10FA2000FA80C55CDE4FF882CB53D140C65CDE4F16
:10FA30001882CA53D1408B81C82EDD24C65CDE4FAC
:10FA400008811981CA53D140C02AD12A1A828981DA
:10FA5000BE016D5F7F4F843121F59601C05EDE4FA0
:10FA6000E880F9800A811B81C052D1400BBFF701A9
:10FA700087919691DB018C9311969C936E5F7F4FDB
:10FA8000D801C7010296A11DB11DC05EDE4F88835B
:10FA90009983AA83BB83C052D14022503040F1F6F3
:10FAA00036C0C05EDE4F288139814A815B81C052F9
:10FAB000D1400894C108D108760100E010E0089414
:10FAC000C11CD11C0894E11CF11C011D111DE20E8A
:10FAD000F31E041F151F21BDBB27A52F942F832FB5
:10FAE00082BD2F5F3F4F4F4F5F4FF89A80B5DB01CC
:10FAF0008D93BD012E153F054007510761F7C05E8C
:10FB0000DE4F288339834A835B83C052D1409601FC
:10FB10002D5F3F4FFB01108204C080EC8A8322E0FE
:10FB200030E08BE18093C6008091C00086FFFCCF5F
:10FB30008091C00080648093C000C15DDE4FF88179
:10FB4000CF52D140F093C6008091C00086FFFCCF19
:10FB50008091C00080648093C000432F3093C60022
:10FB60008091C00086FFFCCF8091C00080648093AC
:10FB7000C000922F2093C6008091C00086FFFCCF6A
:10FB80008091C00080648093C0008EE08093C600A6
:10FB90008091C00086FFFCCF8091C000806480937C
:10FBA000C00065E1C15DDE4FE880CF52D1406E25D7
:10FBB00069276427FE01319610C090819093C6009A
:10FBC0008091C00086FFFCCF31968091C000806498
:10FBD0008093C0006927215030402115310569F715
:10FBE0006093C6008091C00086FFFCCF8091C0006A
:10FBF00080648093C00085B1805885B9772081F4F6
:10FC0000C15DDE4F0881CF52D1400F5FC15DDE4F35
:10FC10000883CF52D14090E0A0E0B0E00D941AF4F8
:10FC200027982F9880E090E020ED37E0F901319798
:10FC3000F1F7019684369105C9F700008091C00064
:10FC40008D7F8093C00081E180935700E895EE2777
:10FC5000FF270994FFCF90E00D941AF497FB092E2B
:10FC600007260AD077FD04D02ED006D000201AF443
:10FC7000709561957F4F0895F6F7909581959F4F08
:10FC80000895A1E21A2EAA1BBB1BFD010DC0AA1FDD
:10FC9000BB1FEE1FFF1FA217B307E407F50720F0F5
:10FCA000A21BB30BE40BF50B661F771F881F991F70
:10FCB0001A9469F760957095809590959B01AC01B9
:10FCC000BD01CF010895AA1BBB1B51E107C0AA1FAC
:10FCD000BB1FA617B70710F0A61BB70B881F991FED
:10FCE0005A95A9F780959095BC01CD010895F99991
:10FCF000FECF92BD81BDF89A992780B50895262F31
:10FD0000F999FECF1FBA92BD81BD20BD0FB6F89400
:0EFD1000FA9AF99A0FBE01960895F894FFCF63
:040000033000E000E9
:00000001FF