:100000000C9428010C9459010C9459010C94590139
:100010000C9459010C9459010C9459010C945901F8
:100020000C9459010C9459010C9459010C945901E8
:100030000C9459010C9459010C9459010C945901D8
:100040000C9459010C9459010C9459010C945901C8
:100050000C9459010C9459010C9459010C948B0483
:100060000C9459010C9455040C942B040C945901D4
:100070000C9459010C9459010C9459010C94590198
:100080000C9459010C9459010C9459010C94590188
:100090000C9459010C9459010C9459010C94590178
:1000A0000C9459010C9459010C9459010C94590168
:1000B0000C9459010C9459010C9459010C94590158
:1000C0000C9459010C9459010C9459010C94590148
:1000D0000C9459010C9459010C9459010C94590138
:1000E0000C9459010C9466020C9415030C940C03A7
:1000F0000C94F4020C94D5020C94D5040C94830156
:100100000C94DF020C9410030C94FE020C94160362
:100110000C941A030C9408030C94FA020C94190220
:100120000C94DB020C94D3010C94F0020C94B001FB
:100130000C94E7020C94EA020C94BF010C94E302C5
:100140000C9402030C94E10100002000230026001F
:1001500029002C002F0032000001000003010601DD
:10016000090100002200250028002B002E0031008C
:10017000340002010000050108010B010505050519
:10018000070508080808020202020A0A080804040F
:10019000040401010101010101010303030303033D
:1001A0000303040707070C0C0C0C0C0C0C0C0202CC
:1001B000020206060606060606060B0B0B0B0B0BC9
:1001C0000B0B010210202008081020401020408056
:1001D000020102010804020101020408102040800B
:1001E0008040201008040201800402018040201099
:1001F00008040201080402010102040810204080E2
:10020000010204081020408000000A0B02090C0DB6
:100210000E080703040100000000000000000000B9
:1002200000000000000000000000000000000000CE
:10023000000000001211100000000000000000008B
:100240000000000000000000000000000000D504D5
:1002500011241FBECFEFD1E2DEBFCDBF00E00CBF47
:1002600024E0ACE3B3E001C01D92A833B207E1F78C
:1002700013E0A0E0B2E0E2E6F0E100E00BBF02C074
:1002800007900D92AC33B107D9F711E0C8E2D1E085
:1002900000E006C021970109802FFE010E94270877
:1002A000C732D10780E00807A9F70E9414050C9413
:1002B0002F080C940000E5E5F3E0A089B18982E005
:1002C0008C93A485B5851C92A685B7858FEC8C93FD
:1002D000108EA489B58986E08C93A289B3898C910C
:1002E00080618C93A289B3898C9188608C93A28958
:1002F000B3898C9180688C930288F389E02D80818A
:100300008F7D80830895AF92BF92CF92DF92EF925C
:10031000FF920F931F93CF93DF936C017B018B01AF
:10032000040F151FEB015E01AE18BF08C017D107FF
:1003300059F06991D601ED91FC910190F081E02D89
:10034000C6011995892B79F7C501DF91CF911F91CE
:100350000F91FF90EF90DF90CF90BF90AF900895F6
:10036000FC01538D448D252F30E0842F90E0821BBB
:10037000930B541710F0CF96089501970895FC0140
:10038000918D828D981761F0A28DAE0FBF2FB11D98
:100390005D968C91928D9F5F9F73928F90E00895F0
:1003A0008FEF9FEF0895FC01918D828D981731F0AA
:1003B000828DE80FF11D858D90E008958FEF9FEFFE
:1003C0000895FC01918D228D892F90E0805C9F4FD4
:1003D000821B91098F739927089585E593E00E9408
:1003E000E10121E0892B09F420E0822F0895FC012E
:1003F000A48DA80FB92FB11DA35ABF4F2C91848D86
:1004000090E001968F739927848FA689B7892C93E2
:10041000A089B1898C91837080648C93938D848D35
:10042000981306C00288F389E02D80818F7D808338
:100430000895EF92FF920F931F93CF93DF93EC01F8
:1004400081E0888F9B8D8C8D98131AC0E889F9897B
:10045000808185FF15C09FB7F894EE89FF8960837E
:10046000E889F98980818370806480839FBF81E0FF
:1004700090E0DF91CF911F910F91FF90EF90089541
:10048000F62E0B8D10E00F5F1F4F0F731127E02E1C
:100490008C8D8E110CC00FB607FCFACFE889F98954
:1004A000808185FFF5CFCE010E94F701F1CFEB8D62
:1004B000EC0FFD2FF11DE35AFF4FF0829FB7F89428
:1004C0000B8FEA89FB8980818062CFCFCF93DF9346
:1004D000EC01888D8823B9F0AA89BB89E889F9895C
:1004E0008C9185FD03C0808186FD0DC00FB607FC91
:1004F000F7CF8C9185FFF2CF808185FFEDCFCE01C4
:100500000E94F701E9CFDF91CF91089580E090E05C
:10051000892B29F00E94ED0181110E94000080E0EA
:1005200090E0892B49F080E090E0892B29F00E942F
:10053000000081110E94000080E090E0892B49F0CA
:1005400080E090E0892B29F00E94000081110E9438
:10055000000080E090E0892B49F080E090E0892B5A
:1005600029F00E94000081110C9400000895815030
:10057000823108F05AC0E82FF0E08827ED53FD4F94
:100580008F4F0C942708E302E702D502DB02DF025B
:100590001503EA02F002F402FA02FE020203080363
:1005A0000C031503100316031A03809180008F7744
:1005B000809380000895809180008F7DF9CF809195
:1005C0008000877FF5CF84B58F7784BD089584B58B
:1005D0008F7DFBCF8091B0008F778093B00008951E
:1005E0008091B0008F7DF9CF809190008F778093BC
:1005F00090000895809190008F7DF9CF80919000B8
:10060000877FF5CF8091A0008F778093A000089519
:100610008091A0008F7DF9CF8091A000877FF5CFDA
:10062000809120018F77809320010895809120018F
:100630008F7DF9CF80912001877FF5CF3FB7F89468
:100640008091410390914203A0914303B0914403F0
:1006500026B5A89B05C02F3F19F00196A11DB11D1D
:100660003FBFBA2FA92F982F8827BC01CD01620F59
:10067000711D811D911D42E0660F771F881F991F14
:100680004A95D1F708952FB7F89460913D03709182
:100690003E0380913F03909140032FBF0895FC01DA
:1006A00001900020E9F73197AF01481B590BBC01BD
:1006B00085E593E00C9483018F929F92AF92BF9255
:1006C0000F931F93CF93DF93CDB7DEB7A1970FB6EC
:1006D000F894DEBF0FBECDBF19A2423008F44AE045
:1006E0008E010F5D1F4F842E912CB12CA12CA501E2
:1006F00094010E940508E62FB901CA01EA30F4F41A
:10070000E05DD801EE938D01232B242B252B79F767
:1007100090E080E0109719F0CD010E944F03A19660
:100720000FB6F894DEBF0FBECDBFDF91CF911F9102
:100730000F91BF90AF909F908F900895E95CE1CFAB
:10074000CF93DF930E944F03EC0182E192E00E947D
:100750004F038C0F9D1FDF91CF910895EF92FF9271
:100760000F931F93CF93DF9300D01F92CDB7DEB7C7
:1007700085E593E00E94BF0185E593E00E94BF01FB
:100780008E010F5F1F4F78018A3341F0F80181938A
:100790008F0185E593E00E94BF01F6CFC7010E945B
:1007A000DF078C0185E593E00E94BF01282F2053CD
:1007B000330B790132E0E316F10420F59801332779
:1007C000F901E85FFD4F8491F901EE53FE4F04916A
:1007D000F901E458FE4F14911123A1F081110E94F8
:1007E000B702E12FF0E0EE0FFF1FEE59FE4FA5918B
:1007F000B4918FB7F894EC91E11020C000950E23CE
:100800000C938FBF85E593E00E94BF018A3011F001
:100810008D30C1F785E593E00E94D3018A3081F4E1
:1008200085E593E00F900F900F900F90DF91CF919F
:100830001F910F91FF90EF900C94BF010E2BE0CF12
:100840000F900F900F900F90DF91CF911F910F910C
:10085000FF90EF9008951F920F920FB60F92112400
:100860000BB60F922F933F934F935F936F937F93AA
:100870008F939F93AF93BF93EF93FF9385E593E09F
:100880000E94F701FF91EF91BF91AF919F918F91DE
:100890007F916F915F914F913F912F910F900BBE80
:1008A0000F900FBE0F901F9018951F920F920FB6CA
:1008B0000F9211240BB60F922F938F939F93EF9368
:1008C000FF93E0916503F09166038081E0916B03F3
:1008D000F0916C0382FD1DC0908180916E038F5F4B
:1008E0008F7320916F03821741F0E0916E03F0E067
:1008F000EB5AFC4F958F80936E03FF91EF919F9180
:100900008F912F910F900BBE0F900FBE0F901F90E5
:1009100018958081F2CF1F920F920FB60F9211247B
:100920002F933F938F939F93AF93BF9380913D03FA
:1009300090913E03A0913F03B091400330913C035E
:1009400023E0230F2D3758F50196A11DB11D2093EB
:100950003C0380933D0390933E03A0933F03B093E9
:1009600040038091410390914203A0914303B091D1
:1009700044030196A11DB11D80934103909342034E
:10098000A0934303B0934403BF91AF919F918F9184
:100990003F912F910F900FBE0F901F90189526E852
:1009A000230F0296A11DB11DD2CFE5E5F3E013821E
:1009B000128288EE93E0A0E0B0E084839583A68362
:1009C000B78384E092E09183808385EC90E0958703
:1009D000848784EC90E09787868780EC90E0918B09
:1009E000808B81EC90E0938B828B82EC90E0958BF6
:1009F000848B86EC90E0978B868B118E128E138EF3
:100A0000148EE2EFF3E016821782108611861286AA
:100A100013861486158616861786108A118A128AFE
:100A2000138A148A158A0895789484B5826084BDE7
:100A300084B5816084BD85B5826085BD85B58160E2
:100A400085BD80916E00816080936E001092810060
:100A5000809181008260809381008091810081601B
:100A600080938100809180008160809380008091DC
:100A7000B10084608093B1008091B0008160809368
:100A8000B0008091910082608093910080919100EC
:100A900081608093910080919000816080939000AC
:100AA0008091A10082608093A1008091A10081606B
:100AB0008093A1008091A00081608093A00080912C
:100AC00021018260809321018091210181608093C6
:100AD00021018091200181608093200180917A0022
:100AE000846080937A0080917A00826080937A009B
:100AF00080917A00816080937A0080917A0080688A
:100B000080937A001092C100109234041092350440
:100B100010923604109237041092F4031092F503E9
:100B20001092F6031092F7030E9443036B017C01BD
:100B30004B015C0128EB820E2BE0921EA11CB11C24
:100B40000E9443036C157D058E059F0528F08616CF
:100B50009706A806B906A0F70E941E034B015C0188
:100B600038EEC32E33E0D32EE12CF12C0E941E036D
:100B7000681979098A099B09683E734081059105C6
:100B8000A8F331E0C31AD108E108F10848EE840E59
:100B900043E0941EA11CB11CC114D104E104F10472
:100BA00029F70E945B010E9443036093F403709352
:100BB000F5038093F6039093F70385E192E00E949A
:100BC0004F030E9443036B017C014B015C018AE0EF
:100BD000880E911CA11CB11C0E9443036C157D055D
:100BE0008E059F0528F086169706A806B906A0F779
:100BF00081E0809308040E9443036093F4037093A0
:100C0000F5038093F6039093F70386E292E00E9447
:100C10004F030E945B0194EF892E99249394A12C99
:100C2000B12C25E0222E312C04E010E0C2E0D0E00F
:100C30000E944303672B682B692B09F4ECC00E94C8
:100C40004303C0905103D0905203E0905303F090BF
:100C500054036C157D058E059F0508F421C1C090D5
:100C60005103D0905203E0905303F09054039B0142
:100C7000AC012C193D094E095F0969017A013AEF6F
:100C8000C316D104E104F10408F4CDC0609351030C
:100C90007093520380935303909354038092000403
:100CA00090920104A0920204B092030410920404F2
:100CB0001092050410920604109207048091F80324
:100CC0009091F903A091FA03B091FB038093FC0388
:100CD0009093FD03A093FE03B093FF030E94430390
:100CE0006093F8037093F9038093FA039093FB03E6
:100CF00085E593E00E94D301843611F40E94AE038F
:100D00000E9443036093F4037093F5038093F6030A
:100D10009093F7030E9443036B017C018DE292E004
:100D20000E944F034AE061E070E080E090E00E94A2
:100D30005C0384E392E00E944F034AE0C701B601DE
:100D40000E945C0386E392E00E944F038091F803C7
:100D50009091F903A091FA03B091FB03A7019601CA
:100D6000281B390B4A0B5B0BCA01B9014AE00E94F0
:100D70005C0386E392E00E944F036091F803709158
:100D8000F9038091FA039091FB03C090FC03D0908B
:100D9000FD03E090FE03F090FF036C197D098E09BE
:100DA0009F094AE00E945C0388E392E00E944F039F
:100DB0000E9443034AE00E945C038AE392E00E949F
:100DC000A0030E9443036B017C012B013C0135E031
:100DD000430E511C611C711C0E9443036C157D0560
:100DE0008E059F0528F04616570668067906A0F777
:100DF00085E593E00E94D301843611F40E94AE038E
:100E00000E9443036093F8037093F9038093FA03FD
:100E10009093FB0308C00E94430362307105810573
:100E2000910508F00CCFE1E1F2E08491EBECF1E008
:100E3000F490E5E8F1E0E490EE2009F43AC0811185
:100E40000E94B702EE2DF0E0EE0FFF1FE85BFE4FB1
:100E5000A591B4918C91F82231E020E009F430E0C2
:100E6000832F922F9093500380934F0320914D0333
:100E700030914E032817390741F00197E9F40E9499
:100E8000430370934C0360934B0380914F03909105
:100E9000500390934E0380934D030E948602C8CE68
:100EA00060935103709352038093530390935403C0
:100EB000D6CE90E080E0D6CF0E94430370934A03E1
:100EC0006093490320914B0330914C03621B730BD9
:100ED0007093480360934703645671096438734004
:100EE000F8F481E492E00E94A00380914503909180
:100EF000460382309105C1F100F5009749F1019751
:100F000071F180914503909146038230910509F477
:100F10004DC0D8F5009709F441C0019709F443C0CA
:100F20008091470390914803883E93400CF4ADCFE5
:100F30008CE193E00E94A003A8CF8430910501F1D9
:100F4000D0F00597F1F61092460310924503D9CFE1
:100F500021E030E03093460320934503D2CFD09375
:100F60004603C0934503CDCF43E050E05093460382
:100F700040934503C6CF1093460300934503C1CF6A
:100F80003092460320924503BCCF84309105A1F0F6
:100F900080F0059729F68EEF92E002C08DE692E090
:100FA0000E94A003BDCF89E892E0FACF85EA92E0E3
:100FB000F7CF82EC92E0F4CF80EE92E0F1CFFC012B
:100FC00088279927E89421912032E9F3293010F0FD
:100FD0002E30C8F32B3241F02D3239F4689404C01E
:100FE0000E94FD07820F911D219120532A30C0F3EA
:100FF0001EF4909581959F4F08957AE0979F902DCC
:10100000879F802D910D11240895A1E21A2EAA1B0D
:10101000BB1BFD010DC0AA1FBB1FEE1FFF1FA217A8
:10102000B307E407F50720F0A21BB30BE40BF50BA5
:10103000661F771F881F991F1A9469F7609570952E
:10104000809590959B01AC01BD01CF010895EE0FF5
:10105000FF1F881F8BBF0790F691E02D1994F8941D
:02106000FFCFC0
:101062000000000019028301B0016602E101BF0124
:10107200D3010D0A00564D4450565F317C315F5604
:101082004D4450560A00564D4450525F00564D444E
:1010920050455F003A323A007C005F564D4450455D
:1010A200004275746F6E756C206120666F737420D8
:1010B200617061736174206F206A756D617461740F
:1010C2006520646520736563756E646100437572A3
:1010D20072656E74207075612067726970206D6F21
:1010E20064653A20466973740043757272656E7462
:1010F200207075612067726970206D6F64653A2097
:10110200477269700043757272656E742070756102
:101112002067726970206D6F64653A2050696E6352
:10112200680043757272656E742070756120677213
:101132006970206D6F64653A20547269706F640043
:1011420043757272656E7420707561206772697082
:10115200206D6F64653A2045787472613100437581
:101162007272656E74207075612067726970206D8D
:101172006F64653A20457874726132004275746F0B
:101182006E756C206120666F73742061706173618B
:0C11920074206F20736563756E6461004B
:00000001FF
