:100000000C9435010C9466010C9466010C94660105
:100010000C9466010C9466010C9466010C946601C4
:100020000C9466010C9466010C9466010C946601B4
:100030000C9466010C9466010C9466010C946601A4
:100040000C9466010C94B0060C9466010C94660145
:100050000C9466010C9466010C9466010C94DC050A
:100060000C9466010C94A6050C947C050C94660116
:100070000C9466010C9466010C9466010C94660164
:100080000C9482060C9466010C9466010C94660133
:100090000C9466010C9466010C9466010C94660144
:1000A0000C9466010C9466010C9454060C94660141
:1000B0000C9466010C9466010C9466010C9426065F
:1000C0000C9466010C9466010C9466010C94660114
:1000D0000C9466010C9466010C9466010C94660104
:1000E0000C9466010C9427030C9401030C942203D6
:1000F0000C9415030C94FD020C94CC010C94F9069D
:100100000C940B030C940F030C94F7020C94EC0268
:100110000C9423030C94E8020C94E0010C94BD01B0
:100120000C9473020C94F0020C9490010C941D0337
:100130000C94EE010C94F4020C9426020C94190316
:100140000C94E2020C940703000022002500280012
:100150002B002E00310034000201000005010801CF
:100160000B0100002100240027002A002D00300090
:10017000330001010000040107010A010000200012
:100180002300260029002C002F003200000100006F
:10019000030106010901050505050705080808080A
:1001A000020202020A0A080804040404010101010F
:1001B000010101010303030303030303040707070A
:1001C0000C0C0C0C0C0C0C0C0202020206060606AF
:1001D000060606060B0B0B0B0B0B0B0B010210207C
:1001E000200808102040102040800201020108046D
:1001F0000201010204081020408080402010080401
:100200000201800402018040201008040201080459
:10021000020101020408102040800102040810209D
:10022000408000000A0B02090C0D0E0807030401B0
:1002300000000000000000000000000000000000BE
:10024000000000000000000000000000000012118B
:10025000100000000000000000000000000000008E
:100260000000000000000000F90611241FBECFEFBF
:10027000D1E2DEBFCDBF00E00CBF13E0A0E0B2E0F2
:10028000EAE8F3E100E00BBF02C007900D92A43A48
:10029000B107D9F725E0A4EAB3E001C01D92A63466
:1002A000B207E1F711E0C5E3D1E000E006C0219715
:1002B0000109802FFE010E94BB09C433D10780E0F1
:1002C0000807A9F70E944B070C94C3090C9400007F
:1002D000E4E5F4E0A089B18982E08C93A485B5853A
:1002E0001C92A685B7858FEC8C93108EA489B58956
:1002F00086E08C93A289B3898C9180618C93A289CA
:10030000B3898C9188608C93A289B3898C91806821
:100310008C930288F389E02D80818F7D80830895FE
:10032000AF92BF92CF92DF92EF92FF920F931F9303
:10033000CF93DF936C017B018B01040F151FEB0141
:100340005E01AE18BF08C017D10759F06991D601F8
:10035000ED91FC910190F081E02DC6011995892B5A
:1003600079F7C501DF91CF911F910F91FF90EF9029
:10037000DF90CF90BF90AF900895FC01538D448DD6
:10038000252F30E0842F90E0821B930B541710F040
:10039000CF96089501970895FC01918D828D98174D
:1003A00061F0A28DAE0FBF2FB11D5D968C91928D25
:1003B0009F5F9F73928F90E008958FEF9FEF089556
:1003C000FC01918D828D981731F0828DE80FF11D1F
:1003D000858D90E008958FEF9FEF0895FC01918D3A
:1003E000228D892F90E0805C9F4F821B91098F7333
:1003F0009927089584E594E00E94EE0121E0892B7D
:1004000009F420E0822F0895FC01A48DA80FB92FD4
:10041000B11DA35ABF4F2C91848D90E001968F732C
:100420009927848FA689B7892C93A089B1898C914B
:10043000837080648C93938D848D981306C002889A
:10044000F389E02D80818F7D80830895EF92FF9264
:100450000F931F93CF93DF93EC0181E0888F9B8DE7
:100460008C8D98131AC0E889F989808185FF15C0A1
:100470009FB7F894EE89FF896083E889F9898081C4
:100480008370806480839FBF81E090E0DF91CF9193
:100490001F910F91FF90EF900895F62E0B8D10E0B5
:1004A0000F5F1F4F0F731127E02E8C8D8E110CC024
:1004B0000FB607FCFACFE889F989808185FFF5CF6F
:1004C000CE010E940402F1CFEB8DEC0FFD2FF11D48
:1004D000E35AFF4FF0829FB7F8940B8FEA89FB89AC
:1004E00080818062CFCFCF93DF93EC01888D88230A
:1004F000B9F0AA89BB89E889F9898C9185FD03C087
:10050000808186FD0DC00FB607FCF7CF8C9185FF6B
:10051000F2CF808185FFEDCFCE010E940402E9CFAA
:10052000DF91CF91089580E090E0892B29F00E941F
:10053000FA0181110E94000080E090E0892B49F0CF
:1005400080E090E0892B29F00E94000081110E9438
:10055000000080E090E0892B49F080E090E0892B5A
:1005600029F00E94000081110E94000080E090E0CC
:10057000892B49F080E090E0892B29F00E9400004F
:1005800081110C94000008958150823108F05AC006
:10059000E82FF0E08827E053FD4F8F4F0C94BB0904
:1005A000F002F402E202E802EC022203F702FD028A
:1005B000010307030B030F031503190322031D0394
:1005C00023032703809180008F7780938000089514
:1005D000809180008F7DF9CF80918000877FF5CF5B
:1005E00084B58F7784BD089584B58F7DFBCF8091CE
:1005F000B0008F778093B00008958091B0008F7D18
:10060000F9CF809190008F7780939000089580912A
:1006100090008F7DF9CF80919000877FF5CF8091FA
:10062000A0008F778093A00008958091A0008F7D17
:10063000F9CF8091A000877FF5CF809120018F773F
:10064000809320010895809120018F7DF9CF8091C2
:100650002001877FF5CF1F93CF93DF93282F30E0C2
:10066000F901EE5DFD4F8491F901E452FE4FD49102
:10067000F901EA56FE4FC491CC23A9F0162F81113F
:100680000E94C402EC2FF0E0EE0FFF1FE85BFE4F6C
:10069000A591B4918FB7F894EC91111108C0D09541
:1006A000DE23DC938FBFDF91CF911F910895DE2B66
:1006B000F8CF3FB7F8948091B2039091B303A09123
:1006C000B403B091B50326B5A89B05C02F3F19F020
:1006D0000196A11DB11D3FBFBA2FA92F982F8827C2
:1006E000BC01CD01620F711D811D911D42E0660F9D
:1006F000771F881F991F4A95D1F708952FB7F8944F
:100700006091AE037091AF038091B0039091B103FB
:100710002FBF0895AF92BF92CF92DF92EF92FF92D8
:100720000F931F93CF93DF936B017A01EC01C855B0
:10073000DC4F28813CE0389F8001399F100D112447
:10074000A090AC03B12C27FF1FC0FB0111821082C7
:1007500088818F5F888388819801280F311D87FDEC
:100760003A95F6012A153B051CF488818C30C4F1BA
:1007700080819181049680349C4908F473C0F6010D
:1007800080819181049670C088819801280F311D65
:1007900087FD3A952A153B05DCF68881A801480FAC
:1007A000511D87FD5A95FA01EE0FFF1FE40FF51F4B
:1007B000EA54FC4F808186FFCBCF8881F801E80F97
:1007C000F11D87FDFA95CF01EE0FFF1FE80FF91F0E
:1007D000EA54FC4F808160E08F730E942B03B8CFF6
:1007E000808191812881A801420F511D27FD5A95D2
:1007F0009A01FA01EE0FFF1FE20FF31FEA54FC4FBC
:1008000021813281820F931FF70191838083888138
:100810009801280F311D87FD3A95F901EE0FFF1F52
:10082000E20FF31FEA54FC4F808186FF22C08881CB
:10083000080F111D87FD1A95F801EE0FFF1FE00F3D
:10084000F11FEA54FC4F808161E08F73DF91CF91FB
:100850001F910F91FF90EF90DF90CF90BF90AF90DE
:100860000C942B0380E49CE9F701918380838FEF44
:100870008883DF91CF911F910F91FF90EF90DF90D0
:10088000CF90BF90AF900895FC0101900020E9F750
:100890003197AF01481B590BBC0184E594E00C94DF
:1008A0009001CF93DF930E944404EC0182E192E037
:1008B0000E9444048C0F9D1FDF91CF910895809179
:1008C0004F04813009F4F3C08091480490914904A9
:1008D0008456910984389340A0F485E192E00E9407
:1008E00051048091A6039091A7038130910509F4EA
:1008F00046C030F18230910509F461C0039709F4D4
:100900007DC08091480490914904885E9340803D69
:10091000974008F0ACC08AE193E00E9451048091B6
:10092000A6039091A7038330910509F094C010921B
:10093000A7031092A6031092A5031092A40397C0D8
:100940008091A4039091A503009791F481E090E039
:100950009093A5038093A4038091A4039091A50391
:10096000009709F46AC0019761F687E592E067C0D5
:10097000019791F71092A5031092A403EDCF8091F7
:10098000A4039091A50382309105A1F483E090E047
:100990009093A5038093A4038091A4039091A50351
:1009A0008230910509F44EC0039709F0AACF86E87A
:1009B00092E045C0039781F782E090E0E9CF809113
:1009C000A4039091A5038430910599F485E090E00B
:1009D0009093A5038093A4038091A4039091A50311
:1009E0008430910591F1059709F08BCF8FEB92E060
:1009F00026C0059789F784E090E0EACF8091A403B0
:100A00009091A5038630910599F487E090E090934A
:100A1000A5038093A4038091A4039091A50386303D
:100A20009105B1F0079709F06CCF8DEF92E007C008
:100A3000079789F786E090E0EACF81E492E00E9490
:100A400051045FCF8DE692E0FACF85EA92E0F7CFCE
:100A500080EE92E0F4CF01969093A7038093A603D3
:100A600081309105D1F08CF4892B09F464CF809109
:100A7000480490914904883B9B4024F08CE393E028
:100A80000E94510410924E0408958230910561F045
:100A9000039769F786E090E002C082E090E09093CF
:100AA000A5038093A403E3CF84E090E0F8CF809186
:100AB000460490914704029769F48091480490910C
:100AC0004904885E9340803D974020F486E493E09B
:100AD0000E9451048091460490914704019791F639
:100AE0008091480490914904845691098438934038
:100AF00048F68BE593E0C4CF1F920F920FB60F928A
:100B000011240BB60F922F933F934F935F936F93E4
:100B10007F938F939F93AF93BF93EF93FF9384E55E
:100B200094E00E940402FF91EF91BF91AF919F91D9
:100B30008F917F916F915F914F913F912F910F9086
:100B40000BBE0F900FBE0F901F9018951F920F9223
:100B50000FB60F9211240BB60F922F938F939F9382
:100B6000EF93FF93E0916404F09165048081E0913C
:100B70006A04F0916B0482FD1DC0908180916D0428
:100B80008F5F8F7320916E04821741F0E0916D04A6
:100B9000F0E0EC5AFB4F958F80936D04FF91EF913D
:100BA0009F918F912F910F900BBE0F900FBE0F90C2
:100BB0001F9018958081F2CF1F920F920FB60F925F
:100BC00011242F933F938F939F93AF93BF93809163
:100BD000AE039091AF03A091B003B091B1033091F7
:100BE000AD0323E0230F2D3758F50196A11DB11D4C
:100BF0002093AD038093AE039093AF03A093B00313
:100C0000B093B1038091B2039091B303A091B40368
:100C1000B091B5030196A11DB11D8093B2039093CD
:100C2000B303A093B403B093B503BF91AF919F9169
:100C30008F913F912F910F900FBE0F901F9018959D
:100C400026E8230F0296A11DB11DD2CF1F920F924D
:100C50000FB60F9211240BB60F922F933F934F9321
:100C60005F936F937F938F939F93AF93BF93EF9314
:100C7000FF9348E251E064E271E090E080E00E947E
:100C80008A03FF91EF91BF91AF919F918F917F91D7
:100C90006F915F914F913F912F910F900BBE0F90ED
:100CA0000FBE0F901F9018951F920F920FB60F92C4
:100CB00011240BB60F922F933F934F935F936F9333
:100CC0007F938F939F93AF93BF93EF93FF9348EAE4
:100CD00050E064EA70E083E090E00E948A03FF91B4
:100CE000EF91BF91AF919F918F917F916F915F91A4
:100CF0004F913F912F910F900BBE0F900FBE0F9011
:100D00001F9018951F920F920FB60F9211240BB6D9
:100D10000F922F933F934F935F936F937F938F9394
:100D20009F93AF93BF93EF93FF9348E950E064E93B
:100D300070E082E090E00E948A03FF91EF91BF9102
:100D4000AF919F918F917F916F915F914F913F9163
:100D50002F910F900BBE0F900FBE0F901F90189504
:100D60001F920F920FB60F9211240BB60F922F9372
:100D70003F934F935F936F937F938F939F93AF9323
:100D8000BF93EF93FF9348E850E064E870E081E0A0
:100D900090E00E948A03FF91EF91BF91AF919F91E4
:100DA0008F917F916F915F914F913F912F910F9014
:100DB0000BBE0F900FBE0F901F901895FC019091E5
:100DC000AC03903398F481E0890F8093AC03908357
:100DD000892F90E0FC01EE0FFF1FE80FF91FEA5486
:100DE000FC4F88EB9BE09283818308958FEF808393
:100DF0000895E4E5F4E01382128288EE93E0A0E027
:100E0000B0E084839583A683B78384E092E09183E6
:100E1000808385EC90E09587848784EC90E09787C9
:100E2000868780EC90E0918B808B81EC90E0938BB7
:100E3000828B82EC90E0958B848B86EC90E0978B94
:100E4000868B118E128E138E148EE1EFF4E01682D3
:100E500017821086118612861386148615861686CA
:100E60001786108A118A128A138A148A158A83E4D3
:100E700095E00E94DE0680E495E00E94DE068DE3A8
:100E800095E00E94DE068AE395E00E94DE0687E395
:100E900095E00C94DE06789484B5826084BD84B5B8
:100EA000816084BD85B5826085BD85B5816085BD65
:100EB00080916E00816080936E001092810080911D
:100EC00081008260809381008091810081608093A5
:100ED0008100809180008160809380008091B100CA
:100EE00084608093B1008091B00081608093B000F5
:100EF0008091910082608093910080919100816047
:100F00008093910080919000816080939000809107
:100F1000A10082608093A1008091A10081608093F4
:100F2000A1008091A00081608093A00080912101A8
:100F30008260809321018091210181608093210151
:100F40008091200181608093200180917A008460EB
:100F500080937A0080917A00826080937A008091F9
:100F60007A00816080937A0080917A008068809313
:100F70007A001092C100109233051092340510923D
:100F80003505109236051092F3041092F404109275
:100F9000F5041092F6040E947E036B017C014B0164
:100FA0005C0128EB820E2BE0921EA11CB11C0E945A
:100FB0007E036C157D058E059F0528F08616970625
:100FC000A806B906A0F70E9459034B015C01D8EEB0
:100FD000CD2ED3E0DD2EE12CF12C0E9459036819AF
:100FE00079098A099B09683E734081059105A8F338
:100FF00041E0C41AD108E108F10888EE880E83E0C8
:10100000981EA11CB11CC114D104E104F10429F7FC
:101010000E9468010E947E036093F3047093F404BD
:101020008093F5049093F6048AE793E00E944404C9
:101030000E947E036B017C014B015C01FAE08F0E84
:10104000911CA11CB11C0E947E036C157D058E05B0
:101050009F0528F086169706A806B906A0F781E036
:10106000809307050E947E036093F3047093F40459
:101070008093F5049093F6048BE893E00E94440477
:101080000E94680182E993E00E9451048091430527
:10109000803308F069C0EFEDF1E02491E9E9F1E077
:1010A0008491882399F090E0880F991FFC01EE59F4
:1010B000FE4FA591B491FC01E85BFE4F85919491A0
:1010C0008FB7F894EC91E22BEC938FBF809143059E
:1010D000282F30E0F901EE0FFF1FE20FF31FEA5453
:1010E000FC4F9081907C9360908310924405109205
:1010F00045052CE0622F0E94AF09829FB0011124A8
:1011000030E020E0AB01420F531FFA01EE0FFF1F4A
:10111000E40FF51FEA54FC4F908196FD17C02F5F36
:101120003F4F2C30310571F7813009F0C9C0109262
:10113000800082E0809381001092850010928400EC
:10114000B19A80916F00826080936F00E0914305B7
:101150008E2F90E0FC01EE0FFF1FE80FF91FEA54FD
:10116000FC4F808180648083E09143052091440599
:1011700088E890E0821B910927FD9395880F991FBD
:10118000880F991FE03388F40297880F991F4FB793
:10119000F8942E2F30E0F901EE0FFF1FE20FF31F3E
:1011A000EA54FC4F928381834FBFCBE2D2E005EE3D
:1011B00011E09FE9E92E91E0F92EAA24A39422E000
:1011C000C22ED12CFE018491F801B490F7019490C5
:1011D000992009F4A1C081110E94C402E92DF0E018
:1011E000EE0FFF1FE458FE4FA591B4918C91B822E9
:1011F00091E080E009F490E0892E982E90925304BB
:101200008092520480915004909151048815990560
:1012100079F1F1E08F16910409F081C00E947E03FC
:1012200070934B0460934A0420914C0430914D0418
:10123000621B730B6556710967377540C8F4A0923D
:101240004F0480914804909149049C01245631092F
:101250002438334020F49092470480924604885EFC
:101260009340803D974020F4D0924704C0924604BA
:1012700080915204909153049093510480935004B0
:1012800080914F04811119C080914E048823A9F0E8
:101290000E947E0340904C0450904D04052C000C9D
:1012A0006608770864197509860997096D3D7540C8
:1012B0008105910510F00E945F040E94930282CF85
:1012C000823061F41092900080939100109295000A
:1012D0001092940088BB8093710038CF833069F4FA
:1012E0001092A00082E08093A1001092A5001092BD
:1012F000A40089BB8093720029CF811127CF10925F
:10130000200182E080932101109225011092240196
:101310008ABB809373001ACF912C812C6FCF0E94CF
:101320007E0370934D0460934C04A0924E04209170
:101330004A0430914B04621B730B70934904609311
:10134000480480914F04882309F492CF0E945F04DF
:1013500010924F04109247041092460489CF991BB3
:1013600079E004C0991F961708F0961B881F7A959C
:10137000C9F780950895EE0FFF1F881F8BBF079058
:0A138000F691E02D1994F894FFCFC8
:10138A000000000026029001BD017302EE01CC01AB
:10139A00E0010D0A004275746F6E756C206120665B
:1013AA006F737420617061736174206F206A756D48
:1013BA00617461746520646520736563756E646128
:1013CA000043757272656E743A20426173696320D4
:1013DA002D20466973740043757272656E743A20E3
:1013EA004261736963202D204772697000437572E8
:1013FA0072656E743A2050696E63686573202D2099
:10140A0050696E63680043757272656E743A205053
:10141A00696E63686573202D2050696E63684E6F2C
:10142A00466973740043757272656E743A20547219
:10143A0069706F6473202D20547269706F64004361
:10144A00757272656E743A20547269706F64732093
:10145A002D20547269706F64684E6F466973740008
:10146A0043757272656E743A204578747261477278
:10147A00697073202D20457874726131004375724A
:10148A0072656E743A204578747261477269707336
:10149A00202D20457874726132004275746F6E7522
:1014AA006C206120666F73742061706173617420AF
:1014BA00312D3320736563756E64650053687574E6
:1014CA0020646F776E002E2E2E4C6F636B696E67E9
:1014DA0020536572766F732E2E2E002E2E2E44699F
:1014EA0073706C6179696E67204261747465727990
:1014FA00204C6576656C2E2E2E00564D4450565F54
:10150A00317C315F564D4450560A00564D44505274
:10151A005F000A0A21214E65772073657373696F2C
:04152A006E2121000D
:00000001FF
