:100000000C9469010C94630C0C94380C0C940D0C3A
:100010000C94E20B0C94B70B0C948C0B0C94610BAE
:100020000C94360B0C949A010C949A010C949A013E
:100030000C949A010C949A010C949A010C949A01D4
:100040000C949A010C94180D0C949A010C949A013A
:100050000C949A010C949A010C949A010C94EC0A59
:100060000C949A010C94B60A0C948C0A0C949A0184
:100070000C949A010C949A010C949A010C949A0194
:100080000C94EA0C0C949A010C949A010C949A0129
:100090000C949A010C949A010C949A010C949A0174
:1000A0000C949A010C949A010C94BC0C0C949A0137
:1000B0000C949A010C949A010C949A010C948E0C55
:1000C0000C949A010C949A010C949A010C949A0144
:1000D0000C949A010C949A010C949A010C949A0134
:1000E0000C949A010C9431030C9456030C94F10176
:1000F0000C944E110C9449030C94C4010C94E30726
:100100000C9455040C94DC100C9414020C945703BA
:100110000C948B0F0C941B140C9400020C9435035C
:100120000C9403130C945A020C94D7150C943F03AF
:100130000C944E150C9428030C94DA0F0C944D0378
:100140000C9420030C9451030C9499150C94B8153D
:100150000C9454100C940E120C94D1110C941603A0
:100160000C945B030C9443030C94610D0C943B03BF
:100170000C9422020C947A150C94A7020C949810FB
:100180000C9415160C9417100C947E110C942403E7
:100190000C945F0F0C94DD120C944B120C942B03F7
:1001A0000C94F6150C941C030C94FD100C949412F2
:1001B00000002100240027002A002D003000330019
:1001C00001010000040107010A01000022002500CE
:1001D00028002B002E003100340002010000050130
:1001E00008010B01000020002300260029002C003C
:1001F0002F0032000001000003010601090105057E
:100200000505070508080808020202020A0A08088C
:1002100004040404010101010101010103030303BA
:1002200003030303040707070C0C0C0C0C0C0C0C49
:100230000202020206060606060606060B0B0B0B5A
:100240000B0B0B0B0102102020080810204010207F
:10025000408002010201080402010102040810208A
:100260004080804020100804020180040201804088
:1002700020100804020108040201010204081020F1
:100280004080010204081020408000000A0B02098F
:100290000C0D0E0807030401000000000000000020
:1002A000000000000000000000000000000000004E
:1002B000000000000000121110000000000000000B
:1002C000000000000000000000000000000000002E
:1002D000610D11241FBECFEFD1E2DEBFCDBF00E024
:1002E0000CBF13E0A0E0B2E0EAE5FFE200E00BBFE4
:1002F00002C007900D92AC3CB107D9F725E0ACECF9
:10030000B3E001C01D92A837B207E1F711E0C9E6DA
:10031000D1E000E006C021970109802FFE010E9474
:10032000A317C836D10780E00807A9F70E94B30DCC
:100330000C94AB170C940000E6E8F4E0A089B189B6
:1003400082E08C93A485B5851C92A685B7858FEC39
:100350008C93108EA489B58986E08C93A289B38989
:100360008C9180618C93A289B3898C9188608C93E5
:10037000A289B3898C9180688C930288F389E02DDF
:1003800080818F7D80830895AF92BF92CF92DF925C
:10039000EF92FF920F931F93CF93DF936C017B013A
:1003A0008B01040F151FEB015E01AE18BF08C017CB
:1003B000D10759F06991D601ED91FC910190F0813E
:1003C000E02DC6011995892B79F7C501DF91CF91F1
:1003D0001F910F91FF90EF90DF90CF90BF90AF9063
:1003E0000895FC01538D448D252F30E0842F90E03B
:1003F000821B930B541710F0CF9608950197089520
:10040000FC01918D828D981761F0A28DAE0FBF2FE8
:10041000B11D5D968C91928D9F5F9F73928F90E03E
:1004200008958FEF9FEF0895FC01918D828D9817AD
:1004300031F0828DE80FF11D858D90E008958FEFEA
:100440009FEF0895FC01918D228D892F90E0805CB3
:100450009F4F821B91098F739927089586E894E036
:100460000E94220221E0892B09F420E0822F0895C6
:10047000FC01A48DA80FB92FB11DA35ABF4F2C9119
:10048000848D90E001968F739927848FA689B78910
:100490002C93A089B1898C91837080648C93938D07
:1004A000848D981306C00288F389E02D80818F7DAA
:1004B00080830895EF92FF920F931F93CF93DF9362
:1004C000EC0181E0888F9B8D8C8D98131AC0E88990
:1004D000F989808185FF15C09FB7F894EE89FF895F
:1004E0006083E889F98980818370806480839FBFFD
:1004F00081E090E0DF91CF911F910F91FF90EF90FD
:100500000895F62E0B8D10E00F5F1F4F0F7311270C
:10051000E02E8C8D8E110CC00FB607FCFACFE88947
:10052000F989808185FFF5CFCE010E943802F1CF95
:10053000EB8DEC0FFD2FF11DE35AFF4FF0829FB7BB
:10054000F8940B8FEA89FB8980818062CFCFCF93AB
:10055000DF93EC01888D8823B9F0AA89BB89E889EB
:10056000F9898C9185FD03C0808186FD0DC00FB691
:1005700007FCF7CF8C9185FFF2CF808185FFEDCF0F
:10058000CE010E943802E9CFDF91CF91089580E03B
:1005900090E0892B29F00E942E0281110E94000018
:1005A00080E090E0892B49F080E090E0892B29F0F1
:1005B0000E94000081110E94000080E090E0892BE1
:1005C00049F080E090E0892B29F00E940000811121
:1005D0000E94000080E090E0892B49F080E090E0EC
:1005E000892B29F00E94000081110C9400000895CD
:1005F0008150823108F05AC0E82FF0E08827EC5F84
:10060000FC4F8F4F0C94A3172403280316031C03DD
:10061000200356032B03310335033B033F034303FE
:1006200049034D035603510357035B038091800038
:100630008F77809380000895809180008F7DF9CF1F
:1006400080918000877FF5CF84B58F7784BD089532
:1006500084B58F7DFBCF8091B0008F778093B00001
:1006600008958091B0008F7DF9CF809190008F77B1
:10067000809390000895809190008F7DF9CF8091B4
:100680009000877FF5CF8091A0008F778093A000A6
:1006900008958091A0008F7DF9CF8091A000877F81
:1006A000F5CF809120018F7780932001089580916C
:1006B00020018F7DF9CF80912001877FF5CFCF93E7
:1006C000DF93282F30E0F901E657FD4F8491F901BF
:1006D000EC5BFD4FD491F901E250FE4FC491CC2365
:1006E000A1F081110E94F802EC2FF0E0EE0FFF1F45
:1006F000EC51FE4FA591B491EC91ED2381E090E097
:1007000009F480E0DF91CF91089580E090E0FACF86
:100710001F93CF93DF93282F30E0F901E657FD4F69
:100720008491F901EC5BFD4FD491F901E250FE4F49
:10073000C491CC23A9F0162F81110E94F802EC2F4E
:10074000F0E0EE0FFF1FE653FE4FA591B4918FB777
:10075000F894EC91111108C0D095DE23DC938FBF83
:10076000DF91CF911F910895DE2BF8CFCF93DF93C8
:1007700090E0FC01EC5BFD4F249182509E4FFC0108
:1007800084918823C9F090E0880F991FFC01E055FF
:10079000FE4FA591B491FC01E653FE4FC591D49153
:1007A00061110DC09FB7F8948C91209582238C9392
:1007B0008881282328839FBFDF91CF9108956230DD
:1007C00051F49FB7F8943C91822F809583238C93AA
:1007D000E8812E2BEFCF8FB7F894EC912E2B2C9332
:1007E0008FBFEACF3FB7F894809168049091690475
:1007F000A0916A04B0916B0426B5A89B05C02F3F59
:1008000019F00196A11DB11D3FBFBA2FA92F982F36
:100810008827BC01CD01620F711D811D911D42E031
:10082000660F771F881F991F4A95D1F708958F92F9
:100830009F92AF92BF92CF92DF92EF92FF924B01C5
:100840005C010E94F2036B017C010E94F2036C19AF
:100850007D098E099F09683E734081059105A8F3C3
:1008600021E0821A9108A108B10888EEC80E83E041
:10087000D81EE11CF11C81149104A104B10429F7D4
:10088000FF90EF90DF90CF90BF90AF909F908F90B0
:1008900008952FB7F8946091640470916504809175
:1008A0006604909167042FBF08950895CF92DF9258
:1008B000EF92FF92CF93DF93EC01603282E07807F2
:1008C000CCF5653B710514F064EB70E0898128E894
:1008D00030E0281B310987FD3395220F331F220F8B
:1008E000331F6901330FEE08FF088A8128E532E0E3
:1008F000281B310987FD3395220F331F220F331F29
:10090000032E000C440B550B2C193D094E095F09B1
:10091000DB0177FF02C0B0E0A0E00E94801724EB6B
:1009200030E040E050E00E945617C20ED31EE41E95
:10093000F51EB601E881E03370F5298188E890E082
:10094000821B910927FD9395880F991F880F991F86
:10095000681779077CF02A8188E592E0821B91096B
:1009600027FD9395880F991F880F991F681779079E
:100970000CF4CB010297880F991F4FB7F8942E2FD4
:1009800030E0F901EE0FFF1FE20FF31FED52FC4FB5
:10099000928381834FBFDF91CF91FF90EF90DF90E3
:1009A000CF9008951F93CF93DF93EC01162F88818A
:1009B000803308F04EC061E0812F0E94B603888129
:1009C000282F30E0F901EE0FFF1FE20FF31FED5269
:1009D000FC4F1F736081607C612B608319821A82D7
:1009E0002CE0622F0E949717829FB001112430E003
:1009F00020E0AB01420F531FFA01EE0FFF1FE40F7F
:100A0000F51FED52FC4F908196FD16C02F5F3F4FB2
:100A10002C30310571F7813009F51092800082E0A9
:100A2000809381001092850010928400B19A809189
:100A30006F00826080936F00E8818E2F90E0FC0150
:100A4000EE0FFF1FE80FF91FED52FC4F808180640D
:100A500080838881DF91CF911F910895823061F466
:100A60001092900080939100109295001092940043
:100A700088BB80937100E0CF833069F41092A000AE
:100A800082E08093A1001092A5001092A40089BB7F
:100A900080937200D1CF8111CFCF1092200182E0DC
:100AA0008093210110922501109224018ABB80932A
:100AB0007300C2CFAF92BF92CF92DF92EF92FF92BC
:100AC0000F931F93CF93DF936B017A01EC01C25315
:100AD000DC4F28813CE0389F8001399F100D1124A4
:100AE000A090D203B12C27FF1FC0FB0111821082FE
:100AF00088818F5F888388819801280F311D87FD49
:100B00003A95F6012A153B051CF488818C30C4F116
:100B100080819181049680349C4908F473C0F60169
:100B200080819181049670C088819801280F311DC1
:100B300087FD3A952A153B05DCF68881A801480F08
:100B4000511D87FD5A95FA01EE0FFF1FE40FF51FA7
:100B5000ED52FC4F808186FFCBCF8881F801E80FF2
:100B6000F11D87FDFA95CF01EE0FFF1FE80FF91F6A
:100B7000ED52FC4F808160E08F730E948803B8CFF4
:100B8000808191812881A801420F511D27FD5A952E
:100B90009A01FA01EE0FFF1FE20FF31FED52FC4F17
:100BA00021813281820F931FF70191838083888195
:100BB0009801280F311D87FD3A95F901EE0FFF1FAF
:100BC000E20FF31FED52FC4F808186FF22C0888127
:100BD000080F111D87FD1A95F801EE0FFF1FE00F9A
:100BE000F11FED52FC4F808161E08F73DF91CF9157
:100BF0001F910F91FF90EF90DF90CF90BF90AF903B
:100C00000C94880380E49CE9F701918380838FEF43
:100C10008883DF91CF911F910F91FF90EF90DF902C
:100C2000CF90BF90AF900895CF93DF93EC0161E038
:100C30008EE10E94880361E08FE10E94880361E0F9
:100C400080E20E94880361E081E20E94880360E004
:100C500080E2C130D10541F08FE1C230D10521F0F1
:100C60008EE1CD2B09F081E2DF91CF910C948803C6
:100C7000833509F47DC0D4F5853409F4DFC0FCF474
:100C8000813309F4C9C0813409F468C0803309F0A4
:100C900001C161E086E10E94880361E087E10E9472
:100CA000880361E088E10E94880361E089E10E9495
:100CB000880361E08AE10E94880361E086C08C3489
:100CC00009F4C6C0803509F465C0863409F0E2C075
:100CD00061E086E10E94880360E087E10E9488036A
:100CE00060E088E10E94880360E02BC0893609F447
:100CF00057C054F48236C1F0833609F4C1C0883538
:100D000009F0C8C060E02BC08F3609F4ABC024F4F2
:100D10008E3609F461C00895823709F473C060E02B
:100D2000843709F48CC0089560E086E10E9488034E
:100D300060E087E10E94880361E088E10E94880307
:100D400061E089E10E94880361E08AE10E948803F2
:100D500061E08BE10E94880361E03BC061E086E1D5
:100D60000E94880361E087E10E94880361E0B9CFB7
:100D700061E086E10E94880360E087E10E948803C9
:100D800061E088E10E94880361E089E10E948803B4
:100D900060E0DBCF61E086E10E94880361E09DCFE7
:100DA00060E086E10E94880360E087E10E9488039A
:100DB00060E088E10E94880360E089E10E94880386
:100DC00061E08AE10E94880360E08BE10E94880371
:100DD00060E08CE10C94880360E086E10E94880367
:100DE00060E087E10E94880361E088E10E94880357
:100DF00060E089E10E94880361E08AE10E94880343
:100E000060E0A7CF60E086E10E94880360E087E1B0
:100E10000E94880360E0E9CF60E086E10E948803D9
:100E200061E087E10E94880361E088E10E94880315
:100E300060E089E10E94880360E0C3CF61E086E161
:100E40000E94880360E087E10E94880360E075CF1C
:100E500060E086E10E94880360E087E10E948803E9
:100E600060E020CF60E086E10E94880360E087E1D7
:100E70000E94880361E088E10E94880361E0B9CFA5
:100E800060E086E10E94880360E087E10E948803B9
:100E900060E0F1CF08950F931F93CF93DF9384EB1E
:100EA00090E090937F0480937E0404EB10E0C09167
:100EB0007E04D0917F041C161D069CF4B8016C1BA7
:100EC0007D0B89E695E00E94560465E070E080E0C5
:100ED00090E00E9417042197D0937F04C0937E0472
:100EE000E6CFDF91CF911F910F9108950F931F933C
:100EF000CF93DF9310927F0410927E0404EB10E0F6
:100F0000C0917E04D0917F04C43BD1059CF4B8010C
:100F10006C1B7D0B89E695E00E94560465E070E04D
:100F200080E090E00E9417042196D0937F04C09344
:100F30007E04E6CFDF91CF911F910F910895CF935B
:100F4000DF9384EB90E090937F0480937E04C091C4
:100F50007E04D0917F041C161D068CF4BE018CE625
:100F600095E00E94560465E070E080E090E00E9409
:100F700017042197D0937F04C0937E04E8CFDF91BC
:100F8000CF910895CF93DF9310927F0410927E0447
:100F9000C0917E04D0917F04C43BD1058CF4BE0186
:100FA0008CE695E00E94560465E070E080E090E0F9
:100FB0000E9417042196D0937F04C0937E04E8CF4B
:100FC000DF91CF91089583B78E7F83BFE89885E541
:100FD00094E09093050280930402F0E0E0E019941D
:100FE000FC0101900020E9F73197AF01481B590B34
:100FF000BC0186E894E00C94C4018F929F92AF925A
:10100000BF920F931F93CF93DF93CDB7DEB7A19716
:101010000FB6F894DEBF0FBECDBF19A2423008F460
:101020004AE08E010F5D1F4F842E912CB12CA12C14
:10103000A50194010E943417E62FB901CA01EA30D4
:10104000F4F4E05DD801EE938D01232B242B252BA6
:1010500079F790E080E0109719F0CD010E94F00739
:10106000A1960FB6F894DEBF0FBECDBFDF91CF9132
:101070001F910F91BF90AF909F908F900895E95C62
:10108000E1CFCF92DF92EF92FF92CF93DF936B018C
:101090007C016DE286E894E00E945A02EC0166272A
:1010A0007727CB016C197D098E099F094AE00E94C0
:1010B000FD078C0F9D1FDF91CF91FF90EF90DF9088
:1010C000CF900895CF93DF930E94F007EC018EE25A
:1010D00092E00E94F0078C0F9D1FDF91CF91089541
:1010E0008091CC039091CD0381309105B9F030F01F
:1010F0008230910519F1039789F1089580916C046C
:1011000090916D04009719F0019729F0089581E3FB
:1011100092E00C94620887E492E0FBCF80916C042B
:1011200090916D048230910519F0039721F0089594
:101130008DE592E0EECF86E792E0EBCF80916C04F4
:1011400090916D048430910519F0059721F0089570
:1011500085E992E0DECF8FEA92E0DBCF80916C04EC
:1011600090916D048630910519F0079721F008954C
:1011700080ED92E0CECF8DEE92E0CBCF0F931F9318
:10118000CF93DF9380917904813009F48AC18091F3
:10119000720490917304845691098438934020F529
:1011A00080918004811120C08AE093E00E9462084F
:1011B00080911A0290911B02009709F4AFC0813010
:1011C000910581F4209118023091190221303105E6
:1011D00009F09DC010921902109218028EE193E05E
:1011E0000E9462080E9470088091720490917304BA
:1011F000885E9340803D9740B0F487E393E00E947F
:1012000062080E94490470937B0460937A04809181
:10121000800481113AC181E090E090937D04809335
:101220007C04809380048091720490917304885BA5
:101230009B40803D9740A8F480918004811111C0AB
:101240008CE493E00E94620880911A0290911B0244
:101250008130910509F422C1019690931B0280937D
:101260001A02809172049091730488389341C4F1FA
:1012700080918004811134C080E693E00E9462086E
:1012800060E086E10E94880360E087E10E948803B5
:1012900060E088E10E94880360E089E10E948803A1
:1012A00060E08AE10E94880360E08BE10E9488038D
:1012B00060E08CE10E94880383B7816083BF83EE86
:1012C00097E09093050280930402809169008C7FDF
:1012D00080936900E89A83B7817F846083BF889593
:1012E0001092780410927904109271041092700494
:1012F00010926F0410926E048FEF9FEF9093110283
:1013000080931002DF91CF911F910F9108959093D8
:1013100019028093180289E293E062CF8091CC0396
:101320009091CD038130910541F190F0823091058B
:1013300009F485C0039709F055CF80916C04909112
:101340006D048630910509F09AC087E090E008C0EE
:1013500080916C0490916D04009739F481E090E0E5
:1013600090936D0480936C043DCF019709F03ACFC0
:1013700010926D0410926C0435CF80916C049091A2
:101380006D048230910559F583E090E090936D04EF
:1013900080936C040E9476070E94C20710927F041B
:1013A00010927E0404EB10E0C0917E04D0917F0483
:1013B000C43BD1050CF016CFB8016C1B7D0B8FE63A
:1013C00095E00E94560465E070E080E090E00E94A5
:1013D00017042196D0937F04C0937E04E5CF039732
:1013E00009F000CF82E090E090936D0480936C044C
:1013F0000E944B070E949F0784EB90E090937F042C
:1014000080937E0404EB10E0C0917E04D0917F04B1
:101410001C161D060CF0E6CEB8016C1B7D0B8FE68A
:1014200095E00E94560465E070E080E090E00E9444
:1014300017042197D0937F04C0937E04E5CF809159
:101440006C0490916D048430910559F485E090E02E
:1014500090936D0480936C040E9476070E94C207EB
:10146000C1CE059709F0BECE84E090E090936D0464
:1014700080936C040E944B070E949F07B3CE07978E
:1014800009F0B0CE86E090E06BCF1092800482E04D
:1014900090E090937D0480937C04C5CE90E080E042
:1014A000DCCE8091800481111BCF80911A02909133
:1014B0001B02892B09F014CF8091CC039091CD03AE
:1014C0008330910549F41092CD031092CC03109211
:1014D0006D0410926C040BC001969093CD03809321
:1014E000CC038130910571F02CF4892B81F30E949B
:1014F0007008F6CE8230910561F00397C1F786E05F
:1015000090E002C082E090E090936D0480936C04C0
:10151000EECF84E090E0F8CF1F920F920FB60F92BB
:1015200011240BB60F922F933F934F935F936F93BA
:101530007F938F939F93AF93BF93EF93FF9386E82F
:1015400094E00E943802FF91EF91BF91AF919F917B
:101550008F917F916F915F914F913F912F910F905C
:101560000BBE0F900FBE0F901F9018951F920F92F9
:101570000FB60F9211240BB60F922F938F939F9358
:10158000EF93FF93E0919604F09197048081E091AE
:101590009C04F0919D0482FD1DC0908180919F0468
:1015A0008F5F8F732091A004821741F0E0919F0418
:1015B000F0E0EA57FB4F958F80939F04FF91EF91E6
:1015C0009F918F912F910F900BBE0F900FBE0F9098
:1015D0001F9018958081F2CF1F920F920FB60F9235
:1015E00011242F933F938F939F93AF93BF93809139
:1015F000640490916504A0916604B09167043091F1
:10160000630423E0230F2D3758F50196A11DB11D6A
:10161000209363048093640490936504A09366040C
:10162000B09367048091680490916904A0916A0462
:10163000B0916B040196A11DB11D80936804909335
:101640006904A0936A04B0936B04BF91AF919F911A
:101650008F913F912F910F900FBE0F901F90189573
:1016600026E8230F0296A11DB11DD2CF1F920F9223
:101670000FB60F9211240BB60F922F933F934F93F7
:101680005F936F937F938F939F93AF93BF93EF93EA
:10169000FF93E0910E02F0910F021995FF91EF91E7
:1016A000BF91AF919F918F917F916F915F914F917A
:1016B0003F912F910F900BBE0F900FBE0F901F9078
:1016C00018951F920F920FB60F9211240BB60F921E
:1016D0002F933F934F935F936F937F938F939F933A
:1016E000AF93BF93EF93FF93E0910C02F0910D0243
:1016F0001995FF91EF91BF91AF919F918F917F913C
:101700006F915F914F913F912F910F900BBE0F9072
:101710000FBE0F901F9018951F920F920FB60F9249
:1017200011240BB60F922F933F934F935F936F93B8
:101730007F938F939F93AF93BF93EF93FF93E0912A
:101740000202F09103021995FF91EF91BF91AF91C1
:101750009F918F917F916F915F914F913F912F91C9
:101760000F900BBE0F900FBE0F901F9018951F92F9
:101770000F920FB60F9211240BB60F922F933F9337
:101780004F935F936F937F938F939F93AF93BF9389
:10179000EF93FF93E0910002F09101021995FF9100
:1017A000EF91BF91AF919F918F917F916F915F91D9
:1017B0004F913F912F910F900BBE0F900FBE0F9046
:1017C0001F9018951F920F920FB60F9211240BB60F
:1017D0000F922F933F934F935F936F937F938F93CA
:1017E0009F93AF93BF93EF93FF93E0910A02F09121
:1017F0000B021995FF91EF91BF91AF919F918F913E
:101800007F916F915F914F913F912F910F900BBE00
:101810000F900FBE0F901F9018951F920F920FB64A
:101820000F9211240BB60F922F933F934F935F9318
:101830006F937F938F939F93AF93BF93EF93FF9398
:10184000E0910802F09109021995FF91EF91BF9183
:10185000AF919F918F917F916F915F914F913F9148
:101860002F910F900BBE0F900FBE0F901F901895E9
:101870001F920F920FB60F9211240BB60F922F9357
:101880003F934F935F936F937F938F939F93AF9308
:10189000BF93EF93FF93E0910602F0910702199531
:1018A000FF91EF91BF91AF919F918F917F916F9138
:1018B0005F914F913F912F910F900BBE0F900FBEF4
:1018C0000F901F9018951F920F920FB60F92112430
:1018D0000BB60F922F933F934F935F936F937F932A
:1018E0008F939F93AF93BF93EF93FF93E091040285
:1018F000F09105021995FF91EF91BF91AF919F91E2
:101900008F917F916F915F914F913F912F910F90A8
:101910000BBE0F900FBE0F901F9018951F920F9245
:101920000FB60F9211240BB60F922F933F934F9344
:101930005F936F937F938F939F93AF93BF93EF9337
:10194000FF9348E251E064E271E090E080E00E94A1
:101950005A05FF91EF91BF91AF919F918F917F9128
:101960006F915F914F913F912F910F900BBE0F9010
:101970000FBE0F901F9018951F920F920FB60F92E7
:1019800011240BB60F922F933F934F935F936F9356
:101990007F938F939F93AF93BF93EF93FF9348EA07
:1019A00050E064EA70E083E090E00E945A05FF9105
:1019B000EF91BF91AF919F918F917F916F915F91C7
:1019C0004F913F912F910F900BBE0F900FBE0F9034
:1019D0001F9018951F920F920FB60F9211240BB6FD
:1019E0000F922F933F934F935F936F937F938F93B8
:1019F0009F93AF93BF93EF93FF9348E950E064E95F
:101A000070E082E090E00E945A05FF91EF91BF9153
:101A1000AF919F918F917F916F915F914F913F9186
:101A20002F910F900BBE0F900FBE0F901F90189527
:101A30001F920F920FB60F9211240BB60F922F9395
:101A40003F934F935F936F937F938F939F93AF9346
:101A5000BF93EF93FF9348E850E064E870E081E0C3
:101A600090E00E945A05FF91EF91BF91AF919F9135
:101A70008F917F916F915F914F913F912F910F9037
:101A80000BBE0F900FBE0F901F901895FC01909108
:101A9000D203903398F481E0890F8093D20390832E
:101AA000892F90E0FC01EE0FFF1FE80FF91FED52A8
:101AB000FC4F88EB9BE09283818308958FEF8083B6
:101AC0000895E6E8F4E01382128288EE93E0A0E045
:101AD000B0E084839583A683B78380E292E091830C
:101AE000808385EC90E09587848784EC90E09787ED
:101AF000868780EC90E0918B808B81EC90E0938BDB
:101B0000828B82EC90E0958B848B86EC90E0978BB7
:101B1000868B118E128E138E148EE3E2F5E0168200
:101B200017821086118612861386148615861686ED
:101B30001786108A118A128A138A148A158A85E7F1
:101B400095E00E94460D82E795E00E94460D8FE6E3
:101B500095E00E94460D8CE695E00E94460D89E6D0
:101B600095E00C94460D789484B5826084BD84B56C
:101B7000816084BD85B5826085BD85B5816085BD88
:101B800080916E00816080936E0010928100809140
:101B900081008260809381008091810081608093C8
:101BA0008100809180008160809380008091B100ED
:101BB00084608093B1008091B00081608093B00018
:101BC000809191008260809391008091910081606A
:101BD000809391008091900081608093900080912B
:101BE000A10082608093A1008091A1008160809318
:101BF000A1008091A00081608093A00080912101CC
:101C00008260809321018091210181608093210174
:101C10008091200181608093200180917A0084600E
:101C200080937A0080917A00826080937A0080911C
:101C30007A00816080937A0080917A008068809336
:101C40007A001092C10010926505109266051092FC
:101C500067051092680510922505109226051092CE
:101C60002705109228050E9449046B017C014B0155
:101C70005C0128EB820E2BE0921EA11CB11C0E947D
:101C800049046C157D058E059F0528F0861697067C
:101C9000A806B906A0F768EE73E080E090E00E9425
:101CA00017040E949C010E944904609325057093CB
:101CB0002605809327059093280580E793E00E94EE
:101CC000F0070E9449046B017C014B015C018AE032
:101CD000880E911CA11CB11C0E9449046C157D0545
:101CE0008E059F0528F086169706A806B906A0F768
:101CF00081E0809339050E94490460932505709323
:101D00002605809327059093280581E893E00E949B
:101D1000F0070E949C0188E893E00E94620863E05B
:101D200070E085E795E00E94D20464E070E082E70D
:101D300095E00E94D20465E070E08FE695E00E9495
:101D4000D20466E070E08CE695E00E94D20467E081
:101D500070E089E695E00E94D20470E060E085E7DB
:101D600095E00E94560470E060E082E795E00E94F2
:101D7000560464EB70E08FE695E00E94560470E034
:101D800060E08CE695E00E94560464EB70E089E622
:101D900095E00E94560460E089E00E94B60362E08C
:101DA00085E10E94B60361E08BE00E94B60361E02A
:101DB0008EE10E94B60361E08FE10E94B60361E00C
:101DC00080E20E94B60361E081E20E94B60361E016
:101DD00086E10E94B60361E086E10E94B60361E0FD
:101DE00087E10E94B60361E088E10E94B60361E0EA
:101DF00089E10E94B60361E08AE10E94B60361E0D6
:101E00008BE10E94B60361E08CE10E94B603C4EB53
:101E1000D0E0FF24F3948BE00E945F03BC01990F94
:101E2000880B990B97FF47C00E9441088EE292E011
:101E30000E94F00789E00E945F03909385048093DD
:101E4000840420918204309183048217930709F45B
:101E500004C4019709F001C4809181048111F3C188
:101E6000F09281048AE993E00E94620880918004E4
:101E70008111F3C380911A0290911B02892B09F002
:101E8000ECC3E0916C04F0916D04E830F10508F0CA
:101E9000E4C310927F0410927E048827ED5AF04F1D
:101EA0008F4F0C94A3175F0F8B0FDA0F171054107E
:101EB0009810DC10FD104AE00E94FD07B7CF00919A
:101EC0007E0410917F04043B11050CF0C6C3B801D9
:101ED00082E795E00E9456046E01C01AD10AB6014D
:101EE0008FE695E00E945604B8018CE695E00E94CA
:101EF0005604B60189E695E00E94560465E070E05C
:101F000080E090E00E9417040F5F1F4F10937F0442
:101F100000937E04D4CF00917E0410917F04043B93
:101F2000110594F4B80185E795E00E94560465E038
:101F300070E080E090E00E9417040F5F1F4F109345
:101F40007F0400937E04E7CF64EF71E080E090E0CF
:101F50000E94170410927F0410927E0400917E0468
:101F600010917F04043B11050CF077C3B80182E7A0
:101F700095E00E9456046E01C01AD10AB6018FE6A0
:101F800095E00E945604B8018CE695E00E94560444
:101F9000B60189E695E00E94560465E070E080E0B5
:101FA00090E00E9417040F5F1F4F10937F0400936F
:101FB0007E04D4CF00917E0410917F04043B110570
:101FC00094F4B80185E795E00E94560465E070E05E
:101FD00080E090E00E9417040F5F1F4F10937F0472
:101FE00000937E04E7CF64EF71E080E090E00E9410
:101FF000170410927F0410927E0400917E041091C9
:102000007F04043B11050CF028C3B80182E795E07A
:102010000E94560465E070E080E090E00E941704A2
:102020000F5F1F4F10937F0400937E04E6CF009153
:102030007E0410917F04043B110594F4B80185E7F8
:1020400095E00E94560465E070E080E090E00E9418
:1020500017040F5F1F4F10937F0400937E04E7CF98
:1020600064EF71E080E090E00E94170410927F041A
:1020700010927E0400917E0410917F04043B1105B0
:102080000CF0EBC2B80182E795E00E94560465E0CF
:1020900070E080E090E00E9417040F5F1F4F1093E4
:1020A0007F0400937E04E6CF00917E0410917F04AC
:1020B000043B110594F4B80185E795E00E945604AD
:1020C00065E070E080E090E00E9417040F5F1F4F12
:1020D00010937F0400937E04E7CF64EF71E080E00B
:1020E00090E00E94170410927F0410927E040091E9
:1020F0007E0410917F04043B11050CF0AEC2B801C0
:1021000082E795E00E945604BE01601B710B8FE6CA
:1021100095E00E94560465E070E080E090E00E9447
:1021200017040F5F1F4F10937F0400937E04DFCFCF
:1021300000917E0410917F04043B110594F4B801D2
:1021400085E795E00E94560465E070E080E090E04D
:102150000E9417040F5F1F4F10937F0400937E04AB
:10216000E7CF64EF71E080E090E00E9417041092E6
:102170007F0410927E0400917E0410917F04043B42
:1021800011050CF06AC2B80182E795E00E9456047E
:10219000BE01601B710B8FE695E00E94560465E05E
:1021A00070E080E090E00E9417040F5F1F4F1093D3
:1021B0007F0400937E04DFCF00917E0410917F04A2
:1021C000043B11050CF049C2BE01601B710B8FE688
:1021D00095E00E945604B8018CE695E00E945604F2
:1021E00065E070E080E090E00E9417040F5F1F4FF1
:1021F00010937F0400937E04DFCF00917E04109142
:102200007F04043B11050CF028C2B80182E795E079
:102210000E945604B8018CE695E00E945604BE0167
:10222000601B710B89E695E00E94560465E070E042
:1022300080E090E00E9417040F5F1F4F10937F040F
:1022400000937E04DACF109281048DE993E00E941E
:10225000620880918004811100C280911A029091DD
:102260001B02892B09F0F9C1E0916C04F0916D0417
:10227000E830F10508F0F1C1D0937F04C0937E04EB
:102280008827EA5BFE4E8F4F0C94A3174E117E11E8
:10229000D1110E124B129412DD12031300917E0421
:1022A00010917F04101611060CF0D7C1053B1105E3
:1022B0002CF4B80182E795E00E9456046E01C01A22
:1022C000D10AD7FCACC5B6018FE695E00E94560452
:1022D000053B11050CF4A7C5B60189E695E00E94FF
:1022E000560465E070E080E090E00E941704015021
:1022F000110910937F0400937E04D0CF00917E04D7
:1023000010917F041016110644F5053B11052CF4BD
:10231000B80182E795E00E9456046E01C01AD10A06
:10232000D7FC89C5B6018FE695E00E945604053BAF
:1023300011050CF484C5B60189E695E00E945604A7
:1023400065E070E080E090E00E9417040150110900
:1023500010937F0400937E04D1CF64EF71E080E09E
:1023600090E00E941704D0937F04C0937E040091F4
:102370007E0410917F04101611060CF06EC1B80196
:1023800085E795E00E94560465E070E080E090E00B
:102390000E9417040150110910937F0400937E04DA
:1023A000E6CF00917E0410917F041016110694F47C
:1023B000B80182E795E00E94560465E070E080E095
:1023C00090E00E9417040150110910937F040093BC
:1023D0007E04E7CF64EF71E080E090E00E94170494
:1023E000D0937F04C0937E0400917E0410917F04FB
:1023F000101611060CF031C1B80185E795E00E9476
:10240000560465E070E080E090E00E9417040150FF
:10241000110910937F0400937E04E6CF00917E049F
:1024200010917F041016110694F4B80182E795E02C
:102430000E94560465E070E080E090E00E9417047E
:102440000150110910937F0400937E04E7CF64EFDD
:1024500071E080E090E00E941704D0937F04C09365
:102460007E0400917E0410917F04101611060CF07A
:10247000F4C0B80185E795E00E94560465E070E07D
:1024800080E090E00E9417040150110910937F042E
:1024900000937E04E6CF00917E0410917F04101615
:1024A0001106F4F4053B11052CF4B80182E795E020
:1024B0000E945604BE01601B710B77FD04C08FE6BD
:1024C00095E00E94560465E070E080E090E00E9494
:1024D00017040150110910937F0400937E04DBCF91
:1024E00064EF71E080E090E00E941704D0937F04D5
:1024F000C0937E0400917E0410917F041016110693
:102500000CF0ABC0B80185E795E00E94560465E089
:1025100070E080E090E00E941704015011091093D0
:102520007F0400937E04E6CF00917E0410917F0427
:1025300010161106F4F4053B11052CF4B80182E7DE
:1025400095E00E945604BE01601B710B77FD04C02C
:102550008FE695E00E94560465E070E080E090E030
:102560000E9417040150110910937F0400937E0408
:10257000DBCF64EF71E080E090E00E941704D0931D
:102580007F04C0937E0400917E0410917F04101696
:1025900011060CF062C0B80185E795E00E94560470
:1025A00065E070E080E090E00E941704015011099E
:1025B00010937F0400937E04E6CF00917E04109177
:1025C0007F04101611060CF048C0BE01601B710B91
:1025D00077FD04C08FE695E00E945604053B110587
:1025E0002CF4B8018CE695E00E94560465E070E09A
:1025F00080E090E00E9417040150110910937F04BD
:1026000000937E04DACF00917E0410917F041016AF
:1026100011061CF5053B110554F4B80182E795E05D
:102620000E945604B8018CE695E00E945604BE0153
:10263000601B710B77FD04C089E695E00E9456048B
:1026400065E070E080E090E00E94170401501109FD
:1026500010937F0400937E04D6CF809184049091E0
:102660008504909383048093820420918004211137
:102670004DC020911A0230911B022130310509F022
:1026800045C020918104222309F492C30197F1F5FA
:1026900000917E0410917F04043B1105BCF50F5F8F
:1026A0001F4F10937F0400937E04043B110529F013
:1026B000B80182E795E00E9456046E01C01AD10A63
:1026C000B6018FE695E00E945604043B110529F0FF
:1026D000B8018CE695E00E945604B60189E695E0C3
:1026E0000E9456048091180290911902892B41F49E
:1026F000043B110529F0B80185E795E00E945604D6
:102700006FE070E080E090E00E94170480917C040C
:1027100090917D04009709F0A7C280911A029091D0
:102720001B020197E9F58091180290911902009718
:1027300009F454C00197A1F590E080E00E941406CE
:1027400086E40E94380665E070E080E090E00E9438
:10275000170481E090E00E94140682E70E94380688
:1027600065E070E080E090E00E94170482E090E075
:102770000E94140685E40E94380665E070E080E05F
:1027800090E00E94170483E090E00E94140680E32A
:102790000E94380665E070E080E090E00E94170437
:1027A00080911A0290911B02892B09F077C0E09169
:1027B0006C04F0916D04E830F10508F06FC090E012
:1027C0008827EA51FC4E8F4F0C94A3171B144E150B
:1027D0007A159915B815D715F615151690E080E0FD
:1027E0000E94140686E40E94380665E070E080E0EE
:1027F00090E00E94170481E090E00E94140682E7B6
:102800000E94380665E070E080E090E00E941704C6
:1028100082E090E00E94140685E40E94380665E09C
:1028200070E080E090E00E94170483E090E00E9456
:10283000140681E3ADCF80E00E94140682E60E9478
:10284000380665E070E080E090E00E94170481E0C7
:1028500090E00E94140681E40E94380665E070E072
:1028600080E090E00E94170482E090E00E9414064D
:1028700083E50E94380665E070E080E090E00E9409
:10288000170483E090E00E94140680E30E9438065B
:1028900065E070E080E090E00E94170485E10E940E
:1028A0005F039093170280931602209114023091D7
:1028B00015028217930749F1892B09F04EC20E9435
:1028C000490470931102609310022091120230911A
:1028D0001302621B730B70936F0460936E0461E0CC
:1028E0008BE00E94880381EA93E00E946208809155
:1028F0006E0490916F04C397853D964030F4F0923A
:10290000790488EA93E00E94F00780911602909182
:10291000170290931502809314028091790481111B
:1029200029C080917804882329F10E9449042091CC
:10293000120230911302621B730B70937704609341
:102940007604613D7740B4F083EB93E00E94F0079A
:102950006091760470917704072E000C880B990B18
:1029600097FF22C20E9441088FE292E00E94F00786
:102970000E94BE0881E090E09093170280931602B7
:102980000E94490420911002309111028B01021B18
:10299000130B1093750400937404C801855D934074
:1029A000879798F480E00E945F03892B71F060E0C4
:1029B0008BE00E9488036AE070E080E090E00E9473
:1029C000170461E08BE00E948803C8018D5B97408B
:1029D000879798F480E00E945F03892B71F060E094
:1029E0008BE00E9488036AE070E080E090E00E9443
:1029F000170461E08BE00E948803C801855A9B4060
:102A0000879798F480E00E945F03892B71F060E063
:102A10008BE00E9488036AE070E080E090E00E9412
:102A2000170461E08BE00E948803C8018D589F4025
:102A3000879798F480E00E945F03892B71F060E033
:102A40008BE00E9488036AE070E080E090E00E94E2
:102A5000170461E08BE00E94880305571341073299
:102A6000110598F480E00E945F03892B71F060E00B
:102A70008BE00E9488036AE070E080E090E00E94B2
:102A8000170461E08BE00E94880364EF71E080E04E
:102A900090E00E9417040E94C702BDC980E00E9416
:102AA000140682E60E94380665E070E080E090E05F
:102AB0000E94170481E090E00E94140681E40E94C5
:102AC000380665E070E080E090E00E94170482E044
:102AD00090E00E94140683E50E94380665E070E0ED
:102AE00080E090E00E94170483E090E00E941406CA
:102AF00081E3CCCE80E00E94140680E50E94380677
:102B000065E070E080E090E00E94170481E090E0D2
:102B10000E94140689E60E94380665E070E080E0B5
:102B200090E00E94170482E090E00E9414068EE676
:102B3000A0CE80E00E94140680E50E94380665E081
:102B400070E080E090E00E94170481E090E00E9435
:102B5000140689E60E94380665E070E080E090E0A7
:102B60000E94170482E090E00E9414068EE6B4CF23
:102B700080E00E94140684E70E94380665E070E059
:102B800080E090E00E94170481E090E00E9414062B
:102B900082E70E94380665E070E080E090E00E94E5
:102BA000170482E090E00E94140689E662CE80E07D
:102BB0000E94140684E70E94380665E070E080E019
:102BC00090E00E94170481E090E00E94140682E7E2
:102BD0000E94380665E070E080E090E00E941704F3
:102BE00082E090E00E94140689E676CF80E00E94A1
:102BF000140685E40E94380665E070E080E090E00D
:102C00000E94170481E090E00E94140688E50E946B
:102C1000380665E070E080E090E00E94170482E0F2
:102C200090E00E94140684E724CE80E00E941406FF
:102C300085E40E94380665E070E080E090E00E9444
:102C4000170481E090E00E94140688E50E9438068F
:102C500065E070E080E090E00E94170482E090E080
:102C60000E94140684E738CF81309105A1F00297C5
:102C700009F446C00E94490420917A0430917B04F3
:102C8000621B730B613D77400CF408CE10927D04FB
:102C900010927C0403CE90E080E00E9414068CE445
:102CA0000E94380665E070E080E090E00E94170422
:102CB00081E090E00E9414068FE60E94380665E0ED
:102CC00070E080E090E00E94170482E090E00E94B3
:102CD000140683E60E94380665E070E080E090E02C
:102CE0000E94170483E090E00E94140681E30E9492
:102CF000380665E070E080E090E00E941704BACFEB
:102D000090E080E00E9414068CE40E94380665E0A2
:102D100070E080E090E00E94170481E090E00E9463
:102D200014068FE60E94380665E070E080E090E0CF
:102D30000E94170482E090E00E94140683E60E943D
:102D4000380665E070E080E090E00E94170483E0C0
:102D500090E00E94140680E3CACF0E944904709359
:102D60001302609312022091100230911102621B33
:102D7000730B70937304609372048091700490914C
:102D8000710401969093710480937004F09278041A
:102D900060E08BE00E94880380917904882309F425
:102DA000B4CD0E94BE08B1CD4AE00E94FD07DCCD43
:102DB000019709F0ABCC00917E0410917F041016AE
:102DC00011060CF0A3CC0150110910937F0400935D
:102DD0007E040115110529F0B80182E795E00E94F3
:102DE00056046E01C01AD10AD7FC37C0B6018FE66F
:102DF00095E00E9456040115110549F5B60189E6D2
:102E000095E00E9456048091180290911902892B36
:102E100009F076CC0115110509F472CC6CCC053B98
:102E200011050CF05ECAB8018CE695E00E945604CC
:102E3000D7FE52CA56CA053B11050CF081CAB8012B
:102E40008CE695E00E945604D7FE75CA79CAB8018F
:102E50008CE695E00E945604D1CFB8018CE695E04F
:102E60000115110571F6CACFA1E21A2EAA1BBB1BD0
:102E7000FD010DC0AA1FBB1FEE1FFF1FA217B30746
:102E8000E407F50720F0A21BB30BE40BF50B661F5C
:102E9000771F881F991F1A9469F760957095809520
:102EA00090959B01AC01BD01CF010895052E97FBC4
:102EB0001EF400940E946D1757FD07D00E9434172E
:102EC00007FC03D04EF40C946D1750954095309547
:102ED00021953F4F4F4F5F4F089590958095709586
:102EE00061957F4F8F4F9F4F08950E948817A59F30
:102EF000900DB49F900DA49F800D911D11240895F5
:102F0000B7FF0C9475170E947517821B930B0895D9
:102F1000A29FB001B39FC001A39F700D811D11241A
:102F2000911DB29F700D811D1124911D0895991B53
:102F300079E004C0991F961708F0961B881F7A95B0
:102F4000C9F780950895EE0FFF1F881F8BBF07906C
:0A2F5000F691E02D1994F894FFCFDC
:102F5A00550455045504550455045504550455049F
:102F6A00FFFFFFFF01000100010001000000000057
:102F7A005A02C401F101A7022202000214020D0A38
:102F8A000043757272656E743A20426173696320F8
:102F9A002D20466973740043757272656E743A2007
:102FAA004261736963202D2047726970004375720C
:102FBA0072656E743A2050696E63686573202D20BD
:102FCA0050696E63680043757272656E743A205078
:102FDA00696E63686573202D2050696E63684E6F51
:102FEA00466973740043757272656E743A2054723E
:102FFA0069706F6473202D20547269706F64004386
:10300A00757272656E743A20547269706F647320B7
:10301A002D20547269706F64684E6F46697374002C
:10302A0043757272656E743A20457874726147729C
:10303A00697073202D20457874726131004375726E
:10304A0072656E743A20457874726147726970735A
:10305A00202D20457874726132002E2E2E4368612D
:10306A006E67696E6720477269702E2E2E00574967
:10307A005448205448554D4200574954484F5554D6
:10308A00205448554D50002E2E2E4C6F636B696E9E
:10309A006720536572766F732E2E2E002E2E2E43C6
:1030AA0068616E67696E67204D6F64652E2E2E000B
:1030BA002E2E2E5368757420646F776E2E2E2E0076
:1030CA00564D4450565F317C315F564D4450560A36
:1030DA0000564D4450525F000A0A21214E6577205E
:1030EA0073657373696F6E2121004F6E004F6666B8
:1030FA0000616963693F3F0043726574696E756C6C
:10310A00650A006D696C6C69732829202D2070721C
:0C311A006573735F73746F703A200000DF
:00000001FF
