:100000000C9469010C94F20B0C94C70B0C949C0B90
:100010000C94710B0C94460B0C941B0B0C94F00A73
:100020000C94C50A0C949A010C949A010C949A01B0
:100030000C949A010C949A010C949A010C949A01D4
:100040000C949A010C94A70C0C949A010C949A01AC
:100050000C949A010C949A010C949A010C947B0ACA
:100060000C949A010C94450A0C941B0A0C949A0166
:100070000C949A010C949A010C949A010C949A0194
:100080000C94790C0C949A010C949A010C949A019A
:100090000C949A010C949A010C949A010C949A0174
:1000A0000C949A010C949A010C944B0C0C949A01A8
:1000B0000C949A010C949A010C949A010C941D0CC6
:1000C0000C949A010C949A010C949A010C949A0144
:1000D0000C949A010C949A010C949A010C949A0134
:1000E0000C949A010C9431030C9456030C94F10176
:1000F0000C9449030C94C4010C94E3070C9455042C
:100100000C94DB130C9465150C94EA0E0C94180FE8
:100110000C9484150C9414020C94FB110C94BC11D7
:100120000C9457030C9426110C9400020C94350384
:100130000C945A020C94AC0F0C943F030C947D1059
:100140000C9428030C944D030C9420030C94471238
:100150000C9451030C941A150C9446150C94160328
:100160000C945B030C9493120C947D110C94A315C6
:100170000C9443030C94F00C0C943B030C9422025B
:100180000C94ED0F0C94A7020C94C2150C94F31070
:100190000C94E1150C946B0F0C9435100C94240303
:1001A0000C94BB120C94A0100C942B030C941C0305
:1001B00000002100240027002A002D003000330019
:1001C00001010000040107010A01000022002500CE
:1001D00028002B002E003100340002010000050130
:1001E00008010B01000020002300260029002C003C
:1001F0002F0032000001000003010601090105057E
:100200000505070508080808020202020A0A08088C
:1002100004040404010101010101010103030303BA
:1002200003030303040707070C0C0C0C0C0C0C0C49
:100230000202020206060606060606060B0B0B0B5A
:100240000B0B0B0B0102102020080810204010207F
:10025000408002010201080402010102040810208A
:100260004080804020100804020180040201804088
:1002700020100804020108040201010204081020F1
:100280004080010204081020408000000A0B02098F
:100290000C0D0E0807030401000000000000000020
:1002A000000000000000000000000000000000004E
:1002B000000000000000121110000000000000000B
:1002C000000000000000000000000000000000002E
:1002D000F00C11241FBECFEFD1E2DEBFCDBF00E096
:1002E0000CBF13E0A0E0B2E0ECE1FFE200E00BBFE6
:1002F00002C007900D92A03AB107D9F725E0A0EA15
:10030000B3E001C01D92AC34B207E1F711E0C9E6D9
:10031000D1E000E006C021970109802FFE010E9474
:100320008417C836D10780E00807A9F70E94420D5C
:100330000C948C170C940000EAE5F4E0A089B189D4
:1003400082E08C93A485B5851C92A685B7858FEC39
:100350008C93108EA489B58986E08C93A289B38989
:100360008C9180618C93A289B3898C9188608C93E5
:10037000A289B3898C9180688C930288F389E02DDF
:1003800080818F7D80830895AF92BF92CF92DF925C
:10039000EF92FF920F931F93CF93DF936C017B013A
:1003A0008B01040F151FEB015E01AE18BF08C017CB
:1003B000D10759F06991D601ED91FC910190F0813E
:1003C000E02DC6011995892B79F7C501DF91CF91F1
:1003D0001F910F91FF90EF90DF90CF90BF90AF9063
:1003E0000895FC01538D448D252F30E0842F90E03B
:1003F000821B930B541710F0CF9608950197089520
:10040000FC01918D828D981761F0A28DAE0FBF2FE8
:10041000B11D5D968C91928D9F5F9F73928F90E03E
:1004200008958FEF9FEF0895FC01918D828D9817AD
:1004300031F0828DE80FF11D858D90E008958FEFEA
:100440009FEF0895FC01918D228D892F90E0805CB3
:100450009F4F821B91098F73992708958AE594E035
:100460000E94220221E0892B09F420E0822F0895C6
:10047000FC01A48DA80FB92FB11DA35ABF4F2C9119
:10048000848D90E001968F739927848FA689B78910
:100490002C93A089B1898C91837080648C93938D07
:1004A000848D981306C00288F389E02D80818F7DAA
:1004B00080830895EF92FF920F931F93CF93DF9362
:1004C000EC0181E0888F9B8D8C8D98131AC0E88990
:1004D000F989808185FF15C09FB7F894EE89FF895F
:1004E0006083E889F98980818370806480839FBFFD
:1004F00081E090E0DF91CF911F910F91FF90EF90FD
:100500000895F62E0B8D10E00F5F1F4F0F7311270C
:10051000E02E8C8D8E110CC00FB607FCFACFE88947
:10052000F989808185FFF5CFCE010E943802F1CF95
:10053000EB8DEC0FFD2FF11DE35AFF4FF0829FB7BB
:10054000F8940B8FEA89FB8980818062CFCFCF93AB
:10055000DF93EC01888D8823B9F0AA89BB89E889EB
:10056000F9898C9185FD03C0808186FD0DC00FB691
:1005700007FCF7CF8C9185FFF2CF808185FFEDCF0F
:10058000CE010E943802E9CFDF91CF91089580E03B
:1005900090E0892B29F00E942E0281110E94000018
:1005A00080E090E0892B49F080E090E0892B29F0F1
:1005B0000E94000081110E94000080E090E0892BE1
:1005C00049F080E090E0892B29F00E940000811121
:1005D0000E94000080E090E0892B49F080E090E0EC
:1005E000892B29F00E94000081110C9400000895CD
:1005F0008150823108F05AC0E82FF0E08827EC5F84
:10060000FC4F8F4F0C9484172403280316031C03FC
:10061000200356032B03310335033B033F034303FE
:1006200049034D035603510357035B038091800038
:100630008F77809380000895809180008F7DF9CF1F
:1006400080918000877FF5CF84B58F7784BD089532
:1006500084B58F7DFBCF8091B0008F778093B00001
:1006600008958091B0008F7DF9CF809190008F77B1
:10067000809390000895809190008F7DF9CF8091B4
:100680009000877FF5CF8091A0008F778093A000A6
:1006900008958091A0008F7DF9CF8091A000877F81
:1006A000F5CF809120018F7780932001089580916C
:1006B00020018F7DF9CF80912001877FF5CFCF93E7
:1006C000DF93282F30E0F901E657FD4F8491F901BF
:1006D000EC5BFD4FD491F901E250FE4FC491CC2365
:1006E000A1F081110E94F802EC2FF0E0EE0FFF1F45
:1006F000EC51FE4FA591B491EC91ED2381E090E097
:1007000009F480E0DF91CF91089580E090E0FACF86
:100710001F93CF93DF93282F30E0F901E657FD4F69
:100720008491F901EC5BFD4FD491F901E250FE4F49
:10073000C491CC23A9F0162F81110E94F802EC2F4E
:10074000F0E0EE0FFF1FE653FE4FA591B4918FB777
:10075000F894EC91111108C0D095DE23DC938FBF83
:10076000DF91CF911F910895DE2BF8CFCF93DF93C8
:1007700090E0FC01EC5BFD4F249182509E4FFC0108
:1007800084918823C9F090E0880F991FFC01E055FF
:10079000FE4FA591B491FC01E653FE4FC591D49153
:1007A00061110DC09FB7F8948C91209582238C9392
:1007B0008881282328839FBFDF91CF9108956230DD
:1007C00051F49FB7F8943C91822F809583238C93AA
:1007D000E8812E2BEFCF8FB7F894EC912E2B2C9332
:1007E0008FBFEACF3FB7F89480913C0490913D04CD
:1007F000A0913E04B0913F0426B5A89B05C02F3FB1
:1008000019F00196A11DB11D3FBFBA2FA92F982F36
:100810008827BC01CD01620F711D811D911D42E031
:10082000660F771F881F991F4A95D1F708958F92F9
:100830009F92AF92BF92CF92DF92EF92FF924B01C5
:100840005C010E94F2036B017C010E94F2036C19AF
:100850007D098E099F09683E734081059105A8F3C3
:1008600021E0821A9108A108B10888EEC80E83E041
:10087000D81EE11CF11C81149104A104B10429F7D4
:10088000FF90EF90DF90CF90BF90AF909F908F90B0
:1008900008952FB7F89460913804709139048091CD
:1008A0003A0490913B042FBF08950895CF92DF92B0
:1008B000EF92FF92CF93DF93EC01603282E07807F2
:1008C000CCF5653B710514F064EB70E0898128E894
:1008D00030E0281B310987FD3395220F331F220F8B
:1008E000331F6901330FEE08FF088A8128E532E0E3
:1008F000281B310987FD3395220F331F220F331F29
:10090000032E000C440B550B2C193D094E095F09B1
:10091000DB0177FF02C0B0E0A0E00E94611724EB8A
:1009200030E040E050E00E943717C20ED31EE41EB4
:10093000F51EB601E881E03370F5298188E890E082
:10094000821B910927FD9395880F991F880F991F86
:10095000681779077CF02A8188E592E0821B91096B
:1009600027FD9395880F991F880F991F681779079E
:100970000CF4CB010297880F991F4FB7F8942E2FD4
:1009800030E0F901EE0FFF1FE20FF31FE955FC4FB6
:10099000928381834FBFDF91CF91FF90EF90DF90E3
:1009A000CF9008951F93CF93DF93EC01162F88818A
:1009B000803308F04EC061E0812F0E94B603888129
:1009C000282F30E0F901EE0FFF1FE20FF31FE9556A
:1009D000FC4F1F736081607C612B608319821A82D7
:1009E0002CE0622F0E947817829FB001112430E022
:1009F00020E0AB01420F531FFA01EE0FFF1FE40F7F
:100A0000F51FE955FC4F908196FD16C02F5F3F4FB3
:100A10002C30310571F7813009F51092800082E0A9
:100A2000809381001092850010928400B19A809189
:100A30006F00826080936F00E8818E2F90E0FC0150
:100A4000EE0FFF1FE80FF91FE955FC4F808180640E
:100A500080838881DF91CF911F910895823061F466
:100A60001092900080939100109295001092940043
:100A700088BB80937100E0CF833069F41092A000AE
:100A800082E08093A1001092A5001092A40089BB7F
:100A900080937200D1CF8111CFCF1092200182E0DC
:100AA0008093210110922501109224018ABB80932A
:100AB0007300C2CFAF92BF92CF92DF92EF92FF92BC
:100AC0000F931F93CF93DF936B017A01EC01CE5507
:100AD000DC4F28813CE0389F8001399F100D1124A4
:100AE000A090A603B12C27FF1FC0FB01118210822A
:100AF00088818F5F888388819801280F311D87FD49
:100B00003A95F6012A153B051CF488818C30C4F116
:100B100080819181049680349C4908F473C0F60169
:100B200080819181049670C088819801280F311DC1
:100B300087FD3A952A153B05DCF68881A801480F08
:100B4000511D87FD5A95FA01EE0FFF1FE40FF51FA7
:100B5000E955FC4F808186FFCBCF8881F801E80FF3
:100B6000F11D87FDFA95CF01EE0FFF1FE80FF91F6A
:100B7000E955FC4F808160E08F730E948803B8CFF5
:100B8000808191812881A801420F511D27FD5A952E
:100B90009A01FA01EE0FFF1FE20FF31FE955FC4F18
:100BA00021813281820F931FF70191838083888195
:100BB0009801280F311D87FD3A95F901EE0FFF1FAF
:100BC000E20FF31FE955FC4F808186FF22C0888128
:100BD000080F111D87FD1A95F801EE0FFF1FE00F9A
:100BE000F11FE955FC4F808161E08F73DF91CF9158
:100BF0001F910F91FF90EF90DF90CF90BF90AF903B
:100C00000C94880380E49CE9F701918380838FEF43
:100C10008883DF91CF911F910F91FF90EF90DF902C
:100C2000CF90BF90AF900895CF93DF93EC0161E038
:100C30008EE10E94880361E08FE10E94880361E0F9
:100C400080E20E94880361E081E20E94880360E004
:100C500080E2C130D10541F08FE1C230D10521F0F1
:100C60008EE1CD2B09F081E2DF91CF910C948803C6
:100C7000833509F47DC0D4F5853409F4DFC0FCF474
:100C8000813309F4C9C0813409F468C0803309F0A4
:100C900001C161E086E10E94880361E087E10E9472
:100CA000880361E088E10E94880361E089E10E9495
:100CB000880361E08AE10E94880361E086C08C3489
:100CC00009F4C6C0803509F465C0863409F0E2C075
:100CD00061E086E10E94880360E087E10E9488036A
:100CE00060E088E10E94880360E02BC0893609F447
:100CF00057C054F48236C1F0833609F4C1C0883538
:100D000009F0C8C060E02BC08F3609F4ABC024F4F2
:100D10008E3609F461C00895823709F473C060E02B
:100D2000843709F48CC0089560E086E10E9488034E
:100D300060E087E10E94880361E088E10E94880307
:100D400061E089E10E94880361E08AE10E948803F2
:100D500061E08BE10E94880361E03BC061E086E1D5
:100D60000E94880361E087E10E94880361E0B9CFB7
:100D700061E086E10E94880360E087E10E948803C9
:100D800061E088E10E94880361E089E10E948803B4
:100D900060E0DBCF61E086E10E94880361E09DCFE7
:100DA00060E086E10E94880360E087E10E9488039A
:100DB00060E088E10E94880360E089E10E94880386
:100DC00061E08AE10E94880360E08BE10E94880371
:100DD00060E08CE10C94880360E086E10E94880367
:100DE00060E087E10E94880361E088E10E94880357
:100DF00060E089E10E94880361E08AE10E94880343
:100E000060E0A7CF60E086E10E94880360E087E1B0
:100E10000E94880360E0E9CF60E086E10E948803D9
:100E200061E087E10E94880361E088E10E94880315
:100E300060E089E10E94880360E0C3CF61E086E161
:100E40000E94880360E087E10E94880360E075CF1C
:100E500060E086E10E94880360E087E10E948803E9
:100E600060E020CF60E086E10E94880360E087E1D7
:100E70000E94880361E088E10E94880361E0B9CFA5
:100E800060E086E10E94880360E087E10E948803B9
:100E900060E0F1CF08950F931F93CF93DF9384EB1E
:100EA00090E0909353048093520404EB10E0C091BF
:100EB0005204D09153041C161D069CF4B8016C1BFF
:100EC0007D0B8DE395E00E94560465E070E080E0C4
:100ED00090E00E9417042197D0935304C0935204CA
:100EE000E6CFDF91CF911F910F9108950F931F933C
:100EF000CF93DF93109253041092520404EB10E04E
:100F0000C0915204D0915304C43BD1059CF4B80164
:100F10006C1B7D0B8DE395E00E94560465E070E04C
:100F200080E090E00E9417042196D0935304C09370
:100F30005204E6CFDF91CF911F910F910895CF9387
:100F4000DF9384EB90E09093530480935204C0911C
:100F50005204D09153041C161D068CF4BE0180E48B
:100F600095E00E94560465E070E080E090E00E9409
:100F700017042197D0935304C0935204E8CFDF9114
:100F8000CF910895CF93DF9310925304109252049F
:100F9000C0915204D0915304C43BD1058CF4BE01DE
:100FA00080E495E00E94560465E070E080E090E007
:100FB0000E9417042196D0935304C0935204E8CFA3
:100FC000DF91CF91089583B78E7F83BFE89885E541
:100FD00094E09093050280930402F0E0E0E019941D
:100FE000FC0101900020E9F73197AF01481B590B34
:100FF000BC018AE594E00C94C401CF93DF930E9476
:10100000F007EC018EE292E00E94F0078C0F9D1F2A
:10101000DF91CF9108958091A0039091A103813039
:101020009105B9F030F08230910519F1039789F1FB
:1010300008958091400490914104009719F0019720
:1010400029F0089581E392E00C94FD0787E492E093
:10105000FBCF80914004909141048230910519F0BA
:10106000039721F008958DE592E0EECF86E792E0B8
:10107000EBCF80914004909141048430910519F0A8
:10108000059721F0089585E992E0DECF8FEA92E09E
:10109000DBCF80914004909141048630910519F096
:1010A000079721F0089580ED92E0CECF8DEE92E08B
:1010B000CBCF0F931F93CF93DF9380914D0481305B
:1010C00009F47EC1809144049091450484569109AD
:1010D0008438934000F58091540481111CC08AE04B
:1010E00093E00E94FD0780911A0290911B020097E5
:1010F00009F4A3C08130910561F420911802309168
:1011000019022130310509F093C010921902109292
:1011100018020E940B088091440490914504885E57
:101120009340803D9740B0F48EE193E00E94FD072C
:101130000E94490470934F0460934E0480915404BC
:10114000811132C181E090E090935104809350046A
:10115000809354048091440490914504885B9B40A3
:10116000803D9740A8F480915404811111C083E31D
:1011700093E00E94FD0780911A0290911B0281303A
:10118000910509F41AC1019690931B0280931A02EB
:10119000809144049091450488389341C4F1809132
:1011A0005404811134C087E493E00E94FD0760E09D
:1011B00086E10E94880360E087E10E94880360E086
:1011C00088E10E94880360E089E10E94880360E072
:1011D0008AE10E94880360E08BE10E94880360E05E
:1011E0008CE10E94880383B7816083BF83EE97E020
:1011F0009093050280930402809169008C7F809314
:101200006900E89A83B7817F846083BF88951092D4
:101210004C0410924D041092430410924204109218
:10122000470410924604DF91CF911F910F910895CA
:1012300090931902809318026CCF8091A003909133
:10124000A1038130910541F190F08230910509F4BC
:1012500085C0039709F05DCF8091400490914104CF
:101260008630910509F09AC087E090E008C080912F
:10127000400490914104009739F481E090E090930C
:1012800041048093400445CF019709F042CF10926A
:101290004104109240043DCF80914004909141045C
:1012A0008230910559F583E090E09093410480935A
:1012B00040040E9476070E94C207109253041092C5
:1012C000520404EB10E0C0915204D0915304C43B8B
:1012D000D1050CF01ECFB8016C1B7D0B83E495E0AB
:1012E0000E94560465E070E080E090E00E941704E0
:1012F0002196D0935304C0935204E5CF039709F08D
:1013000008CF82E090E090934104809340040E94D3
:101310004B070E949F0784EB90E0909353048093C7
:10132000520404EB10E0C0915204D09153041C16F7
:101330001D060CF0EECEB8016C1B7D0B83E495E02E
:101340000E94560465E070E080E090E00E9417047F
:101350002197D0935304C0935204E5CF8091400469
:10136000909141048430910559F485E090E0909388
:101370004104809340040E9476070E94C207C9CEB0
:10138000059709F0C6CE84E090E0909341048093E5
:1013900040040E944B070E949F07BBCE079709F0AD
:1013A000B8CE86E090E06BCF1092540482E090E0DB
:1013B0009093510480935004CDCE90E080E0E4CE31
:1013C00080915404811123CF80911A0290911B02C5
:1013D000892B09F01CCF8091A0039091A103833049
:1013E000910549F41092A1031092A00310924104B8
:1013F000109240040BC001969093A1038093A00328
:101400008130910571F02CF4892B81F30E940B0837
:10141000FECE8230910561F00397C1F786E090E03F
:1014200002C082E090E09093410480934004EECFAC
:1014300084E090E0F8CF1F920F920FB60F92112424
:101440000BB60F922F933F934F935F936F937F93BE
:101450008F939F93AF93BF93EF93FF938AE594E0AD
:101460000E943802FF91EF91BF91AF919F918F91B0
:101470007F916F915F914F913F912F910F900BBE94
:101480000F900FBE0F901F9018951F920F920FB6DE
:101490000F9211240BB60F922F938F939F93EF937C
:1014A000FF93E0916A04F0916B048081E0917004F5
:1014B000F091710482FD1DC09081809173048F5F53
:1014C0008F7320917404821741F0E0917304F0E06F
:1014D000E65AFB4F958F80937304FF91EF919F9194
:1014E0008F912F910F900BBE0F900FBE0F901F90FA
:1014F00018958081F2CF1F920F920FB60F92112490
:101500002F933F938F939F93AF93BF938091380412
:1015100090913904A0913A04B0913B043091370482
:1015200023E0230F2D3758F50196A11DB11D2093FF
:1015300037048093380490933904A0933A04B0930D
:101540003B0480913C0490913D04A0913E04B091F5
:101550003F040196A11DB11D80933C0490933D046E
:10156000A0933E04B0933F04BF91AF919F918F91A0
:101570003F912F910F900FBE0F901F90189526E866
:10158000230F0296A11DB11DD2CF1F920F920FB64D
:101590000F9211240BB60F922F933F934F935F93AB
:1015A0006F937F938F939F93AF93BF93EF93FF932B
:1015B000E0910E02F0910F021995FF91EF91BF910A
:1015C000AF919F918F917F916F915F914F913F91DB
:1015D0002F910F900BBE0F900FBE0F901F9018957C
:1015E0001F920F920FB60F9211240BB60F922F93EA
:1015F0003F934F935F936F937F938F939F93AF939B
:10160000BF93EF93FF93E0910C02F0910D021995B7
:10161000FF91EF91BF91AF919F918F917F916F91CA
:101620005F914F913F912F910F900BBE0F900FBE86
:101630000F901F9018951F920F920FB60F921124C2
:101640000BB60F922F933F934F935F936F937F93BC
:101650008F939F93AF93BF93EF93FF93E091020219
:10166000F09103021995FF91EF91BF91AF919F9176
:101670008F917F916F915F914F913F912F910F903B
:101680000BBE0F900FBE0F901F9018951F920F92D8
:101690000FB60F9211240BB60F922F933F934F93D7
:1016A0005F936F937F938F939F93AF93BF93EF93CA
:1016B000FF93E0910002F09101021995FF91EF91E3
:1016C000BF91AF919F918F917F916F915F914F915A
:1016D0003F912F910F900BBE0F900FBE0F901F9058
:1016E00018951F920F920FB60F9211240BB60F92FE
:1016F0002F933F934F935F936F937F938F939F931A
:10170000AF93BF93EF93FF93E0910A02F0910B0226
:101710001995FF91EF91BF91AF919F918F917F911B
:101720006F915F914F913F912F910F900BBE0F9052
:101730000FBE0F901F9018951F920F920FB60F9229
:1017400011240BB60F922F933F934F935F936F9398
:101750007F938F939F93AF93BF93EF93FF93E0910A
:101760000802F09109021995FF91EF91BF91AF9195
:101770009F918F917F916F915F914F913F912F91A9
:101780000F900BBE0F900FBE0F901F9018951F92D9
:101790000F920FB60F9211240BB60F922F933F9317
:1017A0004F935F936F937F938F939F93AF93BF9369
:1017B000EF93FF93E0910602F09107021995FF91D4
:1017C000EF91BF91AF919F918F917F916F915F91B9
:1017D0004F913F912F910F900BBE0F900FBE0F9026
:1017E0001F9018951F920F920FB60F9211240BB6EF
:1017F0000F922F933F934F935F936F937F938F93AA
:101800009F93AF93BF93EF93FF93E0910402F09106
:1018100005021995FF91EF91BF91AF919F918F9123
:101820007F916F915F914F913F912F910F900BBEE0
:101830000F900FBE0F901F9018951F920F920FB62A
:101840000F9211240BB60F922F933F934F935F93F8
:101850006F937F938F939F93AF93BF93EF93FF9378
:1018600048E251E064E271E090E080E00E945A05B5
:10187000FF91EF91BF91AF919F918F917F916F9168
:101880005F914F913F912F910F900BBE0F900FBE24
:101890000F901F9018951F920F920FB60F92112460
:1018A0000BB60F922F933F934F935F936F937F935A
:1018B0008F939F93AF93BF93EF93FF9348EA50E0CA
:1018C00064EA70E083E090E00E945A05FF91EF9196
:1018D000BF91AF919F918F917F916F915F914F9148
:1018E0003F912F910F900BBE0F900FBE0F901F9046
:1018F00018951F920F920FB60F9211240BB60F92EC
:101900002F933F934F935F936F937F938F939F9307
:10191000AF93BF93EF93FF9348E950E064E970E021
:1019200082E090E00E945A05FF91EF91BF91AF9144
:101930009F918F917F916F915F914F913F912F91E7
:101940000F900BBE0F900FBE0F901F9018951F9217
:101950000F920FB60F9211240BB60F922F933F9355
:101960004F935F936F937F938F939F93AF93BF93A7
:10197000EF93FF9348E850E064E870E081E090E086
:101980000E945A05FF91EF91BF91AF919F918F9166
:101990007F916F915F914F913F912F910F900BBE6F
:1019A0000F900FBE0F901F901895FC019091A60309
:1019B000903398F481E0890F8093A6039083892F58
:1019C00090E0FC01EE0FFF1FE80FF91FE955FC4FF7
:1019D00088EB9BE09283818308958FEF8083089545
:1019E000EAE5F4E01382128288EE93E0A0E0B0E032
:1019F00084839583A683B78380E292E0918380837A
:101A000085EC90E09587848784EC90E097878687C3
:101A100080EC90E0918B808B81EC90E0938B828BBB
:101A200082EC90E0958B848B86EC90E0978B868B94
:101A3000118E128E138E148EE7EFF4E01682178249
:101A400010861186128613861486158616861786CA
:101A5000108A118A128A138A148A158A89E495E0F9
:101A60000E94D50C86E495E00E94D50C83E495E0B5
:101A70000E94D50C80E495E00E94D50C8DE395E0A2
:101A80000C94D50CCF93DF93CDB7DEB7A1970FB6EB
:101A9000F894DEBF0FBECDBF789484B5826084BD5C
:101AA00084B5816084BD85B5826085BD85B5816062
:101AB00085BD80916E00816080936E0010928100E0
:101AC000809181008260809381008091810081609B
:101AD000809381008091800081608093800080915C
:101AE000B10084608093B1008091B00081608093E8
:101AF000B00080919100826080939100809191006C
:101B0000816080939100809190008160809390002B
:101B10008091A10082608093A1008091A1008160EA
:101B20008093A1008091A00081608093A0008091AB
:101B30002101826080932101809121018160809345
:101B400021018091200181608093200180917A00A1
:101B5000846080937A0080917A00826080937A001A
:101B600080917A00816080937A0080917A00806809
:101B700080937A001092C1001092390510923A05B4
:101B800010923B0510923C051092F9041092FA0451
:101B90001092FB041092FC040E9449046B017C012A
:101BA0004B015C0188EB880E8BE0981EA11CB11CD8
:101BB0000E9449046C157D058E059F0528F0861648
:101BC0009706A806B906A0F768EE73E080E090E0FB
:101BD0000E9417040E949C010E9449046093F9042A
:101BE0007093FA048093FB049093FC0487E593E0E0
:101BF0000E94F0070E9449046B017C014B015C01CB
:101C00009AE0890E911CA11CB11C0E9449046C151C
:101C10007D058E059F0528F086169706A806B9064D
:101C2000A0F781E080930D050E9449046093F904B8
:101C30007093FA048093FB049093FC0488E693E08D
:101C40000E94F0070E949C018FE693E00E94FD072E
:101C500063E070E089E495E00E94D20464E070E003
:101C600086E495E00E94D20465E070E083E495E0AC
:101C70000E94D20466E070E080E495E00E94D20405
:101C800067E070E08DE395E00E94D20470E060E0D0
:101C900089E495E00E94560470E060E086E495E0F7
:101CA0000E94560464EB70E083E495E00E945604C1
:101CB00070E060E080E495E00E94560464EB70E020
:101CC0008DE395E00E94560460E089E00E94B6032F
:101CD00062E085E10E94B60361E08EE10E94B603F6
:101CE00061E08FE10E94B60361E080E20E94B603EA
:101CF00061E081E20E94B60361E086E10E94B603E2
:101D000061E086E10E94B60361E087E10E94B603CC
:101D100061E088E10E94B60361E089E10E94B603B8
:101D200061E08AE10E94B60361E08BE10E94B603A4
:101D300061E08CE10E94B60361E080E10E94B6039D
:101D400004EB10E0772473948AE0882E912CA12C68
:101D5000B12C89E00E945F0390935904809358044A
:101D600020915604309157048217930709F42FC429
:101D7000019709F02CC480915504811109C2709219
:101D8000550481E893E00E94FD078091540481117D
:101D90001EC480911A0290911B02892B09F017C46E
:101DA000E0914004F0914104E830F10508F00FC4DF
:101DB00010925304109252048827EE51F14F8F4F26
:101DC0000C948417EA0E180F6B0FAC0FED0F351043
:101DD0007D10A010E0905204F0905304E4EBEE1656
:101DE000F1040CF0F4C3B70186E495E00E945604B8
:101DF0006801CE18DF08B60183E495E00E9456041E
:101E0000B70180E495E00E945604B6018DE395E0A9
:101E10000E94560465E070E080E090E00E941704A4
:101E2000FFEFEF1AFF0AF0925304E0925204D2CF70
:101E3000E0905204F090530484EBE816F1049CF413
:101E4000B70189E495E00E94560465E070E080E007
:101E500090E00E9417049FEFE91AF90AF0925304E8
:101E6000E0925204E5CF64EF71E080E090E00E94E0
:101E700017041092530410925204E0905204F09010
:101E80005304E4EBEE16F1040CF0A1C3B70186E4B1
:101E900095E00E9456046801CE18DF08B60183E47D
:101EA00095E00E945604B70180E495E00E94560434
:101EB000B6018DE395E00E94560465E070E080E095
:101EC00090E00E941704FFEFEF1AFF0AF09253040C
:101ED000E0925204D2CFE0905204F090530484EB8D
:101EE000E816F1049CF4B70189E495E00E945604D9
:101EF00065E070E080E090E00E9417049FEFE91A2F
:101F0000F90AF0925304E0925204E5CF64EF71E0D5
:101F100080E090E00E941704109253041092520443
:101F2000E0905204F0905304E4EBEE16F1040CF050
:101F30004EC3B70186E495E00E94560465E070E068
:101F400080E090E00E941704FFEFEF1AFF0AF09282
:101F50005304E0925204E4CFE0905204F090530412
:101F600084EBE816F1049CF4B70189E495E00E9443
:101F7000560465E070E080E090E00E9417049FEF57
:101F8000E91AF90AF0925304E0925204E5CF64EFA3
:101F900071E080E090E00E941704109253041092C8
:101FA0005204E0905204F0905304E4EBEE16F10476
:101FB0000CF00DC3B70186E495E00E94560465E07D
:101FC00070E080E090E00E941704FFEFEF1AFF0A34
:101FD000F0925304E0925204E4CFE0905204F09067
:101FE000530484EBE816F1049CF4B70189E495E00E
:101FF0000E94560465E070E080E090E00E941704C3
:102000009FEFE91AF90AF0925304E0925204E5CFE7
:1020100064EF71E080E090E00E9417041092530496
:1020200010925204E0905204F0905304E4EBEE1648
:10203000F1040CF0CCC2B70186E495E00E9456048E
:10204000B8016E197F0983E495E00E94560465E0AB
:1020500070E080E090E00E941704FFEFEF1AFF0AA3
:10206000F0925304E0925204DDCFE0905204F090DD
:10207000530484EBE816F1049CF4B70189E495E07D
:102080000E94560465E070E080E090E00E94170432
:102090009FEFE91AF90AF0925304E0925204E5CF57
:1020A00064EF71E080E090E00E9417041092530406
:1020B00010925204E0905204F0905304E4EBEE16B8
:1020C000F1040CF084C2B70186E495E00E94560446
:1020D000B8016E197F0983E495E00E94560465E01B
:1020E00070E080E090E00E941704FFEFEF1AFF0A13
:1020F000F0925304E0925204DDCFE0905204F0904D
:10210000530484EBE816F1040CF061C2B8016E19B7
:102110007F0983E495E00E945604B70180E495E0CE
:102120000E94560465E070E080E090E00E94170491
:102130009FEFE91AF90AF0925304E0925204DDCFBE
:10214000E0905204F0905304E4EBEE16F1040CF02E
:102150003EC2B70186E495E00E945604B70180E4D0
:1021600095E00E945604B8016E197F098DE395E051
:102170000E94560465E070E080E090E00E94170441
:10218000FFEFEF1AFF0AF0925304E0925204D8CF07
:102190001092550484E893E00E94FD078091540456
:1021A000811115C280911A0290911B02892B09F0AE
:1021B0000EC2E0914004F0914104E830F10508F0CE
:1021C00006C210935304009352048827E551FF4E32
:1021D0008F4F0C948417F31026117D11BC11FB1145
:1021E00047129312BB12E0905204F09053041E1455
:1021F0001F040CF0ECC185EBE816F1042CF4B701D8
:1022000086E495E00E9456046801CE18DF08D7FCEA
:10221000E5C5B60183E495E00E94560495EBE91606
:10222000F1040CF4E0C5B6018DE395E00E9456047C
:1022300065E070E080E090E00E941704E1E0EE1AB3
:10224000F108F0925304E0925204CDCFE090520492
:10225000F09053041E141F045CF5F5EBEF16F10427
:102260002CF4B70186E495E00E9456046801CE186C
:10227000DF08D7FCC0C5B60183E495E00E94560490
:1022800085EBE816F1040CF4BBC5B6018DE395E0CF
:102290000E94560465E070E080E090E00E94170420
:1022A00091E0E91AF108F0925304E0925204CECF83
:1022B00064EF71E080E090E00E94170410935304F3
:1022C00000935204E0905204F09053041E141F0433
:1022D0000CF07DC1B70189E495E00E94560465E0E9
:1022E00070E080E090E00E941704E1E0EE1AF1084F
:1022F000F0925304E0925204E5CFE0905204F09043
:1023000053041E141F049CF4B70186E495E00E9458
:10231000560465E070E080E090E00E941704F1E070
:10232000EF1AF108F0925304E0925204E6CF64EF02
:1023300071E080E090E00E94170410935304009332
:102340005204E0905204F09053041E141F040CF049
:102350003EC1B70189E495E00E94560465E070E053
:1023600080E090E00E94170481E0E81AF108F09202
:102370005304E0925204E5CFE0905204F0905304ED
:102380001E141F049CF4B70186E495E00E945604D5
:1023900065E070E080E090E00E94170491E0E91AA7
:1023A000F108F0925304E0925204E6CF64EF71E03A
:1023B00080E090E00E9417041093530400935204AD
:1023C000E0905204F09053041E141F040CF0FFC060
:1023D000B70189E495E00E94560465E070E080E072
:1023E00090E00E941704E1E0EE1AF108F092530425
:1023F000E0925204E5CFE0905204F09053041E1492
:102400001F0404F5F5EBEF16F1042CF4B70186E494
:1024100095E00E945604B8016E197F0977FD04C04B
:1024200083E495E00E94560465E070E080E090E06F
:102430000E94170481E0E81AF108F0925304E09238
:102440005204D9CF64EF71E080E090E00E9417045D
:102450001093530400935204E0905204F0905304FC
:102460001E141F040CF0B3C0B70189E495E00E946C
:10247000560465E070E080E090E00E94170491E06F
:10248000E91AF108F0925304E0925204E5CFE0908B
:102490005204F09053041E141F0404F5E5EBEE16ED
:1024A000F1042CF4B70186E495E00E945604B801CB
:1024B0006E197F0977FD04C083E495E00E945604FD
:1024C00065E070E080E090E00E941704F1E0EF1A10
:1024D000F108F0925304E0925204D9CF64EF71E016
:1024E00080E090E00E94170410935304009352047C
:1024F000E0905204F09053041E141F040CF067C0C7
:10250000B70189E495E00E94560465E070E080E040
:1025100090E00E94170481E0E81AF108F092530459
:10252000E0925204E5CFE0905204F09053041E1460
:102530001F040CF04CC0B8016E197F0977FD04C070
:1025400083E495E00E94560495EBE916F1042CF41F
:10255000B70180E495E00E94560465E070E080E0F9
:1025600090E00E941704E1E0EE1AF108F0925304A3
:10257000E0925204D8CFE0905204F09053041E141D
:102580001F042CF5F5EBEF16F10454F4B70186E4C3
:1025900095E00E945604B70180E495E00E9456043D
:1025A000B8016E197F0977FD04C08DE395E00E94A4
:1025B000560465E070E080E090E00E94170481E03E
:1025C000E81AF108F0925304E0925204D4CF8091BB
:1025D0005804909159049093570480935604209185
:1025E0005404211153C020911A0230911B02213052
:1025F000310509F04BC020915504222309F4B6C3DC
:10260000019709F043C0E0905204F090530494EB1A
:10261000E916F104DCF5EFEFEE1AFE0AF09253042E
:10262000E0925204F4EBEF16F10429F0B70186E4CE
:1026300095E00E9456046801CE18DF08B60183E4D5
:1026400095E00E94560484EBE816F10429F0B701E6
:1026500080E495E00E945604B6018DE395E00E9467
:1026600056048091180290911902892B49F494EB39
:10267000E916F10429F0B70189E495E00E945604B7
:102680006FE070E080E090E00E94170480915004B9
:1026900090915104009709F0B3C280911A02909171
:1026A0001B020197E9F58091180290911902009799
:1026B00009F454C00197A1F590E080E00E9414064F
:1026C00086E40E94380665E070E080E090E00E94B9
:1026D000170481E090E00E94140682E70E94380609
:1026E00065E070E080E090E00E94170482E090E0F6
:1026F0000E94140685E40E94380665E070E080E0E0
:1027000090E00E94170483E090E00E94140680E3AA
:102710000E94380665E070E080E090E00E941704B7
:1027200080911A0290911B02892B09F077C0E091E9
:102730004004F0914104E830F10508F06FC090E0EA
:102740008827EA55FC4E8F4F0C948417DB131A151B
:10275000461565158415A315C215E11590E080E0B6
:102760000E94140686E40E94380665E070E080E06E
:1027700090E00E94170481E090E00E94140682E736
:102780000E94380665E070E080E090E00E94170447
:1027900082E090E00E94140685E40E94380665E01D
:1027A00070E080E090E00E94170483E090E00E94D7
:1027B000140681E3ADCF80E00E94140682E60E94F9
:1027C000380665E070E080E090E00E94170481E048
:1027D00090E00E94140681E40E94380665E070E0F3
:1027E00080E090E00E94170482E090E00E941406CE
:1027F00083E50E94380665E070E080E090E00E948A
:10280000170483E090E00E94140680E30E943806DB
:1028100065E070E080E090E00E94170485E10E948E
:102820005F03909317028093160220911402309157
:1028300015028217930711F1892B09F05AC20E94E1
:10284000490470931102609310022091120230919A
:1028500013027B01E21AF30AF0924704E092460465
:1028600061E080E10E94880383E3E81AF10895EDB6
:10287000E91696E0F90610F470924D048091160264
:1028800090911702909315028093140280914D0449
:1028900081114DC080914C04882309F448C00E94E6
:1028A00049042091120230911302621B730B709342
:1028B0004B0460934A04613D7740CCF188E893E093
:1028C0000E94F007C0904A04D0904B040D2C000CDD
:1028D000EE08FF08F7FE34C26DE28AE594E00E943C
:1028E0005A0222273327A9012C193D094E095F09F5
:1028F00019A2CE0181967C01CA01B901A5019401FA
:102900000E941517605DF70162937F012115310563
:102910004105510589F7E114F10419F0C7010E943E
:10292000F0078FE292E00E94F0070E945908809120
:10293000160290911702892B09F073C00E94490476
:1029400020911002309111027B01E21AF30AF092F9
:102950004904E0924804C701875B934083369105A0
:1029600070F460E080E10E9488036AE070E080E03B
:1029700090E00E94170461E080E10E948803C70193
:102980008F5997408336910570F460E080E10E9492
:1029900088036AE070E080E090E00E94170461E044
:1029A00080E10E948803C70187589B4083369105C8
:1029B00070F460E080E10E9488036AE070E080E0EB
:1029C00090E00E94170461E080E10E948803C70143
:1029D0008F569F408336910570F460E080E10E943D
:1029E00088036AE070E080E090E00E94170461E0F4
:1029F00080E10E948803F7E5EF1AF3E1FF0A83E61E
:102A0000E816F10470F460E080E10E9488036AE057
:102A100070E080E090E00E94170461E080E10E9495
:102A2000880365E070E080E090E00E9417040E9457
:102A3000C7028FC980E00E94140682E60E94380611
:102A400065E070E080E090E00E94170481E090E093
:102A50000E94140681E40E94380665E070E080E080
:102A600090E00E94170482E090E00E94140683E543
:102A70000E94380665E070E080E090E00E94170454
:102A800083E090E00E94140681E3C0CE80E00E94C3
:102A9000140680E50E94380665E070E080E090E072
:102AA0000E94170481E090E00E94140689E60E94CB
:102AB000380665E070E080E090E00E94170482E054
:102AC00090E00E9414068EE694CE80E00E941406E8
:102AD00080E50E94380665E070E080E090E00E94AA
:102AE000170481E090E00E94140689E60E943806EF
:102AF00065E070E080E090E00E94170482E090E0E2
:102B00000E9414068EE6B4CF80E00E94140684E78B
:102B10000E94380665E070E080E090E00E941704B3
:102B200081E090E00E94140682E70E94380665E08A
:102B300070E080E090E00E94170482E090E00E9444
:102B4000140689E656CE80E00E94140684E70E94AF
:102B5000380665E070E080E090E00E94170481E0B4
:102B600090E00E94140682E70E94380665E070E05B
:102B700080E090E00E94170482E090E00E9414063A
:102B800089E676CF80E00E94140685E40E9438062C
:102B900065E070E080E090E00E94170481E090E042
:102BA0000E94140688E50E94380665E070E080E027
:102BB00090E00E94170482E090E00E94140684E7EF
:102BC00018CE80E00E94140685E40E94380665E075
:102BD00070E080E090E00E94170481E090E00E94A5
:102BE000140688E50E94380665E070E080E090E019
:102BF0000E94170482E090E00E94140684E738CF18
:102C000081309105A1F0029709F446C00E94490461
:102C100020914E0430914F04621B730B613D77404D
:102C20000CF4FCCD1092510410925004F7CD90E0BA
:102C300080E00E9414068CE40E94380665E070E093
:102C400080E090E00E94170481E090E00E9414066A
:102C50008FE60E94380665E070E080E090E00E9418
:102C6000170482E090E00E94140683E60E94380672
:102C700065E070E080E090E00E94170483E090E05F
:102C80000E94140681E30E94380665E070E080E04F
:102C900090E00E941704BACF90E080E00E941406F2
:102CA0008CE40E94380665E070E080E090E00E94CD
:102CB000170481E090E00E9414068FE60E94380617
:102CC00065E070E080E090E00E94170482E090E010
:102CD0000E94140683E60E94380665E070E080E0FA
:102CE00090E00E94170483E090E00E94140680E3C5
:102CF000CACF0E944904709313026093120220917C
:102D0000100230911102621B730B709345046093A3
:102D100044048091420490914304019690934304AB
:102D20008093420470924C0460E080E10E9488032A
:102D300080914D04882309F4A1CD0E9459089ECDAD
:102D4000A701960119A2CE0181967C01CA01B901A1
:102D5000A50194010E941517605DF70162937F0140
:102D6000211531054105510589F7D5CD019709F0A8
:102D70008DCCE0905204F09053041E141F040CF00C
:102D800085CCE1E0EE1AF108F0925304E09252048F
:102D9000E114F10429F0B70186E495E00E9456049D
:102DA0006801CE18DF08D7FC39C0B60183E495E08E
:102DB0000E945604E114F10459F5B6018DE395E043
:102DC0000E9456048091180290911902892B09F0F3
:102DD00057CCE114F10409F453CC4DCC95EBE91632
:102DE000F1040CF025CAB70180E495E00E94560476
:102DF000D7FE19CA1DCAE5EBEE16F1040CF04ACA5B
:102E0000B70180E495E00E945604D7FE3ECA42CA4C
:102E1000B70180E495E00E945604CFCFB70180E46B
:102E200095E0E114F10461F6C8CFA1E21A2EAA1BC5
:102E3000BB1BFD010DC0AA1FBB1FEE1FFF1FA2176A
:102E4000B307E407F50720F0A21BB30BE40BF50B67
:102E5000661F771F881F991F1A9469F760957095F0
:102E6000809590959B01AC01BD01CF010895052E81
:102E700097FB1EF400940E944E1757FD07D00E9446
:102E8000151707FC03D04EF40C944E17509540953F
:102E9000309521953F4F4F4F5F4F08959095809506
:102EA000709561957F4F8F4F9F4F08950E946917CE
:102EB000A59F900DB49F900DA49F800D911D11248E
:102EC0000895B7FF0C9456170E945617821B930B58
:102ED0000895A29FB001B39FC001A39F700D811DF3
:102EE0001124911DB29F700D811D1124911D089513
:102EF000991B79E004C0991F961708F0961B881F4C
:102F00007A95C9F780950895EE0FFF1F881F8BBF34
:0C2F10000790F691E02D1994F894FFCF83
:102F1C0055045504550455045504550455045504DD
:102F2C00FFFFFFFF01000100010001000000000095
:102F3C005A02C401F101A7022202000214020D0A76
:102F4C000043757272656E743A2042617369632036
:102F5C002D20466973740043757272656E743A2045
:102F6C004261736963202D2047726970004375724A
:102F7C0072656E743A2050696E63686573202D20FB
:102F8C0050696E63680043757272656E743A2050B6
:102F9C00696E63686573202D2050696E63684E6F8F
:102FAC00466973740043757272656E743A2054727C
:102FBC0069706F6473202D20547269706F640043C4
:102FCC00757272656E743A20547269706F647320F6
:102FDC002D20547269706F64684E6F46697374006B
:102FEC0043757272656E743A2045787472614772DB
:102FFC00697073202D2045787472613100437572AD
:10300C0072656E743A204578747261477269707398
:10301C00202D20457874726132002E2E2E4368616B
:10302C006E67696E6720477269702E2E2E002E2EE9
:10303C002E4C6F636B696E6720536572766F732EBF
:10304C002E2E002E2E2E4368616E67696E67204D02
:10305C006F64652E2E2E002E2E2E536875742064F0
:10306C006F776E2E2E2E00564D4450565F317C31AC
:10307C005F564D4450560A00564D4450525F000A5C
:10308C000A21214E65772073657373696F6E212158
:10309C00004F6E004F6666006D696C6C6973282971
:1030AC00202D2070726573735F73746F703A2000FB
:00000001FF
