:100000000C9469010C94F90B0C94CE0B0C94A30B7B
:100010000C94780B0C944D0B0C94220B0C94F70A57
:100020000C94CC0A0C949A010C949A010C949A01A9
:100030000C949A010C949A010C949A010C949A01D4
:100040000C949A010C94AE0C0C949A010C949A01A5
:100050000C949A010C949A010C949A010C94820AC3
:100060000C949A010C944C0A0C94220A0C949A0158
:100070000C949A010C949A010C949A010C949A0194
:100080000C94800C0C949A010C949A010C949A0193
:100090000C949A010C949A010C949A010C949A0174
:1000A0000C949A010C949A010C94520C0C949A01A1
:1000B0000C949A010C949A010C949A010C94240CBF
:1000C0000C949A010C949A010C949A010C949A0144
:1000D0000C949A010C949A010C949A010C949A0134
:1000E0000C949A010C9431030C9456030C94F10176
:1000F0000C94B70F0C9449030C9491150C94C40103
:100100000C9427150C94E3070C94760F0C9455046B
:100110000C94AB100C9453150C949E120C9431114A
:100120000C9452120C9414020C9457030C94000279
:100130000C9435030C945A020C94CF150C940612AF
:100140000C943F030C94B0150C94EE150C942803FA
:100150000C94C6120C94F80F0C944D030C94881157
:100160000C9420030C9451030C94C7110C94E613C7
:100170000C94FE100C9416030C945B030C94430334
:100180000C94F70C0C943B030C9422020C94A702E1
:100190000C9488100C9472150C9424030C94230F67
:1001A0000C9440100C94F50E0C942B030C941C032F
:1001B00000002100240027002A002D003000330019
:1001C00001010000040107010A01000022002500CE
:1001D00028002B002E003100340002010000050130
:1001E00008010B01000020002300260029002C003C
:1001F0002F0032000001000003010601090105057E
:100200000505070508080808020202020A0A08088C
:1002100004040404010101010101010103030303BA
:1002200003030303040707070C0C0C0C0C0C0C0C49
:100230000202020206060606060606060B0B0B0B5A
:100240000B0B0B0B0102102020080810204010207F
:10025000408002010201080402010102040810208A
:100260004080804020100804020180040201804088
:1002700020100804020108040201010204081020F1
:100280004080010204081020408000000A0B02098F
:100290000C0D0E0807030401000000000000000020
:1002A000000000000000000000000000000000004E
:1002B000000000000000121110000000000000000B
:1002C000000000000000000000000000000000002E
:1002D000F70C11241FBECFEFD1E2DEBFCDBF00E08F
:1002E0000CBF13E0A0E0B2E0E0E0FFE200E00BBFF3
:1002F00002C007900D92AC3CB107D9F725E0ACECF9
:10030000B3E001C01D92A837B207E1F711E0C9E6DA
:10031000D1E000E006C021970109802FFE010E9474
:100320007617C836D10780E00807A9F70E94490D63
:100330000C947E170C940000E6E8F4E0A089B189E3
:1003400082E08C93A485B5851C92A685B7858FEC39
:100350008C93108EA489B58986E08C93A289B38989
:100360008C9180618C93A289B3898C9188608C93E5
:10037000A289B3898C9180688C930288F389E02DDF
:1003800080818F7D80830895AF92BF92CF92DF925C
:10039000EF92FF920F931F93CF93DF936C017B013A
:1003A0008B01040F151FEB015E01AE18BF08C017CB
:1003B000D10759F06991D601ED91FC910190F0813E
:1003C000E02DC6011995892B79F7C501DF91CF91F1
:1003D0001F910F91FF90EF90DF90CF90BF90AF9063
:1003E0000895FC01538D448D252F30E0842F90E03B
:1003F000821B930B541710F0CF9608950197089520
:10040000FC01918D828D981761F0A28DAE0FBF2FE8
:10041000B11D5D968C91928D9F5F9F73928F90E03E
:1004200008958FEF9FEF0895FC01918D828D9817AD
:1004300031F0828DE80FF11D858D90E008958FEFEA
:100440009FEF0895FC01918D228D892F90E0805CB3
:100450009F4F821B91098F739927089586E894E036
:100460000E94220221E0892B09F420E0822F0895C6
:10047000FC01A48DA80FB92FB11DA35ABF4F2C9119
:10048000848D90E001968F739927848FA689B78910
:100490002C93A089B1898C91837080648C93938D07
:1004A000848D981306C00288F389E02D80818F7DAA
:1004B00080830895EF92FF920F931F93CF93DF9362
:1004C000EC0181E0888F9B8D8C8D98131AC0E88990
:1004D000F989808185FF15C09FB7F894EE89FF895F
:1004E0006083E889F98980818370806480839FBFFD
:1004F00081E090E0DF91CF911F910F91FF90EF90FD
:100500000895F62E0B8D10E00F5F1F4F0F7311270C
:10051000E02E8C8D8E110CC00FB607FCFACFE88947
:10052000F989808185FFF5CFCE010E943802F1CF95
:10053000EB8DEC0FFD2FF11DE35AFF4FF0829FB7BB
:10054000F8940B8FEA89FB8980818062CFCFCF93AB
:10055000DF93EC01888D8823B9F0AA89BB89E889EB
:10056000F9898C9185FD03C0808186FD0DC00FB691
:1005700007FCF7CF8C9185FFF2CF808185FFEDCF0F
:10058000CE010E943802E9CFDF91CF91089580E03B
:1005900090E0892B29F00E942E0281110E94000018
:1005A00080E090E0892B49F080E090E0892B29F0F1
:1005B0000E94000081110E94000080E090E0892BE1
:1005C00049F080E090E0892B29F00E940000811121
:1005D0000E94000080E090E0892B49F080E090E0EC
:1005E000892B29F00E94000081110C9400000895CD
:1005F0008150823108F05AC0E82FF0E08827EC5F84
:10060000FC4F8F4F0C9476172403280316031C030A
:10061000200356032B03310335033B033F034303FE
:1006200049034D035603510357035B038091800038
:100630008F77809380000895809180008F7DF9CF1F
:1006400080918000877FF5CF84B58F7784BD089532
:1006500084B58F7DFBCF8091B0008F778093B00001
:1006600008958091B0008F7DF9CF809190008F77B1
:10067000809390000895809190008F7DF9CF8091B4
:100680009000877FF5CF8091A0008F778093A000A6
:1006900008958091A0008F7DF9CF8091A000877F81
:1006A000F5CF809120018F7780932001089580916C
:1006B00020018F7DF9CF80912001877FF5CFCF93E7
:1006C000DF93282F30E0F901E657FD4F8491F901BF
:1006D000EC5BFD4FD491F901E250FE4FC491CC2365
:1006E000A1F081110E94F802EC2FF0E0EE0FFF1F45
:1006F000EC51FE4FA591B491EC91ED2381E090E097
:1007000009F480E0DF91CF91089580E090E0FACF86
:100710001F93CF93DF93282F30E0F901E657FD4F69
:100720008491F901EC5BFD4FD491F901E250FE4F49
:10073000C491CC23A9F0162F81110E94F802EC2F4E
:10074000F0E0EE0FFF1FE653FE4FA591B4918FB777
:10075000F894EC91111108C0D095DE23DC938FBF83
:10076000DF91CF911F910895DE2BF8CFCF93DF93C8
:1007700090E0FC01EC5BFD4F249182509E4FFC0108
:1007800084918823C9F090E0880F991FFC01E055FF
:10079000FE4FA591B491FC01E653FE4FC591D49153
:1007A00061110DC09FB7F8948C91209582238C9392
:1007B0008881282328839FBFDF91CF9108956230DD
:1007C00051F49FB7F8943C91822F809583238C93AA
:1007D000E8812E2BEFCF8FB7F894EC912E2B2C9332
:1007E0008FBFEACF3FB7F894809168049091690475
:1007F000A0916A04B0916B0426B5A89B05C02F3F59
:1008000019F00196A11DB11D3FBFBA2FA92F982F36
:100810008827BC01CD01620F711D811D911D42E031
:10082000660F771F881F991F4A95D1F708958F92F9
:100830009F92AF92BF92CF92DF92EF92FF924B01C5
:100840005C010E94F2036B017C010E94F2036C19AF
:100850007D098E099F09683E734081059105A8F3C3
:1008600021E0821A9108A108B10888EEC80E83E041
:10087000D81EE11CF11C81149104A104B10429F7D4
:10088000FF90EF90DF90CF90BF90AF909F908F90B0
:1008900008952FB7F8946091640470916504809175
:1008A0006604909167042FBF08950895CF92DF9258
:1008B000EF92FF92CF93DF93EC01603282E07807F2
:1008C000CCF5653B710514F064EB70E0898128E894
:1008D00030E0281B310987FD3395220F331F220F8B
:1008E000331F6901330FEE08FF088A8128E532E0E3
:1008F000281B310987FD3395220F331F220F331F29
:10090000032E000C440B550B2C193D094E095F09B1
:10091000DB0177FF02C0B0E0A0E00E94531724EB98
:1009200030E040E050E00E942917C20ED31EE41EC2
:10093000F51EB601E881E03370F5298188E890E082
:10094000821B910927FD9395880F991F880F991F86
:10095000681779077CF02A8188E592E0821B91096B
:1009600027FD9395880F991F880F991F681779079E
:100970000CF4CB010297880F991F4FB7F8942E2FD4
:1009800030E0F901EE0FFF1FE20FF31FED52FC4FB5
:10099000928381834FBFDF91CF91FF90EF90DF90E3
:1009A000CF9008951F93CF93DF93EC01162F88818A
:1009B000803308F04EC061E0812F0E94B603888129
:1009C000282F30E0F901EE0FFF1FE20FF31FED5269
:1009D000FC4F1F736081607C612B608319821A82D7
:1009E0002CE0622F0E946A17829FB001112430E030
:1009F00020E0AB01420F531FFA01EE0FFF1FE40F7F
:100A0000F51FED52FC4F908196FD16C02F5F3F4FB2
:100A10002C30310571F7813009F51092800082E0A9
:100A2000809381001092850010928400B19A809189
:100A30006F00826080936F00E8818E2F90E0FC0150
:100A4000EE0FFF1FE80FF91FED52FC4F808180640D
:100A500080838881DF91CF911F910895823061F466
:100A60001092900080939100109295001092940043
:100A700088BB80937100E0CF833069F41092A000AE
:100A800082E08093A1001092A5001092A40089BB7F
:100A900080937200D1CF8111CFCF1092200182E0DC
:100AA0008093210110922501109224018ABB80932A
:100AB0007300C2CFAF92BF92CF92DF92EF92FF92BC
:100AC0000F931F93CF93DF936B017A01EC01C25315
:100AD000DC4F28813CE0389F8001399F100D1124A4
:100AE000A090D203B12C27FF1FC0FB0111821082FE
:100AF00088818F5F888388819801280F311D87FD49
:100B00003A95F6012A153B051CF488818C30C4F116
:100B100080819181049680349C4908F473C0F60169
:100B200080819181049670C088819801280F311DC1
:100B300087FD3A952A153B05DCF68881A801480F08
:100B4000511D87FD5A95FA01EE0FFF1FE40FF51FA7
:100B5000ED52FC4F808186FFCBCF8881F801E80FF2
:100B6000F11D87FDFA95CF01EE0FFF1FE80FF91F6A
:100B7000ED52FC4F808160E08F730E948803B8CFF4
:100B8000808191812881A801420F511D27FD5A952E
:100B90009A01FA01EE0FFF1FE20FF31FED52FC4F17
:100BA00021813281820F931FF70191838083888195
:100BB0009801280F311D87FD3A95F901EE0FFF1FAF
:100BC000E20FF31FED52FC4F808186FF22C0888127
:100BD000080F111D87FD1A95F801EE0FFF1FE00F9A
:100BE000F11FED52FC4F808161E08F73DF91CF9157
:100BF0001F910F91FF90EF90DF90CF90BF90AF903B
:100C00000C94880380E49CE9F701918380838FEF43
:100C10008883DF91CF911F910F91FF90EF90DF902C
:100C2000CF90BF90AF900895CF93DF93EC0161E038
:100C30008EE10E94880361E08FE10E94880361E0F9
:100C400080E20E94880361E081E20E94880360E004
:100C500080E2C130D10541F08FE1C230D10521F0F1
:100C60008EE1CD2B09F081E2DF91CF910C948803C6
:100C7000833509F47DC0D4F5853409F4DFC0FCF474
:100C8000813309F4C9C0813409F468C0803309F0A4
:100C900001C161E086E10E94880361E087E10E9472
:100CA000880361E088E10E94880361E089E10E9495
:100CB000880361E08AE10E94880361E086C08C3489
:100CC00009F4C6C0803509F465C0863409F0E2C075
:100CD00061E086E10E94880360E087E10E9488036A
:100CE00060E088E10E94880360E02BC0893609F447
:100CF00057C054F48236C1F0833609F4C1C0883538
:100D000009F0C8C060E02BC08F3609F4ABC024F4F2
:100D10008E3609F461C00895823709F473C060E02B
:100D2000843709F48CC0089560E086E10E9488034E
:100D300060E087E10E94880361E088E10E94880307
:100D400061E089E10E94880361E08AE10E948803F2
:100D500061E08BE10E94880361E03BC061E086E1D5
:100D60000E94880361E087E10E94880361E0B9CFB7
:100D700061E086E10E94880360E087E10E948803C9
:100D800061E088E10E94880361E089E10E948803B4
:100D900060E0DBCF61E086E10E94880361E09DCFE7
:100DA00060E086E10E94880360E087E10E9488039A
:100DB00060E088E10E94880360E089E10E94880386
:100DC00061E08AE10E94880360E08BE10E94880371
:100DD00060E08CE10C94880360E086E10E94880367
:100DE00060E087E10E94880361E088E10E94880357
:100DF00060E089E10E94880361E08AE10E94880343
:100E000060E0A7CF60E086E10E94880360E087E1B0
:100E10000E94880360E0E9CF60E086E10E948803D9
:100E200061E087E10E94880361E088E10E94880315
:100E300060E089E10E94880360E0C3CF61E086E161
:100E40000E94880360E087E10E94880360E075CF1C
:100E500060E086E10E94880360E087E10E948803E9
:100E600060E020CF60E086E10E94880360E087E1D7
:100E70000E94880361E088E10E94880361E0B9CFA5
:100E800060E086E10E94880360E087E10E948803B9
:100E900060E0F1CF08950F931F93CF93DF9384EB1E
:100EA00090E090937F0480937E0404EB10E0C09167
:100EB0007E04D0917F041C161D069CF4B8016C1BA7
:100EC0007D0B89E695E00E94560465E070E080E0C5
:100ED00090E00E9417042197D0937F04C0937E0472
:100EE000E6CFDF91CF911F910F9108950F931F933C
:100EF000CF93DF9310927F0410927E0404EB10E0F6
:100F0000C0917E04D0917F04C43BD1059CF4B8010C
:100F10006C1B7D0B89E695E00E94560465E070E04D
:100F200080E090E00E9417042196D0937F04C09344
:100F30007E04E6CFDF91CF911F910F910895CF935B
:100F4000DF9384EB90E090937F0480937E04C091C4
:100F50007E04D0917F041C161D068CF4BE018CE625
:100F600095E00E94560465E070E080E090E00E9409
:100F700017042197D0937F04C0937E04E8CFDF91BC
:100F8000CF910895CF93DF9310927F0410927E0447
:100F9000C0917E04D0917F04C43BD1058CF4BE0186
:100FA0008CE695E00E94560465E070E080E090E0F9
:100FB0000E9417042196D0937F04C0937E04E8CF4B
:100FC000DF91CF91089583B78E7F83BFE89885E541
:100FD00094E09093050280930402F0E0E0E019941D
:100FE000FC0101900020E9F73197AF01481B590B34
:100FF000BC0186E894E00C94C401CF93DF930E9477
:10100000F007EC018EE292E00E94F0078C0F9D1F2A
:10101000DF91CF9108958091CC039091CD038130E1
:101020009105B9F030F08230910519F1039789F1FB
:10103000089580916C0490916D04009719F00197C8
:1010400029F0089581E392E00C94FD0787E492E093
:10105000FBCF80916C0490916D048230910519F062
:10106000039721F008958DE592E0EECF86E792E0B8
:10107000EBCF80916C0490916D048430910519F050
:10108000059721F0089585E992E0DECF8FEA92E09E
:10109000DBCF80916C0490916D048630910519F03E
:1010A000079721F0089580ED92E0CECF8DEE92E08B
:1010B000CBCF0F931F93CF93DF938091790481302F
:1010C00009F485C18091720490917304845691094A
:1010D0008438934020F580918004811120C08AE0FB
:1010E00093E00E94FD0780911A0290911B020097E5
:1010F00009F4B0C08130910581F42091180230913B
:1011000019022130310509F09EC010921902109287
:1011100018028EE193E00E94FD070E940B08809167
:10112000720490917304885E9340803D9740B8F4B8
:1011300087E393E00E94FD070E94490470937B04BB
:1011400060937A0482E090E090937D0480937C0425
:1011500080918004811135C181E080938004809169
:10116000720490917304885B9B40803D9740A8F483
:1011700080918004811111C08CE493E00E94FD07EE
:1011800080911A0290911B028130910509F41CC1D3
:10119000019690931B0280931A02809172049091A1
:1011A000730488389341C4F180918004811134C064
:1011B00080E693E00E94FD0760E086E10E948803DC
:1011C00060E087E10E94880360E088E10E94880374
:1011D00060E089E10E94880360E08AE10E94880360
:1011E00060E08BE10E94880360E08CE10E9488034C
:1011F00083B7816083BF83EE97E09093050280936D
:101200000402809169008C7F80936900E89A83B71B
:10121000817F846083BF889510927804109279044E
:10122000109271041092700410926F0410926E0468
:101230008FEF9FEF9093110280931002DF91CF9177
:101240001F910F910895909319028093180289E2DB
:1012500093E061CF8091CC039091CD0381309105D3
:1012600041F190F08230910509F485C0039709F0AF
:1012700054CF80916C0490916D048630910509F0F3
:101280009AC087E090E008C080916C0490916D0452
:10129000009739F481E090E090936D0480936C04A2
:1012A0003CCF019709F039CF10926D0410926C0475
:1012B00034CF80916C0490916D048230910559F582
:1012C00083E090E090936D0480936C040E94760715
:1012D0000E94C20710927F0410927E0404EB10E07B
:1012E000C0917E04D0917F04C43BD1050CF015CF92
:1012F000B8016C1B7D0B8FE695E00E94560465E0FB
:1013000070E080E090E00E9417042196D0937F0463
:10131000C0937E04E5CF039709F0FFCE82E090E012
:1013200090936D0480936C040E944B070E949F076A
:1013300084EB90E090937F0480937E0404EB10E0B4
:10134000C0917E04D0917F041C161D060CF0E5CEE2
:10135000B8016C1B7D0B8FE695E00E94560465E09A
:1013600070E080E090E00E9417042197D0937F0402
:10137000C0937E04E5CF80916C0490916D0484301D
:10138000910559F485E090E090936D0480936C048E
:101390000E9476070E94C207C0CE059709F0BDCE15
:1013A00084E090E090936D0480936C040E944B075E
:1013B0000E949F07B2CE079709F0AFCE86E090E07B
:1013C0006BCF10928004CBCE90E080E0E2CE809193
:1013D0008004811121CF80911A0290911B02892BE8
:1013E00009F01ACF8091CC039091CD038330910501
:1013F00049F41092CD031092CC0310926D04109218
:101400006C040BC001969093CD038093CC03813084
:10141000910571F02CF4892B81F30E940B08FCCE0E
:101420008230910561F00397C1F786E090E002C039
:1014300082E090E090936D0480936C04EECF84E0A2
:1014400090E0F8CF1F920F920FB60F9211240BB6B7
:101450000F922F933F934F935F936F937F938F934D
:101460009F93AF93BF93EF93FF9386E894E00E941E
:101470003802FF91EF91BF91AF919F918F917F9132
:101480006F915F914F913F912F910F900BBE0F90F5
:101490000FBE0F901F9018951F920F920FB60F92CC
:1014A00011240BB60F922F938F939F93EF93FF937B
:1014B000E0919604F09197048081E0919C04F09172
:1014C0009D0482FD1DC0908180919F048F5F8F736A
:1014D0002091A004821741F0E0919F04F0E0EA57C8
:1014E000FB4F958F80939F04FF91EF919F918F9178
:1014F0002F910F900BBE0F900FBE0F901F9018955D
:101500008081F2CF1F920F920FB60F9211242F936A
:101510003F938F939F93AF93BF9380916404909177
:101520006504A0916604B09167043091630423E0E0
:10153000230F2D3758F50196A11DB11D209363048B
:101540008093640490936504A0936604B093670449
:101550008091680490916904A0916A04B0916B0431
:101560000196A11DB11D8093680490936904A09316
:101570006A04B0936B04BF91AF919F918F913F919B
:101580002F910F900FBE0F901F90189526E8230FF4
:101590000296A11DB11DD2CF1F920F920FB60F92CE
:1015A00011240BB60F922F933F934F935F936F933A
:1015B0007F938F939F93AF93BF93EF93FF93E091AC
:1015C0000E02F0910F021995FF91EF91BF91AF912B
:1015D0009F918F917F916F915F914F913F912F914B
:1015E0000F900BBE0F900FBE0F901F9018951F927B
:1015F0000F920FB60F9211240BB60F922F933F93B9
:101600004F935F936F937F938F939F93AF93BF930A
:10161000EF93FF93E0910C02F0910D021995FF9169
:10162000EF91BF91AF919F918F917F916F915F915A
:101630004F913F912F910F900BBE0F900FBE0F90C7
:101640001F9018951F920F920FB60F9211240BB690
:101650000F922F933F934F935F936F937F938F934B
:101660009F93AF93BF93EF93FF93E0910202F091AA
:1016700003021995FF91EF91BF91AF919F918F91C7
:101680007F916F915F914F913F912F910F900BBE82
:101690000F900FBE0F901F9018951F920F920FB6CC
:1016A0000F9211240BB60F922F933F934F935F939A
:1016B0006F937F938F939F93AF93BF93EF93FF931A
:1016C000E0910002F09101021995FF91EF91BF9115
:1016D000AF919F918F917F916F915F914F913F91CA
:1016E0002F910F900BBE0F900FBE0F901F9018956B
:1016F0001F920F920FB60F9211240BB60F922F93D9
:101700003F934F935F936F937F938F939F93AF9389
:10171000BF93EF93FF93E0910A02F0910B021995AA
:10172000FF91EF91BF91AF919F918F917F916F91B9
:101730005F914F913F912F910F900BBE0F900FBE75
:101740000F901F9018951F920F920FB60F921124B1
:101750000BB60F922F933F934F935F936F937F93AB
:101760008F939F93AF93BF93EF93FF93E091080202
:10177000F09109021995FF91EF91BF91AF919F915F
:101780008F917F916F915F914F913F912F910F902A
:101790000BBE0F900FBE0F901F9018951F920F92C7
:1017A0000FB60F9211240BB60F922F933F934F93C6
:1017B0005F936F937F938F939F93AF93BF93EF93B9
:1017C000FF93E0910602F09107021995FF91EF91C6
:1017D000BF91AF919F918F917F916F915F914F9149
:1017E0003F912F910F900BBE0F900FBE0F901F9047
:1017F00018951F920F920FB60F9211240BB60F92ED
:101800002F933F934F935F936F937F938F939F9308
:10181000AF93BF93EF93FF93E0910402F091050221
:101820001995FF91EF91BF91AF919F918F917F910A
:101830006F915F914F913F912F910F900BBE0F9041
:101840000FBE0F901F9018951F920F920FB60F9218
:1018500011240BB60F922F933F934F935F936F9387
:101860007F938F939F93AF93BF93EF93FF9348E240
:1018700051E064E271E090E080E00E945A05FF913F
:10188000EF91BF91AF919F918F917F916F915F91F8
:101890004F913F912F910F900BBE0F900FBE0F9065
:1018A0001F9018951F920F920FB60F9211240BB62E
:1018B0000F922F933F934F935F936F937F938F93E9
:1018C0009F93AF93BF93EF93FF9348EA50E064EA8E
:1018D00070E083E090E00E945A05FF91EF91BF9184
:1018E000AF919F918F917F916F915F914F913F91B8
:1018F0002F910F900BBE0F900FBE0F901F90189559
:101900001F920F920FB60F9211240BB60F922F93C6
:101910003F934F935F936F937F938F939F93AF9377
:10192000BF93EF93FF9348E950E064E970E082E0F1
:1019300090E00E945A05FF91EF91BF91AF919F9166
:101940008F917F916F915F914F913F912F910F9068
:101950000BBE0F900FBE0F901F9018951F920F9205
:101960000FB60F9211240BB60F922F933F934F9304
:101970005F936F937F938F939F93AF93BF93EF93F7
:10198000FF9348E850E064E870E081E090E00E9456
:101990005A05FF91EF91BF91AF919F918F917F91E8
:1019A0006F915F914F913F912F910F900BBE0F90D0
:1019B0000FBE0F901F901895FC019091D2039033A9
:1019C00098F481E0890F8093D2039083892F90E06F
:1019D000FC01EE0FFF1FE80FF91FED52FC4F88EBE3
:1019E0009BE09283818308958FEF80830895E6E8DA
:1019F000F4E01382128288EE93E0A0E0B0E08483EA
:101A00009583A683B78380E292E09183808385ECFF
:101A100090E09587848784EC90E09787868780ECB8
:101A200090E0918B808B81EC90E0938B828B82ECA9
:101A300090E0958B848B86EC90E0978B868B118E53
:101A4000128E138E148EE3E2F5E016821782108652
:101A50001186128613861486158616861786108AB6
:101A6000118A128A138A148A158A85E795E00E94E2
:101A7000DC0C82E795E00E94DC0C8FE695E00E948A
:101A8000DC0C8CE695E00E94DC0C89E695E00C9479
:101A9000DC0CCF93DF93CDB7DEB7A1970FB6F894E8
:101AA000DEBF0FBECDBF789484B5826084BD84B59F
:101AB000816084BD85B5826085BD85B5816085BD49
:101AC00080916E00816080936E0010928100809101
:101AD0008100826080938100809181008160809389
:101AE0008100809180008160809380008091B100AE
:101AF00084608093B1008091B00081608093B000D9
:101B0000809191008260809391008091910081602A
:101B100080939100809190008160809390008091EB
:101B2000A10082608093A1008091A10081608093D8
:101B3000A1008091A00081608093A000809121018C
:101B40008260809321018091210181608093210135
:101B50008091200181608093200180917A008460CF
:101B600080937A0080917A00826080937A008091DD
:101B70007A00816080937A0080917A0080688093F7
:101B80007A001092C10010926505109266051092BD
:101B9000670510926805109225051092260510928F
:101BA0002705109228050E9449046B017C014B0116
:101BB0005C0128EB820E2BE0921EA11CB11C0E943E
:101BC00049046C157D058E059F0528F0861697063D
:101BD000A806B906A0F768EE73E080E090E00E94E6
:101BE00017040E949C010E9449046093250570938C
:101BF0002605809327059093280580E793E00E94AF
:101C0000F0070E9449046B017C014B015C018AE0F2
:101C1000880E911CA11CB11C0E9449046C157D0505
:101C20008E059F0528F086169706A806B906A0F728
:101C300081E0809339050E944904609325057093E3
:101C40002605809327059093280581E893E00E945C
:101C5000F0070E949C0188E893E00E94FD0763E082
:101C600070E085E795E00E94D20464E070E082E7CE
:101C700095E00E94D20465E070E08FE695E00E9456
:101C8000D20466E070E08CE695E00E94D20467E042
:101C900070E089E695E00E94D20470E060E085E79C
:101CA00095E00E94560470E060E082E795E00E94B3
:101CB000560464EB70E08FE695E00E94560470E0F5
:101CC00060E08CE695E00E94560464EB70E089E6E3
:101CD00095E00E94560460E089E00E94B60362E04D
:101CE00085E10E94B60361E08BE00E94B60361E0EB
:101CF0008EE10E94B60361E08FE10E94B60361E0CD
:101D000080E20E94B60361E081E20E94B60361E0D6
:101D100086E10E94B60361E086E10E94B60361E0BD
:101D200087E10E94B60361E088E10E94B60361E0AA
:101D300089E10E94B60361E08AE10E94B60361E096
:101D40008BE10E94B60361E08CE10E94B60360E083
:101D50008BE00E94880304EB10E0772473948AE000
:101D6000882E912CA12CB12C89E00E945F039093C6
:101D70008504809384042091820430918304821727
:101D8000930709F42FC4019709F02CC480918104B2
:101D9000811109C2709281048AE993E00E94FD07D3
:101DA0008091800481111EC480911A0290911B02BF
:101DB000892B09F017C4E0916C04F0916D04E830B0
:101DC000F10508F00FC410927F0410927E0488275A
:101DD000E351F14F8F4F0C947617F50E230F760FCA
:101DE000B70FF80F40108810AB10E0907E04F09011
:101DF0007F0494EBE916F1040CF0F4C3B70182E719
:101E000095E00E9456046801CE18DF08B6018FE6FF
:101E100095E00E945604B7018CE695E00E945604B6
:101E2000B60189E695E00E94560465E070E080E026
:101E300090E00E941704EFEFEE1AFE0AF0927F0482
:101E4000E0927E04D2CFE0907E04F0907F04F4EB29
:101E5000EF16F1049CF4B70185E795E00E94560463
:101E600065E070E080E090E00E9417042FEFE21A36
:101E7000F20AF0927F04E0927E04E5CF64EF71E015
:101E800080E090E00E94170410927F0410927E047C
:101E9000E0907E04F0907F0484EBE816F1040CF0EF
:101EA000A1C3B70182E795E00E9456046801CE18ED
:101EB000DF08B6018FE695E00E945604B7018CE674
:101EC00095E00E945604B60189E695E00E9456040A
:101ED00065E070E080E090E00E9417049FEFE91A4F
:101EE000F90AF0927F04E0927E04D2CFE0907E0463
:101EF000F0907F04E4EBEE16F1049CF4B70185E763
:101F000095E00E94560465E070E080E090E00E9459
:101F10001704FFEFEF1AFF0AF0927F04E0927E04AD
:101F2000E5CF64EF71E080E090E00E94170410922A
:101F30007F0410927E04E0907E04F0907F0424EBF6
:101F4000E216F1040CF04EC3B70182E795E00E945F
:101F5000560465E070E080E090E00E9417048FEF87
:101F6000E81AF80AF0927F04E0927E04E4CFE09051
:101F70007E04F0907F0494EBE916F1049CF4B70121
:101F800085E795E00E94560465E070E080E090E00F
:101F90000E941704EFEFEE1AFE0AF0927F04E0921F
:101FA0007E04E5CF64EF71E080E090E00E941704CA
:101FB00010927F0410927E04E0907E04F0907F04E3
:101FC000F4EBEF16F1040CF00DC3B70182E795E0D6
:101FD0000E94560465E070E080E090E00E941704E3
:101FE0002FEFE21AF20AF0927F04E0927E04E4CF2F
:101FF000E0907E04F0907F0484EBE816F1049CF4FA
:10200000B70185E795E00E94560465E070E080E046
:1020100090E00E9417049FEFE91AF90AF0927F04FA
:10202000E0927E04E5CF64EF71E080E090E00E94F2
:10203000170410927F0410927E04E0907E04F090CA
:102040007F04E4EBEE16F1040CF0CCC2B70182E79A
:1020500095E00E945604B8016E197F098FE695E05D
:102060000E94560465E070E080E090E00E94170452
:10207000FFEFEF1AFF0AF0927F04E0927E04DDCFBB
:10208000E0907E04F0907F0424EBE216F1049CF4CF
:10209000B70185E795E00E94560465E070E080E0B6
:1020A00090E00E9417048FEFE81AF80AF0927F047C
:1020B000E0927E04E5CF64EF71E080E090E00E9462
:1020C000170410927F0410927E04E0907E04F0903A
:1020D0007F0494EBE916F1040CF084C2B70182E7A7
:1020E00095E00E945604B8016E197F098FE695E0CD
:1020F0000E94560465E070E080E090E00E941704C2
:10210000EFEFEE1AFE0AF0927F04E0927E04DDCF3C
:10211000E0907E04F0907F04F4EBEF16F1040CF0F5
:1021200061C2B8016E197F098FE695E00E945604DE
:10213000B7018CE695E00E94560465E070E080E00F
:1021400090E00E9417042FEFE21AF20AF0927F0447
:10215000E0927E04DDCFE0907E04F0907F0484EB7B
:10216000E816F1040CF03EC2B70182E795E00E9448
:102170005604B7018CE695E00E945604B8016E192A
:102180007F0989E695E00E94560465E070E080E0F2
:1021900090E00E9417049FEFE91AF90AF0927F0479
:1021A000E0927E04D8CF109281048DE993E00E94E2
:1021B000FD0780918004811115C280911A029091CF
:1021C0001B02892B09F00EC2E0916C04F0916D04A2
:1021D000E830F10508F006C210937F0400937E04F6
:1021E0008827EA50FF4E8F4F0C947617FE1031115E
:1021F0008811C711061252129E12C612E0907E0478
:10220000F0907F041E141F040CF0ECC1E5EBEE16F9
:10221000F1042CF4B70182E795E00E9456046801AE
:10222000CE18DF08D7FCCCC5B6018FE695E00E943A
:102230005604F5EBEF16F1040CF4C7C5B60189E6B8
:1022400095E00E94560465E070E080E090E00E9416
:10225000170421E0E21AF108F0927F04E0927E0474
:10226000CDCFE0907E04F0907F041E141F045CF537
:1022700085EBE816F1042CF4B70182E795E00E94A3
:1022800056046801CE18DF08D7FCA7C5B6018FE653
:1022900095E00E94560495EBE916F1040CF4A2C5F2
:1022A000B60189E695E00E94560465E070E080E0A2
:1022B00090E00E941704E1E0EE1AF108F0927F042A
:1022C000E0927E04CECF64EF71E080E090E00E9467
:1022D000170410937F0400937E04E0907E04F09036
:1022E0007F041E141F040CF07DC1B70185E795E043
:1022F0000E94560465E070E080E090E00E941704C0
:10230000F1E0EF1AF108F0927F04E0927E04E5CF4D
:10231000E0907E04F0907F041E141F049CF4B7012B
:1023200082E795E00E94560465E070E080E090E06E
:102330000E94170421E0E21AF108F0927F04E09273
:102340007E04E6CF64EF71E080E090E00E94170425
:1023500010937F0400937E04E0907E04F0907F044D
:102360001E141F040CF03EC1B70185E795E00E94E2
:10237000560465E070E080E090E00E94170481E080
:10238000E81AF108F0927F04E0927E04E5CFE09035
:102390007E04F0907F041E141F049CF4B70182E7B2
:1023A00095E00E94560465E070E080E090E00E94B5
:1023B000170491E0E91AF108F0927F04E0927E049C
:1023C000E6CF64EF71E080E090E00E941704109384
:1023D0007F0400937E04E0907E04F0907F041E143E
:1023E0001F040CF0FFC0B70185E795E00E9456047A
:1023F00065E070E080E090E00E941704E1E0EE1AF2
:10240000F108F0927F04E0927E04E5CFE0907E0434
:10241000F0907F041E141F0404F5F5EBEF16F10491
:102420002CF4B70182E795E00E945604B8016E19BA
:102430007F0977FD04C08FE695E00E94560465E0B1
:1024400070E080E090E00E94170421E0E21AF108B9
:10245000F0927F04E0927E04D9CF64EF71E080E0D7
:1024600090E00E94170410937F0400937E04E09094
:102470007E04F0907F041E141F040CF0B3C0B7015B
:1024800085E795E00E94560465E070E080E090E00A
:102490000E94170481E0E81AF108F0927F04E092AC
:1024A0007E04E5CFE0907E04F0907F041E141F04AC
:1024B00004F595EBE916F1042CF4B70182E795E0F9
:1024C0000E945604B8016E197F0977FD04C08FE69B
:1024D00095E00E94560465E070E080E090E00E9484
:1024E0001704E1E0EE1AF108F0927F04E0927E0416
:1024F000D9CF64EF71E080E090E00E941704109360
:102500007F0400937E04E0907E04F0907F041E140C
:102510001F040CF067C0B70185E795E00E945604E0
:1025200065E070E080E090E00E941704F1E0EF1AAF
:10253000F108F0927F04E0927E04E5CFE0907E0403
:10254000F0907F041E141F040CF04CC0B8016E19EB
:102550007F0977FD04C08FE695E00E94560425EBC5
:10256000E216F1042CF4B7018CE695E00E945604C3
:1025700065E070E080E090E00E94170481E0E81AD6
:10258000F108F0927F04E0927E04D8CFE0907E04C0
:10259000F0907F041E141F042CF595EBE916F1044E
:1025A00054F4B70182E795E00E945604B7018CE627
:1025B00095E00E945604B8016E197F0977FD04C0AA
:1025C00089E695E00E94560465E070E080E090E0C6
:1025D0000E941704E1E0EE1AF108F0927F04E09205
:1025E0007E04D4CF809184049091850490938304D9
:1025F0008093820420918004211153C020911A02FB
:1026000030911B022130310509F04BC0209181042B
:10261000222309F49DC3019709F043C0E0907E0492
:10262000F0907F04F4EBEF16F104DCF52FEFE21AE3
:10263000F20AF0927F04E0927E0484EBE816F10443
:1026400029F0B70182E795E00E9456046801CE1890
:10265000DF08B6018FE695E00E94560494EBE91678
:10266000F10429F0B7018CE695E00E945604B6010A
:1026700089E695E00E945604809118029091190213
:10268000892B49F4E4EBEE16F10429F0B70185E754
:1026900095E00E9456046FE070E080E090E00E94B8
:1026A000170480917C0490917D04009709F0B5C2D5
:1026B00080911A0290911B020197E9F5809118020E
:1026C00090911902009709F454C00197A1F590E088
:1026D00080E00E94140686E40E94380665E070E0FF
:1026E00080E090E00E94170481E090E00E941406D0
:1026F00082E70E94380665E070E080E090E00E948A
:10270000170482E090E00E94140685E40E943806D7
:1027100065E070E080E090E00E94170483E090E0C4
:102720000E94140680E30E94380665E070E080E0B5
:1027300090E00E94170480911A0290911B02892B4D
:1027400009F077C0E0916C04F0916D04E830F10578
:1027500008F06FC090E08827EF54FC4E8F4F0C9428
:102760007617E6132715531572159115B015CF1569
:10277000EE1590E080E00E94140686E40E94380680
:1027800065E070E080E090E00E94170481E090E056
:102790000E94140682E70E94380665E070E080E03F
:1027A00090E00E94170482E090E00E94140685E405
:1027B0000E94380665E070E080E090E00E94170417
:1027C00083E090E00E94140681E3ADCF80E00E9498
:1027D000140682E60E94380665E070E080E090E032
:1027E0000E94170481E090E00E94140681E40E9498
:1027F000380665E070E080E090E00E94170482E017
:1028000090E00E94140683E50E94380665E070E0BF
:1028100080E090E00E94170483E090E00E9414069C
:1028200080E30E94380665E070E080E090E00E945E
:10283000170485E10E945F039093170280931602AC
:1028400020911402309115028217930749F1892BC8
:1028500009F041C20E944904709311026093100272
:102860002091120230911302621B730B70936F045C
:1028700060936E0461E08BE00E94880381EA93E03C
:102880000E94FD0780916E0490916F04C397853D6F
:10289000964030F47092790488EA93E00E94F00741
:1028A0008091160290911702909315028093140262
:1028B0008091790481114DC080917804882309F4B6
:1028C00048C00E9449042091120230911302621BF9
:1028D000730B7093770460937604613D7740CCF17D
:1028E00083EB93E00E94F007C0907604D0907704C9
:1028F0000D2C000CEE08FF08F7FE14C26DE286E80E
:1029000094E00E945A0222273327A9012C193D097D
:102910004E095F0919A2CE0181967C01CA01B90155
:10292000A50194010E940717605DF70162937F0182
:10293000211531054105510589F7E114F10419F01C
:10294000C7010E94F0078FE292E00E94F0070E9408
:10295000590881E090E090931702809316020E943C
:10296000490420911002309111027B01E21AF30A0E
:10297000F0927504E0927404C701855D93408797D7
:1029800070F460E08BE00E9488036AE070E080E011
:1029900090E00E94170461E08BE00E948803C70169
:1029A0008D5B9740879770F460E08BE00E9488030E
:1029B0006AE070E080E090E00E94170461E08BE044
:1029C0000E948803C701855A9B40879770F460E096
:1029D0008BE00E9488036AE070E080E090E00E9453
:1029E000170461E08BE00E948803C7018D589F4067
:1029F000879770F460E08BE00E9488036AE070E0E3
:102A000080E090E00E94170461E08BE00E94880360
:102A1000F5E7EF1AF3E1FF0A27E2E216F10470F49A
:102A200060E08BE00E9488036AE070E080E090E064
:102A30000E94170461E08BE00E94880365E070E06B
:102A400080E090E00E9417040E94C7028DC980E0D8
:102A50000E94140682E60E94380665E070E080E07D
:102A600090E00E94170481E090E00E94140681E447
:102A70000E94380665E070E080E090E00E94170454
:102A800082E090E00E94140683E50E94380665E02B
:102A900070E080E090E00E94170483E090E00E94E4
:102AA000140681E3BECE80E00E94140680E50E94F9
:102AB000380665E070E080E090E00E94170481E055
:102AC00090E00E94140689E60E94380665E070E0F6
:102AD00080E090E00E94170482E090E00E941406DB
:102AE0008EE692CE80E00E94140680E50E943806B1
:102AF00065E070E080E090E00E94170481E090E0E3
:102B00000E94140689E60E94380665E070E080E0C5
:102B100090E00E94170482E090E00E9414068EE686
:102B2000B4CF80E00E94140684E70E94380665E076
:102B300070E080E090E00E94170481E090E00E9445
:102B4000140682E70E94380665E070E080E090E0BD
:102B50000E94170482E090E00E94140689E654CE99
:102B600080E00E94140684E70E94380665E070E069
:102B700080E090E00E94170481E090E00E9414063B
:102B800082E70E94380665E070E080E090E00E94F5
:102B9000170482E090E00E94140689E676CF80E078
:102BA0000E94140685E40E94380665E070E080E02B
:102BB00090E00E94170481E090E00E94140688E5EE
:102BC0000E94380665E070E080E090E00E94170403
:102BD00082E090E00E94140684E716CE80E00E9416
:102BE000140685E40E94380665E070E080E090E01D
:102BF0000E94170481E090E00E94140688E50E947C
:102C0000380665E070E080E090E00E94170482E002
:102C100090E00E94140684E738CF8130910599F046
:102C20000297C9F10E94490420917A0430917B04F3
:102C3000621B730B613D77400CF4FBCD10927D0459
:102C400010927C04F6CD90E080E00E94140682E6AB
:102C50000E94380665E070E080E090E00E94170472
:102C600081E090E00E94140681E40E94380665E04D
:102C700070E080E090E00E94170482E090E00E9403
:102C8000140684E70E94380665E070E080E090E07A
:102C90000E941704C7CF90E080E00E9414068CE4E5
:102CA0000E94380665E070E080E090E00E94170422
:102CB00081E090E00E9414068FE60E94380665E0ED
:102CC00070E080E090E00E94170482E090E00E94B3
:102CD000140683E6D7CF0E944904709313026093D1
:102CE00012022091100230911102621B730B70933B
:102CF0007304609372048091700490917104019642
:102D000090937104809370047092780460E08BE07B
:102D10000E94880380917904882309F4C1CD0E9420
:102D20005908BECDA701960119A2CE0181967C015A
:102D3000CA01B901A50194010E940717605DF7015E
:102D400062937F01211531054105510589F7F5CDC4
:102D5000019709F0A6CCE0907E04F0907F041E1449
:102D60001F040CF09ECCF1E0EF1AF108F0927F0402
:102D7000E0927E04E114F10429F0B70182E795E0C6
:102D80000E9456046801CE18DF08D7FC33C0B60194
:102D90008FE695E00E945604E114F10491F5B60126
:102DA00089E695E00E9456048091180290911902DC
:102DB000892B09F070CCE114F10409F46CCC66CCD9
:102DC00085EBE816F1040CF03ECAB7018CE695E0FD
:102DD0000E945604D7FE32CA36CA95EBE916F104B2
:102DE0000CF063CAB7018CE695E00E945604D7FE4A
:102DF00057CA5BCAB7018CE695E0E114F10491F67D
:102E0000CECFB7018CE695E00E945604C8CFA1E270
:102E10001A2EAA1BBB1BFD010DC0AA1FBB1FEE1F54
:102E2000FF1FA217B307E407F50720F0A21BB30B9F
:102E3000E40BF50B661F771F881F991F1A9469F71B
:102E400060957095809590959B01AC01BD01CF0177
:102E50000895052E97FB1EF400940E94401757FD1D
:102E600007D00E94071707FC03D04EF40C944017BC
:102E700050954095309521953F4F4F4F5F4F0895A6
:102E800090958095709561957F4F8F4F9F4F0895D6
:102E90000E945B17A59F900DB49F900DA49F800D7D
:102EA000911D11240895B7FF0C9448170E944817EC
:102EB000821B930B0895A29FB001B39FC001A39FF3
:102EC000700D811D1124911DB29F700D811D112463
:102ED000911D0895991B79E004C0991F961708F079
:102EE000961B881F7A95C9F780950895EE0FFF1FEE
:102EF000881F8BBF0790F691E02D1994F894FFCFAF
:102F000055045504550455045504550455045504F9
:102F1000FFFFFFFF010001000100010000000000B1
:102F20005A02C401F101A7022202000214020D0A92
:102F30000043757272656E743A2042617369632052
:102F40002D20466973740043757272656E743A2061
:102F50004261736963202D20477269700043757266
:102F600072656E743A2050696E63686573202D2017
:102F700050696E63680043757272656E743A2050D2
:102F8000696E63686573202D2050696E63684E6FAB
:102F9000466973740043757272656E743A20547298
:102FA00069706F6473202D20547269706F640043E0
:102FB000757272656E743A20547269706F64732012
:102FC0002D20547269706F64684E6F466973740087
:102FD00043757272656E743A2045787472614772F7
:102FE000697073202D2045787472613100437572C9
:102FF00072656E743A2045787472614772697073B5
:10300000202D20457874726132002E2E2E43686187
:103010006E67696E6720477269702E2E2E005749C1
:103020005448205448554D4200574954484F555430
:10303000205448554D50002E2E2E4C6F636B696EF8
:103040006720536572766F732E2E2E002E2E2E4320
:1030500068616E67696E67204D6F64652E2E2E0065
:103060002E2E2E5368757420646F776E2E2E2E00D0
:10307000564D4450565F317C315F564D4450560A90
:1030800000564D4450525F000A0A21214E657720B8
:1030900073657373696F6E2121004F6E004F666612
:1030A00000616963693F3F0043726574696E756CC6
:1030B000650A006D696C6C69732829202D20707277
:0C30C0006573735F73746F703A2000003A
:020000023000CC
:10E000000D9489F10D94B2F10D94B2F10D94B2F129
:10E010000D94B2F10D94B2F10D94B2F10D94B2F1F0
:10E020000D94B2F10D94B2F10D94B2F10D94B2F1E0
:10E030000D94B2F10D94B2F10D94B2F10D94B2F1D0
:10E040000D94B2F10D94B2F10D94B2F10D94B2F1C0
:10E050000D94B2F10D94B2F10D94B2F10D94B2F1B0
:10E060000D94B2F10D94B2F10D94B2F10D94B2F1A0
:10E070000D94B2F10D94B2F10D94B2F10D94B2F190
:10E080000D94B2F10D94B2F10D94B2F10D94B2F180
:10E090000D94B2F10D94B2F10D94B2F10D94B2F170
:10E0A0000D94B2F10D94B2F10D94B2F10D94B2F160
:10E0B0000D94B2F10D94B2F10D94B2F10D94B2F150
:10E0C0000D94B2F10D94B2F10D94B2F10D94B2F140
:10E0D0000D94B2F10D94B2F10D94B2F10D94B2F130
:10E0E0000D94B2F141546D656761323536300041AF
:10E0F000726475696E6F206578706C6F72657220DE
:10E1000073746B3530305632206279204D4C530099
:10E11000426F6F746C6F616465723E004875683F52
:10E1200000436F6D70696C6564206F6E203D200048
:10E130004350552054797065202020203D20005FF9
:10E140005F4156525F415243485F5F3D2000415658
:10E1500052204C696243205665723D20004743437C
:10E160002056657273696F6E203D20004350552024
:10E1700049442020202020203D20004C6F7720663D
:10E18000757365202020203D20004869676820665F
:10E190007573652020203D200045787420667573D6
:10E1A00065202020203D20004C6F636B2066757336
:10E1B000652020203D20004D617220203720323024
:10E1C000313300312E362E3800342E332E350056A2
:10E1D00023202020414444522020206F7020636F70
:10E1E00064652020202020696E73747275637469E1
:10E1F0006F6E2061646472202020496E74657272B3
:10E20000757074006E6F20766563746F7200726A49
:10E210006D702020006A6D70200057686174207056
:10E220006F72743A00506F7274206E6F7420737541
:10E2300070706F72746564004D7573742062652030
:10E2400061206C6574746572002000577269747483
:10E25000696E672045450052656164696E672045B7
:10E26000450045452065727220636E743D00504F35
:10E27000525400303D5A65726F2061646472003FF1
:10E280003D43505520737461747300403D454550C3
:10E29000524F4D207465737400423D426C696E6B41
:10E2A000204C454400453D44756D70204545505215
:10E2B0004F4D00463D44756D7020464C415348001B
:10E2C000483D48656C70004C3D4C69737420492F83
:10E2D0004F20506F72747300513D51756974005234
:10E2E0003D44756D702052414D00563D73686F7707
:10E2F00020696E7465727275707420566563746FF0
:10E30000727300593D506F727420626C696E6B00BD
:10E310002A0011241FBECFEFD1E2DEBFCDBF01E046
:10E320000CBF12E0A0E0B2E0EEE1FDEF03E00BBFB6
:10E3300002C007900D92A030B107D9F712E0A0E01B
:10E34000B2E001C01D92AE30B107E1F70F9460F367
:10E350000D948DFE01E20EBF0FEF0DBF11241FBE05
:10E360000D9460F30D9400F020E030E040ED57E0B4
:10E3700005C0FA013197F1F72F5F3F4F2817390792
:10E38000C0F308959C01260F311DC901A0E0B0E043
:10E390002F5F3F4FABBFFC018791882361F08093D3
:10E3A000C6008091C00086FFFCCF8091C0008064D1
:10E3B0008093C000EACF08958DE08093C6008091DD
:10E3C000C00086FFFCCF8091C00080648093C000B5
:10E3D0008AE08093C6008091C00086FFFCCF8091C8
:10E3E000C00080648093C00008950F94C2F10F9420
:10E3F000DCF10895FC019081992359F09093C600B7
:10E400008091C00086FFFCCF8091C0008064809323
:10E41000C0003196992379F70895282F982F929567
:10E420009F70892F805D8A3308F0895F8093C600D2
:10E430008091C00086FFFCCF8091C00080648093F3
:10E44000C000822F8F70982F905D9A3308F0995FEB
:10E450009093C6008091C00086FFFCCF8091C000E1
:10E4600080648093C00008959C01FB01853691056E
:10E470001CF46330710594F0C90164E670E00F94F8
:10E480002EFE605D7F4F6093C6008091C00086FFC6
:10E49000FCCF8091C00080648093C0002B30310598
:10E4A00014F43297B4F0C90164E670E00F942EFEC4
:10E4B0006AE070E00F942EFE605D7F4F6093C600AF
:10E4C0008091C00086FFFCCF8091C0008064809363
:10E4D000C000C9016AE070E00F942EFEC0968093E0
:10E4E000C6008091C00086FFFCCF8091C000806490
:10E4F0008093C00008951F93182F8EE692EE60E07F
:10E500000F94C2F11093C6008091C00086FFFCCF2B
:10E510008091C00080648093C0000F94DCF11F9153
:10E5200008952F923F924F925F926F927F928F92B7
:10E530009F92AF92BF92CF92DF92EF92FF920F9392
:10E540001F93DF93CF93CDB7DEB762970FB6F894E2
:10E55000DEBF0FBECDBF382E622ECA01DB015C01CB
:10E560006D01772420E2222E2E010894411C511CBB
:10E570008BC081E0A81680E0B80681E0C80680E084
:10E58000D80628F0C601AA27BB270F940DF2BB2797
:10E59000AD2D9C2D8B2D0F940DF28A2D0F940DF225
:10E5A0002092C6008091C00086FFFCCF8091C00001
:10E5B00080648093C0009DE29093C6008091C0006B
:10E5C00086FFFCCF8091C00080648093C0002092C1
:10E5D000C6008091C00086FFFCCF8091C00080649F
:10E5E0008093C00019828601750188249924A1E0D6
:10E5F0003A1651F03A1620F0B2E03B1661F409C029
:10E600000BBFF701779007C0C7010F9477FE782EF4
:10E6100002C0F7017080872D0F940DF22092C60082
:10E620008091C00086FFFCCF8091C0008064809301
:10E63000C000872D8052F401EF70F0708F3520F408
:10E64000E40DF51D708204C0E40DF51D8EE280839B
:10E650000894E11CF11C011D111D0894811C911CE2
:10E6600090E18916910409F0C2CF80E190E0A0E02A
:10E67000B0E0A80EB91ECA1EDB1E198AC2010F9493
:10E68000FAF10F94DCF16A94662009F072CF629679
:10E690000FB6F894DEBF0FBECDBFCF91DF911F91B3
:10E6A0000F91FF90EF90DF90CF90BF90AF909F9031
:10E6B0008F907F906F905F904F903F902F90089534
:10E6C0002F923F924F925F926F927F928F929F9282
:10E6D000AF92BF92CF92DF92EF92FF920F931F9370
:10E6E000DF93CF93CDB7DEB7CD53D1400FB6F894BB
:10E6F000DEBF0FBECDBF01E20EBF0FEF0DBF94B75F
:10E70000F894A89514BE80916000886180936000A1
:10E7100010926000789493FF05C0E0910002F091A0
:10E7200001021995279A2F9A8091C00082608093E8
:10E73000C00080E18093C40088E18093C1000000A4
:10E74000EE24FF24870144E0A42EB12CCC24DD2448
:10E7500024C0C5010197F1F70894E11CF11C011DCB
:10E76000111D21E2E2162EE4F20620E0020720E06D
:10E77000120718F031E0C32ED12CC801B70127ECE5
:10E780003BE140E050E00F9441FE611571058105C9
:10E79000910519F485B1805885B98091C00087FD35
:10E7A00003C0C114D104A9F2A6014F5F5F4FC25E3E
:10E7B000DE4F59834883CE51D140C25EDE4F8881FF
:10E7C0009981CE51D140019711F00D9410FEC05D9A
:10E7D000DE4F19821882C053D14060E0C15DDE4F28
:10E7E0001882CF52D14088249924C35DDE4F19820C
:10E7F0001882CD52D140C05EDE4F188219821A8233
:10E800001B82C052D140CE5CDE4F188219821A8220
:10E810001B82C253D140EE24FF2487010BBFF701B6
:10E8200007911691C45CDE4F19830883CC53D14005
:10E830000D940BFEC25EDE4F28813981CE51D1404E
:10E840002130310509F52091C600C25EDE4F1982E4
:10E850001882CE51D14022C02F5F3F4F4F4F5F4FA4
:10E86000213082E138078AE7480780E0580780F0C6
:10E87000C45CDE4FE881F981CC53D140EF5FFF4F9C
:10E8800019F0EE27FF27099420E030E040E050E047
:10E890008091C00087FFE0CF2091C600C35DDE4FAE
:10E8A00048815981CD52D1404F5F5F4FC35DDE4FEC
:10E8B00059834883CD52D140213209F063C64A3092
:10E8C000510508F05FC60894811C911C53E0851621
:10E8D000910409F059C600E010E018C081E280936D
:10E8E000C6008091C00086FFFCCF8091C00080648C
:10E8F0008093C0002F5F3F4F2931310579F70F9486
:10E90000DCF10F5F1F4F0530110519F020E030E0FA
:10E91000E5CF10920A0210920B0210920C02109294
:10E920000D02109206021092070210920802109235
:10E930000902109202021092030210920402109235
:10E9400005028FEE90EE60E00F94F5F180E191EE1C
:10E9500060E00F94C2F18091C00087FFFCCF9091DE
:10E96000C600903608F09F759032B8F09093C600BC
:10E970008091C00086FFFCCF8091C00080648093AE
:10E98000C000A0E2A093C6008091C00086FFFCCF2B
:10E990008091C00080648093C000983409F4D7C18E
:10E9A0009934B8F4923409F459C1933458F490333B
:10E9B00019F1903308F4E3C59F33A1F1903409F0C5
:10E9C000DEC5BDC0953409F470C1963409F0D7C5D1
:10E9D00098C1923509F42BC2933538F49C3409F46C
:10E9E000F5C1913509F0CBC518C2963509F445C279
:10E9F000993509F0C4C567C483E792EE62E00F94CD
:10EA0000F5F110920602109207021092080210927D
:10EA1000090210920A0210920B0210920C0210923C
:10EA20000D0213C18FE792EE62E00F94F5F18FEEC5
:10EA300090EE60E00F94F5F181E291EE60E00F94CA
:10EA4000C2F187EB91EE60E00F94F5F180E391EE77
:10EA500060E00F94C2F184EE90EE60E00F94F5F167
:10EA60008FE391EE60E00F94C2F186E090E061E008
:10EA700070E00F9434F20F94DCF18DE591EE60E0DC
:10EA80000F94C2F189EC91EE60E00F94F5F18EE401
:10EA900091EE60E00F94C2F183EC91EE60E00F9490
:10EAA000F5F18CE691EE60E00F94C2F18EE10F94E7
:10EAB0000DF288E90F940DF281E00F940DF20F949E
:10EAC000DCF18BE791EE60E00F94C2F119E0E0E039
:10EAD000F0E010935700E4918E2F0F940DF20F94F5
:10EAE000DCF18AE891EE60E00F94C2F1E3E0F0E03F
:10EAF00010935700E4918E2F0F940DF20F94DCF1D8
:10EB000089E991EE60E00F94C2F1E2E0F0E0109349
:10EB10005700E4918E2F0F940DF20F94DCF188EAE8
:10EB200091EE60E00F94C2F1E1E0F0E01093570045
:10EB30001491812F0F940DF20F94DCF107CF8BE825
:10EB400092EE62E00F94F5F18BE492EE60E00F94A8
:10EB5000F5F10F94DCF100E010E019C0C8016F2D51
:10EB60000F947FFEFF2031F489E492EE60E00F9471
:10EB7000C2F10BC0F092C6008091C00086FFFCCFAE
:10EB80008091C00080648093C0000F5F1F4FC80158
:10EB900081519F41A0E0B0E0ABBFFC01F790BAE229
:10EBA000FB1621F0E2E000301E07C1F60F94DCF105
:10EBB0000F94DCF187E592EE60E00F94F5F10F948D
:10EBC000DCF1CC24DD2400E010E01EC0C8010F946D
:10EBD00077FEF82E882331F489E492EE60E00F94FA
:10EBE000C2F10BC08093C6008091C00086FFFCCFAD
:10EBF0008091C00080648093C000FE1419F00894D6
:10EC0000C11CD11C0F5F1F4FC80181519F41A0E063
:10EC1000B0E0ABBFFC01E790FAE2EF1621F022E092
:10EC20000030120799F60F94DCF10F94DCF182E6C4
:10EC300092EE60E00F94C2F1C60161E070E00F94C3
:10EC400034F20F94DCF10F94DCF110920202109276
:10EC50000302109204021092050278CE89E992EE26
:10EC600062E00F94F5F1279A2F9A16C02F9880E052
:10EC700090E0E0EDF7E03197F1F7019684369105E9
:10EC8000C1F72F9A80E090E0E0EDF7E03197F1F7DF
:10EC9000019684369105C1F78091C00087FFE6CFC9
:10ECA0008091C00087FFFCCF64C485EA92EE62E0E9
:10ECB0000F94F5F140910202509103026091040219
:10ECC0007091050281E020E10F9491F2809102029F
:10ECD00090910302A0910402B091050280509F4FD1
:10ECE000AF4FBF4F8093020290930302A0930402A0
:10ECF000B093050280509041A040B04008F426CE69
:10ED0000A4CF83EB92EE62E00F94F5F140910602FE
:10ED100050910702609108027091090280E020E1A1
:10ED20000F9491F28091060290910702A09108023F
:10ED3000B091090280509F4FAF4FBF4F80930602A2
:10ED400090930702A0930802B0930902FFCD80ECD4
:10ED500092EE62E00F94F5F183E792EE60E00F949B
:10ED6000F5F18FE792EE60E00F94F5F18BE892EE0B
:10ED700060E00F94F5F189E992EE60E00F94F5F10F
:10ED800085EA92EE60E00F94F5F183EB92EE60E09D
:10ED90000F94F5F180EC92EE60E00F94F5F187ECC2
:10EDA00092EE60E00F94F5F188ED92EE60E00F9442
:10EDB000F5F18FED92EE60E00F94F5F18AEE92EEB0
:10EDC00060E00F94F5F183E093EEBDCD87EC92EE19
:10EDD00062E00F94F5F181E40F947BF282E40F94EA
:10EDE0007BF283E40F947BF284E40F947BF285E45E
:10EDF0000F947BF286E40F947BF287E40F947BF20E
:10EE000088E40F947BF28AE40F947BF28BE40F94F6
:10EE10007BF28CE40F947BF299CD88ED92EE62E068
:10EE20000F94F5F1772473948824992409C48FED05
:10EE300092EE62E00F94F5F140910A0250910B02BC
:10EE400060910C0270910D0282E020E10F9491F22A
:10EE500080910A0290910B02A0910C02B0910D02D8
:10EE600080509F4FAF4FBF4F80930A0290930B0289
:10EE7000A0930C02B0930D0269CD8AEE92EE62E08F
:10EE80000F94F5F184EE90EE60E00F94F5F18FECC5
:10EE900091EE60E00F94F5F1662477244301CC5D98
:10EEA000DE4F19821882C452D140D401C301B695F5
:10EEB000A79597958795CA5DDE4F88839983AA8326
:10EEC000BB83C652D140CC5DDE4FA881B981C4520C
:10EED000D1401196CC5DDE4FB983A883C452D14096
:10EEE000CD0162E070E00F9434F2B0E2B093C6005E
:10EEF0008091C00086FFFCCF8091C0008064809329
:10EF0000C000EDE2E093C6008091C00086FFFCCF18
:10EF10008091C00080648093C000F0E2F093C6004E
:10EF20008091C00086FFFCCF8091C00080648093F8
:10EF3000C000CA5DDE4FE880F9800A811B81C6529D
:10EF4000D140BB27A12F902F8F2D0F940DF2CA5DBA
:10EF5000DE4F8881C652D1400F940DF2B0E2FB2EF5
:10EF6000F092C6008091C00086FFFCCF8091C00067
:10EF700080648093C0000DE30093C6008091C000C0
:10EF800086FFFCCF8091C00080648093C00010E2B7
:10EF90001093C6008091C00086FFFCCF8091C00016
:10EFA00080648093C0008BBEF3012791C65DDE4F65
:10EFB0002883CA52D140A22EBB24CC24DD2408943D
:10EFC000611C711C811C911C8BBEF3018791282E42
:10EFD0003324442455240894611C711C811C911C09
:10EFE0008BBEF3013791C55DDE4F3883CB52D140E4
:10EFF0000894611C711C811C911C8BBEF30147910C
:10F00000C45DDE4F4883CC52D140ADEFEA2EAFEF66
:10F01000FA2EAFEF0A2FAFEF1A2F6E0C7F1C801E57
:10F02000911E142D032DF22CEE24EA0CFB1C0C1D5A
:10F030001D1D0F940DF220E22093C6008091C000A8
:10F0400086FFFCCF8091C00080648093C000C65DC5
:10F05000DE4F8881CA52D1400F940DF230E23093D6
:10F06000C6008091C00086FFFCCF8091C000806404
:10F070008093C000C45DDE4F8881CC52D1400F9494
:10F080000DF240E24093C6008091C00086FFFCCFA5
:10F090008091C00080648093C000C55DDE4F888190
:10F0A000CB52D1400F940DF250E25093C6008091A4
:10F0B000C00086FFFCCF8091C00080648093C000B8
:10F0C0008FEFE8168FEFF80680E0080780E018075A
:10F0D00031F484E092EE60E00F94C2F1DFC0D80119
:10F0E000C7018070907CA070B0708050904CA040A0
:10F0F000B040D1F52FEF3FE340E050E0E222F322B1
:10F1000004231523CA5DDE4FA880B980CA80DB8046
:10F11000C652D140AE0CBF1CC01ED11EAA0CBB1CD7
:10F12000CC1CDD1C8EE092EE60E00F94C2F1BB2798
:10F13000A12F902F8F2D0F940DF28E2D0F940DF285
:10F1400030E23093C6008091C00086FFFCCF8091F2
:10F15000C00080648093C0004EE34093C60080915D
:10F16000C00086FFFCCF87C08EE09EEFA0E0B0E03D
:10F17000E822F9220A231B239CE0E91694E9F90608
:10F1800090E0090790E0190709F088C0C45DDE4FE0
:10F19000A881CC52D140EA2EFF2400E010E0102FCD
:10F1A0000F2DFE2CEE24C55DDE4FB881CB52D14031
:10F1B000EB0EF11C011D111DD601C501817090706F
:10F1C000A070B070DC0199278827E80EF91E0A1F8D
:10F1D0001B1F20EF30E040E050E0A222B322C42207
:10F1E000D52241E1AA0CBB1CCC1CDD1C4A95D1F7F1
:10F1F000EA0CFB1C0C1D1D1D81E090E0A0E0B0E0BE
:10F20000282239224A225B2235E1220C331C441C7D
:10F21000551C3A95D1F7E20CF31C041D151D57013E
:10F220006801AA0CBB1CCC1CDD1C85E192EE60E0E1
:10F230000F94C2F1C801AA27BB270F940DF2BB2778
:10F24000A12F902F8F2D0F940DF28E2D0F940DF274
:10F2500090E29093C6008091C00086FFFCCF809121
:10F26000C00080648093C000AEE3A093C60080918C
:10F27000C00086FFFCCF8091C00080648093C000F6
:10F28000C601AA27BB270F940DF2BB27AD2D9C2DDD
:10F290008B2D0F940DF28A2D0F940DF20F94DCF14B
:10F2A000CC5DDE4FE881F981C452D140F99709F471
:10F2B0004DCBF4E0EF2EF12C012D112D6E0C7F1CA7
:10F2C000801E911EF2CD83E093EE62E00F94F5F183
:10F2D0008AE192EE60E00F94C2F18091C00087FF56
:10F2E000FCCF1091C6001F751093C6008091C0001E
:10F2F00086FFFCCF8091C00080648093C0000F9493
:10F30000DCF1812F81548A3108F036C1163409F4BA
:10F3100095C0173490F4133409F44EC0143430F40B
:10F320001134F1F0123409F01DC130C0143409F465
:10F3300059C0153409F016C16BC01A3409F4C4C0A1
:10F340001B3438F4173409F48FC0183409F00AC19B
:10F35000A1C01B3409F4D2C01C3409F003C1E8C0B9
:10F360008FEF81B90DC082B1809582B980E090E0C5
:10F37000E0EDF7E03197F1F70196883C9105C1F790
:10F380008091C00087FFEFCF12B8EFC08FEF84B934
:10F390000DC085B1809585B980E090E0E0EDF7E0A3
:10F3A0003197F1F70196883C9105C1F78091C00033
:10F3B00087FFEFCF15B8D9C08FEF87B90DC088B1DF
:10F3C000809588B980E090E0E0EDF7E03197F1F7C3
:10F3D0000196883C9105C1F78091C00087FFEFCF6F
:10F3E00018B8C3C08FEF8AB90DC08BB180958BB9A7
:10F3F00080E090E0E0EDF7E03197F1F70196883C8E
:10F400009105C1F78091C00087FFEFCF1BB8ADC059
:10F410008FEF8DB90DC08EB180958EB980E090E0F0
:10F42000E0EDF7E03197F1F70196883C9105C1F7DF
:10F430008091C00087FFEFCF1EB897C08FEF80BBD1
:10F440000DC081B3809581BB80E090E0E0EDF7E0F6
:10F450003197F1F70196883C9105C1F78091C00082
:10F4600087FFEFCF11BA81C08FEF83BB0DC084B38C
:10F47000809584BB80E090E0E0EDF7E03197F1F714
:10F480000196883C9105C1F78091C00087FFEFCFBE
:10F4900014BA6BC08FEF809301010FC080910201FD
:10F4A00080958093020180E090E0E0EDF7E03197F5
:10F4B000F1F70196883C9105C1F78091C00087FF64
:10F4C000EDCF1092020151C08FEF809304010FC065
:10F4D0008091050180958093050180E090E0E0ED4A
:10F4E000F7E03197F1F70196883C9105C1F78091DB
:10F4F000C00087FFEDCF1092050137C08FEF8093DA
:10F5000007010FC08091080180958093080180E079
:10F5100090E0E0EDF7E03197F1F70196883C910536
:10F52000C1F78091C00087FFEDCF109208011DC088
:10F530008FEF80930A010FC080910B01809580931B
:10F540000B0180E090E0E0EDF7E03197F1F70196F4
:10F55000883C9105C1F78091C00087FFEDCF1092E4
:10F560000B0103C085E292EEEEC98091C00087FFD7
:10F57000FCCF8091C600EAC988E392EEE4C98CE131
:10F5800091EEE1C988249924933011F1943028F444
:10F59000913089F09230B8F408C0953061F195301F
:10F5A000F0F0963009F048C043C02B3109F042C951
:10F5B00091E06BE13FC96227C15DDE4F2883CF52E6
:10F5C000D14092E037C9B22FA0E0622793E032C960
:10F5D000822F90E0A82BB92B622794E02BC92E3004
:10F5E00009F039C3622795E0C05DDE4F19821882A9
:10F5F000C053D1401FC9E1E0F0E0EC0FFD1FC05D3A
:10F60000DE4F08811981C053D140E00FF11F2083E4
:10F610000F5F1F4FC05DDE4F19830883C053D14079
:10F6200062270A171B0709F005C9D80196E002C92D
:10F63000261709F010C303C0973009F0FBC87724E0
:10F640009981933109F412C19431C8F4963009F4C8
:10F65000D8C0973050F4923009F406C1933009F4C1
:10F660006DC0913009F059C253C0913109F477C08F
:10F67000923108F0BBC0903109F04FC2F5C098310B
:10F6800009F487C0993150F4953109F4EFC09531F0
:10F6900008F4C6C1963109F040C2C2C19A3109F4DA
:10F6A0006CC09A3108F491C09B3109F45BC09D3164
:10F6B00009F033C29D81903359F48F81882311F46E
:10F6C0009EE11CC0813011F091E018C098E916C08D
:10F6D000892F807591F0903539F4E0E0F0E089E011
:10F6E0008093570094910AC0983539F4E3E0F0E034
:10F6F00089E080935700949101C090E01A821B82A8
:10F700008D818C831D829E831F8227E030E009C299
:10F710001A8288E08B8381E48C8386E58D8382E581
:10F720008E8389E48F8383E5888780E589878FE5E9
:10F730008A8782E38B872BE030E0F3C18A818139AD
:10F7400041F0823941F0803911F48FE005C080E04A
:10F7500003C082E001C08AE01A828B8344C0772410
:10F76000739482C08D81882311F48EE12CC0813086
:10F7700011F081E028C088E926C01A82E1E0F0E0BB
:10F7800089E08093570084918B831C8224E030E0D1
:10F79000C8C18B81803589F48C81883039F4E2E0EE
:10F7A000F0E089E08093570084910DC0E0E0F0E044
:10F7B00089E080935700849106C0E3E0F0E089E09F
:10F7C0008093570084911A82DFCF8D81836C99E0FA
:10F7D000E1E0F0E0082E90935700E89507B600FCB2
:10F7E000FDCF1A821B8223E030E09BC180EC8A832C
:10F7F000CE5CDE4F188219821A821B82C253D1401E
:10F800008EC18A8190E0A0E0B0E0582F44273327D2
:10F8100022278B8190E0A0E0B0E0DC0199278827C7
:10F82000282B392B4A2B5B2B8D8190E0A0E0B0E098
:10F83000282B392B4A2B5B2B8C8190E0A0E0B0E089
:10F84000BA2FA92F982F8827282B392B4A2B5B2BCF
:10F85000220F331F441F551FC05EDE4F288339839C
:10F860004A835B83C052D1401A8259C13A81C95C34
:10F87000DE4F3883C753D140CA5CDE4F1882C6536F
:10F88000D1408B81C82EDD24CA5CDE4F488159816E
:10F89000C653D140C42AD52A933109F082C0CE5C28
:10F8A000DE4F88819981AA81BB81C253D1408050AB
:10F8B000904CA340B04030F583E0CE5CDE4FE88052
:10F8C000F9800A811B81C253D140F70100935B008C
:10F8D00080935700E89507B600FCFDCFCE5CDE4F65
:10F8E000088119812A813B81C253D14000501F4FAA
:10F8F0002F4F3F4FCE5CDE4F088319832A833B8313
:10F90000C253D140C05EDE4F488159816A817B81FC
:10F91000C052D140DE011B9631E08C9111962C91A2
:10F9200011971296C75CDE4F2883C953D140C85C3B
:10F93000DE4F1882C853D14090E0C85CDE4FE881AA
:10F94000F981C853D1408E2B9F2B0C01FA01609393
:10F950005B0030935700E89511244E5F5F4F6F4F67
:10F960007F4F0EEFE02E0FEFF02ECE0CDF1CC114F8
:10F97000D10499F685E0C05EDE4F088119812A81A5
:10F980003B81C052D140F80120935B008093570027
:10F99000E89507B600FCFDCF81E180935700E8951C
:10F9A00035C0C05EDE4F88819981AA81BB81C0527B
:10F9B000D140B695A795979587957C018601ABE0D8
:10F9C000AA2EB12CAC0EBD1E0BC0D5016D915D01F0
:10F9D000C7010F947FFE0894E11CF11C01501040F8
:10F9E0000115110591F7A60160E070E0440F551F65
:10F9F000661F771FC05EDE4FE880F9800A811B8199
:10FA0000C052D1404E0D5F1D601F711F1A82C05E33
:10FA1000DE4F488359836A837B83C052D1407FC0C5
:10FA2000FA80C55CDE4FF882CB53D140C65CDE4F16
:10FA30001882CA53D1408B81C82EDD24C65CDE4FAC
:10FA400008811981CA53D140C02AD12A1A828981DA
:10FA5000BE016D5F7F4F843121F59601C05EDE4FA0
:10FA6000E880F9800A811B81C052D1400BBFF701A9
:10FA700087919691DB018C9311969C936E5F7F4FDB
:10FA8000D801C7010296A11DB11DC05EDE4F88835B
:10FA90009983AA83BB83C052D14022503040F1F6F3
:10FAA00036C0C05EDE4F288139814A815B81C052F9
:10FAB000D1400894C108D108760100E010E0089414
:10FAC000C11CD11C0894E11CF11C011D111DE20E8A
:10FAD000F31E041F151F21BDBB27A52F942F832FB5
:10FAE00082BD2F5F3F4F4F4F5F4FF89A80B5DB01CC
:10FAF0008D93BD012E153F054007510761F7C05E8C
:10FB0000DE4F288339834A835B83C052D1409601FC
:10FB10002D5F3F4FFB01108204C080EC8A8322E0FE
:10FB200030E08BE18093C6008091C00086FFFCCF5F
:10FB30008091C00080648093C000C15DDE4FF88179
:10FB4000CF52D140F093C6008091C00086FFFCCF19
:10FB50008091C00080648093C000432F3093C60022
:10FB60008091C00086FFFCCF8091C00080648093AC
:10FB7000C000922F2093C6008091C00086FFFCCF6A
:10FB80008091C00080648093C0008EE08093C600A6
:10FB90008091C00086FFFCCF8091C000806480937C
:10FBA000C00065E1C15DDE4FE880CF52D1406E25D7
:10FBB00069276427FE01319610C090819093C6009A
:10FBC0008091C00086FFFCCF31968091C000806498
:10FBD0008093C0006927215030402115310569F715
:10FBE0006093C6008091C00086FFFCCF8091C0006A
:10FBF00080648093C00085B1805885B9772081F4F6
:10FC0000C15DDE4F0881CF52D1400F5FC15DDE4F35
:10FC10000883CF52D14090E0A0E0B0E00D941AF4F8
:10FC200027982F9880E090E020ED37E0F901319798
:10FC3000F1F7019684369105C9F700008091C00064
:10FC40008D7F8093C00081E180935700E895EE2777
:10FC5000FF270994FFCF90E00D941AF497FB092E2B
:10FC600007260AD077FD04D02ED006D000201AF443
:10FC7000709561957F4F0895F6F7909581959F4F08
:10FC80000895A1E21A2EAA1BBB1BFD010DC0AA1FDD
:10FC9000BB1FEE1FFF1FA217B307E407F50720F0F5
:10FCA000A21BB30BE40BF50B661F771F881F991F70
:10FCB0001A9469F760957095809590959B01AC01B9
:10FCC000BD01CF010895AA1BBB1B51E107C0AA1FAC
:10FCD000BB1FA617B70710F0A61BB70B881F991FED
:10FCE0005A95A9F780959095BC01CD010895F99991
:10FCF000FECF92BD81BDF89A992780B50895262F31
:10FD0000F999FECF1FBA92BD81BD20BD0FB6F89400
:0EFD1000FA9AF99A0FBE01960895F894FFCF63
:040000033000E000E9
:00000001FF