:100000000C9467010C94BA0B0C948F0B0C94640B3A
:100010000C94390B0C940E0B0C94E30A0C94B80A54
:100020000C948D0A0C9498010C9498010C949801EE
:100030000C9498010C9498010C9498010C949801DC
:100040000C9498010C946F0C0C9498010C949801EA
:100050000C9498010C9498010C9498010C94430A08
:100060000C9498010C940D0A0C94E3090C949801DB
:100070000C9498010C9498010C9498010C9498019C
:100080000C94410C0C9498010C9498010C949801D8
:100090000C9498010C9498010C9498010C9498017C
:1000A0000C9498010C9498010C94130C0C949801E6
:1000B0000C9498010C9498010C9498010C94E50B05
:1000C0000C9498010C9498010C9498010C9498014C
:1000D0000C9498010C9498010C9498010C9498013C
:1000E0000C9498010C942F030C9454030C94EF017E
:1000F0000C94780F0C9447030C9452150C94C20185
:100100000C94E8140C94370F0C9453040C946C105A
:100110000C9414150C945F120C94F2100C9413129E
:100120000C9412020C9455030C94FE010C943303AE
:100130000C9458020C9490150C94C7110C943D0328
:100140000C9471150C94AF150C9426030C94871223
:100150000C94B90F0C944B030C9449110C941E038E
:100160000C944F030C9488110C94A7130C94BF109B
:100170000C9414030C9459030C9441030C94B80C84
:100180000C9439030C9420020C94A5020C94491091
:100190000C9433150C9422030C94E40E0C9401106F
:1001A0000C94B60E0C9429030C941A030000210041
:1001B000240027002A002D00300033000101000038
:1001C000040107010A0100002200250028002B007D
:1001D0002E003100340002010000050108010B016E
:1001E000000020002300260029002C002F003200F0
:1001F00000010000030106010901050505050705C9
:1002000008080808020202020A0A08080404040492
:1002100001010101010101010303030303030303BE
:10022000040707070C0C0C0C0C0C0C0C020202024D
:1002300006060606060606060B0B0B0B0B0B0B0B36
:1002400001021020200808102040102040800201E8
:1002500002010804020101020408102040808040CD
:1002600020100804020180040201804020100804CC
:10027000020108040201010204081020408001026A
:1002800004081020408000000A0B02090C0D0E0823
:10029000070304010000000000000000000000004F
:1002A000000000000000000000000000000000004E
:1002B000000012111000000000000000000000000B
:1002C000000000000000000000000000B80C112435
:1002D0001FBECFEFD1E2DEBFCDBF00E00CBF13E009
:1002E000A0E0B2E0E2E8FEE200E00BBF02C007904F
:1002F0000D92AC3CB107D9F725E0ACECB3E001C0FE
:100300001D92A837B207E1F711E0C7E6D1E000E09F
:1003100006C021970109802FFE010E943717C636BB
:10032000D10780E00807A9F70E940A0D0C943F1737
:100330000C940000E6E8F4E0A089B18982E08C9397
:10034000A485B5851C92A685B7858FEC8C93108EFD
:10035000A489B58986E08C93A289B3898C91806148
:100360008C93A289B3898C9188608C93A289B3897C
:100370008C9180688C930288F389E02D80818F7D39
:1003800080830895AF92BF92CF92DF92EF92FF9257
:100390000F931F93CF93DF936C017B018B01040FAD
:1003A000151FEB015E01AE18BF08C017D10759F049
:1003B0006991D601ED91FC910190F081E02DC6018B
:1003C0001995892B79F7C501DF91CF911F910F9175
:1003D000FF90EF90DF90CF90BF90AF900895FC0119
:1003E000538D448D252F30E0842F90E0821B930B9A
:1003F000541710F0CF96089501970895FC01918D40
:10040000828D981761F0A28DAE0FBF2FB11D5D9642
:100410008C91928D9F5F9F73928F90E008958FEFE4
:100420009FEF0895FC01918D828D981731F0828D98
:10043000E80FF11D858D90E008958FEF9FEF0895EF
:10044000FC01918D228D892F90E0805C9F4F821B53
:1004500091098F739927089586E894E00E942002FD
:1004600021E0892B09F420E0822F0895FC01A48D5E
:10047000A80FB92FB11DA35ABF4F2C91848D90E0C6
:1004800001968F739927848FA689B7892C93A089A9
:10049000B1898C91837080648C93938D848D981333
:1004A00006C00288F389E02D80818F7D80830895C6
:1004B000EF92FF920F931F93CF93DF93EC0181E0B4
:1004C000888F9B8D8C8D98131AC0E889F98980815B
:1004D00085FF15C09FB7F894EE89FF896083E8898E
:1004E000F98980818370806480839FBF81E090E080
:1004F000DF91CF911F910F91FF90EF900895F62E0D
:100500000B8D10E00F5F1F4F0F731127E02E8C8DA6
:100510008E110CC00FB607FCFACFE889F9898081EB
:1005200085FFF5CFCE010E943602F1CFEB8DEC0FA7
:10053000FD2FF11DE35AFF4FF0829FB7F8940B8F08
:10054000EA89FB8980818062CFCFCF93DF93EC0172
:10055000888D8823B9F0AA89BB89E889F9898C91AB
:1005600085FD03C0808186FD0DC00FB607FCF7CF67
:100570008C9185FFF2CF808185FFEDCFCE010E9467
:100580003602E9CFDF91CF91089580E090E0892B8A
:1005900029F00E942C0281110E94000080E090E06E
:1005A000892B49F080E090E0892B29F00E9400001F
:1005B00081110E94000080E090E0892B49F080E0EA
:1005C00090E0892B29F00E94000081110E94000018
:1005D00080E090E0892B49F080E090E0892B29F0C1
:1005E0000E94000081110C94000008958150823116
:1005F00008F05AC0E82FF0E08827EE5FFC4F8F4FDD
:100600000C9437172203260314031A031E03540302
:1006100029032F03330339033D03410347034B03EE
:1006200054034F0355035903809180008F778093C3
:1006300080000895809180008F7DF9CF80918000A7
:10064000877FF5CF84B58F7784BD089584B58F7D7E
:10065000FBCF8091B0008F778093B0000895809198
:10066000B0008F7DF9CF809190008F7780939000BC
:100670000895809190008F7DF9CF80919000877FC1
:10068000F5CF8091A0008F778093A000089580918E
:10069000A0008F7DF9CF8091A000877FF5CF80915A
:1006A00020018F77809320010895809120018F7D14
:1006B000F9CF80912001877FF5CFCF93DF93282F4B
:1006C00030E0F901EA57FD4F8491F901E05CFD4FFC
:1006D000D491F901E650FE4FC491CC23A1F08111D1
:1006E0000E94F602EC2FF0E0EE0FFF1FE052FE4FEB
:1006F000A591B491EC91ED2381E090E009F480E0C4
:10070000DF91CF91089580E090E0FACF1F93CF93CF
:10071000DF93282F30E0F901EA57FD4F8491F9016A
:10072000E05CFD4FD491F901E650FE4FC491CC231B
:10073000A9F0162F81110E94F602EC2FF0E0EE0FC7
:10074000FF1FEA53FE4FA591B4918FB7F894EC9137
:10075000111108C0D095DE23DC938FBFDF91CF91BC
:100760001F910895DE2BF8CFCF93DF9390E0FC012B
:10077000E05CFD4F249186509E4FFC0184918823BC
:10078000C9F090E0880F991FFC01E455FE4FA59138
:10079000B491FC01EA53FE4FC591D49161110DC093
:1007A0009FB7F8948C91209582238C93888128237D
:1007B00028839FBFDF91CF910895623051F49FB796
:1007C000F8943C91822F809583238C93E8812E2B83
:1007D000EFCF8FB7F894EC912E2B2C938FBFEACFED
:1007E0003FB7F8948091680490916904A0916A04DD
:1007F000B0916B0426B5A89B05C02F3F19F0019658
:10080000A11DB11D3FBFBA2FA92F982F8827BC016A
:10081000CD01620F711D811D911D42E0660F771F92
:10082000881F991F4A95D1F708958F929F92AF9292
:10083000BF92CF92DF92EF92FF924B015C010E9438
:10084000F0036B017C010E94F0036C197D098E0995
:100850009F09683E734081059105A8F321E0821A43
:100860009108A108B10888EEC80E83E0D81EE11CEB
:10087000F11C81149104A104B10429F7FF90EF90B9
:10088000DF90CF90BF90AF909F908F9008952FB73B
:10089000F89460916404709165048091660490916D
:1008A00067042FBF08950895CF92DF92EF92FF92D1
:1008B000CF93DF93EC01603282E07807CCF5653BA3
:1008C000710514F064EB70E0898128E830E0281BA2
:1008D000310987FD3395220F331F220F331F690122
:1008E000330FEE08FF088A8128E532E0281B310922
:1008F00087FD3395220F331F220F331F032E000C69
:10090000440B550B2C193D094E095F09DB0177FF9C
:1009100002C0B0E0A0E00E94141724EB30E040E0F9
:1009200050E00E94EA16C20ED31EE41EF51EB60168
:10093000E881E03370F5298188E890E0821B910915
:1009400027FD9395880F991F880F991F68177907BE
:100950007CF02A8188E592E0821B910927FD93951E
:10096000880F991F880F991F681779070CF4CB011E
:100970000297880F991F4FB7F8942E2F30E0F90196
:10098000EE0FFF1FE20FF31FED52FC4F92838183A6
:100990004FBFDF91CF91FF90EF90DF90CF90089500
:1009A0001F93CF93DF93EC01162F8881803308F0DB
:1009B0004EC061E0812F0E94B4038881282F30E06F
:1009C000F901EE0FFF1FE20FF31FED52FC4F1F73F3
:1009D0006081607C612B608319821A822CE0622F17
:1009E0000E942B17829FB001112430E020E0AB0160
:1009F000420F531FFA01EE0FFF1FE40FF51FED52D8
:100A0000FC4F908196FD16C02F5F3F4F2C30310573
:100A100071F7813009F51092800082E080938100A7
:100A20001092850010928400B19A80916F008260CC
:100A300080936F00E8818E2F90E0FC01EE0FFF1F86
:100A4000E80FF91FED52FC4F80818064808388811C
:100A5000DF91CF911F910895823061F41092900040
:100A600080939100109295001092940088BB80931F
:100A70007100E0CF833069F41092A00082E080938F
:100A8000A1001092A5001092A40089BB809372006F
:100A9000D1CF8111CFCF1092200182E0809321012C
:100AA00010922501109224018ABB80937300C2CF5B
:100AB000AF92BF92CF92DF92EF92FF920F931F936C
:100AC000CF93DF936B017A01EC01C253DC4F288195
:100AD0003CE0389F8001399F100D1124A090D20373
:100AE000B12C27FF1FC0FB011182108288818F5F0C
:100AF000888388819801280F311D87FD3A95F6017A
:100B00002A153B051CF488818C30C4F180819181C9
:100B1000049680349C4908F473C0F6018081918169
:100B2000049670C088819801280F311D87FD3A9581
:100B30002A153B05DCF68881A801480F511D87FD69
:100B40005A95FA01EE0FFF1FE40FF51FED52FC4F0F
:100B5000808186FFCBCF8881F801E80FF11D87FDEA
:100B6000FA95CF01EE0FFF1FE80FF91FED52FC4F72
:100B7000808160E08F730E948603B8CF808191816D
:100B80002881A801420F511D27FD5A959A01FA01AB
:100B9000EE0FFF1FE20FF31FED52FC4F2181328158
:100BA000820F931FF7019183808388819801280F1A
:100BB000311D87FD3A95F901EE0FFF1FE20FF31F7C
:100BC000ED52FC4F808186FF22C08881080F111DE5
:100BD00087FD1A95F801EE0FFF1FE00FF11FED5290
:100BE000FC4F808161E08F73DF91CF911F910F9156
:100BF000FF90EF90DF90CF90BF90AF900C94860362
:100C000080E49CE9F701918380838FEF8883DF91F3
:100C1000CF911F910F91FF90EF90DF90CF90BF90F9
:100C2000AF900895CF93DF93EC0161E08EE10E94D5
:100C3000860361E08FE10E94860361E080E20E940A
:100C4000860361E081E20E94860360E080E2C130B9
:100C5000D10541F08FE1C230D10521F08EE1CD2BDD
:100C600009F081E2DF91CF910C948603833509F47A
:100C70007DC0D4F5853409F4DFC0FCF4813309F478
:100C8000C9C0813409F468C0803309F001C161E052
:100C900086E10E94860361E087E10E94860361E0AD
:100CA00088E10E94860361E089E10E94860361E099
:100CB0008AE10E94860361E086C08C3409F4C6C0D4
:100CC000803509F465C0863409F0E2C061E086E150
:100CD0000E94860360E087E10E94860360E088E16D
:100CE0000E94860360E02BC0893609F457C054F493
:100CF0008236C1F0833609F4C1C0883509F0C8C016
:100D000060E02BC08F3609F4ABC024F48E3609F4B2
:100D100061C00895823709F473C060E0843709F434
:100D20008CC0089560E086E10E94860360E087E160
:100D30000E94860361E088E10E94860361E089E108
:100D40000E94860361E08AE10E94860361E08BE1F4
:100D50000E94860361E03BC061E086E10E94860359
:100D600061E087E10E94860361E0B9CF61E086E13E
:100D70000E94860360E087E10E94860361E088E1CB
:100D80000E94860361E089E10E94860360E0DBCF78
:100D900061E086E10E94860361E09DCF60E086E12C
:100DA0000E94860360E087E10E94860360E088E19C
:100DB0000E94860360E089E10E94860361E08AE187
:100DC0000E94860360E08BE10E94860360E08CE174
:100DD0000C94860360E086E10E94860360E087E170
:100DE0000E94860361E088E10E94860360E089E159
:100DF0000E94860361E08AE10E94860360E0A7CF3B
:100E000060E086E10E94860360E087E10E9486033D
:100E100060E0E9CF60E086E10E94860361E087E15F
:100E20000E94860361E088E10E94860360E089E118
:100E30000E94860360E0C3CF61E086E10E948603E2
:100E400060E087E10E94860360E075CF60E086E1A4
:100E50000E94860360E087E10E94860360E020CF65
:100E600060E086E10E94860360E087E10E948603DD
:100E700061E088E10E94860361E0B9CF60E086E12D
:100E80000E94860360E087E10E94860360E0F1CF64
:100E900008950F931F93CF93DF9384EB90E090938B
:100EA0007F0480937E0404EB10E0C0917E04D09117
:100EB0007F041C161D069CF4B8016C1B7D0B89E693
:100EC00095E00E94540465E070E080E090E00E94AC
:100ED00015042197D0937F04C0937E04E6CFDF9161
:100EE000CF911F910F9108950F931F93CF93DF938D
:100EF00010927F0410927E0404EB10E0C0917E04F7
:100F0000D0917F04C43BD1059CF4B8016C1B7D0BD0
:100F100089E695E00E94540465E070E080E090E08E
:100F20000E9415042196D0937F04C0937E04E6CFDF
:100F3000DF91CF911F910F910895CF93DF9384EBB1
:100F400090E090937F0480937E04C0917E04D091C2
:100F50007F041C161D068CF4BE018CE695E00E94F1
:100F6000540465E070E080E090E00E941504219751
:100F7000D0937F04C0937E04E8CFDF91CF91089592
:100F8000CF93DF9310927F0410927E04C0917E0471
:100F9000D0917F04C43BD1058CF4BE018CE695E072
:100FA0000E94540465E070E080E090E00E94150427
:100FB0002196D0937F04C0937E04E8CFDF91CF9138
:100FC0000895FC0101900020E9F73197AF01481B1B
:100FD000590BBC0186E894E00C94C201CF93DF93D7
:100FE0000E94E107EC018EE292E00E94E1078C0F83
:100FF0009D1FDF91CF9108958091CC039091CD03F7
:1010000081309105B9F030F08230910519F10397E4
:1010100089F1089580916C0490916D04009719F006
:10102000019729F0089581E392E00C94EE0787E49C
:1010300092E0FBCF80916C0490916D048230910519
:1010400019F0039721F008958DE592E0EECF86E741
:1010500092E0EBCF80916C0490916D048430910507
:1010600019F0059721F0089585E992E0DECF8FEA27
:1010700092E0DBCF80916C0490916D0486309105F5
:1010800019F0079721F0089580ED92E0CECF8DEE14
:1010900092E0CBCF0F931F93CF93DF93809179048E
:1010A000813009F455C18091720490917304845683
:1010B00091098438934020F580918004811120C0EB
:1010C0008AE093E00E94EE0780911A0290911B0241
:1010D000009709F480C08130910581F420911802B5
:1010E000309119022130310509F06EC010921902B9
:1010F000109218028EE193E00E94EE070E94FC0716
:101100008091720490917304885E9340803D974073
:10111000B8F487E393E00E94EE070E9447047093BF
:101120007B0460937A0482E090E090937D04809346
:101130007C0480918004811105C181E0809380044A
:101140008091720490917304885B9B40803D97402E
:10115000A8F480918004811111C08CE493E00E9476
:10116000EE0780911A0290911B028130910509F4DB
:10117000ECC0019690931B0280931A028091720436
:10118000909173048838934144F0809180048111D8
:1011900004C080E693E00E94EE071092780410925B
:1011A0007904109271041092700410926F041092DE
:1011B0006E048FEF9FEF9093110280931002DF91E6
:1011C000CF911F910F910895909319028093180267
:1011D00089E293E091CF8091CC039091CD0381304F
:1011E000910541F190F08230910509F485C0039793
:1011F00009F084CF80916C0490916D048630910544
:1012000009F09AC087E090E008C080916C0490914A
:101210006D04009739F481E090E090936D04809321
:101220006C046CCF019709F069CF10926D04109295
:101230006C0464CF80916C0490916D0482309105B0
:1012400059F583E090E090936D0480936C040E94C4
:1012500074070E94C00710927F0410927E0404EB72
:1012600010E0C0917E04D0917F04C43BD1050CF006
:1012700045CFB8016C1B7D0B8FE695E00E945404AE
:1012800065E070E080E090E00E9415042196D09324
:101290007F04C0937E04E5CF039709F02FCF82E04F
:1012A00090E090936D0480936C040E9449070E9423
:1012B0009D0784EB90E090937F0480937E0404EB81
:1012C00010E0C0917E04D0917F041C161D060CF026
:1012D00015CFB8016C1B7D0B8FE695E00E9454047E
:1012E00065E070E080E090E00E9415042197D093C3
:1012F0007F04C0937E04E5CF80916C0490916D04CF
:101300008430910559F485E090E090936D048093CA
:101310006C040E9474070E94C007F0CE059709F084
:10132000EDCE84E090E090936D0480936C040E9475
:1013300049070E949D07E2CE079709F0DFCE86E0BD
:1013400090E06BCF10928004FBCE90E080E012CF53
:1013500080918004811121CF80911A0290911B020B
:10136000892B09F01ACF8091CC039091CD03833063
:10137000910549F41092CD031092CC0310926D04A4
:1013800010926C040BC001969093CD038093CC0314
:101390008130910571F02CF4892B81F30E94FC07B8
:1013A000FCCE8230910561F00397C1F786E090E0B2
:1013B00002C082E090E090936D0480936C04EECFC5
:1013C00084E090E0F8CF1F920F920FB60F92112495
:1013D0000BB60F922F933F934F935F936F937F932F
:1013E0008F939F93AF93BF93EF93FF9386E894E01F
:1013F0000E943602FF91EF91BF91AF919F918F9123
:101400007F916F915F914F913F912F910F900BBE04
:101410000F900FBE0F901F9018951F920F920FB64E
:101420000F9211240BB60F922F938F939F93EF93EC
:10143000FF93E0919604F09197048081E0919C04E1
:10144000F0919D0482FD1DC0908180919F048F5F6B
:101450008F732091A004821741F0E0919F04F0E087
:10146000EA57FB4F958F80939F04FF91EF919F91D7
:101470008F912F910F900BBE0F900FBE0F901F906A
:1014800018958081F2CF1F920F920FB60F92112400
:101490002F933F938F939F93AF93BF938091640457
:1014A00090916504A0916604B09167043091630443
:1014B00023E0230F2D3758F50196A11DB11D209370
:1014C00063048093640490936504A0936604B093CE
:1014D00067048091680490916904A0916A04B091B6
:1014E0006B040196A11DB11D80936804909369045B
:1014F000A0936A04B0936B04BF91AF919F918F91B9
:101500003F912F910F900FBE0F901F90189526E8D6
:10151000230F0296A11DB11DD2CF1F920F920FB6BD
:101520000F9211240BB60F922F933F934F935F931B
:101530006F937F938F939F93AF93BF93EF93FF939B
:10154000E0910E02F0910F021995FF91EF91BF917A
:10155000AF919F918F917F916F915F914F913F914B
:101560002F910F900BBE0F900FBE0F901F901895EC
:101570001F920F920FB60F9211240BB60F922F935A
:101580003F934F935F936F937F938F939F93AF930B
:10159000BF93EF93FF93E0910C02F0910D02199528
:1015A000FF91EF91BF91AF919F918F917F916F913B
:1015B0005F914F913F912F910F900BBE0F900FBEF7
:1015C0000F901F9018951F920F920FB60F92112433
:1015D0000BB60F922F933F934F935F936F937F932D
:1015E0008F939F93AF93BF93EF93FF93E09102028A
:1015F000F09103021995FF91EF91BF91AF919F91E7
:101600008F917F916F915F914F913F912F910F90AB
:101610000BBE0F900FBE0F901F9018951F920F9248
:101620000FB60F9211240BB60F922F933F934F9347
:101630005F936F937F938F939F93AF93BF93EF933A
:10164000FF93E0910002F09101021995FF91EF9153
:10165000BF91AF919F918F917F916F915F914F91CA
:101660003F912F910F900BBE0F900FBE0F901F90C8
:1016700018951F920F920FB60F9211240BB60F926E
:101680002F933F934F935F936F937F938F939F938A
:10169000AF93BF93EF93FF93E0910A02F0910B0297
:1016A0001995FF91EF91BF91AF919F918F917F918C
:1016B0006F915F914F913F912F910F900BBE0F90C3
:1016C0000FBE0F901F9018951F920F920FB60F929A
:1016D00011240BB60F922F933F934F935F936F9309
:1016E0007F938F939F93AF93BF93EF93FF93E0917B
:1016F0000802F09109021995FF91EF91BF91AF9106
:101700009F918F917F916F915F914F913F912F9119
:101710000F900BBE0F900FBE0F901F9018951F9249
:101720000F920FB60F9211240BB60F922F933F9387
:101730004F935F936F937F938F939F93AF93BF93D9
:10174000EF93FF93E0910602F09107021995FF9144
:10175000EF91BF91AF919F918F917F916F915F9129
:101760004F913F912F910F900BBE0F900FBE0F9096
:101770001F9018951F920F920FB60F9211240BB65F
:101780000F922F933F934F935F936F937F938F931A
:101790009F93AF93BF93EF93FF93E0910402F09177
:1017A00005021995FF91EF91BF91AF919F918F9194
:1017B0007F916F915F914F913F912F910F900BBE51
:1017C0000F900FBE0F901F9018951F920F920FB69B
:1017D0000F9211240BB60F922F933F934F935F9369
:1017E0006F937F938F939F93AF93BF93EF93FF93E9
:1017F00048E251E064E271E090E080E00E94580528
:10180000FF91EF91BF91AF919F918F917F916F91D8
:101810005F914F913F912F910F900BBE0F900FBE94
:101820000F901F9018951F920F920FB60F921124D0
:101830000BB60F922F933F934F935F936F937F93CA
:101840008F939F93AF93BF93EF93FF9348EA50E03A
:1018500064EA70E083E090E00E945805FF91EF9108
:10186000BF91AF919F918F917F916F915F914F91B8
:101870003F912F910F900BBE0F900FBE0F901F90B6
:1018800018951F920F920FB60F9211240BB60F925C
:101890002F933F934F935F936F937F938F939F9378
:1018A000AF93BF93EF93FF9348E950E064E970E092
:1018B00082E090E00E945805FF91EF91BF91AF91B7
:1018C0009F918F917F916F915F914F913F912F9158
:1018D0000F900BBE0F900FBE0F901F9018951F9288
:1018E0000F920FB60F9211240BB60F922F933F93C6
:1018F0004F935F936F937F938F939F93AF93BF9318
:10190000EF93FF9348E850E064E870E081E090E0F6
:101910000E945805FF91EF91BF91AF919F918F91D8
:101920007F916F915F914F913F912F910F900BBEDF
:101930000F900FBE0F901F901895FC019091D2034D
:10194000903398F481E0890F8093D2039083892F9C
:1019500090E0FC01EE0FFF1FE80FF91FED52FC4F66
:1019600088EB9BE09283818308958FEF80830895B5
:10197000E6E8F4E01382128288EE93E0A0E0B0E0A3
:1019800084839583A683B78380E292E091838083EA
:1019900085EC90E09587848784EC90E09787868734
:1019A00080EC90E0918B808B81EC90E0938B828B2C
:1019B00082EC90E0958B848B86EC90E0978B868B05
:1019C000118E128E138E148EE3E2F5E016821782CA
:1019D000108611861286138614861586168617863B
:1019E000108A118A128A138A148A158A85E795E06B
:1019F0000E949D0C82E795E00E949D0C8FE695E089
:101A00000E949D0C8CE695E00E949D0C89E695E075
:101A10000C949D0CCF93DF93CDB7DEB7A1970FB693
:101A2000F894DEBF0FBECDBF789484B5826084BDCC
:101A300084B5816084BD85B5826085BD85B58160D2
:101A400085BD80916E00816080936E001092810050
:101A5000809181008260809381008091810081600B
:101A600080938100809180008160809380008091CC
:101A7000B10084608093B1008091B0008160809358
:101A8000B0008091910082608093910080919100DC
:101A9000816080939100809190008160809390009C
:101AA0008091A10082608093A1008091A10081605B
:101AB0008093A1008091A00081608093A00080911C
:101AC00021018260809321018091210181608093B6
:101AD00021018091200181608093200180917A0012
:101AE000846080937A0080917A00826080937A008B
:101AF00080917A00816080937A0080917A0080687A
:101B000080937A001092C1001092650510926605CC
:101B1000109267051092680510922505109226050F
:101B200010922705109228050E9447046B017C0142
:101B30004B015C0128EB820E2BE0921EA11CB11C14
:101B40000E9447046C157D058E059F0528F08616BA
:101B50009706A806B906A0F768EE73E080E090E06B
:101B60000E9415040E949A010E9447046093250573
:101B700070932605809327059093280580E793E0CE
:101B80000E94E1070E9447046B017C014B015C014C
:101B90008AE0880E911CA11CB11C0E9447046C15A0
:101BA0007D058E059F0528F086169706A806B906BE
:101BB000A0F781E0809339050E94470460932505D2
:101BC00070932605809327059093280581E893E07C
:101BD0000E94E1070E949A0188E893E00E94EE07C4
:101BE00063E070E085E795E00E94D00464E070E077
:101BF00082E795E00E94D00465E070E08FE695E012
:101C00000E94D00466E070E08CE695E00E94D0046B
:101C100067E070E089E695E00E94D00470E060E043
:101C200085E795E00E94540470E060E082E795E06B
:101C30000E94540464EB70E08FE695E00E94540427
:101C400070E060E08CE695E00E94540464EB70E084
:101C500089E695E00E94540460E089E00E94B403A4
:101C600062E085E10E94B40361E08CE00E94B4036D
:101C700061E08EE10E94B40361E08FE10E94B40351
:101C800061E080E20E94B40361E081E20E94B4035B
:101C900061E086E10E94B40361E086E10E94B40342
:101CA00061E087E10E94B40361E088E10E94B4032F
:101CB00061E089E10E94B40361E08AE10E94B4031B
:101CC00061E08BE10E94B40361E08CE10E94B40307
:101CD00060E08CE00E94860304EB10E077247394AC
:101CE0008AE0882E912CA12CB12C89E00E945D0302
:101CF000909385048093840420918204309183041E
:101D00008217930709F42FC4019709F02CC480911E
:101D10008104811109C2709281048AE993E00E94D2
:101D2000EE078091800481111EC480911A02909167
:101D30001B02892B09F017C4E0916C04F0916D042B
:101D4000E830F10508F00FC410927F0410927E0471
:101D50008827E255F14F8F4F0C943717B60EE40EDB
:101D6000370F780FB90F011049106C10E0907E0406
:101D7000F0907F0494EBE916F1040CF0F4C3B70182
:101D800082E795E00E9454046801CE18DF08B6018E
:101D90008FE695E00E945404B7018CE695E00E941E
:101DA0005404B60189E695E00E94540465E070E0B1
:101DB00080E090E00E941504EFEFEE1AFE0AF09228
:101DC0007F04E0927E04D2CFE0907E04F0907F0406
:101DD000F4EBEF16F1049CF4B70185E795E00E945F
:101DE000540465E070E080E090E00E9415042FEF5D
:101DF000E21AF20AF0927F04E0927E04E5CF64EFEB
:101E000071E080E090E00E94150410927F0410922F
:101E10007E04E0907E04F0907F0484EBE816F104E9
:101E20000CF0A1C3B70182E795E00E945404680159
:101E3000CE18DF08B6018FE695E00E945404B70182
:101E40008CE695E00E945404B60189E695E00E9474
:101E5000540465E070E080E090E00E9415049FEF7C
:101E6000E91AF90AF0927F04E0927E04D2CFE09062
:101E70007E04F0907F04E4EBEE16F1049CF4B701CD
:101E800085E795E00E94540465E070E080E090E012
:101E90000E941504FFEFEF1AFF0AF0927F04E09210
:101EA0007E04E5CF64EF71E080E090E00E941504CD
:101EB00010927F0410927E04E0907E04F0907F04E4
:101EC00024EBE216F1040CF04EC3B70182E795E073
:101ED0000E94540465E070E080E090E00E941504E8
:101EE0008FEFE81AF80AF0927F04E0927E04E4CFC4
:101EF000E0907E04F0907F0494EBE916F1049CF4EA
:101F0000B70185E795E00E94540465E070E080E049
:101F100090E00E941504EFEFEE1AFE0AF0927F04A3
:101F2000E0927E04E5CF64EF71E080E090E00E94F3
:101F3000150410927F0410927E04E0907E04F090CD
:101F40007F04F4EBEF16F1040CF00DC3B70182E748
:101F500095E00E94540465E070E080E090E00E940B
:101F600015042FEFE21AF20AF0927F04E0927E0449
:101F7000E4CFE0907E04F0907F0484EBE816F10457
:101F80009CF4B70185E795E00E94540465E070E099
:101F900080E090E00E9415049FEFE91AF90AF092A0
:101FA0007F04E0927E04E5CF64EF71E080E090E092
:101FB0000E94150410927F0410927E04E0907E042B
:101FC000F0907F04E4EBEE16F1040CF0CCC2B70104
:101FD00082E795E00E945404B8016E197F098FE6EC
:101FE00095E00E94540465E070E080E090E00E947B
:101FF0001504FFEFEF1AFF0AF0927F04E0927E04CF
:10200000DDCFE0907E04F0907F0424EBE216F10433
:102010009CF4B70185E795E00E94540465E070E008
:1020200080E090E00E9415048FEFE81AF80AF09221
:102030007F04E0927E04E5CF64EF71E080E090E001
:102040000E94150410927F0410927E04E0907E049A
:10205000F0907F0494EBE916F1040CF084C2B70110
:1020600082E795E00E945404B8016E197F098FE65B
:1020700095E00E94540465E070E080E090E00E94EA
:102080001504EFEFEE1AFE0AF0927F04E0927E0450
:10209000DDCFE0907E04F0907F04F4EBEF16F104C6
:1020A0000CF061C2B8016E197F098FE695E00E94BD
:1020B0005404B7018CE695E00E94540465E070E09A
:1020C00080E090E00E9415042FEFE21AF20AF092ED
:1020D0007F04E0927E04DDCFE0907E04F0907F04E8
:1020E00084EBE816F1040CF03EC2B70182E795E0FC
:1020F0000E945404B7018CE695E00E945404B80194
:102100006E197F0989E695E00E94540465E070E04D
:1021100080E090E00E9415049FEFE91AF90AF0921E
:102120007F04E0927E04D8CF109281048DE993E081
:102130000E94EE0780918004811115C280911A02DD
:1021400090911B02892B09F00EC2E0916C04F09172
:102150006D04E830F10508F006C210937F04009387
:102160007E048827E954FF4E8F4F0C943717BF1019
:10217000F21049118811C71113125F128712E090F3
:102180007E04F0907F041E141F040CF0ECC1E5EBFC
:10219000EE16F1042CF4B70182E795E00E94540496
:1021A0006801CE18DF08D7FCCCC5B6018FE695E0F4
:1021B0000E945404F5EBEF16F1040CF4C7C5B60108
:1021C00089E695E00E94540465E070E080E090E0CC
:1021D0000E94150421E0E21AF108F0927F04E092D7
:1021E0007E04CDCFE0907E04F0907F041E141F0487
:1021F0005CF585EBE816F1042CF4B70182E795E075
:102200000E9454046801CE18DF08D7FCA7C5B601A8
:102210008FE695E00E94540495EBE916F1040CF466
:10222000A2C5B60189E695E00E94540465E070E01D
:1022300080E090E00E941504E1E0EE1AF108F092CF
:102240007F04E0927E04CECF64EF71E080E090E006
:102250000E94150410937F0400937E04E0907E0496
:10226000F0907F041E141F040CF07DC1B70185E7B8
:1022700095E00E94540465E070E080E090E00E94E8
:102280001504F1E0EF1AF108F0927F04E0927E0469
:10229000E5CFE0907E04F0907F041E141F049CF4B0
:1022A000B70182E795E00E94540465E070E080E0A9
:1022B00090E00E94150421E0E21AF108F0927F04F8
:1022C000E0927E04E6CF64EF71E080E090E00E944F
:1022D000150410937F0400937E04E0907E04F09038
:1022E0007F041E141F040CF03EC1B70185E795E082
:1022F0000E94540465E070E080E090E00E941504C4
:1023000081E0E81AF108F0927F04E0927E04E5CFC4
:10231000E0907E04F0907F041E141F049CF4B7012B
:1023200082E795E00E94540465E070E080E090E070
:102330000E94150491E0E91AF108F0927F04E092FE
:102340007E04E6CF64EF71E080E090E00E94150427
:1023500010937F0400937E04E0907E04F0907F044D
:102360001E141F040CF0FFC0B70185E795E00E9422
:10237000540465E070E080E090E00E941504E1E024
:10238000EE1AF108F0927F04E0927E04E5CFE0902F
:102390007E04F0907F041E141F0404F5F5EBEF1685
:1023A000F1042CF4B70182E795E00E945404B801CF
:1023B0006E197F0977FD04C08FE695E00E945404F2
:1023C00065E070E080E090E00E94150421E0E21AF0
:1023D000F108F0927F04E0927E04D9CF64EF71E0BF
:1023E00080E090E00E94150410937F0400937E0427
:1023F000E0907E04F0907F041E141F040CF0B3C024
:10240000B70185E795E00E94540465E070E080E044
:1024100090E00E94150481E0E81AF108F0927F0430
:10242000E0927E04E5CFE0907E04F0907F041E14DD
:102430001F0404F595EBE916F1042CF4B70182E7CB
:1024400095E00E945404B8016E197F0977FD04C01D
:102450008FE695E00E94540465E070E080E090E033
:102460000E941504E1E0EE1AF108F0927F04E09278
:102470007E04D9CF64EF71E080E090E00E94150403
:1024800010937F0400937E04E0907E04F0907F041C
:102490001E141F040CF067C0B70185E795E00E9489
:1024A000540465E070E080E090E00E941504F1E0E3
:1024B000EF1AF108F0927F04E0927E04E5CFE090FD
:1024C0007E04F0907F041E141F040CF04CC0B80171
:1024D0006E197F0977FD04C08FE695E00E945404D1
:1024E00025EBE216F1042CF4B7018CE695E00E948E
:1024F000540465E070E080E090E00E94150481E003
:10250000E81AF108F0927F04E0927E04D8CFE090C0
:102510007E04F0907F041E141F042CF595EBE91641
:10252000F10454F4B70182E795E00E945404B70126
:102530008CE695E00E945404B8016E197F0977FD7E
:1025400004C089E695E00E94540465E070E080E0F4
:1025500090E00E941504E1E0EE1AF108F0927F0489
:10256000E0927E04D4CF809184049091850490936E
:1025700083048093820420918004211153C0209110
:102580001A0230911B022130310509F04BC0209115
:102590008104222309F49DC3019709F043C0E09010
:1025A0007E04F0907F04F4EBEF16F104DCF52FEFDE
:1025B000E21AF20AF0927F04E0927E0484EBE816BD
:1025C000F10429F0B70182E795E00E945404680104
:1025D000CE18DF08B6018FE695E00E94540494EB14
:1025E000E916F10429F0B7018CE695E00E94540445
:1025F000B60189E695E00E945404809118029091FA
:102600001902892B49F4E4EBEE16F10429F0B70125
:1026100085E795E00E9454046FE070E080E090E070
:102620000E94150480917C0490917D04009709F02C
:10263000B5C280911A0290911B020197E9F5809131
:10264000180290911902009709F454C00197A1F55E
:1026500090E080E00E94120686E40E94360665E063
:1026600070E080E090E00E94150481E090E00E941C
:10267000120682E70E94360665E070E080E090E096
:102680000E94150482E090E00E94120685E40E94F8
:10269000360665E070E080E090E00E94150483E07B
:1026A00090E00E94120680E30E94360665E070E02A
:1026B00080E090E00E94150480911A0290911B0224
:1026C000892B09F077C0E0916C04F0916D04E8303B
:1026D000F10508F06FC090E08827EE58FC4E8F4F50
:1026E0000C943717A713E8141415331552157115E8
:1026F0009015AF1590E080E00E94120686E40E94DB
:10270000360665E070E080E090E00E94150481E00C
:1027100090E00E94120682E70E94360665E070E0B3
:1027200080E090E00E94150482E090E00E94120692
:1027300085E40E94360665E070E080E090E00E944B
:10274000150483E090E00E94120681E3ADCF80E0A3
:102750000E94120682E60E94360665E070E080E084
:1027600090E00E94150481E090E00E94120681E44E
:102770000E94360665E070E080E090E00E9415045B
:1027800082E090E00E94120683E50E94360665E032
:1027900070E080E090E00E94150483E090E00E94E9
:1027A000120680E30E94360665E070E080E090E06B
:1027B0000E94150485E10E945D03909317028093A7
:1027C000160220911402309115028217930749F1E5
:1027D000892B09F041C20E94470470931102609353
:1027E00010022091120230911302621B730B70933E
:1027F0006F0460936E0461E08CE00E94860381EABE
:1028000093E00E94EE0780916E0490916F04C3974D
:10281000853D964030F47092790488EA93E00E94F6
:10282000E107809116029091170290931502809310
:1028300014028091790481114DC08091780488231D
:1028400009F448C00E9447042091120230911302FB
:10285000621B730B7093770460937604613D77403D
:10286000CCF183EB93E00E94E107C0907604D09016
:1028700077040D2C000CEE08FF08F7FE14C26DE281
:1028800086E894E00E94580222273327A9012C19D8
:102890003D094E095F0919A2CE0181967C01CA014A
:1028A000B901A50194010E94C816605DF701629309
:1028B0007F01211531054105510589F7E114F10426
:1028C00019F0C7010E94E1078FE292E00E94E10740
:1028D0000E944A0881E090E09093170280931602CC
:1028E0000E94470420911002309111027B01E21AEC
:1028F000F30AF0927504E0927404C701855D934079
:10290000879770F460E08CE00E9486036AE070E0D4
:1029100080E090E00E94150461E08CE00E94860354
:10292000C7018D5B9740879770F460E08CE00E9450
:1029300086036AE070E080E090E00E94150461E0A8
:102940008CE00E948603C701855A9B40879770F4EC
:1029500060E08CE00E9486036AE070E080E090E036
:102960000E94150461E08CE00E948603C7018D5827
:102970009F40879770F460E08CE00E9486036AE0D5
:1029800070E080E090E00E94150461E08CE00E941D
:102990008603F5E7EF1AF3E1FF0A27E2E216F104F6
:1029A00070F460E08CE00E9486036AE070E080E0F2
:1029B00090E00E94150461E08CE00E94860365E0CF
:1029C00070E080E090E00E9415040E94C5028DC96D
:1029D00080E00E94120682E60E94360665E070E002
:1029E00080E090E00E94150481E090E00E941206D1
:1029F00081E40E94360665E070E080E090E00E948D
:102A0000150482E090E00E94120683E50E943606DB
:102A100065E070E080E090E00E94150483E090E0C3
:102A20000E94120681E3BECE80E00E94120680E57D
:102A30000E94360665E070E080E090E00E94150498
:102A400081E090E00E94120689E60E94360665E069
:102A500070E080E090E00E94150482E090E00E9427
:102A600012068EE692CE80E00E94120680E50E9459
:102A7000360665E070E080E090E00E94150481E099
:102A800090E00E94120689E60E94360665E070E03A
:102A900080E090E00E94150482E090E00E9412061F
:102AA0008EE6B4CF80E00E94120684E70E943606CC
:102AB00065E070E080E090E00E94150481E090E025
:102AC0000E94120682E70E94360665E070E080E010
:102AD00090E00E94150482E090E00E94120689E6D0
:102AE00054CE80E00E94120684E70E94360665E01C
:102AF00070E080E090E00E94150481E090E00E9488
:102B0000120682E70E94360665E070E080E090E001
:102B10000E94150482E090E00E94120689E676CFBA
:102B200080E00E94120685E40E94360665E070E0AF
:102B300080E090E00E94150481E090E00E9412067F
:102B400088E50E94360665E070E080E090E00E9433
:102B5000150482E090E00E94120684E716CE80E021
:102B60000E94120685E40E94360665E070E080E06F
:102B700090E00E94150481E090E00E94120688E532
:102B80000E94360665E070E080E090E00E94150447
:102B900082E090E00E94120684E738CF81309105F0
:102BA00099F00297C9F10E94470420917A0430916C
:102BB0007B04621B730B613D77400CF4FBCD1092DC
:102BC0007D0410927C04F6CD90E080E00E94120615
:102BD00082E60E94360665E070E080E090E00E94A8
:102BE000150481E090E00E94120681E40E943606FE
:102BF00065E070E080E090E00E94150482E090E0E3
:102C00000E94120684E70E94360665E070E080E0CC
:102C100090E00E941504C7CF90E080E00E94120669
:102C20008CE40E94360665E070E080E090E00E944F
:102C3000150481E090E00E9412068FE60E9436069D
:102C400065E070E080E090E00E94150482E090E092
:102C50000E94120683E6D7CF0E94470470931302A6
:102C6000609312022091100230911102621B730BCB
:102C70007093730460937204809170049091710456
:102C8000019690937104809370047092780460E0D0
:102C90008CE00E94860380917904882309F4C1CDD9
:102CA0000E944A08BECDA701960119A2CE018196C5
:102CB0007C01CA01B901A50194010E94C816605D9A
:102CC000F70162937F01211531054105510589F70F
:102CD000F5CD019709F0A6CCE0907E04F0907F043A
:102CE0001E141F040CF09ECCF1E0EF1AF108F092D4
:102CF0007F04E0927E04E114F10429F0B70182E739
:102D000095E00E9454046801CE18DF08D7FC33C058
:102D1000B6018FE695E00E945404E114F10491F5A8
:102D2000B60189E695E00E945404809118029091C2
:102D30001902892B09F070CCE114F10409F46CCC70
:102D400066CC85EBE816F1040CF03ECAB7018CE6C0
:102D500095E00E945404D7FE32CA36CA95EBE916B4
:102D6000F1040CF063CAB7018CE695E00E945404AC
:102D7000D7FE57CA5BCAB7018CE695E0E114F104AF
:102D800091F6CECFB7018CE695E00E945404C8CFEF
:102D9000A1E21A2EAA1BBB1BFD010DC0AA1FBB1F5F
:102DA000EE1FFF1FA217B307E407F50720F0A21BD1
:102DB000B30BE40BF50B661F771F881F991F1A943E
:102DC00069F760957095809590959B01AC01BD0168
:102DD000CF010895052E97FB1EF400940E94011761
:102DE00057FD07D00E94C81607FC03D04EF40C9480
:102DF000011750954095309521953F4F4F4F5F4FAC
:102E0000089590958095709561957F4F8F4F9F4F56
:102E100008950E941C17A59F900DB49F900DA49F2C
:102E2000800D911D11240895B7FF0C9409170E947D
:102E30000917821B930B0895A29FB001B39FC00195
:102E4000A39F700D811D1124911DB29F700D811DD6
:102E50001124911D0895991B79E004C0991F9617BC
:102E600008F0961B881F7A95C9F780950895EE0F94
:102E7000FF1F881F8BBF0790F691E02D1994F894DF
:022E8000FFCF82
:102E82005304530453045304530453045304530488
:102E9200FFFFFFFF01000100010001000000000030
:102EA2005802C201EF01A5022002FE0112020D0A20
:102EB2000043757272656E743A20426173696320D1
:102EC2002D20466973740043757272656E743A20E0
:102ED2004261736963202D204772697000437572E5
:102EE20072656E743A2050696E63686573202D2096
:102EF20050696E63680043757272656E743A205051
:102F0200696E63686573202D2050696E63684E6F29
:102F1200466973740043757272656E743A20547216
:102F220069706F6473202D20547269706F6400435E
:102F3200757272656E743A20547269706F64732090
:102F42002D20547269706F64684E6F466973740005
:102F520043757272656E743A204578747261477275
:102F6200697073202D204578747261310043757247
:102F720072656E743A204578747261477269707333
:102F8200202D20457874726132002E2E2E43686106
:102F92006E67696E6720477269702E2E2E00574940
:102FA2005448205448554D4200574954484F5554AF
:102FB200205448554D50002E2E2E4C6F636B696E77
:102FC2006720536572766F732E2E2E002E2E2E439F
:102FD20068616E67696E67204D6F64652E2E2E00E4
:102FE2002E2E2E5368757420646F776E2E2E2E004F
:102FF200564D4450565F317C315F564D4450560A0F
:1030020000564D4450525F000A0A21214E65772036
:1030120073657373696F6E2121004F6E004F666690
:1030220000616963693F3F0043726574696E756C44
:10303200650A006D696C6C69732829202D207072F5
:0C3042006573735F73746F703A200000B8
:00000001FF
