:100000000C9465010C9496010C9496010C94960145
:100010000C9496010C9496010C9496010C94960104
:100020000C9496010C9496010C9496010C949601F4
:100030000C9496010C9496010C9496010C949601E4
:100040000C9496010C94660A0C9496010C949601FB
:100050000C9496010C9496010C9496010C949209C0
:100060000C9496010C945C090C9432090C94960142
:100070000C9496010C9496010C9496010C949601A4
:100080000C94380A0C9496010C9496010C949601E9
:100090000C9496010C9496010C9496010C94960184
:1000A0000C9496010C9496010C940A0A0C949601F7
:1000B0000C9496010C9496010C9496010C94DC0916
:1000C0000C9496010C9496010C9496010C94960154
:1000D0000C9496010C9496010C9496010C94960144
:1000E0000C9496010C9418030C948D0F0C94C90D6C
:1000F0000C9455110C940A0E0C9495100C94310D1F
:100100000C9420030C9431030C94C00F0C942D0319
:100110000C94520E0C94ED010C943F030C94370395
:100120000C9445030C9455120C9457030C948112B3
:100130000C94C10E0C943B030C9417100C942403E4
:100140000C94C0010C94FD120C9427030C941C1306
:100150000C94A3020C94E1100C941C030C9449031E
:100160000C941E020C944D030C94BF120C94880D39
:100170000C94FC010C9412030C94BC110C945203CB
:100180000C94FF0C0C94A0120C94DE120C945610DC
:100190000C942D110C9453030C94AF0A0C94100280
:1001A0000C949A0E0C9456020000210024002700A3
:1001B0002A002D0030003300010100000401070176
:1001C0000A0100002200250028002B002E0031002B
:1001D000340002010000050108010B0100002000AD
:1001E0002300260029002C002F003200000100000F
:1001F00003010601090105050505070508080808AA
:10020000020202020A0A08080404040401010101AE
:1002100001010101030303030303030304070707A9
:100220000C0C0C0C0C0C0C0C02020202060606064E
:10023000060606060B0B0B0B0B0B0B0B010210201B
:10024000200808102040102040800201020108040C
:1002500002010102040810204080804020100804A0
:1002600002018004020180402010080402010804F9
:10027000020101020408102040800102040810203D
:10028000408000000A0B02090C0D0E080703040150
:10029000000000000000000000000000000000005E
:1002A000000000000000000000000000000012112B
:1002B000100000000000000000000000000000002E
:1002C0000000000000000000AF0A11241FBECFEFA5
:1002D000D1E2DEBFCDBF00E00CBF14E0A0E0B2E091
:1002E000E6EAF8E200E00BBF02C007900D92A430EE
:1002F000B107D9F725E0A4E0B4E001C01D92A13B0D
:10030000B207E1F711E0C5E6D1E000E006C02197B1
:100310000109802FFE010E944914C436D10780E0F4
:100320000807A9F70E94010B0C9451140C940000CB
:10033000EFEBF4E0A089B18982E08C93A485B585C8
:100340001C92A685B7858FEC8C93108EA489B589F5
:1003500086E08C93A289B3898C9180618C93A28969
:10036000B3898C9188608C93A289B3898C918068C1
:100370008C930288F389E02D80818F7D808308959E
:10038000AF92BF92CF92DF92EF92FF920F931F93A3
:10039000CF93DF936C017B018B01040F151FEB01E1
:1003A0005E01AE18BF08C017D10759F06991D60198
:1003B000ED91FC910190F081E02DC6011995892BFA
:1003C00079F7C501DF91CF911F910F91FF90EF90C9
:1003D000DF90CF90BF90AF900895FC01538D448D76
:1003E000252F30E0842F90E0821B930B541710F0E0
:1003F000CF96089501970895FC01918D828D9817ED
:1004000061F0A28DAE0FBF2FB11D5D968C91928DC4
:100410009F5F9F73928F90E008958FEF9FEF0895F5
:10042000FC01918D828D981731F0828DE80FF11DBE
:10043000858D90E008958FEF9FEF0895FC01918DD9
:10044000228D892F90E0805C9F4F821B91098F73D2
:10045000992708958FEB94E00E941E0221E0892BDA
:1004600009F420E0822F0895FC01A48DA80FB92F74
:10047000B11DA35ABF4F2C91848D90E001968F73CC
:100480009927848FA689B7892C93A089B1898C91EB
:10049000837080648C93938D848D981306C002883A
:1004A000F389E02D80818F7D80830895EF92FF9204
:1004B0000F931F93CF93DF93EC0181E0888F9B8D87
:1004C0008C8D98131AC0E889F989808185FF15C041
:1004D0009FB7F894EE89FF896083E889F989808164
:1004E0008370806480839FBF81E090E0DF91CF9133
:1004F0001F910F91FF90EF900895F62E0B8D10E055
:100500000F5F1F4F0F731127E02E8C8D8E110CC0C3
:100510000FB607FCFACFE889F989808185FFF5CF0E
:10052000CE010E943402F1CFEB8DEC0FFD2FF11DB7
:10053000E35AFF4FF0829FB7F8940B8FEA89FB894B
:1005400080818062CFCFCF93DF93EC01888D8823A9
:10055000B9F0AA89BB89E889F9898C9185FD03C026
:10056000808186FD0DC00FB607FCF7CF8C9185FF0B
:10057000F2CF808185FFEDCFCE010E943402E9CF1A
:10058000DF91CF91089580E090E0892B29F00E94BF
:100590002A0281110E94000080E090E0892B49F03E
:1005A00080E090E0892B29F00E94000081110E94D8
:1005B000000080E090E0892B49F080E090E0892BFA
:1005C00029F00E94000081110E94000080E090E06C
:1005D000892B49F080E090E0892B29F00E940000EF
:1005E00081110C94000008958150823108F05AC0A6
:1005F000E82FF0E08827E050FD4F8F4F0C9449140E
:1006000020032403120318031C03520327032D03A2
:10061000310337033B033F034503490352034D03B3
:1006200053035703809180008F7780938000089553
:10063000809180008F7DF9CF80918000877FF5CFFA
:1006400084B58F7784BD089584B58F7DFBCF80916D
:10065000B0008F778093B00008958091B0008F7DB7
:10066000F9CF809190008F778093900008958091CA
:1006700090008F7DF9CF80919000877FF5CF80919A
:10068000A0008F778093A00008958091A0008F7DB7
:10069000F9CF8091A000877FF5CF809120018F77DF
:1006A000809320010895809120018F7DF9CF809162
:1006B0002001877FF5CFCF93DF93282F30E0F9011A
:1006C000EE57FD4F8491F901E45CFD4FD491F9019F
:1006D000EA50FE4FC491CC23A1F081110E94F40294
:1006E000EC2FF0E0EE0FFF1FE452FE4FA591B49106
:1006F000EC91ED2381E090E009F480E0DF91CF916F
:10070000089580E090E0FACF1F93CF93DF93282FD6
:1007100030E0F901EE57FD4F8491F901E45CFD4FA3
:10072000D491F901EA50FE4FC491CC23A9F0162FC1
:1007300081110E94F402EC2FF0E0EE0FFF1FEE5348
:10074000FE4FA591B4918FB7F894EC91111108C0A8
:10075000D095DE23DC938FBFDF91CF911F91089559
:10076000DE2BF8CFCF93DF9390E0FC01E45CFD4FEC
:1007700024918A509E4FFC0184918823C9F090E017
:10078000880F991FFC01E855FE4FA591B491FC011B
:10079000EE53FE4FC591D49161110DC09FB7F894EF
:1007A0008C91209582238C938881282328839FBF56
:1007B000DF91CF910895623051F49FB7F8943C9146
:1007C000822F809583238C93E8812E2BEFCF8FB7D8
:1007D000F894EC912E2B2C938FBFEACF3FB7F8946F
:1007E0008091100490911104A0911204B09113040F
:1007F00026B5A89B05C02F3F19F00196A11DB11D7C
:100800003FBFBA2FA92F982F8827BC01CD01620FB7
:10081000711D811D911D42E0660F771F881F991F72
:100820004A95D1F708958F929F92AF92BF92CF923F
:10083000DF92EF92FF924B015C010E94EE036B018D
:100840007C010E94EE036C197D098E099F09683EA8
:10085000734081059105A8F321E0821A9108A1084F
:10086000B10888EEC80E83E0D81EE11CF11C81148B
:100870009104A104B10429F7FF90EF90DF90CF908D
:10088000BF90AF909F908F9008952FB7F89460918C
:100890000C0470910D0480910E0490910F042FBFF1
:1008A0000895CF92DF92EF92FF92CF93DF93EC0106
:1008B000603282E07807CCF5653B710514F064EB9B
:1008C00070E0898128E830E0281B310987FD3395E5
:1008D000220F331F220F331F6901330FEE08FF0869
:1008E0008A8128E532E0281B310987FD3395220FE4
:1008F000331F220F331F032E000C440B550B2C19F2
:100900003D094E095F09DB0177FF02C0B0E0A0E0BE
:100910000E94261424EB30E040E050E00E94FC13DB
:10092000C20ED31EE41EF51EB601E881E03370F559
:10093000298188E890E0821B910927FD9395880F13
:10094000991F880F991F681779077CF02A8188E51D
:1009500092E0821B910927FD9395880F991F880FBC
:10096000991F681779070CF4CB010297880F991F1C
:100970004FB7F8942E2F30E0F901EE0FFF1FE20F72
:10098000F31FEC5EFB4F928381834FBFDF91CF91CA
:10099000FF90EF90DF90CF9008951F93CF93DF9358
:1009A000EC01162F8881803308F04EC061E0812F62
:1009B0000E94B2038881282F30E0F901EE0FFF1F5B
:1009C000E20FF31FEC5EFB4F1F736081607C612BB5
:1009D000608319821A822CE0622F0E943D14829F4C
:1009E000B001112430E020E0AB01420F531FFA01A7
:1009F000EE0FFF1FE40FF51FEC5EFB4F908196FD9D
:100A000016C02F5F3F4F2C30310571F7813009F54B
:100A10001092800082E080938100109285001092F5
:100A20008400B19A80916F00826080936F00E881AA
:100A30008E2F90E0FC01EE0FFF1FE80FF91FEC5E18
:100A4000FB4F8081806480838881DF91CF911F91EB
:100A50000895823061F4109290008093910010927A
:100A600095001092940088BB80937100E0CF833092
:100A700069F41092A00082E08093A1001092A5007A
:100A80001092A40089BB80937200D1CF8111CFCF87
:100A90001092200182E08093210110922501109292
:100AA00024018ABB80937300C2CFAF92BF92CF92D2
:100AB000DF92EF92FF920F931F93CF93DF936B011F
:100AC0007A01EC01CA5FDB4F28813CE0389F80014E
:100AD000399F100D1124A0900A04B12C27FF1FC0CC
:100AE000FB011182108288818F5F88838881980141
:100AF000280F311D87FD3A95F6012A153B051CF498
:100B000088818C30C4F180819181049680349C4925
:100B100008F473C0F60180819181049670C08881C9
:100B20009801280F311D87FD3A952A153B05DCF603
:100B30008881A801480F511D87FD5A95FA01EE0FD3
:100B4000FF1FE40FF51FEC5EFB4F808186FFCBCFCC
:100B50008881F801E80FF11D87FDFA95CF01EE0FAE
:100B6000FF1FE80FF91FEC5EFB4F808160E08F7381
:100B70000E948403B8CF808191812881A801420F0F
:100B8000511D27FD5A959A01FA01EE0FFF1FE20F42
:100B9000F31FEC5EFB4F21813281820F931FF7011F
:100BA0009183808388819801280F311D87FD3A95B4
:100BB000F901EE0FFF1FE20FF31FEC5EFB4F808188
:100BC00086FF22C08881080F111D87FD1A95F80144
:100BD000EE0FFF1FE00FF11FEC5EFB4F808161E025
:100BE0008F73DF91CF911F910F91FF90EF90DF9066
:100BF000CF90BF90AF900C94840380E49CE9F70100
:100C0000918380838FEF8883DF91CF911F910F9124
:100C1000FF90EF90DF90CF90BF90AF900895CF936B
:100C2000DF93EC0161E08EE10E94840361E08FE1DB
:100C30000E94840361E080E20E94840361E081E21B
:100C40000E94840360E080E2C130D10541F08FE171
:100C5000C230D10521F08EE1CD2B09F081E2DF9188
:100C6000CF910C948403833509F47DC0D4F5853489
:100C700009F4DFC0FCF4813309F4C9C0813409F4FC
:100C800068C0803309F001C161E086E10E948403FD
:100C900061E087E10E94840361E088E10E948403AF
:100CA00061E089E10E94840361E08AE10E9484039B
:100CB00061E086C08C3409F4C6C0803509F465C093
:100CC000863409F0E2C061E086E10E94840360E0BE
:100CD00087E10E94840360E088E10E94840360E071
:100CE0002BC0893609F457C054F48236C1F08336DC
:100CF00009F4C1C0883509F0C8C060E02BC08F3648
:100D000009F4ABC024F48E3609F461C0089582372B
:100D100009F473C060E0843709F48CC0089560E082
:100D200086E10E94840360E087E10E94840361E021
:100D300088E10E94840361E089E10E94840361E00C
:100D40008AE10E94840361E08BE10E94840361E0F8
:100D50003BC061E086E10E94840361E087E10E947C
:100D6000840361E0B9CF61E086E10E94840360E022
:100D700087E10E94840361E088E10E94840361E0CE
:100D800089E10E94840360E0DBCF61E086E10E949C
:100D9000840361E09DCF60E086E10E94840360E00F
:100DA00087E10E94840360E088E10E94840360E0A0
:100DB00089E10E94840361E08AE10E94840360E08B
:100DC0008BE10E94840360E08CE10C94840360E07A
:100DD00086E10E94840360E087E10E94840361E071
:100DE00088E10E94840360E089E10E94840361E05D
:100DF0008AE10E94840360E0A7CF60E086E10E9460
:100E0000840360E087E10E94840360E0E9CF60E052
:100E100086E10E94840361E087E10E94840361E02F
:100E200088E10E94840360E089E10E94840360E01D
:100E3000C3CF61E086E10E94840360E087E10E9405
:100E4000840360E075CF60E086E10E94840360E087
:100E500087E10E94840360E020CF60E086E10E9489
:100E6000840360E087E10E94840361E088E10E94DE
:100E7000840361E0B9CF60E086E10E94840360E012
:100E800087E10E94840360E0F1CF0895FC010190A6
:100E90000020E9F73197AF01481B590BBC018FEBDC
:100EA00094E00C94C0018F929F92AF92BF920F93E7
:100EB0001F93CF93DF93CDB7DEB7A1970FB6F8940A
:100EC000DEBF0FBECDBF19A2423008F44AE08E014A
:100ED0000F5D1F4F842E912CB12CA12CA5019401E4
:100EE0000E94DA13E62FB901CA01EA30F4F4E05D9A
:100EF000D801EE938D01232B242B252B79F790E03D
:100F000080E0109719F0CD010E944607A1960FB618
:100F1000F894DEBF0FBECDBFDF91CF911F910F912F
:100F2000BF90AF909F908F900895E95CE1CFCF92F2
:100F3000DF92EF92FF92CF93DF936B017C016DE222
:100F40008FEB94E00E945602EC0166277727CB01D5
:100F50006C197D098E099F094AE00E9453078C0F86
:100F60009D1FDF91CF91FF90EF90DF90CF9008957C
:100F7000CF93DF930E944607EC018AE192E00E9442
:100F800046078C0F9D1FDF91CF9108958091040437
:100F90009091050481309105B9F030F082309105CF
:100FA00019F1039789F108958091A6049091A704FF
:100FB000009719F0019729F008958DE192E00C94C3
:100FC000B80783E392E0FBCF8091A6049091A70439
:100FD0008230910519F0039721F0089589E492E099
:100FE000EECF82E692E0EBCF8091A6049091A70429
:100FF0008430910519F0059721F0089581E892E079
:10100000DECF8BE992E0DBCF8091A6049091A7041C
:101010008630910519F0079721F008958CEB92E046
:10102000CECF89ED92E0CBCFBC01990F880B990B05
:1010300097FD0C9497074AE00C9453078091B304F2
:10104000813009F4DFC08091AA049091AB048456EA
:1010500091098438934000F586EF92E00E94B8072A
:101060008091B8049091B904009709F475C081305B
:10107000910581F420910002309101022130310567
:1010800009F063C0109201021092000282E293E024
:101090000E94B8070E94C6078091AA049091AB04F1
:1010A000885E9340803D974080F48BE393E00E94FC
:1010B000B8070E9445047093B5046093B40482E0BD
:1010C00090E09093B7048093B6048091AA04909125
:1010D000AB04885B9B40803D974088F480E593E0BB
:1010E0000E94B8078091B8049091B90481309105AD
:1010F00009F485C001969093B9048093B804809157
:10110000AA049091AB048838934124F084E693E0DC
:101110000E94B80784E793E00E9446078091A804E4
:101120009091A9040E94140881E893E00E94B807F6
:101130001092B2041092B3041092A9041092A80461
:101140001092AD041092AC04089590930102809324
:1011500000028DE293E09CCF8091040490910504FD
:101160008130910531F180F08230910591F1039742
:1011700009F090CF8091A6049091A7048630910544
:10118000C1F587E090E008C08091A6049091A70483
:10119000009739F481E090E09093A7048093A6042F
:1011A00079CF019709F076CF1092A7041092A60488
:1011B00071CF8091A6049091A7048230910519F413
:1011C00083E090E0E9CF039709F064CF82E090E0FC
:1011D000E3CF8091A6049091A7048430910519F47F
:1011E00085E090E0D9CF059709F054CF84E090E0F6
:1011F000D3CF079709F04ECF86E090E0CDCF90E0B7
:1012000080E079CF809104049091050483309105AA
:1012100049F410920504109204041092A70410924D
:10122000A6040BC0019690930504809304048130BA
:10123000910571F02CF4892B81F30E94C6076ACFC7
:101240008230910561F00397C1F786E090E002C01B
:1012500082E090E09093A7048093A604EECF84E010
:1012600090E0F8CF1F920F920FB60F9211240BB699
:101270000F922F933F934F935F936F937F938F932F
:101280009F93AF93BF93EF93FF938FEB94E00E94F4
:101290003402FF91EF91BF91AF919F918F917F9118
:1012A0006F915F914F913F912F910F900BBE0F90D7
:1012B0000FBE0F901F9018951F920F920FB60F92AE
:1012C00011240BB60F922F938F939F93EF93FF935D
:1012D000E091CF04F091D0048081E091D504F091A9
:1012E000D60482FD1DC090818091D8048F5F8F73DA
:1012F0002091D904821741F0E091D804F0E0E15444
:10130000FB4F958F8093D804FF91EF919F918F9120
:101310002F910F900BBE0F900FBE0F901F9018953E
:101320008081F2CF1F920F920FB60F9211242F934C
:101330003F938F939F93AF93BF9380910C049091B1
:101340000D04A0910E04B0910F0430910B0423E022
:10135000230F2D3758F50196A11DB11D20930B04C5
:1013600080930C0490930D04A0930E04B0930F048B
:101370008091100490911104A0911204B091130473
:101380000196A11DB11D8093100490931104A093A8
:101390001204B0931304BF91AF919F918F913F912D
:1013A0002F910F900FBE0F901F90189526E8230FD6
:1013B0000296A11DB11DD2CF1F920F920FB60F92B0
:1013C00011240BB60F922F933F934F935F936F931C
:1013D0007F938F939F93AF93BF93EF93FF9348E2D5
:1013E00051E064E271E090E080E00E945505FF91D9
:1013F000EF91BF91AF919F918F917F916F915F918D
:101400004F913F912F910F900BBE0F900FBE0F90F9
:101410001F9018951F920F920FB60F9211240BB6C2
:101420000F922F933F934F935F936F937F938F937D
:101430009F93AF93BF93EF93FF9348EA50E064EA22
:1014400070E083E090E00E945505FF91EF91BF911D
:10145000AF919F918F917F916F915F914F913F914C
:101460002F910F900BBE0F900FBE0F901F901895ED
:101470001F920F920FB60F9211240BB60F922F935B
:101480003F934F935F936F937F938F939F93AF930C
:10149000BF93EF93FF9348E950E064E970E082E086
:1014A00090E00E945505FF91EF91BF91AF919F9100
:1014B0008F917F916F915F914F913F912F910F90FD
:1014C0000BBE0F900FBE0F901F9018951F920F929A
:1014D0000FB60F9211240BB60F922F933F934F9399
:1014E0005F936F937F938F939F93AF93BF93EF938C
:1014F000FF9348E850E064E870E081E090E00E94EB
:101500005505FF91EF91BF91AF919F918F917F9181
:101510006F915F914F913F912F910F900BBE0F9064
:101520000FBE0F901F901895FC0190910A04903304
:1015300098F481E0890F80930A049083892F90E0CA
:10154000FC01EE0FFF1FE80FF91FEC5EFB4F88EB6D
:101550009BE09283818308958FEF80830895EFEB62
:10156000F4E01382128288EE93E0A0E0B0E084837E
:101570009583A683B7838CE092E09183808385EC8A
:1015800090E09587848784EC90E09787868780EC4D
:1015900090E0918B808B81EC90E0938B828B82EC3E
:1015A00090E0958B848B86EC90E0978B868B118EE8
:1015B000128E138E148EECE5F5E0168217821086DB
:1015C0001186128613861486158616861786108A4B
:1015D000118A128A138A148A158A8EEA95E00E946B
:1015E000940A8BEA95E00E94940A88EA95E00E94AA
:1015F000940A85EA95E00E94940A82EA95E00C94A8
:10160000940A789484B5826084BD84B5816084BD79
:1016100085B5826085BD85B5816085BD80916E0090
:10162000816080936E0010928100809181008260C1
:1016300080938100809181008160809381008091FE
:1016400080008160809380008091B10084608093ED
:10165000B1008091B00081608093B00080919100D2
:1016600082608093910080919100816080939100CD
:10167000809190008160809390008091A1008260B1
:101680008093A1008091A10081608093A10080914E
:10169000A00081608093A0008091210182608093EE
:1016A000210180912101816080932101809120019D
:1016B00081608093200180917A00846080937A0019
:1016C00080917A00826080937A0080917A008160B4
:1016D00080937A0080917A00806880937A001092DB
:1016E000C10010929E0510929F051092A0051092C5
:1016F000A10510925E0510925F0510926005109290
:1017000061050E9445046B017C014B015C0188EB83
:10171000880E8BE0981EA11CB11C0E9445046C151C
:101720007D058E059F0528F086169706A806B90642
:10173000A0F768EE73E080E090E00E9413040E943E
:1017400098010E94450460935E0570935F05809345
:1017500060059093610580E993E00E9446070E942E
:1017600045046B017C014B015C018AE0880E911CF1
:10177000A11CB11C0E9445046C157D058E059F05BA
:1017800028F086169706A806B906A0F781E0809390
:1017900072050E94450460935E0570935F05809317
:1017A00060059093610581EA93E00E9446070E94DC
:1017B000980188EA93E00E94B80763E070E08EEA3F
:1017C00095E00E94CD0464E070E08BEA95E00E9411
:1017D000CD0465E070E088EA95E00E94CD0466E003
:1017E00070E085EA95E00E94CD0467E070E082EA4F
:1017F00095E00E94CD0470E060E08EEA95E00E94E2
:10180000510470E060E08BEA95E00E94510464EBC3
:1018100070E088EA95E00E94510470E060E085EA9B
:1018200095E00E94510464EB70E082EA95E00E942A
:10183000510460E089E00E94B20362E08BE00E9404
:10184000B20361E08DE00E94B20361E08EE10E948C
:10185000B20361E08FE10E94B20361E080E20E9486
:10186000B20361E081E20E94B20361E086E10E947E
:10187000B20361E086E10E94B20361E087E10E9469
:10188000B20361E088E10E94B20361E089E10E9455
:10189000B20361E08AE10E94B20361E08BE10E9441
:1018A000B20361E08CE10E94B203F8E54F2EF2E052
:1018B0005F2E08E810E0C4EBD0E0772473948091A9
:1018C000A7056201C81AD10887FDD394CC0CDD1C92
:1018D000CC0CDD1C0D2C000CEE08FF088091A60539
:1018E0004801881A910887FD9394880C991C880CEC
:1018F000991C092C000CAA08BB082091A50590E0B2
:1019000080E02F3FD1F030E0C901880F991F820F8E
:10191000931FFC01EC5EFB4F8181928153E0880FA5
:10192000991F5A95E1F7B0E0A0E064E0B595A7955E
:10193000979587956A95D1F702969C012F5F3F4F47
:10194000032E000C440B550B281939094A095B0971
:10195000A4EBB0E00E941B14A701960128193909D5
:101960004A095B090E94FC13CA01B90197FF43C0F1
:101970000E9497078AE192E00E94460789E00E9450
:101980005B039093BE048093BD042091BB0430910F
:10199000BC048217930709F429C2019709F026C2F3
:1019A0008091BA04811192C27092BA048AEB93E0DA
:1019B0000E94B8078091B8049091B904892B09F06E
:1019C0000BC2E091A604F091A704E830F10508F0FD
:1019D00003C21092A5041092A4048827ED50F34F7F
:1019E0008F4F0C944914FF0C310D880DC90D0A0E50
:1019F000520E9A0EC10E4AE00E945307BBCFE090F0
:101A0000A404F090A50484EBE816F1040CF0E4C102
:101A1000B7018BEA95E00E9451046E01CE18DF08F1
:101A2000B60188EA95E00E94510487E9E816F104BE
:101A30002CF4B70185EA95E00E945104B60182EAD0
:101A400095E00E94510465E070E080E090E00E9423
:101A500013048FEFE81AF80AF092A504E092A404A8
:101A6000CECFE090A404F090A50484EBE816F10436
:101A70009CF4B7018EEA95E00E94510465E070E0A5
:101A800080E090E00E9413048FEFE81AF80AF092C9
:101A9000A504E092A404E5CF64EF71E080E090E05B
:101AA0000E9413041092A5041092A404E090A404D0
:101AB000F090A50484EBE816F1040CF08DC1B70199
:101AC0008BEA95E00E9451046E01CE18DF08B60142
:101AD00088EA95E00E94510487E9E816F1042CF4A5
:101AE000B70185EA95E00E945104B60182EA95E0CB
:101AF0000E94510465E070E080E090E00E941304D1
:101B00008FEFE81AF80AF092A504E092A404CECF71
:101B1000E090A404F090A50484EBE816F1049CF492
:101B2000B7018EEA95E00E94510465E070E080E024
:101B300090E00E9413048FEFE81AF80AF092A504CF
:101B4000E092A404E5CF64EF71E080E090E00E94B1
:101B500013041092A5041092A404E090A404F09041
:101B6000A50484EBE816F1040CF036C1B7018BEA4A
:101B700095E00E94510465E070E080E090E00E94F2
:101B800013048FEFE81AF80AF092A504E092A40477
:101B9000E4CFE090A404F090A50484EBE816F104EF
:101BA0009CF4B7018EEA95E00E94510465E070E074
:101BB00080E090E00E9413048FEFE81AF80AF09298
:101BC000A504E092A404E5CF64EF71E080E090E02A
:101BD0000E9413041092A5041092A404E090A4049F
:101BE000F090A50484EBE816F1040CF0F5C0B70101
:101BF0008BEA95E00E94510465E070E080E090E09F
:101C00000E9413048FEFE81AF80AF092A504E092FC
:101C1000A404E4CFE090A404F090A50484EBE816BB
:101C2000F1049CF4B7018EEA95E00E94510465E04E
:101C300070E080E090E00E9413048FEFE81AF80A49
:101C4000F092A504E092A404E5CF64EF71E080E097
:101C500090E00E9413041092A5041092A404E09056
:101C6000A404F090A50484EBE816F1040CF0B4C0D1
:101C7000B7018BEA95E00E945104BE016E197F09FD
:101C800088EA95E00E94510465E070E080E090E011
:101C90000E9413048FEFE81AF80AF092A504E0926C
:101CA000A404DDCFE090A404F090A50484EBE81632
:101CB000F1049CF4B7018EEA95E00E94510465E0BE
:101CC00070E080E090E00E9413048FEFE81AF80AB9
:101CD000F092A504E092A404E5CF64EF71E080E007
:101CE00090E00E9413041092A5041092A404E090C6
:101CF000A404F090A50484EBE816F1040CF06CC089
:101D0000B7018BEA95E00E945104BE016E197F096C
:101D100088EA95E00E94510465E070E080E090E080
:101D20000E9413048FEFE81AF80AF092A504E092DB
:101D3000A404DDCFE090A404F090A50484EBE816A1
:101D4000F1040CF049C0BE016E197F0988EA95E0E4
:101D50000E94510487E9E816F1042CF4B70185EAE2
:101D600095E00E94510465E070E080E090E00E9400
:101D700013048FEFE81AF80AF092A504E092A40485
:101D8000D9CFE090A404F090A50484EBE816F10408
:101D90001CF5B7018BEA95E00E94510487E9E8162B
:101DA000F1042CF4B70185EA95E00E945104BE01CC
:101DB0006E197F0982EA95E00E94510465E070E0A7
:101DC00080E090E00E9413048FEFE81AF80AF09286
:101DD000A504E092A404D5CF8091B8049091B904F1
:101DE000019721F48DEB93E00E94B8078091BD0428
:101DF0009091BE049093BC048093BB048091B60480
:101E00009091B704009709F036C48091B80490917E
:101E1000B9040197E9F580910002909101020097C1
:101E200009F47DC20197A1F590E080E00E940F06C1
:101E300086E40E94330665E070E080E090E00E9456
:101E4000130481E090E00E940F0682E70E943306AF
:101E500065E070E080E090E00E94130482E090E092
:101E60000E940F0685E40E94330665E070E080E082
:101E700090E00E94130483E090E00E940F0680E34C
:101E80000E94330665E070E080E090E00E94130459
:101E90008091B8049091B904892B09F0A0C2E09117
:101EA000A604F091A704E830F10508F098C290E08C
:101EB0008827E25AF04F8F4F0C944914BC115512E9
:101EC0008112A012BF12DE12FD121C131092BA046E
:101ED0008CEC93E00E94B8078091B8049091B9040B
:101EE000892B09F012C2E091A604F091A704E83012
:101EF000F10508F00AC2D093A504C093A404882772
:101F0000EB57F04F8F4F0C9449148D0FC00F1710E3
:101F100056109510E1102D115511E090A404F09089
:101F2000A5041E141F040CF0F0C185EBE816F104A3
:101F30002CF4B7018BEA95E00E9451046E01CE1893
:101F4000DF08D7FC1DC4B60188EA95E00E94510461
:101F500087E9E816F1040CF418C4B60182EA95E0AA
:101F60000E94510465E070E080E090E00E9413045C
:101F700081E0E81AF108F092A504E092A404CDCF24
:101F8000E090A404F090A5041E141F045CF585EBFA
:101F9000E816F1042CF4B7018BEA95E00E94510495
:101FA0006E01CE18DF08D7FCF8C3B60188EA95E0C9
:101FB0000E94510487E9E816F1040CF4F3C3B6015A
:101FC00082EA95E00E94510465E070E080E090E0D4
:101FD0000E94130481E0E81AF108F092A504E0924F
:101FE000A404CECF64EF71E080E090E00E9413047F
:101FF000D093A504C093A404E090A404F090A50499
:102000001E141F040CF081C1B7018EEA95E00E94F6
:10201000510465E070E080E090E00E94130481E0EC
:10202000E81AF108F092A504E092A404E5CFE0904C
:10203000A404F090A5041E141F049CF4B7018BEABD
:1020400095E00E94510465E070E080E090E00E941D
:10205000130481E0E81AF108F092A504E092A404C8
:10206000E6CF64EF71E080E090E00E941304D0932B
:10207000A504C093A404E090A404F090A5041E1449
:102080001F040CF042C1B7018EEA95E00E94510492
:1020900065E070E080E090E00E94130481E0E81ABF
:1020A000F108F092A504E092A404E5CFE090A40426
:1020B000F090A5041E141F049CF4B7018BEA95E070
:1020C0000E94510465E070E080E090E00E941304FB
:1020D00081E0E81AF108F092A504E092A404E6CFAA
:1020E00064EF71E080E090E00E941304D093A504B7
:1020F000C093A404E090A404F090A5041E141F044F
:102100000CF003C1B7018EEA95E00E94510465E02E
:1021100070E080E090E00E94130481E0E81AF1088A
:10212000F092A504E092A404E5CFE090A404F0901E
:10213000A5041E141F0404F585EBE816F1042CF425
:10214000B7018BEA95E00E945104BE016E197F0928
:1021500077FD04C088EA95E00E94510465E070E0D4
:1021600080E090E00E94130481E0E81AF108F09208
:10217000A504E092A404D9CF64EF71E080E090E080
:102180000E941304D093A504C093A404E090A40477
:10219000F090A5041E141F040CF0B7C0B7018EEA1E
:1021A00095E00E94510465E070E080E090E00E94BC
:1021B000130481E0E81AF108F092A504E092A40467
:1021C000E5CFE090A404F090A5041E141F0404F5CC
:1021D00085EBE816F1042CF4B7018BEA95E00E9438
:1021E0005104BE016E197F0977FD04C088EA95E0AD
:1021F0000E94510465E070E080E090E00E941304CA
:1022000081E0E81AF108F092A504E092A404D9CF85
:1022100064EF71E080E090E00E941304D093A50485
:10222000C093A404E090A404F090A5041E141F041D
:102230000CF06BC0B7018EEA95E00E94510465E096
:1022400070E080E090E00E94130481E0E81AF10859
:10225000F092A504E092A404E5CFE090A404F090ED
:10226000A5041E141F040CF050C0BE016E197F0996
:1022700077FD04C088EA95E00E94510487E9E816DA
:10228000F1042CF4B70185EA95E00E94510465E061
:1022900070E080E090E00E94130481E0E81AF10809
:1022A000F092A504E092A404D8CFE090A404F090AA
:1022B000A5041E141F044CF585EBE816F1042CF45C
:1022C000B7018BEA95E00E94510487E9E816F10412
:1022D0002CF4B70185EA95E00E945104BE016E1905
:1022E0007F0977FD04C082EA95E00E94510465E011
:1022F00070E080E090E00E94130481E0E81AF108A9
:10230000F092A504E092A404D0CF8091B8049091FB
:10231000B904019709F06ACD80ED93E065CD90E0B6
:1023200080E00E940F0686E40E94330665E070E0BC
:1023300080E090E00E94130481E090E00E940F068C
:1023400082E70E94330665E070E080E090E00E9442
:10235000130482E090E00E940F0685E40E94330699
:1023600065E070E080E090E00E94130483E090E07C
:102370000E940F0681E384CD80E00E940F0682E672
:102380000E94330665E070E080E090E00E94130454
:1023900081E090E00E940F0681E40E94330665E030
:1023A00070E080E090E00E94130482E090E00E94E0
:1023B0000F0683E50E94330665E070E080E090E060
:1023C0000E94130483E090E00E940F0680E30E94C5
:1023D000330665E070E080E090E00E9413048BE03B
:1023E0000E945B03909307028093060220910402EF
:1023F000309105028217930731F1892B09F099C1B9
:102400000E9445047093AF046093AE0420910202D1
:10241000309103027B01E21AF30AF092AD04E092DC
:10242000AC0461E08DE00E94840383E3E81AF108C4
:1024300085EDE81686E0F80630F47092B30481EE7C
:1024400093E00E94460780910602909107029093C4
:102450000502809304028091B304811123C080910E
:10246000B2048823F9F00E944504209102023091C1
:102470000302621B730B7093B1046093B004613D5F
:10248000774084F08CEE93E00E9446078091B00480
:102490009091B1040E9414088BE192E00E944607DB
:1024A0000E941E080E94C3020ACA80E00E940F0612
:1024B00082E60E94330665E070E080E090E00E94D2
:1024C000130481E090E00E940F0681E40E9433062D
:1024D00065E070E080E090E00E94130482E090E00C
:1024E0000E940F0683E50E94330665E070E080E0FD
:1024F00090E00E94130483E090E00E940F0681E3C5
:1025000066CF80E00E940F0680E50E94330665E0FA
:1025100070E080E090E00E94130481E090E00E946F
:102520000F0689E60E94330665E070E080E090E0E7
:102530000E94130482E090E00E940F068EE63ACFDC
:1025400080E00E940F0680E50E94330665E070E09F
:1025500080E090E00E94130481E090E00E940F066A
:1025600089E60E94330665E070E080E090E00E941A
:10257000130482E090E00E940F068EE6B4CF80E064
:102580000E940F0684E70E94330665E070E080E059
:1025900090E00E94130481E090E00E940F0682E721
:1025A0000E94330665E070E080E090E00E94130432
:1025B00082E090E00E940F0689E6FCCE80E00E9457
:1025C0000F0684E70E94330665E070E080E090E04B
:1025D0000E94130481E090E00E940F0682E70E94AF
:1025E000330665E070E080E090E00E94130482E032
:1025F00090E00E940F0689E676CF80E00E940F06E9
:1026000085E40E94330665E070E080E090E00E947F
:10261000130481E090E00E940F0688E50E943306D3
:1026200065E070E080E090E00E94130482E090E0BA
:102630000E940F0684E7BECE80E00E940F0685E46C
:102640000E94330665E070E080E090E00E94130491
:1026500081E090E00E940F0688E50E94330665E065
:1026600070E080E090E00E94130482E090E00E941D
:102670000F0684E738CF8130910599F00297C9F1B0
:102680000E9445042091B4043091B504621B730B81
:10269000613D77400CF4A3CE1092B7041092B604BB
:1026A0009ECE90E080E00E940F0682E60E943306F4
:1026B00065E070E080E090E00E94130481E090E02B
:1026C0000E940F0681E40E94330665E070E080E01E
:1026D00090E00E94130482E090E00E940F0684E7DD
:1026E0000E94330665E070E080E090E00E941304F1
:1026F000C7CF90E080E00E940F068CE40E94330672
:1027000065E070E080E090E00E94130481E090E0DA
:102710000E940F068FE60E94330665E070E080E0BD
:1027200090E00E94130482E090E00E940F0683E68E
:10273000D7CF0E9445047093030260930202209158
:10274000AE043091AF04621B730B7093AB046093C3
:10275000AA048091A8049091A90401969093A904D9
:102760008093A8047092B20460E08DE00E9484031C
:102770008091B304882309F466CE0E941E0863CEBC
:1027800087E9E816F1040CF0EDCBB70185EA95E096
:102790000E945104D7FEE1CBE5CB87E9E816F104AE
:1027A0000CF012CCB70185EA95E00E945104D7FEE7
:1027B00006CC0ACCA1E21A2EAA1BBB1BFD010DC040
:1027C000AA1FBB1FEE1FFF1FA217B307E407F507E1
:1027D00020F0A21BB30BE40BF50B661F771F881FBD
:1027E000991F1A9469F760957095809590959B0153
:1027F000AC01BD01CF010895052E97FB1EF4009496
:102800000E94131457FD07D00E94DA1307FC03D06F
:102810004EF40C94131450954095309521953F4FEC
:102820004F4F5F4F089590958095709561957F4FBC
:102830008F4F9F4F08950E942E14A59F900DB49F17
:10284000900DA49F800D911D11240895B7FF0C9445
:102850001B140E941B14821B930B0895A29FB001AE
:10286000B39FC001A39F700D811D1124911DB29FC4
:10287000700D811D1124911D0895991B79E004C0EC
:10288000991F961708F0961B881F7A95C9F78095AF
:102890000895EE0FFF1F881F8BBF0790F691E02D64
:0628A0001994F894FFCF2B
:1028A6000100FFFF01000100000000005602C00108
:1028B600ED01A3021E02FC0110020D0A004375720F
:1028C60072656E743A204261736963202D204669F1
:1028D60073740043757272656E743A20426173694F
:1028E60063202D20477269700043757272656E749D
:1028F6003A2050696E63686573202D2050696E63B7
:10290600680043757272656E743A2050696E63682A
:102916006573202D2050696E63684E6F4669737427
:102926000043757272656E743A20547269706F64F2
:1029360073202D20547269706F640043757272653E
:102946006E743A20547269706F6473202D2054722D
:1029560069706F64684E6F4669737400437572726E
:10296600656E743A20457874726147726970732097
:102976002D204578747261310043757272656E74EC
:102986003A2045787472614772697073202D20452C
:102996007874726132004275746F6E756C206120B6
:1029A600666F737420617061736174206F206A753D
:1029B6006D617461746520646520736563756E640A
:1029C600610057495448205448554D4200574954D0
:1029D600484F5554205448554D50002E2E2E4C6FBE
:1029E600636B696E6720536572766F732E2E2E00A9
:1029F6002E2E2E4368616E67696E67204D6F646583
:102A06002E2E2E002E2E2E5368757420646F776E30
:102A16002E2E2E002D2D2D20417520666F737420CD
:102A2600002061706173617269202D2D2D200A00CE
:102A3600564D4450565F317C315F564D4450560AD0
:102A460000564D4450525F000A0A21214E657720F8
:102A560073657373696F6E2121004F6E00464C4596
:102A660058414D2043552053504F52004F66660043
:102A7600455854494E44454D2043552053504F52D6
:102A86000043726574696E756C650A006D696C6CDD
:102A960069732829202D2070726573735F73746FB4
:042AA600703A200062
:00000001FF
