:100000000C9465010C9496010C9496010C94960145
:100010000C9496010C9496010C9496010C94960104
:100020000C9496010C9496010C9496010C949601F4
:100030000C9496010C9496010C9496010C949601E4
:100040000C9496010C94780B0C9496010C949601E8
:100050000C9496010C9496010C9496010C94A40AAD
:100060000C9496010C946E0A0C94440A0C9496011C
:100070000C9496010C9496010C9496010C949601A4
:100080000C944A0B0C9496010C9496010C949601D6
:100090000C9496010C9496010C9496010C94960184
:1000A0000C9496010C9496010C941C0B0C949601E4
:1000B0000C9496010C9496010C9496010C94EE0A03
:1000C0000C9496010C9496010C9496010C94960154
:1000D0000C9496010C9496010C9496010C94960144
:1000E0000C9496010C949D0E0C942B140C94250FDB
:1000F0000C94E10E0C94C0010C9449030C94ED0196
:100100000C9445030C94C30F0C9490100C94A30210
:100110000C942D030C9456020C9457030C94FC0180
:100120000C9410020C941C030C9416100C94AF1336
:100130000C94230E0C94CE130C9453030C94D40DF6
:100140000C9453100C94A80D0C94930F0C94200352
:100150000C94C10B0C940C140C9437030C941803DE
:100160000C94D9100C94ED130C944D030C941E02B6
:100170000C9452030C9427030C9422110C946413D6
:100180000C9431030C9424030C943B030C94600EE8
:100190000C943F030C94460F0C945C120C94901337
:1001A0000C9412030C944811000021002400270035
:1001B0002A002D0030003300010100000401070176
:1001C0000A0100002200250028002B002E0031002B
:1001D000340002010000050108010B0100002000AD
:1001E0002300260029002C002F003200000100000F
:1001F00003010601090105050505070508080808AA
:10020000020202020A0A08080404040401010101AE
:1002100001010101030303030303030304070707A9
:100220000C0C0C0C0C0C0C0C02020202060606064E
:10023000060606060B0B0B0B0B0B0B0B010210201B
:10024000200808102040102040800201020108040C
:1002500002010102040810204080804020100804A0
:1002600002018004020180402010080402010804F9
:10027000020101020408102040800102040810203D
:10028000408000000A0B02090C0D0E080703040150
:10029000000000000000000000000000000000005E
:1002A000000000000000000000000000000012112B
:1002B000100000000000000000000000000000002E
:1002C0000000000000000000C10B11241FBECFEF92
:1002D000D1E2DEBFCDBF00E00CBF13E0A0E0B2E092
:1002E000E8E4FBE200E00BBF02C007900D92A83EDD
:1002F000B107D9F725E0A8EEB3E001C01D92A339FC
:10030000B207E1F711E0C5E6D1E000E006C02197B1
:100310000109802FFE010E949A15C436D10780E0A2
:100320000807A9F70E94130C0C94A2150C94000066
:10033000E1EAF4E0A089B18982E08C93A485B585D7
:100340001C92A685B7858FEC8C93108EA489B589F5
:1003500086E08C93A289B3898C9180618C93A28969
:10036000B3898C9188608C93A289B3898C918068C1
:100370008C930288F389E02D80818F7D808308959E
:10038000AF92BF92CF92DF92EF92FF920F931F93A3
:10039000CF93DF936C017B018B01040F151FEB01E1
:1003A0005E01AE18BF08C017D10759F06991D60198
:1003B000ED91FC910190F081E02DC6011995892BFA
:1003C00079F7C501DF91CF911F910F91FF90EF90C9
:1003D000DF90CF90BF90AF900895FC01538D448D76
:1003E000252F30E0842F90E0821B930B541710F0E0
:1003F000CF96089501970895FC01918D828D9817ED
:1004000061F0A28DAE0FBF2FB11D5D968C91928DC4
:100410009F5F9F73928F90E008958FEF9FEF0895F5
:10042000FC01918D828D981731F0828DE80FF11DBE
:10043000858D90E008958FEF9FEF0895FC01918DD9
:10044000228D892F90E0805C9F4F821B91098F73D2
:100450009927089581EA94E00E941E0221E0892BE9
:1004600009F420E0822F0895FC01A48DA80FB92F74
:10047000B11DA35ABF4F2C91848D90E001968F73CC
:100480009927848FA689B7892C93A089B1898C91EB
:10049000837080648C93938D848D981306C002883A
:1004A000F389E02D80818F7D80830895EF92FF9204
:1004B0000F931F93CF93DF93EC0181E0888F9B8D87
:1004C0008C8D98131AC0E889F989808185FF15C041
:1004D0009FB7F894EE89FF896083E889F989808164
:1004E0008370806480839FBF81E090E0DF91CF9133
:1004F0001F910F91FF90EF900895F62E0B8D10E055
:100500000F5F1F4F0F731127E02E8C8D8E110CC0C3
:100510000FB607FCFACFE889F989808185FFF5CF0E
:10052000CE010E943402F1CFEB8DEC0FFD2FF11DB7
:10053000E35AFF4FF0829FB7F8940B8FEA89FB894B
:1005400080818062CFCFCF93DF93EC01888D8823A9
:10055000B9F0AA89BB89E889F9898C9185FD03C026
:10056000808186FD0DC00FB607FCF7CF8C9185FF0B
:10057000F2CF808185FFEDCFCE010E943402E9CF1A
:10058000DF91CF91089580E090E0892B29F00E94BF
:100590002A0281110E94000080E090E0892B49F03E
:1005A00080E090E0892B29F00E94000081110E94D8
:1005B000000080E090E0892B49F080E090E0892BFA
:1005C00029F00E94000081110E94000080E090E06C
:1005D000892B49F080E090E0892B29F00E940000EF
:1005E00081110C94000008958150823108F05AC0A6
:1005F000E82FF0E08827E050FD4F8F4F0C949A15BC
:1006000020032403120318031C03520327032D03A2
:10061000310337033B033F034503490352034D03B3
:1006200053035703809180008F7780938000089553
:10063000809180008F7DF9CF80918000877FF5CFFA
:1006400084B58F7784BD089584B58F7DFBCF80916D
:10065000B0008F778093B00008958091B0008F7DB7
:10066000F9CF809190008F778093900008958091CA
:1006700090008F7DF9CF80919000877FF5CF80919A
:10068000A0008F778093A00008958091A0008F7DB7
:10069000F9CF8091A000877FF5CF809120018F77DF
:1006A000809320010895809120018F7DF9CF809162
:1006B0002001877FF5CFCF93DF93282F30E0F9011A
:1006C000EE57FD4F8491F901E45CFD4FD491F9019F
:1006D000EA50FE4FC491CC23A1F081110E94F40294
:1006E000EC2FF0E0EE0FFF1FE452FE4FA591B49106
:1006F000EC91ED2381E090E009F480E0DF91CF916F
:10070000089580E090E0FACF1F93CF93DF93282FD6
:1007100030E0F901EE57FD4F8491F901E45CFD4FA3
:10072000D491F901EA50FE4FC491CC23A9F0162FC1
:1007300081110E94F402EC2FF0E0EE0FFF1FEE5348
:10074000FE4FA591B4918FB7F894EC91111108C0A8
:10075000D095DE23DC938FBFDF91CF911F91089559
:10076000DE2BF8CFCF93DF9390E0FC01E45CFD4FEC
:1007700024918A509E4FFC0184918823C9F090E017
:10078000880F991FFC01E855FE4FA591B491FC011B
:10079000EE53FE4FC591D49161110DC09FB7F894EF
:1007A0008C91209582238C938881282328839FBF56
:1007B000DF91CF910895623051F49FB7F8943C9146
:1007C000822F809583238C93E8812E2BEFCF8FB7D8
:1007D000F894EC912E2B2C938FBFEACF3FB7F8946F
:1007E0008091840490918504A0918604B09187043F
:1007F00026B5A89B05C02F3F19F00196A11DB11D7C
:100800003FBFBA2FA92F982F8827BC01CD01620FB7
:10081000711D811D911D42E0660F771F881F991F72
:100820004A95D1F708958F929F92AF92BF92CF923F
:10083000DF92EF92FF924B015C010E94EE036B018D
:100840007C010E94EE036C197D098E099F09683EA8
:10085000734081059105A8F321E0821A9108A1084F
:10086000B10888EEC80E83E0D81EE11CF11C81148B
:100870009104A104B10429F7FF90EF90DF90CF908D
:10088000BF90AF909F908F9008952FB7F89460918C
:1008900080047091810480918204909183042FBF21
:1008A0000895CF92DF92EF92FF92CF93DF93EC0106
:1008B000603282E07807CCF5653B710514F064EB9B
:1008C00070E0898128E830E0281B310987FD3395E5
:1008D000220F331F220F331F6901330FEE08FF0869
:1008E0008A8128E532E0281B310987FD3395220FE4
:1008F000331F220F331F032E000C440B550B2C19F2
:100900003D094E095F09DB0177FF02C0B0E0A0E0BE
:100910000E94771524EB30E040E050E00E944D1536
:10092000C20ED31EE41EF51EB601E881E03370F559
:10093000298188E890E0821B910927FD9395880F13
:10094000991F880F991F681779077CF02A8188E51D
:1009500092E0821B910927FD9395880F991F880FBC
:10096000991F681779070CF4CB010297880F991F1C
:100970004FB7F8942E2F30E0F901EE0FFF1FE20F72
:10098000F31FE151FC4F928381834FBFDF91CF91E1
:10099000FF90EF90DF90CF9008951F93CF93DF9358
:1009A000EC01162F8881803308F04EC061E0812F62
:1009B0000E94B2038881282F30E0F901EE0FFF1F5B
:1009C000E20FF31FE151FC4F1F736081607C612BCC
:1009D000608319821A822CE0622F0E948E15829FFA
:1009E000B001112430E020E0AB01420F531FFA01A7
:1009F000EE0FFF1FE40FF51FE151FC4F908196FDB4
:100A000016C02F5F3F4F2C30310571F7813009F54B
:100A10001092800082E080938100109285001092F5
:100A20008400B19A80916F00826080936F00E881AA
:100A30008E2F90E0FC01EE0FFF1FE80FF91FE15130
:100A4000FC4F8081806480838881DF91CF911F91EA
:100A50000895823061F4109290008093910010927A
:100A600095001092940088BB80937100E0CF833092
:100A700069F41092A00082E08093A1001092A5007A
:100A80001092A40089BB80937200D1CF8111CFCF87
:100A90001092200182E08093210110922501109292
:100AA00024018ABB80937300C2CFAF92BF92CF92D2
:100AB000DF92EF92FF920F931F93CF93DF936B011F
:100AC0007A01EC01C651DC4F28813CE0389F80015F
:100AD000399F100D1124A090EE03B12C27FF1FC0E9
:100AE000FB011182108288818F5F88838881980141
:100AF000280F311D87FD3A95F6012A153B051CF498
:100B000088818C30C4F180819181049680349C4925
:100B100008F473C0F60180819181049670C08881C9
:100B20009801280F311D87FD3A952A153B05DCF603
:100B30008881A801480F511D87FD5A95FA01EE0FD3
:100B4000FF1FE40FF51FE151FC4F808186FFCBCFE3
:100B50008881F801E80FF11D87FDFA95CF01EE0FAE
:100B6000FF1FE80FF91FE151FC4F808160E08F7398
:100B70000E948403B8CF808191812881A801420F0F
:100B8000511D27FD5A959A01FA01EE0FFF1FE20F42
:100B9000F31FE151FC4F21813281820F931FF70136
:100BA0009183808388819801280F311D87FD3A95B4
:100BB000F901EE0FFF1FE20FF31FE151FC4F80819F
:100BC00086FF22C08881080F111D87FD1A95F80144
:100BD000EE0FFF1FE00FF11FE151FC4F808161E03C
:100BE0008F73DF91CF911F910F91FF90EF90DF9066
:100BF000CF90BF90AF900C94840380E49CE9F70100
:100C0000918380838FEF8883DF91CF911F910F9124
:100C1000FF90EF90DF90CF90BF90AF900895CF936B
:100C2000DF93EC0161E08EE10E94840361E08FE1DB
:100C30000E94840361E080E20E94840361E081E21B
:100C40000E94840360E080E2C130D10541F08FE171
:100C5000C230D10521F08EE1CD2B09F081E2DF9188
:100C6000CF910C948403833509F47DC0D4F5853489
:100C700009F4DFC0FCF4813309F4C9C0813409F4FC
:100C800068C0803309F001C161E086E10E948403FD
:100C900061E087E10E94840361E088E10E948403AF
:100CA00061E089E10E94840361E08AE10E9484039B
:100CB00061E086C08C3409F4C6C0803509F465C093
:100CC000863409F0E2C061E086E10E94840360E0BE
:100CD00087E10E94840360E088E10E94840360E071
:100CE0002BC0893609F457C054F48236C1F08336DC
:100CF00009F4C1C0883509F0C8C060E02BC08F3648
:100D000009F4ABC024F48E3609F461C0089582372B
:100D100009F473C060E0843709F48CC0089560E082
:100D200086E10E94840360E087E10E94840361E021
:100D300088E10E94840361E089E10E94840361E00C
:100D40008AE10E94840361E08BE10E94840361E0F8
:100D50003BC061E086E10E94840361E087E10E947C
:100D6000840361E0B9CF61E086E10E94840360E022
:100D700087E10E94840361E088E10E94840361E0CE
:100D800089E10E94840360E0DBCF61E086E10E949C
:100D9000840361E09DCF60E086E10E94840360E00F
:100DA00087E10E94840360E088E10E94840360E0A0
:100DB00089E10E94840361E08AE10E94840360E08B
:100DC0008BE10E94840360E08CE10C94840360E07A
:100DD00086E10E94840360E087E10E94840361E071
:100DE00088E10E94840360E089E10E94840361E05D
:100DF0008AE10E94840360E0A7CF60E086E10E9460
:100E0000840360E087E10E94840360E0E9CF60E052
:100E100086E10E94840361E087E10E94840361E02F
:100E200088E10E94840360E089E10E94840360E01D
:100E3000C3CF61E086E10E94840360E087E10E9405
:100E4000840360E075CF60E086E10E94840360E087
:100E500087E10E94840360E020CF60E086E10E9489
:100E6000840360E087E10E94840361E088E10E94DE
:100E7000840361E0B9CF60E086E10E94840360E012
:100E800087E10E94840360E0F1CF08950F931F93E0
:100E9000CF93DF9384EB90E090939B0480939A042C
:100EA00004EB10E0C0919A04D0919B041C161D061F
:100EB0009CF4B8016C1B7D0B84E895E00E94510402
:100EC00065E070E080E090E00E9413042197D093E9
:100ED0009B04C0939A04E6CFDF91CF911F910F91AD
:100EE00008950F931F93CF93DF9310929B0410925A
:100EF0009A0404EB10E0C0919A04D0919B04C43B87
:100F0000D1059CF4B8016C1B7D0B84E895E00E9430
:100F1000510465E070E080E090E00E9413042196A7
:100F2000D0939B04C0939A04E6CFDF91CF911F9199
:100F30000F910895CF93DF9384EB90E090939B04FF
:100F400080939A04C0919A04D0919B041C161D06AC
:100F50008CF4BE0187E895E00E94510465E070E0E2
:100F600080E090E00E9413042197D0939B04C093EB
:100F70009A04E8CFDF91CF910895CF93DF93109239
:100F80009B0410929A04C0919A04D0919B04C43B94
:100F9000D1058CF4BE0187E895E00E94510465E01C
:100FA00070E080E090E00E9413042196D0939B04AF
:100FB000C0939A04E8CFDF91CF910895FC0101908E
:100FC0000020E9F73197AF01481B590BBC0181EABA
:100FD00094E00C94C001CF93DF930E94DE07EC01F4
:100FE0008EE192E00E94DE078C0F9D1FDF91CF9172
:100FF00008958091E8039091E90381309105B9F05B
:1010000030F08230910519F1039789F108958091AC
:10101000880490918904009719F0019729F00895A8
:1010200081E292E00C94EB0787E392E0FBCF8091A2
:101030008804909189048230910519F0039721F07A
:1010400008958DE492E0EECF86E692E0EBCF8091BA
:101050008804909189048430910519F0059721F056
:10106000089585E892E0DECF8FE992E0DBCF8091B2
:101070008804909189048630910519F0079721F032
:10108000089580EC92E0CECF8DED92E0CBCF8F92A1
:101090009F92AF92BF92CF92DF92EF92FF920F9307
:1010A0001F93CF93DF93CDB7DEB7A1970FB6F89418
:1010B000DEBF0FBECDBF6C01990FEE08FF08F7FE33
:1010C00041C06DE281EA94E00E9456028C01222721
:1010D0003327A9012C193D094E095F0919A2CE0138
:1010E00081967C019AE0892E912CA12CB12CCA0109
:1010F000B901A50194010E942B15605DF70162936F
:101100007F01211531054105510589F790E080E007
:10111000309719F0CF010E94DE07800F911FA19632
:101120000FB6F894DEBF0FBECDBFDF91CF911F91F8
:101130000F91FF90EF90DF90CF90BF90AF909F9076
:101140008F900895A701960119A28E010F5D1F4F80
:101150008AE0C82ED12CE12CF12CCA01B901A701DB
:1011600096010E942B15605DF80162938F01211595
:1011700031054105510589F790E080E0309779F21B
:10118000CF010E94DE07CBCF0F931F93CF93DF9346
:1011900080919504813009F447C180918C0490912D
:1011A0008D04845691098438934000F58AEF92E0CB
:1011B0000E94EB0780910A0290910B02009709F4BC
:1011C00079C08130910581F42091080230910902A3
:1011D0002130310509F067C010920902109208020F
:1011E00086E293E00E94EB070E94F90780918C044D
:1011F00090918D04885E9340803D974080F48FE30A
:1012000093E00E94EB070E9445047093970460935B
:10121000960482E090E090939904809398048091E2
:101220008C0490918D04885B9B40803D974088F4AE
:1012300084E593E00E94EB0780910A0290910B02F3
:101240008130910509F4EDC0019690930B028093D3
:101250000A0280918C0490918D048838934124F087
:1012600088E693E00E94EB0788E793E00E94DE07A0
:1012700080918A0490918B040E94470885E893E04E
:101280000E94EB07109294041092950410928B0424
:1012900010928A0410928F0410928E04DF91CF91E5
:1012A0001F910F910895909309028093080281E3A2
:1012B00093E098CF8091E8039091E9038130910504
:1012C00041F190F08230910509F485C0039709F04F
:1012D0008BCF80918804909189048630910509F024
:1012E0009AC087E090E008C08091880490918904BA
:1012F000009739F481E090E090938904809388040A
:1013000073CF019709F070CF10928904109288046E
:101310006BCF80918804909189048230910559F5B2
:1013200083E090E090938904809388040E94710781
:101330000E94BD0710929B0410929A0404EB10E0E7
:10134000C0919A04D0919B04C43BD1050CF04CCFC2
:10135000B8016C1B7D0B8AE895E00E94510465E0A2
:1013600070E080E090E00E9413042196D0939B04EB
:10137000C0939A04E5CF039709F036CF82E090E05E
:1013800090938904809388040E9446070E949A07DC
:1013900084EB90E090939B0480939A0404EB10E01C
:1013A000C0919A04D0919B041C161D060CF01CCF12
:1013B000B8016C1B7D0B8AE895E00E94510465E042
:1013C00070E080E090E00E9413042197D0939B048A
:1013D000C0939A04E5CF8091880490918904843069
:1013E000910559F485E090E09093890480938804F6
:1013F0000E9471070E94BD07F7CE059709F0F4CE51
:1014000084E090E090938904809388040E944607CA
:101410000E949A07E9CE079709F0E6CE86E090E0B1
:101420006BCF90E080E011CF8091E8039091E903C9
:101430008330910549F41092E9031092E803109269
:101440008904109288040BC001969093E90380935D
:10145000E8038130910571F02CF4892B81F30E940F
:10146000F90702CF8230910561F00397C1F786E05A
:1014700090E002C082E090E0909389048093880419
:10148000EECF84E090E0F8CF1F920F920FB60F924C
:1014900011240BB60F922F933F934F935F936F934B
:1014A0007F938F939F93AF93BF93EF93FF9381EAC3
:1014B00094E00E943402FF91EF91BF91AF919F9110
:1014C0008F917F916F915F914F913F912F910F90ED
:1014D0000BBE0F900FBE0F901F9018951F920F928A
:1014E0000FB60F9211240BB60F922F938F939F93E9
:1014F000EF93FF93E091B104F091B2048081E09109
:10150000B704F091B80482FD1DC090818091BA04A7
:101510008F5F8F732091BB04821741F0E091BA0472
:10152000F0E0EF55FB4F958F8093BA04FF91EF9158
:101530009F918F912F910F900BBE0F900FBE0F9028
:101540001F9018958081F2CF1F920F920FB60F92C5
:1015500011242F933F938F939F93AF93BF938091C9
:10156000800490918104A0918204B0918304309111
:101570007F0423E0230F2D3758F50196A11DB11DDF
:1015800020937F048093800490938104A09382042D
:10159000B09383048091840490918504A091860483
:1015A000B09187040196A11DB11D8093840490938E
:1015B0008504A0938604B0938704BF91AF919F9157
:1015C0008F913F912F910F900FBE0F901F90189504
:1015D00026E8230F0296A11DB11DD2CF1F920F92B4
:1015E0000FB60F9211240BB60F922F933F934F9388
:1015F0005F936F937F938F939F93AF93BF93EF937B
:10160000FF9348E251E064E271E090E080E00E94E4
:101610005505FF91EF91BF91AF919F918F917F9170
:101620006F915F914F913F912F910F900BBE0F9053
:101630000FBE0F901F9018951F920F920FB60F922A
:1016400011240BB60F922F933F934F935F936F9399
:101650007F938F939F93AF93BF93EF93FF9348EA4A
:1016600050E064EA70E083E090E00E945505FF914D
:10167000EF91BF91AF919F918F917F916F915F910A
:101680004F913F912F910F900BBE0F900FBE0F9077
:101690001F9018951F920F920FB60F9211240BB640
:1016A0000F922F933F934F935F936F937F938F93FB
:1016B0009F93AF93BF93EF93FF9348E950E064E9A2
:1016C00070E082E090E00E945505FF91EF91BF919C
:1016D000AF919F918F917F916F915F914F913F91CA
:1016E0002F910F900BBE0F900FBE0F901F9018956B
:1016F0001F920F920FB60F9211240BB60F922F93D9
:101700003F934F935F936F937F938F939F93AF9389
:10171000BF93EF93FF9348E850E064E870E081E006
:1017200090E00E945505FF91EF91BF91AF919F917D
:101730008F917F916F915F914F913F912F910F907A
:101740000BBE0F900FBE0F901F901895FC0190914B
:10175000EE03903398F481E0890F8093EE03908339
:10176000892F90E0FC01EE0FFF1FE80FF91FE151F8
:10177000FC4F88EB9BE09283818308958FEF8083F9
:101780000895E1EAF4E01382128288EE93E0A0E08B
:10179000B0E084839583A683B78380E192E0918350
:1017A000808385EC90E09587848784EC90E0978730
:1017B000868780EC90E0918B808B81EC90E0938B1E
:1017C000828B82EC90E0958B848B86EC90E0978BFB
:1017D000868B118E128E138E148EEEE3F5E0168238
:1017E0001782108611861286138614861586168631
:1017F0001786108A118A128A138A148A158A80E938
:1018000095E00E94A60B8DE895E00E94A60B8AE861
:1018100095E00E94A60B87E895E00E94A60B84E85D
:1018200095E00C94A60B789484B5826084BD84B551
:10183000816084BD85B5826085BD85B5816085BDCB
:1018400080916E00816080936E0010928100809183
:10185000810082608093810080918100816080930B
:101860008100809180008160809380008091B10030
:1018700084608093B1008091B00081608093B0005B
:1018800080919100826080939100809191008160AD
:10189000809391008091900081608093900080916E
:1018A000A10082608093A1008091A100816080935B
:1018B000A1008091A00081608093A000809121010F
:1018C00082608093210180912101816080932101B8
:1018D0008091200181608093200180917A00846052
:1018E00080937A0080917A00826080937A00809160
:1018F0007A00816080937A0080917A00806880937A
:101900007A001092C1001092800510928105109209
:1019100082051092830510924005109241051092A5
:101920004205109243050E9445046B017C014B0166
:101930005C0188EB880E8BE0981EA11CB11C0E94F4
:1019400045046C157D058E059F0528F086169706C3
:10195000A806B906A0F768EE73E080E090E00E9468
:1019600013040E9498010E944504609340057093FF
:101970004105809342059093430584E993E00E94DA
:10198000DE070E9445046B017C014B015C018AE08B
:10199000880E911CA11CB11C0E9445046C157D058C
:1019A0008E059F0528F086169706A806B906A0F7AB
:1019B00081E0809354050E94450460934005709334
:1019C0004105809342059093430585EA93E00E9488
:1019D000DE070E9498018CEA93E00E94EB0763E027
:1019E00070E080E995E00E94CD0464E070E08DE84D
:1019F00095E00E94CD0465E070E08AE895E00E94E1
:101A0000CD0466E070E087E895E00E94CD0467E0D1
:101A100070E084E895E00E94CD0470E060E080E929
:101A200095E00E94510470E060E08DE895E00E942E
:101A3000510464EB70E08AE895E00E94510470E084
:101A400060E087E895E00E94510464EB70E084E870
:101A500095E00E94510460E089E00E94B20362E0D8
:101A60008BE00E94B20361E08DE00E94B20361E06E
:101A70008EE10E94B20361E08FE10E94B20361E057
:101A800080E20E94B20361E081E20E94B20361E061
:101A900086E10E94B20361E086E10E94B20361E048
:101AA00087E10E94B20361E088E10E94B20361E035
:101AB00089E10E94B20361E08AE10E94B20361E021
:101AC0008BE10E94B20361E08CE10E94B203C4EB9F
:101AD000D0E0FF24F39489E00E945B039093A0047C
:101AE00080939F0420919D0430919E048217930758
:101AF00009F4F8C3019709F0F5C380919C048111A2
:101B0000EBC1F0929C048EEB93E00E94EB07809176
:101B10000A0290910B02892B09F0E4C3E09188043A
:101B2000F0918904E830F10508F0DCC310929B04C1
:101B300010929A048827E056F24F8F4F0C949A1512
:101B4000A80DD40D230E600E9D0EE10E250F460F3D
:101B500000919A0410919B04043B11050CF0C2C340
:101B6000B8018DE895E00E9451046E01C01AD10AB7
:101B7000B6018AE895E00E945104B80187E895E033
:101B80000E945104B60184E895E00E94510465E08A
:101B900070E080E090E00E9413040F5F1F4F1093ED
:101BA0009B0400939A04D4CF00919A0410919B0453
:101BB000043B110594F4B80180E995E00E945104BA
:101BC00065E070E080E090E00E9413040F5F1F4F1B
:101BD00010939B0400939A04E7CF64EF71E080E0D8
:101BE00090E00E94130410929B0410929A040091BA
:101BF0009A0410919B04043B11050CF073C3B801C7
:101C00008DE895E00E9451046E01C01AD10AB60118
:101C10008AE895E00E945104B80187E895E00E94A7
:101C20005104B60184E895E00E94510465E070E03B
:101C300080E090E00E9413040F5F1F4F10939B04FD
:101C400000939A04D4CF00919A0410919B04043B12
:101C5000110594F4B80180E995E00E94510465E013
:101C600070E080E090E00E9413040F5F1F4F10931C
:101C70009B0400939A04E7CF64EF71E080E090E06A
:101C80000E94130410929B0410929A0400919A04EB
:101C900010919B04043B11050CF024C3B8018DE89E
:101CA00095E00E94510465E070E080E090E00E94C1
:101CB00013040F5F1F4F10939B0400939A04E6CF09
:101CC00000919A0410919B04043B110594F4B8010F
:101CD00080E995E00E94510465E070E080E090E0CA
:101CE0000E9413040F5F1F4F10939B0400939A04EC
:101CF000E7CF64EF71E080E090E00E94130410925F
:101D00009B0410929A0400919A0410919B04043B46
:101D100011050CF0E7C2B8018DE895E00E9451046E
:101D200065E070E080E090E00E9413040F5F1F4FB9
:101D300010939B0400939A04E6CF00919A041091AB
:101D40009B04043B110594F4B80180E995E00E94DE
:101D5000510465E070E080E090E00E9413040F5FA2
:101D60001F4F10939B0400939A04E7CF64EF71E038
:101D700080E090E00E94130410929B0410929A0459
:101D800000919A0410919B04043B11050CF0AAC227
:101D9000B8018DE895E00E945104BE01601B710BF3
:101DA0008AE895E00E94510465E070E080E090E0F0
:101DB0000E9413040F5F1F4F10939B0400939A041B
:101DC000DFCF00919A0410919B04043B110594F419
:101DD000B80180E995E00E94510465E070E080E080
:101DE00090E00E9413040F5F1F4F10939B04009319
:101DF0009A04E7CF64EF71E080E090E00E94130462
:101E000010929B0410929A0400919A0410919B04E2
:101E1000043B11050CF066C2B8018DE895E00E9404
:101E20005104BE01601B710B8AE895E00E945104C9
:101E300065E070E080E090E00E9413040F5F1F4FA8
:101E400010939B0400939A04DFCF00919A041091A1
:101E50009B04043B11050CF045C2BE01601B710BD5
:101E60008AE895E00E945104B80187E895E00E9455
:101E7000510465E070E080E090E00E9413040F5F81
:101E80001F4F10939B0400939A04DFCF00919A0494
:101E900010919B04043B11050CF024C2B8018DE89D
:101EA00095E00E945104B80187E895E00E94510432
:101EB000BE01601B710B84E895E00E94510465E04F
:101EC00070E080E090E00E9413040F5F1F4F1093BA
:101ED0009B0400939A04DACF10929C0481EC93E067
:101EE0000E94EB0780910A0290910B02892B09F066
:101EF000F9C1E0918804F0918904E830F10508F017
:101F0000F1C1D0939B04C0939A048827E557F04F02
:101F10008F4F0C949A15930FC30F161053109010F7
:101F2000D9102211481100919A0410919B041016A7
:101F300011060CF0D7C1053B11052CF4B8018DE852
:101F400095E00E9451046E01C01AD10AD7FC5EC50B
:101F5000B6018AE895E00E945104053B11050CF496
:101F600059C5B60184E895E00E94510465E070E02F
:101F700080E090E00E9413040150110910939B042B
:101F800000939A04D0CF00919A0410919B041016EC
:101F9000110644F5053B11052CF4B8018DE895E0D8
:101FA0000E9451046E01C01AD10AD7FC3BC5B6018C
:101FB0008AE895E00E945104053B11050CF436C5F2
:101FC000B60184E895E00E94510465E070E080E08D
:101FD00090E00E9413040150110910939B04009398
:101FE0009A04D1CF64EF71E080E090E00E94130486
:101FF000D0939B04C0939A0400919A0410919B047F
:10200000101611060CF06EC1B80180E995E00E942F
:10201000510465E070E080E090E00E9413040150FC
:10202000110910939B0400939A04E6CF00919A043F
:1020300010919B041016110694F4B8018DE895E0F8
:102040000E94510465E070E080E090E00E9413047B
:102050000150110910939B0400939A04E7CF64EF99
:1020600071E080E090E00E941304D0939B04C09341
:102070009A0400919A0410919B04101611060CF01A
:1020800031C1B80180E995E00E94510465E070E03B
:1020900080E090E00E9413040150110910939B040A
:1020A00000939A04E6CF00919A0410919B041016B5
:1020B000110694F4B8018DE895E00E94510465E0A2
:1020C00070E080E090E00E94130401501109109329
:1020D0009B0400939A04E7CF64EF71E080E090E006
:1020E0000E941304D0939B04C0939A0400919A0415
:1020F00010919B04101611060CF0F4C0B80180E991
:1021000095E00E94510465E070E080E090E00E945C
:1021100013040150110910939B0400939A04E6CF15
:1021200000919A0410919B0410161106F4F4053BDB
:1021300011052CF4B8018DE895E00E945104BE0110
:10214000601B710B77FD04C08AE895E00E94510482
:1021500065E070E080E090E00E94130401501109F6
:1021600010939B0400939A04DBCF64EF71E080E04E
:1021700090E00E941304D0939B04C0939A040091B2
:102180009A0410919B04101611060CF0ABC0B80114
:1021900080E995E00E94510465E070E080E090E005
:1021A0000E9413040150110910939B0400939A0498
:1021B000E6CF00919A0410919B0410161106F4F4D6
:1021C000053B11052CF4B8018DE895E00E945104FF
:1021D000BE01601B710B77FD04C08AE895E00E9488
:1021E000510465E070E080E090E00E94130401502B
:1021F000110910939B0400939A04DBCF64EF71E004
:1022000080E090E00E941304D0939B04C0939A0452
:1022100000919A0410919B04101611060CF062C0F4
:10222000B80180E995E00E94510465E070E080E02B
:1022300090E00E9413040150110910939B04009335
:102240009A04E6CF00919A0410919B04101611068F
:102250000CF048C0BE01601B710B77FD04C08AE81A
:1022600095E00E945104053B11052CF4B80187E864
:1022700095E00E94510465E070E080E090E00E94EB
:1022800013040150110910939B0400939A04DACFB0
:1022900000919A0410919B04101611061CF5053B41
:1022A000110554F4B8018DE895E00E945104B8017D
:1022B00087E895E00E945104BE01601B710B77FD19
:1022C00004C084E895E00E94510465E070E080E07D
:1022D00090E00E9413040150110910939B04009395
:1022E0009A04D6CF80919F049091A00490939E046D
:1022F00080939D0420910A0230910B022130310518
:1023000009F045C020919C04222309F448C3019799
:10231000F1F500919A0410919B04043B1105BCF562
:102320000F5F1F4F10939B0400939A04043B110509
:1023300029F0B8018DE895E00E9451046E01C01AA1
:10234000D10AB6018AE895E00E945104043B1105C8
:1023500029F0B80187E895E00E945104B60184E8AD
:1023600095E00E9451048091080290910902892B06
:1023700041F4043B110529F0B80180E995E00E9481
:1023800051046FE070E080E090E00E9413048091BF
:10239000980490919904009709F07CC280910A02F8
:1023A00090910B020197E9F5809108029091090242
:1023B000009709F454C00197A1F590E080E00E94D5
:1023C0000F0686E40E94330665E070E080E090E04E
:1023D0000E94130481E090E00E940F0682E70E94B1
:1023E000330665E070E080E090E00E94130482E034
:1023F00090E00E940F0685E40E94330665E070E0DD
:1024000080E090E00E94130483E090E00E940F06B9
:1024100080E30E94330665E070E080E090E00E9477
:10242000130480910A0290910B02892B09F077C066
:10243000E0918804F0918904E830F10508F06FC05C
:1024400090E08827E95DFD4E8F4F0C949A155C1241
:1024500064139013AF13CE13ED130C142B1490E0F0
:1024600080E00E940F0686E40E94330665E070E07B
:1024700080E090E00E94130481E090E00E940F064B
:1024800082E70E94330665E070E080E090E00E9401
:10249000130482E090E00E940F0685E40E94330658
:1024A00065E070E080E090E00E94130483E090E03B
:1024B0000E940F0681E3ADCF80E00E940F0682E606
:1024C0000E94330665E070E080E090E00E94130413
:1024D00081E090E00E940F0681E40E94330665E0EF
:1024E00070E080E090E00E94130482E090E00E949F
:1024F0000F0683E50E94330665E070E080E090E01F
:102500000E94130483E090E00E940F0680E30E9483
:10251000330665E070E080E090E00E9413048BE0F9
:102520000E945B03909307028093060220910402AD
:10253000309105028217930719F1892B09F008C21F
:102540000E944504709301026093000220910202F0
:10255000309103028B01021B130B10938F04009325
:102560008E0461E08DE00E94840303531109053D50
:10257000164030F4F092950485EC93E00E94DE075B
:1025800080910602909107029093050280930402C5
:1025900080919504811123C0809194048823F9F0DF
:1025A0000E9445042091020230910302621B730BCA
:1025B0007093930460939204613D774084F080EDC2
:1025C00093E00E94DE0780919204909193040E9410
:1025D00047088FE192E00E94DE070E94C40881E074
:1025E00090E090930702809306020E944504209198
:1025F0000002309101028B01021B130B1093910416
:1026000000939004C801855D9340879770F460E063
:102610008DE00E9484036AE070E080E090E00E9418
:10262000130461E08DE00E948403C8018D5B974034
:10263000879770F460E08DE00E9484036AE070E0A8
:1026400080E090E00E94130461E08DE00E9484032A
:10265000C801855A9B40879770F460E08DE00E9426
:1026600084036AE070E080E090E00E94130461E07F
:102670008DE00E948403C8018D589F40879770F4B5
:1026800060E08DE00E9484036AE070E080E090E00A
:102690000E94130461E08DE00E94840305571341FA
:1026A0000732110570F460E08DE00E9484036AE057
:1026B00070E080E090E00E94130461E08DE00E94F1
:1026C00084030E94C30207CA80E00E940F0682E6CC
:1026D0000E94330665E070E080E090E00E94130401
:1026E00081E090E00E940F0681E40E94330665E0DD
:1026F00070E080E090E00E94130482E090E00E948D
:102700000F0683E50E94330665E070E080E090E00C
:102710000E94130483E090E00E940F0681E3F7CE4D
:1027200080E00E940F0680E50E94330665E070E0BD
:1027300080E090E00E94130481E090E00E940F0688
:1027400089E60E94330665E070E080E090E00E9438
:10275000130482E090E00E940F068EE6CBCE80E06C
:102760000E940F0680E50E94330665E070E080E07D
:1027700090E00E94130481E090E00E940F0689E639
:102780000E94330665E070E080E090E00E94130450
:1027900082E090E00E940F068EE6B4CF80E00E94B7
:1027A0000F0684E70E94330665E070E080E090E069
:1027B0000E94130481E090E00E940F0682E70E94CD
:1027C000330665E070E080E090E00E94130482E050
:1027D00090E00E940F0689E68DCE80E00E940F06F1
:1027E00084E70E94330665E070E080E090E00E949C
:1027F000130481E090E00E940F0682E70E943306F6
:1028000065E070E080E090E00E94130482E090E0D8
:102810000E940F0689E676CF80E00E940F0685E4CD
:102820000E94330665E070E080E090E00E941304AF
:1028300081E090E00E940F0688E50E94330665E083
:1028400070E080E090E00E94130482E090E00E943B
:102850000F0684E74FCE80E00E940F0685E40E94B9
:10286000330665E070E080E090E00E94130481E0B0
:1028700090E00E940F0688E50E94330665E070E054
:1028800080E090E00E94130482E090E00E940F0636
:1028900084E738CF8130910599F00297C9F10E9401
:1028A00045042091960430919704621B730B613D9F
:1028B00077400CF434CE10929904109298042FCEE5
:1028C00090E080E00E940F0682E60E94330665E0F9
:1028D00070E080E090E00E94130481E090E00E94AC
:1028E0000F0681E40E94330665E070E080E090E02E
:1028F0000E94130482E090E00E940F0684E70E9489
:10290000330665E070E080E090E00E941304C7CFDA
:1029100090E080E00E940F068CE40E94330665E0A0
:1029200070E080E090E00E94130481E090E00E945B
:102930000F068FE60E94330665E070E080E090E0CD
:102940000E94130482E090E00E940F0683E6D7CF36
:102950000E944504709303026093020220910002DA
:1029600030910102621B730B70938D0460938C0491
:1029700080918A0490918B04019690938B048093AC
:102980008A04F092940460E08DE00E9484038091B8
:102990009504882309F4F4CD0E94C408F1CD019771
:1029A00009F0F5CC00919A0410919B0410161106C1
:1029B0000CF0EDCC0150110910939B0400939A0484
:1029C0000115110529F0B8018DE895E00E94510428
:1029D0006E01C01AD10AD7FC37C0B6018AE895E06B
:1029E0000E9451040115110549F5B60184E895E0EE
:1029F0000E9451048091080290910902892B09F0EC
:102A0000C0CC0115110509F4BCCCB6CC053B1105B1
:102A10000CF0ACCAB80187E895E00E945104D7FEDB
:102A2000A0CAA4CA053B11050CF0CFCAB80187E8BB
:102A300095E00E945104D7FEC3CAC7CAB80187E80F
:102A400095E00E945104D1CFB80187E895E00115C7
:102A5000110571F6CACFA1E21A2EAA1BBB1BFD01FC
:102A60000DC0AA1FBB1FEE1FFF1FA217B307E4076D
:102A7000F50720F0A21BB30BE40BF50B661F771FC5
:102A8000881F991F1A9469F76095709580959095A5
:102A90009B01AC01BD01CF010895052E97FB1EF4EB
:102AA00000940E94641557FD07D00E942B1507FC67
:102AB00003D04EF40C9464155095409530952195B3
:102AC0003F4F4F4F5F4F089590958095709561955A
:102AD0007F4F8F4F9F4F08950E947F15A59F900DA8
:102AE000B49F900DA49F800D911D11240895B7FFF0
:102AF0000C946C150E946C15821B930B0895A29F79
:102B0000B001B39FC001A39F700D811D1124911DC1
:102B1000B29F700D811D1124911D0895991B79E0BC
:102B200004C0991F961708F0961B881F7A95C9F75D
:102B300080950895EE0FFF1F881F8BBF0790F691B9
:082B4000E02D1994F894FFCF79
:102B4800FFFFFFFF0100010001000100000000007D
:102B58005602C001ED01A3021E02FC0110020D0A7B
:102B68000043757272656E743A204261736963201E
:102B78002D20466973740043757272656E743A202D
:102B88004261736963202D20477269700043757232
:102B980072656E743A2050696E63686573202D20E3
:102BA80050696E63680043757272656E743A20509E
:102BB800696E63686573202D2050696E63684E6F77
:102BC800466973740043757272656E743A20547264
:102BD80069706F6473202D20547269706F640043AC
:102BE800757272656E743A20547269706F647320DE
:102BF8002D20547269706F64684E6F466973740053
:102C080043757272656E743A2045787472614772C2
:102C1800697073202D204578747261310043757294
:102C280072656E743A204578747261477269707380
:102C3800202D20457874726132004275746F6E756C
:102C48006C206120666F73742061706173617420F9
:102C58006F206A756D6174617465206465207365A1
:102C680063756E64610057495448205448554D4275
:102C780000574954484F5554205448554D50002E3C
:102C88002E2E4C6F636B696E6720536572766F7377
:102C98002E2E2E002E2E2E4368616E67696E6720D9
:102CA8004D6F64652E2E2E002E2E2E5368757420BF
:102CB800646F776E2E2E2E002D2D2D2041752066E7
:102CC8006F737420002061706173617269202D2D0B
:102CD8002D200A00564D4450565F317C315F564DC9
:102CE8004450560A00564D4450525F000A0A2121AA
:102CF8004E65772073657373696F6E2121004F6E7F
:102D0800004F66660043726574696E756C650A00EB
:102D18006D696C6C69732829202D20707265737336
:082D28005F73746F703A200024
:020000023000CC
:10E000000D9489F10D94B2F10D94B2F10D94B2F129
:10E010000D94B2F10D94B2F10D94B2F10D94B2F1F0
:10E020000D94B2F10D94B2F10D94B2F10D94B2F1E0
:10E030000D94B2F10D94B2F10D94B2F10D94B2F1D0
:10E040000D94B2F10D94B2F10D94B2F10D94B2F1C0
:10E050000D94B2F10D94B2F10D94B2F10D94B2F1B0
:10E060000D94B2F10D94B2F10D94B2F10D94B2F1A0
:10E070000D94B2F10D94B2F10D94B2F10D94B2F190
:10E080000D94B2F10D94B2F10D94B2F10D94B2F180
:10E090000D94B2F10D94B2F10D94B2F10D94B2F170
:10E0A0000D94B2F10D94B2F10D94B2F10D94B2F160
:10E0B0000D94B2F10D94B2F10D94B2F10D94B2F150
:10E0C0000D94B2F10D94B2F10D94B2F10D94B2F140
:10E0D0000D94B2F10D94B2F10D94B2F10D94B2F130
:10E0E0000D94B2F141546D656761323536300041AF
:10E0F000726475696E6F206578706C6F72657220DE
:10E1000073746B3530305632206279204D4C530099
:10E11000426F6F746C6F616465723E004875683F52
:10E1200000436F6D70696C6564206F6E203D200048
:10E130004350552054797065202020203D20005FF9
:10E140005F4156525F415243485F5F3D2000415658
:10E1500052204C696243205665723D20004743437C
:10E160002056657273696F6E203D20004350552024
:10E1700049442020202020203D20004C6F7720663D
:10E18000757365202020203D20004869676820665F
:10E190007573652020203D200045787420667573D6
:10E1A00065202020203D20004C6F636B2066757336
:10E1B000652020203D20004D617220203720323024
:10E1C000313300312E362E3800342E332E350056A2
:10E1D00023202020414444522020206F7020636F70
:10E1E00064652020202020696E73747275637469E1
:10E1F0006F6E2061646472202020496E74657272B3
:10E20000757074006E6F20766563746F7200726A49
:10E210006D702020006A6D70200057686174207056
:10E220006F72743A00506F7274206E6F7420737541
:10E2300070706F72746564004D7573742062652030
:10E2400061206C6574746572002000577269747483
:10E25000696E672045450052656164696E672045B7
:10E26000450045452065727220636E743D00504F35
:10E27000525400303D5A65726F2061646472003FF1
:10E280003D43505520737461747300403D454550C3
:10E29000524F4D207465737400423D426C696E6B41
:10E2A000204C454400453D44756D70204545505215
:10E2B0004F4D00463D44756D7020464C415348001B
:10E2C000483D48656C70004C3D4C69737420492F83
:10E2D0004F20506F72747300513D51756974005234
:10E2E0003D44756D702052414D00563D73686F7707
:10E2F00020696E7465727275707420566563746FF0
:10E30000727300593D506F727420626C696E6B00BD
:10E310002A0011241FBECFEFD1E2DEBFCDBF01E046
:10E320000CBF12E0A0E0B2E0EEE1FDEF03E00BBFB6
:10E3300002C007900D92A030B107D9F712E0A0E01B
:10E34000B2E001C01D92AE30B107E1F70F9460F367
:10E350000D948DFE01E20EBF0FEF0DBF11241FBE05
:10E360000D9460F30D9400F020E030E040ED57E0B4
:10E3700005C0FA013197F1F72F5F3F4F2817390792
:10E38000C0F308959C01260F311DC901A0E0B0E043
:10E390002F5F3F4FABBFFC018791882361F08093D3
:10E3A000C6008091C00086FFFCCF8091C0008064D1
:10E3B0008093C000EACF08958DE08093C6008091DD
:10E3C000C00086FFFCCF8091C00080648093C000B5
:10E3D0008AE08093C6008091C00086FFFCCF8091C8
:10E3E000C00080648093C00008950F94C2F10F9420
:10E3F000DCF10895FC019081992359F09093C600B7
:10E400008091C00086FFFCCF8091C0008064809323
:10E41000C0003196992379F70895282F982F929567
:10E420009F70892F805D8A3308F0895F8093C600D2
:10E430008091C00086FFFCCF8091C00080648093F3
:10E44000C000822F8F70982F905D9A3308F0995FEB
:10E450009093C6008091C00086FFFCCF8091C000E1
:10E4600080648093C00008959C01FB01853691056E
:10E470001CF46330710594F0C90164E670E00F94F8
:10E480002EFE605D7F4F6093C6008091C00086FFC6
:10E49000FCCF8091C00080648093C0002B30310598
:10E4A00014F43297B4F0C90164E670E00F942EFEC4
:10E4B0006AE070E00F942EFE605D7F4F6093C600AF
:10E4C0008091C00086FFFCCF8091C0008064809363
:10E4D000C000C9016AE070E00F942EFEC0968093E0
:10E4E000C6008091C00086FFFCCF8091C000806490
:10E4F0008093C00008951F93182F8EE692EE60E07F
:10E500000F94C2F11093C6008091C00086FFFCCF2B
:10E510008091C00080648093C0000F94DCF11F9153
:10E5200008952F923F924F925F926F927F928F92B7
:10E530009F92AF92BF92CF92DF92EF92FF920F9392
:10E540001F93DF93CF93CDB7DEB762970FB6F894E2
:10E55000DEBF0FBECDBF382E622ECA01DB015C01CB
:10E560006D01772420E2222E2E010894411C511CBB
:10E570008BC081E0A81680E0B80681E0C80680E084
:10E58000D80628F0C601AA27BB270F940DF2BB2797
:10E59000AD2D9C2D8B2D0F940DF28A2D0F940DF225
:10E5A0002092C6008091C00086FFFCCF8091C00001
:10E5B00080648093C0009DE29093C6008091C0006B
:10E5C00086FFFCCF8091C00080648093C0002092C1
:10E5D000C6008091C00086FFFCCF8091C00080649F
:10E5E0008093C00019828601750188249924A1E0D6
:10E5F0003A1651F03A1620F0B2E03B1661F409C029
:10E600000BBFF701779007C0C7010F9477FE782EF4
:10E6100002C0F7017080872D0F940DF22092C60082
:10E620008091C00086FFFCCF8091C0008064809301
:10E63000C000872D8052F401EF70F0708F3520F408
:10E64000E40DF51D708204C0E40DF51D8EE280839B
:10E650000894E11CF11C011D111D0894811C911CE2
:10E6600090E18916910409F0C2CF80E190E0A0E02A
:10E67000B0E0A80EB91ECA1EDB1E198AC2010F9493
:10E68000FAF10F94DCF16A94662009F072CF629679
:10E690000FB6F894DEBF0FBECDBFCF91DF911F91B3
:10E6A0000F91FF90EF90DF90CF90BF90AF909F9031
:10E6B0008F907F906F905F904F903F902F90089534
:10E6C0002F923F924F925F926F927F928F929F9282
:10E6D000AF92BF92CF92DF92EF92FF920F931F9370
:10E6E000DF93CF93CDB7DEB7CD53D1400FB6F894BB
:10E6F000DEBF0FBECDBF01E20EBF0FEF0DBF94B75F
:10E70000F894A89514BE80916000886180936000A1
:10E7100010926000789493FF05C0E0910002F091A0
:10E7200001021995279A2F9A8091C00082608093E8
:10E73000C00080E18093C40088E18093C1000000A4
:10E74000EE24FF24870144E0A42EB12CCC24DD2448
:10E7500024C0C5010197F1F70894E11CF11C011DCB
:10E76000111D21E2E2162EE4F20620E0020720E06D
:10E77000120718F031E0C32ED12CC801B70127ECE5
:10E780003BE140E050E00F9441FE611571058105C9
:10E79000910519F485B1805885B98091C00087FD35
:10E7A00003C0C114D104A9F2A6014F5F5F4FC25E3E
:10E7B000DE4F59834883CE51D140C25EDE4F8881FF
:10E7C0009981CE51D140019711F00D9410FEC05D9A
:10E7D000DE4F19821882C053D14060E0C15DDE4F28
:10E7E0001882CF52D14088249924C35DDE4F19820C
:10E7F0001882CD52D140C05EDE4F188219821A8233
:10E800001B82C052D140CE5CDE4F188219821A8220
:10E810001B82C253D140EE24FF2487010BBFF701B6
:10E8200007911691C45CDE4F19830883CC53D14005
:10E830000D940BFEC25EDE4F28813981CE51D1404E
:10E840002130310509F52091C600C25EDE4F1982E4
:10E850001882CE51D14022C02F5F3F4F4F4F5F4FA4
:10E86000213082E138078AE7480780E0580780F0C6
:10E87000C45CDE4FE881F981CC53D140EF5FFF4F9C
:10E8800019F0EE27FF27099420E030E040E050E047
:10E890008091C00087FFE0CF2091C600C35DDE4FAE
:10E8A00048815981CD52D1404F5F5F4FC35DDE4FEC
:10E8B00059834883CD52D140213209F063C64A3092
:10E8C000510508F05FC60894811C911C53E0851621
:10E8D000910409F059C600E010E018C081E280936D
:10E8E000C6008091C00086FFFCCF8091C00080648C
:10E8F0008093C0002F5F3F4F2931310579F70F9486
:10E90000DCF10F5F1F4F0530110519F020E030E0FA
:10E91000E5CF10920A0210920B0210920C02109294
:10E920000D02109206021092070210920802109235
:10E930000902109202021092030210920402109235
:10E9400005028FEE90EE60E00F94F5F180E191EE1C
:10E9500060E00F94C2F18091C00087FFFCCF9091DE
:10E96000C600903608F09F759032B8F09093C600BC
:10E970008091C00086FFFCCF8091C00080648093AE
:10E98000C000A0E2A093C6008091C00086FFFCCF2B
:10E990008091C00080648093C000983409F4D7C18E
:10E9A0009934B8F4923409F459C1933458F490333B
:10E9B00019F1903308F4E3C59F33A1F1903409F0C5
:10E9C000DEC5BDC0953409F470C1963409F0D7C5D1
:10E9D00098C1923509F42BC2933538F49C3409F46C
:10E9E000F5C1913509F0CBC518C2963509F445C279
:10E9F000993509F0C4C567C483E792EE62E00F94CD
:10EA0000F5F110920602109207021092080210927D
:10EA1000090210920A0210920B0210920C0210923C
:10EA20000D0213C18FE792EE62E00F94F5F18FEEC5
:10EA300090EE60E00F94F5F181E291EE60E00F94CA
:10EA4000C2F187EB91EE60E00F94F5F180E391EE77
:10EA500060E00F94C2F184EE90EE60E00F94F5F167
:10EA60008FE391EE60E00F94C2F186E090E061E008
:10EA700070E00F9434F20F94DCF18DE591EE60E0DC
:10EA80000F94C2F189EC91EE60E00F94F5F18EE401
:10EA900091EE60E00F94C2F183EC91EE60E00F9490
:10EAA000F5F18CE691EE60E00F94C2F18EE10F94E7
:10EAB0000DF288E90F940DF281E00F940DF20F949E
:10EAC000DCF18BE791EE60E00F94C2F119E0E0E039
:10EAD000F0E010935700E4918E2F0F940DF20F94F5
:10EAE000DCF18AE891EE60E00F94C2F1E3E0F0E03F
:10EAF00010935700E4918E2F0F940DF20F94DCF1D8
:10EB000089E991EE60E00F94C2F1E2E0F0E0109349
:10EB10005700E4918E2F0F940DF20F94DCF188EAE8
:10EB200091EE60E00F94C2F1E1E0F0E01093570045
:10EB30001491812F0F940DF20F94DCF107CF8BE825
:10EB400092EE62E00F94F5F18BE492EE60E00F94A8
:10EB5000F5F10F94DCF100E010E019C0C8016F2D51
:10EB60000F947FFEFF2031F489E492EE60E00F9471
:10EB7000C2F10BC0F092C6008091C00086FFFCCFAE
:10EB80008091C00080648093C0000F5F1F4FC80158
:10EB900081519F41A0E0B0E0ABBFFC01F790BAE229
:10EBA000FB1621F0E2E000301E07C1F60F94DCF105
:10EBB0000F94DCF187E592EE60E00F94F5F10F948D
:10EBC000DCF1CC24DD2400E010E01EC0C8010F946D
:10EBD00077FEF82E882331F489E492EE60E00F94FA
:10EBE000C2F10BC08093C6008091C00086FFFCCFAD
:10EBF0008091C00080648093C000FE1419F00894D6
:10EC0000C11CD11C0F5F1F4FC80181519F41A0E063
:10EC1000B0E0ABBFFC01E790FAE2EF1621F022E092
:10EC20000030120799F60F94DCF10F94DCF182E6C4
:10EC300092EE60E00F94C2F1C60161E070E00F94C3
:10EC400034F20F94DCF10F94DCF110920202109276
:10EC50000302109204021092050278CE89E992EE26
:10EC600062E00F94F5F1279A2F9A16C02F9880E052
:10EC700090E0E0EDF7E03197F1F7019684369105E9
:10EC8000C1F72F9A80E090E0E0EDF7E03197F1F7DF
:10EC9000019684369105C1F78091C00087FFE6CFC9
:10ECA0008091C00087FFFCCF64C485EA92EE62E0E9
:10ECB0000F94F5F140910202509103026091040219
:10ECC0007091050281E020E10F9491F2809102029F
:10ECD00090910302A0910402B091050280509F4FD1
:10ECE000AF4FBF4F8093020290930302A0930402A0
:10ECF000B093050280509041A040B04008F426CE69
:10ED0000A4CF83EB92EE62E00F94F5F140910602FE
:10ED100050910702609108027091090280E020E1A1
:10ED20000F9491F28091060290910702A09108023F
:10ED3000B091090280509F4FAF4FBF4F80930602A2
:10ED400090930702A0930802B0930902FFCD80ECD4
:10ED500092EE62E00F94F5F183E792EE60E00F949B
:10ED6000F5F18FE792EE60E00F94F5F18BE892EE0B
:10ED700060E00F94F5F189E992EE60E00F94F5F10F
:10ED800085EA92EE60E00F94F5F183EB92EE60E09D
:10ED90000F94F5F180EC92EE60E00F94F5F187ECC2
:10EDA00092EE60E00F94F5F188ED92EE60E00F9442
:10EDB000F5F18FED92EE60E00F94F5F18AEE92EEB0
:10EDC00060E00F94F5F183E093EEBDCD87EC92EE19
:10EDD00062E00F94F5F181E40F947BF282E40F94EA
:10EDE0007BF283E40F947BF284E40F947BF285E45E
:10EDF0000F947BF286E40F947BF287E40F947BF20E
:10EE000088E40F947BF28AE40F947BF28BE40F94F6
:10EE10007BF28CE40F947BF299CD88ED92EE62E068
:10EE20000F94F5F1772473948824992409C48FED05
:10EE300092EE62E00F94F5F140910A0250910B02BC
:10EE400060910C0270910D0282E020E10F9491F22A
:10EE500080910A0290910B02A0910C02B0910D02D8
:10EE600080509F4FAF4FBF4F80930A0290930B0289
:10EE7000A0930C02B0930D0269CD8AEE92EE62E08F
:10EE80000F94F5F184EE90EE60E00F94F5F18FECC5
:10EE900091EE60E00F94F5F1662477244301CC5D98
:10EEA000DE4F19821882C452D140D401C301B695F5
:10EEB000A79597958795CA5DDE4F88839983AA8326
:10EEC000BB83C652D140CC5DDE4FA881B981C4520C
:10EED000D1401196CC5DDE4FB983A883C452D14096
:10EEE000CD0162E070E00F9434F2B0E2B093C6005E
:10EEF0008091C00086FFFCCF8091C0008064809329
:10EF0000C000EDE2E093C6008091C00086FFFCCF18
:10EF10008091C00080648093C000F0E2F093C6004E
:10EF20008091C00086FFFCCF8091C00080648093F8
:10EF3000C000CA5DDE4FE880F9800A811B81C6529D
:10EF4000D140BB27A12F902F8F2D0F940DF2CA5DBA
:10EF5000DE4F8881C652D1400F940DF2B0E2FB2EF5
:10EF6000F092C6008091C00086FFFCCF8091C00067
:10EF700080648093C0000DE30093C6008091C000C0
:10EF800086FFFCCF8091C00080648093C00010E2B7
:10EF90001093C6008091C00086FFFCCF8091C00016
:10EFA00080648093C0008BBEF3012791C65DDE4F65
:10EFB0002883CA52D140A22EBB24CC24DD2408943D
:10EFC000611C711C811C911C8BBEF3018791282E42
:10EFD0003324442455240894611C711C811C911C09
:10EFE0008BBEF3013791C55DDE4F3883CB52D140E4
:10EFF0000894611C711C811C911C8BBEF30147910C
:10F00000C45DDE4F4883CC52D140ADEFEA2EAFEF66
:10F01000FA2EAFEF0A2FAFEF1A2F6E0C7F1C801E57
:10F02000911E142D032DF22CEE24EA0CFB1C0C1D5A
:10F030001D1D0F940DF220E22093C6008091C000A8
:10F0400086FFFCCF8091C00080648093C000C65DC5
:10F05000DE4F8881CA52D1400F940DF230E23093D6
:10F06000C6008091C00086FFFCCF8091C000806404
:10F070008093C000C45DDE4F8881CC52D1400F9494
:10F080000DF240E24093C6008091C00086FFFCCFA5
:10F090008091C00080648093C000C55DDE4F888190
:10F0A000CB52D1400F940DF250E25093C6008091A4
:10F0B000C00086FFFCCF8091C00080648093C000B8
:10F0C0008FEFE8168FEFF80680E0080780E018075A
:10F0D00031F484E092EE60E00F94C2F1DFC0D80119
:10F0E000C7018070907CA070B0708050904CA040A0
:10F0F000B040D1F52FEF3FE340E050E0E222F322B1
:10F1000004231523CA5DDE4FA880B980CA80DB8046
:10F11000C652D140AE0CBF1CC01ED11EAA0CBB1CD7
:10F12000CC1CDD1C8EE092EE60E00F94C2F1BB2798
:10F13000A12F902F8F2D0F940DF28E2D0F940DF285
:10F1400030E23093C6008091C00086FFFCCF8091F2
:10F15000C00080648093C0004EE34093C60080915D
:10F16000C00086FFFCCF87C08EE09EEFA0E0B0E03D
:10F17000E822F9220A231B239CE0E91694E9F90608
:10F1800090E0090790E0190709F088C0C45DDE4FE0
:10F19000A881CC52D140EA2EFF2400E010E0102FCD
:10F1A0000F2DFE2CEE24C55DDE4FB881CB52D14031
:10F1B000EB0EF11C011D111DD601C501817090706F
:10F1C000A070B070DC0199278827E80EF91E0A1F8D
:10F1D0001B1F20EF30E040E050E0A222B322C42207
:10F1E000D52241E1AA0CBB1CCC1CDD1C4A95D1F7F1
:10F1F000EA0CFB1C0C1D1D1D81E090E0A0E0B0E0BE
:10F20000282239224A225B2235E1220C331C441C7D
:10F21000551C3A95D1F7E20CF31C041D151D57013E
:10F220006801AA0CBB1CCC1CDD1C85E192EE60E0E1
:10F230000F94C2F1C801AA27BB270F940DF2BB2778
:10F24000A12F902F8F2D0F940DF28E2D0F940DF274
:10F2500090E29093C6008091C00086FFFCCF809121
:10F26000C00080648093C000AEE3A093C60080918C
:10F27000C00086FFFCCF8091C00080648093C000F6
:10F28000C601AA27BB270F940DF2BB27AD2D9C2DDD
:10F290008B2D0F940DF28A2D0F940DF20F94DCF14B
:10F2A000CC5DDE4FE881F981C452D140F99709F471
:10F2B0004DCBF4E0EF2EF12C012D112D6E0C7F1CA7
:10F2C000801E911EF2CD83E093EE62E00F94F5F183
:10F2D0008AE192EE60E00F94C2F18091C00087FF56
:10F2E000FCCF1091C6001F751093C6008091C0001E
:10F2F00086FFFCCF8091C00080648093C0000F9493
:10F30000DCF1812F81548A3108F036C1163409F4BA
:10F3100095C0173490F4133409F44EC0143430F40B
:10F320001134F1F0123409F01DC130C0143409F465
:10F3300059C0153409F016C16BC01A3409F4C4C0A1
:10F340001B3438F4173409F48FC0183409F00AC19B
:10F35000A1C01B3409F4D2C01C3409F003C1E8C0B9
:10F360008FEF81B90DC082B1809582B980E090E0C5
:10F37000E0EDF7E03197F1F70196883C9105C1F790
:10F380008091C00087FFEFCF12B8EFC08FEF84B934
:10F390000DC085B1809585B980E090E0E0EDF7E0A3
:10F3A0003197F1F70196883C9105C1F78091C00033
:10F3B00087FFEFCF15B8D9C08FEF87B90DC088B1DF
:10F3C000809588B980E090E0E0EDF7E03197F1F7C3
:10F3D0000196883C9105C1F78091C00087FFEFCF6F
:10F3E00018B8C3C08FEF8AB90DC08BB180958BB9A7
:10F3F00080E090E0E0EDF7E03197F1F70196883C8E
:10F400009105C1F78091C00087FFEFCF1BB8ADC059
:10F410008FEF8DB90DC08EB180958EB980E090E0F0
:10F42000E0EDF7E03197F1F70196883C9105C1F7DF
:10F430008091C00087FFEFCF1EB897C08FEF80BBD1
:10F440000DC081B3809581BB80E090E0E0EDF7E0F6
:10F450003197F1F70196883C9105C1F78091C00082
:10F4600087FFEFCF11BA81C08FEF83BB0DC084B38C
:10F47000809584BB80E090E0E0EDF7E03197F1F714
:10F480000196883C9105C1F78091C00087FFEFCFBE
:10F4900014BA6BC08FEF809301010FC080910201FD
:10F4A00080958093020180E090E0E0EDF7E03197F5
:10F4B000F1F70196883C9105C1F78091C00087FF64
:10F4C000EDCF1092020151C08FEF809304010FC065
:10F4D0008091050180958093050180E090E0E0ED4A
:10F4E000F7E03197F1F70196883C9105C1F78091DB
:10F4F000C00087FFEDCF1092050137C08FEF8093DA
:10F5000007010FC08091080180958093080180E079
:10F5100090E0E0EDF7E03197F1F70196883C910536
:10F52000C1F78091C00087FFEDCF109208011DC088
:10F530008FEF80930A010FC080910B01809580931B
:10F540000B0180E090E0E0EDF7E03197F1F70196F4
:10F55000883C9105C1F78091C00087FFEDCF1092E4
:10F560000B0103C085E292EEEEC98091C00087FFD7
:10F57000FCCF8091C600EAC988E392EEE4C98CE131
:10F5800091EEE1C988249924933011F1943028F444
:10F59000913089F09230B8F408C0953061F195301F
:10F5A000F0F0963009F048C043C02B3109F042C951
:10F5B00091E06BE13FC96227C15DDE4F2883CF52E6
:10F5C000D14092E037C9B22FA0E0622793E032C960
:10F5D000822F90E0A82BB92B622794E02BC92E3004
:10F5E00009F039C3622795E0C05DDE4F19821882A9
:10F5F000C053D1401FC9E1E0F0E0EC0FFD1FC05D3A
:10F60000DE4F08811981C053D140E00FF11F2083E4
:10F610000F5F1F4FC05DDE4F19830883C053D14079
:10F6200062270A171B0709F005C9D80196E002C92D
:10F63000261709F010C303C0973009F0FBC87724E0
:10F640009981933109F412C19431C8F4963009F4C8
:10F65000D8C0973050F4923009F406C1933009F4C1
:10F660006DC0913009F059C253C0913109F477C08F
:10F67000923108F0BBC0903109F04FC2F5C098310B
:10F6800009F487C0993150F4953109F4EFC09531F0
:10F6900008F4C6C1963109F040C2C2C19A3109F4DA
:10F6A0006CC09A3108F491C09B3109F45BC09D3164
:10F6B00009F033C29D81903359F48F81882311F46E
:10F6C0009EE11CC0813011F091E018C098E916C08D
:10F6D000892F807591F0903539F4E0E0F0E089E011
:10F6E0008093570094910AC0983539F4E3E0F0E034
:10F6F00089E080935700949101C090E01A821B82A8
:10F700008D818C831D829E831F8227E030E009C299
:10F710001A8288E08B8381E48C8386E58D8382E581
:10F720008E8389E48F8383E5888780E589878FE5E9
:10F730008A8782E38B872BE030E0F3C18A818139AD
:10F7400041F0823941F0803911F48FE005C080E04A
:10F7500003C082E001C08AE01A828B8344C0772410
:10F76000739482C08D81882311F48EE12CC0813086
:10F7700011F081E028C088E926C01A82E1E0F0E0BB
:10F7800089E08093570084918B831C8224E030E0D1
:10F79000C8C18B81803589F48C81883039F4E2E0EE
:10F7A000F0E089E08093570084910DC0E0E0F0E044
:10F7B00089E080935700849106C0E3E0F0E089E09F
:10F7C0008093570084911A82DFCF8D81836C99E0FA
:10F7D000E1E0F0E0082E90935700E89507B600FCB2
:10F7E000FDCF1A821B8223E030E09BC180EC8A832C
:10F7F000CE5CDE4F188219821A821B82C253D1401E
:10F800008EC18A8190E0A0E0B0E0582F44273327D2
:10F8100022278B8190E0A0E0B0E0DC0199278827C7
:10F82000282B392B4A2B5B2B8D8190E0A0E0B0E098
:10F83000282B392B4A2B5B2B8C8190E0A0E0B0E089
:10F84000BA2FA92F982F8827282B392B4A2B5B2BCF
:10F85000220F331F441F551FC05EDE4F288339839C
:10F860004A835B83C052D1401A8259C13A81C95C34
:10F87000DE4F3883C753D140CA5CDE4F1882C6536F
:10F88000D1408B81C82EDD24CA5CDE4F488159816E
:10F89000C653D140C42AD52A933109F082C0CE5C28
:10F8A000DE4F88819981AA81BB81C253D1408050AB
:10F8B000904CA340B04030F583E0CE5CDE4FE88052
:10F8C000F9800A811B81C253D140F70100935B008C
:10F8D00080935700E89507B600FCFDCFCE5CDE4F65
:10F8E000088119812A813B81C253D14000501F4FAA
:10F8F0002F4F3F4FCE5CDE4F088319832A833B8313
:10F90000C253D140C05EDE4F488159816A817B81FC
:10F91000C052D140DE011B9631E08C9111962C91A2
:10F9200011971296C75CDE4F2883C953D140C85C3B
:10F93000DE4F1882C853D14090E0C85CDE4FE881AA
:10F94000F981C853D1408E2B9F2B0C01FA01609393
:10F950005B0030935700E89511244E5F5F4F6F4F67
:10F960007F4F0EEFE02E0FEFF02ECE0CDF1CC114F8
:10F97000D10499F685E0C05EDE4F088119812A81A5
:10F980003B81C052D140F80120935B008093570027
:10F99000E89507B600FCFDCF81E180935700E8951C
:10F9A00035C0C05EDE4F88819981AA81BB81C0527B
:10F9B000D140B695A795979587957C018601ABE0D8
:10F9C000AA2EB12CAC0EBD1E0BC0D5016D915D01F0
:10F9D000C7010F947FFE0894E11CF11C01501040F8
:10F9E0000115110591F7A60160E070E0440F551F65
:10F9F000661F771FC05EDE4FE880F9800A811B8199
:10FA0000C052D1404E0D5F1D601F711F1A82C05E33
:10FA1000DE4F488359836A837B83C052D1407FC0C5
:10FA2000FA80C55CDE4FF882CB53D140C65CDE4F16
:10FA30001882CA53D1408B81C82EDD24C65CDE4FAC
:10FA400008811981CA53D140C02AD12A1A828981DA
:10FA5000BE016D5F7F4F843121F59601C05EDE4FA0
:10FA6000E880F9800A811B81C052D1400BBFF701A9
:10FA700087919691DB018C9311969C936E5F7F4FDB
:10FA8000D801C7010296A11DB11DC05EDE4F88835B
:10FA90009983AA83BB83C052D14022503040F1F6F3
:10FAA00036C0C05EDE4F288139814A815B81C052F9
:10FAB000D1400894C108D108760100E010E0089414
:10FAC000C11CD11C0894E11CF11C011D111DE20E8A
:10FAD000F31E041F151F21BDBB27A52F942F832FB5
:10FAE00082BD2F5F3F4F4F4F5F4FF89A80B5DB01CC
:10FAF0008D93BD012E153F054007510761F7C05E8C
:10FB0000DE4F288339834A835B83C052D1409601FC
:10FB10002D5F3F4FFB01108204C080EC8A8322E0FE
:10FB200030E08BE18093C6008091C00086FFFCCF5F
:10FB30008091C00080648093C000C15DDE4FF88179
:10FB4000CF52D140F093C6008091C00086FFFCCF19
:10FB50008091C00080648093C000432F3093C60022
:10FB60008091C00086FFFCCF8091C00080648093AC
:10FB7000C000922F2093C6008091C00086FFFCCF6A
:10FB80008091C00080648093C0008EE08093C600A6
:10FB90008091C00086FFFCCF8091C000806480937C
:10FBA000C00065E1C15DDE4FE880CF52D1406E25D7
:10FBB00069276427FE01319610C090819093C6009A
:10FBC0008091C00086FFFCCF31968091C000806498
:10FBD0008093C0006927215030402115310569F715
:10FBE0006093C6008091C00086FFFCCF8091C0006A
:10FBF00080648093C00085B1805885B9772081F4F6
:10FC0000C15DDE4F0881CF52D1400F5FC15DDE4F35
:10FC10000883CF52D14090E0A0E0B0E00D941AF4F8
:10FC200027982F9880E090E020ED37E0F901319798
:10FC3000F1F7019684369105C9F700008091C00064
:10FC40008D7F8093C00081E180935700E895EE2777
:10FC5000FF270994FFCF90E00D941AF497FB092E2B
:10FC600007260AD077FD04D02ED006D000201AF443
:10FC7000709561957F4F0895F6F7909581959F4F08
:10FC80000895A1E21A2EAA1BBB1BFD010DC0AA1FDD
:10FC9000BB1FEE1FFF1FA217B307E407F50720F0F5
:10FCA000A21BB30BE40BF50B661F771F881F991F70
:10FCB0001A9469F760957095809590959B01AC01B9
:10FCC000BD01CF010895AA1BBB1B51E107C0AA1FAC
:10FCD000BB1FA617B70710F0A61BB70B881F991FED
:10FCE0005A95A9F780959095BC01CD010895F99991
:10FCF000FECF92BD81BDF89A992780B50895262F31
:10FD0000F999FECF1FBA92BD81BD20BD0FB6F89400
:0EFD1000FA9AF99A0FBE01960895F894FFCF63
:040000033000E000E9
:00000001FF